{
  "_format": "hh-sol-artifact-1",
  "contractName": "GameNftFactory",
  "sourceName": "contracts/GameNftFactory.sol",
  "abi": [
    {
      "inputs": [],
      "stateMutability": "nonpayable",
      "type": "constructor"
    },
    {
      "inputs": [],
      "name": "ERC1167FailedCreateClone",
      "type": "error"
    },
    {
      "inputs": [],
      "name": "InvalidInitialization",
      "type": "error"
    },
    {
      "inputs": [],
      "name": "NotInitializing",
      "type": "error"
    },
    {
      "inputs": [
        {
          "internalType": "address",
          "name": "owner",
          "type": "address"
        }
      ],
      "name": "OwnableInvalidOwner",
      "type": "error"
    },
    {
      "inputs": [
        {
          "internalType": "address",
          "name": "account",
          "type": "address"
        }
      ],
      "name": "OwnableUnauthorizedAccount",
      "type": "error"
    },
    {
      "anonymous": false,
      "inputs": [
        {
          "indexed": false,
          "internalType": "uint64",
          "name": "version",
          "type": "uint64"
        }
      ],
      "name": "Initialized",
      "type": "event"
    },
    {
      "anonymous": false,
      "inputs": [
        {
          "indexed": true,
          "internalType": "address",
          "name": "nft",
          "type": "address"
        },
        {
          "indexed": false,
          "internalType": "string",
          "name": "gameId",
          "type": "string"
        },
        {
          "indexed": false,
          "internalType": "string",
          "name": "name",
          "type": "string"
        },
        {
          "indexed": false,
          "internalType": "string",
          "name": "symbol",
          "type": "string"
        }
      ],
      "name": "NftCreated",
      "type": "event"
    },
    {
      "anonymous": false,
      "inputs": [
        {
          "indexed": true,
          "internalType": "address",
          "name": "previousOwner",
          "type": "address"
        },
        {
          "indexed": true,
          "internalType": "address",
          "name": "newOwner",
          "type": "address"
        }
      ],
      "name": "OwnershipTransferred",
      "type": "event"
    },
    {
      "inputs": [
        {
          "internalType": "address[]",
          "name": "_nft",
          "type": "address[]"
        },
        {
          "internalType": "uint256[]",
          "name": "_tokenId",
          "type": "uint256[]"
        }
      ],
      "name": "batchBurn",
      "outputs": [],
      "stateMutability": "nonpayable",
      "type": "function"
    },
    {
      "inputs": [
        {
          "internalType": "address[]",
          "name": "_nft",
          "type": "address[]"
        },
        {
          "internalType": "uint256[]",
          "name": "_tokenId",
          "type": "uint256[]"
        }
      ],
      "name": "batchBurnRemote",
      "outputs": [],
      "stateMutability": "nonpayable",
      "type": "function"
    },
    {
      "inputs": [
        {
          "internalType": "address[]",
          "name": "_nft",
          "type": "address[]"
        },
        {
          "internalType": "address[]",
          "name": "_from",
          "type": "address[]"
        },
        {
          "internalType": "address[]",
          "name": "_to",
          "type": "address[]"
        },
        {
          "internalType": "uint256[]",
          "name": "_tokenId",
          "type": "uint256[]"
        }
      ],
      "name": "batchGameTransfer",
      "outputs": [],
      "stateMutability": "nonpayable",
      "type": "function"
    },
    {
      "inputs": [
        {
          "internalType": "address[]",
          "name": "_nft",
          "type": "address[]"
        },
        {
          "internalType": "address[]",
          "name": "_from",
          "type": "address[]"
        },
        {
          "internalType": "address[]",
          "name": "_to",
          "type": "address[]"
        },
        {
          "internalType": "uint256[]",
          "name": "_tokenId",
          "type": "uint256[]"
        }
      ],
      "name": "batchGameTransferRemote",
      "outputs": [],
      "stateMutability": "nonpayable",
      "type": "function"
    },
    {
      "inputs": [
        {
          "internalType": "address[]",
          "name": "_nft",
          "type": "address[]"
        },
        {
          "internalType": "address[]",
          "name": "_to",
          "type": "address[]"
        },
        {
          "internalType": "string[]",
          "name": "_tokenURI",
          "type": "string[]"
        }
      ],
      "name": "batchMint",
      "outputs": [],
      "stateMutability": "nonpayable",
      "type": "function"
    },
    {
      "inputs": [
        {
          "internalType": "address[]",
          "name": "_nft",
          "type": "address[]"
        },
        {
          "internalType": "address[]",
          "name": "_to",
          "type": "address[]"
        },
        {
          "internalType": "string[]",
          "name": "_tokenURI",
          "type": "string[]"
        }
      ],
      "name": "batchMintRemote",
      "outputs": [],
      "stateMutability": "nonpayable",
      "type": "function"
    },
    {
      "inputs": [
        {
          "internalType": "address",
          "name": "_nft",
          "type": "address"
        },
        {
          "internalType": "uint256",
          "name": "_tokenId",
          "type": "uint256"
        }
      ],
      "name": "burn",
      "outputs": [],
      "stateMutability": "nonpayable",
      "type": "function"
    },
    {
      "inputs": [
        {
          "internalType": "address",
          "name": "_implementation",
          "type": "address"
        }
      ],
      "name": "configNftImplementation",
      "outputs": [],
      "stateMutability": "nonpayable",
      "type": "function"
    },
    {
      "inputs": [
        {
          "internalType": "address",
          "name": "_operator",
          "type": "address"
        }
      ],
      "name": "configOperator",
      "outputs": [],
      "stateMutability": "nonpayable",
      "type": "function"
    },
    {
      "inputs": [
        {
          "internalType": "address",
          "name": "_relayer",
          "type": "address"
        }
      ],
      "name": "configRelayer",
      "outputs": [],
      "stateMutability": "nonpayable",
      "type": "function"
    },
    {
      "inputs": [
        {
          "internalType": "bytes32",
          "name": "_remoteBlockchainId",
          "type": "bytes32"
        }
      ],
      "name": "configRemoteBlockchainId",
      "outputs": [],
      "stateMutability": "nonpayable",
      "type": "function"
    },
    {
      "inputs": [
        {
          "internalType": "address",
          "name": "_remoteFactory",
          "type": "address"
        }
      ],
      "name": "configRemoteFactory",
      "outputs": [],
      "stateMutability": "nonpayable",
      "type": "function"
    },
    {
      "inputs": [
        {
          "internalType": "uint256",
          "name": "_remoteGasLimit",
          "type": "uint256"
        }
      ],
      "name": "configRemoteGasLimit",
      "outputs": [],
      "stateMutability": "nonpayable",
      "type": "function"
    },
    {
      "inputs": [
        {
          "internalType": "address",
          "name": "_teleporterMessenger",
          "type": "address"
        }
      ],
      "name": "configTeleporterMessenger",
      "outputs": [],
      "stateMutability": "nonpayable",
      "type": "function"
    },
    {
      "inputs": [
        {
          "internalType": "string",
          "name": "_gameId",
          "type": "string"
        },
        {
          "internalType": "string",
          "name": "_name",
          "type": "string"
        },
        {
          "internalType": "string",
          "name": "_symbol",
          "type": "string"
        },
        {
          "internalType": "bool",
          "name": "_isSoulBind",
          "type": "bool"
        }
      ],
      "name": "createNft",
      "outputs": [],
      "stateMutability": "nonpayable",
      "type": "function"
    },
    {
      "inputs": [
        {
          "internalType": "string",
          "name": "_gameId",
          "type": "string"
        },
        {
          "internalType": "string",
          "name": "_name",
          "type": "string"
        },
        {
          "internalType": "string",
          "name": "_symbol",
          "type": "string"
        },
        {
          "internalType": "bool",
          "name": "_isSoulBind",
          "type": "bool"
        }
      ],
      "name": "createNftRemote",
      "outputs": [],
      "stateMutability": "nonpayable",
      "type": "function"
    },
    {
      "inputs": [
        {
          "internalType": "address",
          "name": "_nft",
          "type": "address"
        },
        {
          "internalType": "address",
          "name": "_from",
          "type": "address"
        },
        {
          "internalType": "address",
          "name": "_to",
          "type": "address"
        },
        {
          "internalType": "uint256",
          "name": "_tokenId",
          "type": "uint256"
        }
      ],
      "name": "gameTransfer",
      "outputs": [],
      "stateMutability": "nonpayable",
      "type": "function"
    },
    {
      "inputs": [
        {
          "internalType": "address",
          "name": "_implementation",
          "type": "address"
        },
        {
          "internalType": "address",
          "name": "_owner",
          "type": "address"
        },
        {
          "internalType": "address",
          "name": "_operator",
          "type": "address"
        }
      ],
      "name": "initialize",
      "outputs": [],
      "stateMutability": "nonpayable",
      "type": "function"
    },
    {
      "inputs": [
        {
          "internalType": "address",
          "name": "_nft",
          "type": "address"
        },
        {
          "internalType": "address",
          "name": "_to",
          "type": "address"
        },
        {
          "internalType": "string",
          "name": "_tokenURI",
          "type": "string"
        }
      ],
      "name": "mint",
      "outputs": [],
      "stateMutability": "nonpayable",
      "type": "function"
    },
    {
      "inputs": [
        {
          "internalType": "address",
          "name": "",
          "type": "address"
        }
      ],
      "name": "nftGameId",
      "outputs": [
        {
          "internalType": "string",
          "name": "",
          "type": "string"
        }
      ],
      "stateMutability": "view",
      "type": "function"
    },
    {
      "inputs": [
        {
          "internalType": "address",
          "name": "_nft",
          "type": "address"
        }
      ],
      "name": "nftHolderCount",
      "outputs": [
        {
          "internalType": "uint256",
          "name": "",
          "type": "uint256"
        }
      ],
      "stateMutability": "view",
      "type": "function"
    },
    {
      "inputs": [],
      "name": "nftImplementation",
      "outputs": [
        {
          "internalType": "address",
          "name": "",
          "type": "address"
        }
      ],
      "stateMutability": "view",
      "type": "function"
    },
    {
      "inputs": [
        {
          "internalType": "address",
          "name": "_nft",
          "type": "address"
        }
      ],
      "name": "nftInfo",
      "outputs": [
        {
          "internalType": "address",
          "name": "tokenAddress",
          "type": "address"
        },
        {
          "internalType": "string",
          "name": "gameId",
          "type": "string"
        },
        {
          "internalType": "string",
          "name": "name",
          "type": "string"
        },
        {
          "internalType": "string",
          "name": "symbol",
          "type": "string"
        },
        {
          "internalType": "uint256",
          "name": "totalSupply",
          "type": "uint256"
        },
        {
          "internalType": "uint256",
          "name": "holderCount",
          "type": "uint256"
        }
      ],
      "stateMutability": "view",
      "type": "function"
    },
    {
      "inputs": [
        {
          "internalType": "uint256",
          "name": "",
          "type": "uint256"
        }
      ],
      "name": "nfts",
      "outputs": [
        {
          "internalType": "address",
          "name": "",
          "type": "address"
        }
      ],
      "stateMutability": "view",
      "type": "function"
    },
    {
      "inputs": [],
      "name": "operator",
      "outputs": [
        {
          "internalType": "address",
          "name": "",
          "type": "address"
        }
      ],
      "stateMutability": "view",
      "type": "function"
    },
    {
      "inputs": [],
      "name": "owner",
      "outputs": [
        {
          "internalType": "address",
          "name": "",
          "type": "address"
        }
      ],
      "stateMutability": "view",
      "type": "function"
    },
    {
      "inputs": [
        {
          "internalType": "bytes32",
          "name": "sourceBlockchainID",
          "type": "bytes32"
        },
        {
          "internalType": "address",
          "name": "originSenderAddress",
          "type": "address"
        },
        {
          "internalType": "bytes",
          "name": "message",
          "type": "bytes"
        }
      ],
      "name": "receiveTeleporterMessage",
      "outputs": [],
      "stateMutability": "nonpayable",
      "type": "function"
    },
    {
      "inputs": [],
      "name": "relayer",
      "outputs": [
        {
          "internalType": "address",
          "name": "",
          "type": "address"
        }
      ],
      "stateMutability": "view",
      "type": "function"
    },
    {
      "inputs": [],
      "name": "remoteBlockchainId",
      "outputs": [
        {
          "internalType": "bytes32",
          "name": "",
          "type": "bytes32"
        }
      ],
      "stateMutability": "view",
      "type": "function"
    },
    {
      "inputs": [],
      "name": "remoteFactory",
      "outputs": [
        {
          "internalType": "address",
          "name": "",
          "type": "address"
        }
      ],
      "stateMutability": "view",
      "type": "function"
    },
    {
      "inputs": [],
      "name": "remoteGasLimit",
      "outputs": [
        {
          "internalType": "uint256",
          "name": "",
          "type": "uint256"
        }
      ],
      "stateMutability": "view",
      "type": "function"
    },
    {
      "inputs": [],
      "name": "renounceOwnership",
      "outputs": [],
      "stateMutability": "nonpayable",
      "type": "function"
    },
    {
      "inputs": [],
      "name": "teleporterMessenger",
      "outputs": [
        {
          "internalType": "contract ITeleporterMessenger",
          "name": "",
          "type": "address"
        }
      ],
      "stateMutability": "view",
      "type": "function"
    },
    {
      "inputs": [],
      "name": "totalNftCount",
      "outputs": [
        {
          "internalType": "uint256",
          "name": "",
          "type": "uint256"
        }
      ],
      "stateMutability": "view",
      "type": "function"
    },
    {
      "inputs": [
        {
          "internalType": "address",
          "name": "newOwner",
          "type": "address"
        }
      ],
      "name": "transferOwnership",
      "outputs": [],
      "stateMutability": "nonpayable",
      "type": "function"
    }
  ],
  "bytecode": "0x60806040523480156200001157600080fd5b50620000226200002860201b60201c565b6200019c565b60006200003a6200013260201b60201c565b90508060000160089054906101000a900460ff161562000086576040517ff92ee8a900000000000000000000000000000000000000000000000000000000815260040160405180910390fd5b67ffffffffffffffff80168160000160009054906101000a900467ffffffffffffffff1667ffffffffffffffff16146200012f5767ffffffffffffffff8160000160006101000a81548167ffffffffffffffff021916908367ffffffffffffffff1602179055507fc7f505b2f371ae2175ee4913f4499e1f2633a7b5936321eed1cdaeb6115181d267ffffffffffffffff6040516200012691906200017f565b60405180910390a15b50565b60007ff0c57e16840df040f15088dc2f81fe391c3923bec73e23a9662efc9c229c6a00905090565b600067ffffffffffffffff82169050919050565b62000179816200015a565b82525050565b60006020820190506200019660008301846200016e565b92915050565b614c6d80620001ac6000396000f3fe608060405234801561001057600080fd5b50600436106102115760003560e01c80638406c07911610125578063c0aa7128116100ad578063ea8ebd9e1161007c578063ea8ebd9e1461059b578063eaba0d51146105cb578063f2fde38b146105e7578063f61ac58b14610603578063fb78a1a91461062157610211565b8063c0aa712814610512578063c0c53b8b1461052e578063c868efaa1461054a578063e9545b921461056657610211565b806393c85fea116100f457806393c85fea146104845780639b3e5803146104a05780639dc29fac146104be578063a9978e76146104da578063b983ab00146104f657610211565b80638406c079146103fa5780638b0cb500146104185780638da5cb5b146104485780638ee65a941461046657610211565b8063376deb36116101a8578063570ca73511610177578063570ca7351461037e5780635bc741981461039c5780635cb3fd3b146103b8578063715018a6146103d45780637b4d9c2b146103de57610211565b8063376deb361461030c578063399733f3146103285780634a6cc677146103465780634ccd8cad1461036257610211565b8063221375a6116101e4578063221375a614610286578063265aa621146102a2578063272ff9c0146102d2578063306e4b17146102f057610211565b80630fffc9731461021657806311aa1b911461023257806315ae1ee21461024e57806317db146e1461026a575b600080fd5b610230600480360381019061022b9190612e4d565b61063f565b005b61024c60048036038101906102479190612e4d565b61091e565b005b61026860048036038101906102639190612fed565b6109be565b005b610284600480360381019061027f91906130fa565b610a60565b005b6102a0600480360381019061029b9190613127565b610a72565b005b6102bc60048036038101906102b79190613196565b610b86565b6040516102c991906131d2565b60405180910390f35b6102da610bb9565b6040516102e791906131fc565b60405180910390f35b61030a60048036038101906103059190612fed565b610bbf565b005b61032660048036038101906103219190613217565b610ea1565b005b610330610eed565b60405161033d9190613253565b60405180910390f35b610360600480360381019061035b919061326e565b610ef3565b005b61037c60048036038101906103779190613217565b610f91565b005b610386610fdc565b60405161039391906131d2565b60405180910390f35b6103b660048036038101906103b1919061331e565b611002565b005b6103d260048036038101906103cd9190613196565b6112e3565b005b6103dc6112f5565b005b6103f860048036038101906103f39190613217565b611309565b005b610402611355565b60405161040f91906131d2565b60405180910390f35b610432600480360381019061042d9190613217565b61137b565b60405161043f9190613458565b60405180910390f35b61045061141b565b60405161045d91906131d2565b60405180910390f35b61046e611453565b60405161047b91906131fc565b60405180910390f35b61049e6004803603810190610499919061347a565b611459565b005b6104a861155e565b6040516104b59190613540565b60405180910390f35b6104d860048036038101906104d3919061355b565b611584565b005b6104f460048036038101906104ef919061331e565b611683565b005b610510600480360381019061050b919061326e565b611725565b005b61052c60048036038101906105279190613217565b611a01565b005b6105486004803603810190610543919061359b565b611a4d565b005b610564600480360381019061055f9190613649565b611c5f565b005b610580600480360381019061057b9190613217565b611f5b565b604051610592969594939291906136bd565b60405180910390f35b6105b560048036038101906105b09190613217565b6121a6565b6040516105c291906131fc565b60405180910390f35b6105e560048036038101906105e09190613217565b61221e565b005b61060160048036038101906105fc9190613217565b61226a565b005b61060b6122f0565b60405161061891906131d2565b60405180910390f35b610629612314565b60405161063691906131d2565b60405180910390f35b600160009054906101000a900473ffffffffffffffffffffffffffffffffffffffff1673ffffffffffffffffffffffffffffffffffffffff163373ffffffffffffffffffffffffffffffffffffffff16146106cf576040517f08c379a00000000000000000000000000000000000000000000000000000000081526004016106c6906137a5565b60405180910390fd5b60008383836040516020016106e69392919061398f565b6040516020818303038152906040529050600060018260405160200161070d929190613aa7565b60405160208183030381529060405290506000600167ffffffffffffffff81111561073b5761073a612b16565b5b6040519080825280602002602001820160405280156107695781602001602082028036833780820191505090505b509050600660009054906101000a900473ffffffffffffffffffffffffffffffffffffffff16816000815181106107a3576107a2613ad7565b5b602002602001019073ffffffffffffffffffffffffffffffffffffffff16908173ffffffffffffffffffffffffffffffffffffffff168152505060006040518060c001604052806008548152602001600760009054906101000a900473ffffffffffffffffffffffffffffffffffffffff1673ffffffffffffffffffffffffffffffffffffffff1681526020016040518060400160405280600073ffffffffffffffffffffffffffffffffffffffff168152602001600081525081526020016009548152602001838152602001848152509050600560009054906101000a900473ffffffffffffffffffffffffffffffffffffffff1673ffffffffffffffffffffffffffffffffffffffff166362448850826040518263ffffffff1660e01b81526004016108d19190613c9c565b6020604051808303816000875af11580156108f0573d6000803e3d6000fd5b505050506040513d601f19601f820116820180604052508101906109149190613cd3565b5050505050505050565b600160009054906101000a900473ffffffffffffffffffffffffffffffffffffffff1673ffffffffffffffffffffffffffffffffffffffff163373ffffffffffffffffffffffffffffffffffffffff16146109ae576040517f08c379a00000000000000000000000000000000000000000000000000000000081526004016109a5906137a5565b60405180910390fd5b6109b983838361233a565b505050565b600160009054906101000a900473ffffffffffffffffffffffffffffffffffffffff1673ffffffffffffffffffffffffffffffffffffffff163373ffffffffffffffffffffffffffffffffffffffff1614610a4e576040517f08c379a0000000000000000000000000000000000000000000000000000000008152600401610a45906137a5565b60405180910390fd5b610a5a84848484612426565b50505050565b610a6861251d565b8060088190555050565b600160009054906101000a900473ffffffffffffffffffffffffffffffffffffffff1673ffffffffffffffffffffffffffffffffffffffff163373ffffffffffffffffffffffffffffffffffffffff1614610b02576040517f08c379a0000000000000000000000000000000000000000000000000000000008152600401610af9906137a5565b60405180910390fd5b8273ffffffffffffffffffffffffffffffffffffffff1663d0def52183836040518363ffffffff1660e01b8152600401610b3d929190613d00565b6020604051808303816000875af1158015610b5c573d6000803e3d6000fd5b505050506040513d601f19601f82011682018060405250810190610b809190613d45565b50505050565b60046020528060005260406000206000915054906101000a900473ffffffffffffffffffffffffffffffffffffffff1681565b60025481565b600160009054906101000a900473ffffffffffffffffffffffffffffffffffffffff1673ffffffffffffffffffffffffffffffffffffffff163373ffffffffffffffffffffffffffffffffffffffff1614610c4f576040517f08c379a0000000000000000000000000000000000000000000000000000000008152600401610c46906137a5565b60405180910390fd5b600084848484604051602001610c689493929190613e21565b60405160208183030381529060405290506000600382604051602001610c8f929190613aa7565b60405160208183030381529060405290506000600167ffffffffffffffff811115610cbd57610cbc612b16565b5b604051908082528060200260200182016040528015610ceb5781602001602082028036833780820191505090505b509050600660009054906101000a900473ffffffffffffffffffffffffffffffffffffffff1681600081518110610d2557610d24613ad7565b5b602002602001019073ffffffffffffffffffffffffffffffffffffffff16908173ffffffffffffffffffffffffffffffffffffffff168152505060006040518060c001604052806008548152602001600760009054906101000a900473ffffffffffffffffffffffffffffffffffffffff1673ffffffffffffffffffffffffffffffffffffffff1681526020016040518060400160405280600073ffffffffffffffffffffffffffffffffffffffff168152602001600081525081526020016009548152602001838152602001848152509050600560009054906101000a900473ffffffffffffffffffffffffffffffffffffffff1673ffffffffffffffffffffffffffffffffffffffff166362448850826040518263ffffffff1660e01b8152600401610e539190613c9c565b6020604051808303816000875af1158015610e72573d6000803e3d6000fd5b505050506040513d601f19601f82011682018060405250810190610e969190613cd3565b505050505050505050565b610ea961251d565b80600760006101000a81548173ffffffffffffffffffffffffffffffffffffffff021916908373ffffffffffffffffffffffffffffffffffffffff16021790555050565b60085481565b600160009054906101000a900473ffffffffffffffffffffffffffffffffffffffff1673ffffffffffffffffffffffffffffffffffffffff163373ffffffffffffffffffffffffffffffffffffffff1614610f83576040517f08c379a0000000000000000000000000000000000000000000000000000000008152600401610f7a906137a5565b60405180910390fd5b610f8d82826125a4565b5050565b610f9961251d565b806000806101000a81548173ffffffffffffffffffffffffffffffffffffffff021916908373ffffffffffffffffffffffffffffffffffffffff16021790555050565b600160009054906101000a900473ffffffffffffffffffffffffffffffffffffffff1681565b600160009054906101000a900473ffffffffffffffffffffffffffffffffffffffff1673ffffffffffffffffffffffffffffffffffffffff163373ffffffffffffffffffffffffffffffffffffffff1614611092576040517f08c379a0000000000000000000000000000000000000000000000000000000008152600401611089906137a5565b60405180910390fd5b6000848484846040516020016110ab9493929190613e91565b6040516020818303038152906040529050600080826040516020016110d1929190613aa7565b60405160208183030381529060405290506000600167ffffffffffffffff8111156110ff576110fe612b16565b5b60405190808252806020026020018201604052801561112d5781602001602082028036833780820191505090505b509050600660009054906101000a900473ffffffffffffffffffffffffffffffffffffffff168160008151811061116757611166613ad7565b5b602002602001019073ffffffffffffffffffffffffffffffffffffffff16908173ffffffffffffffffffffffffffffffffffffffff168152505060006040518060c001604052806008548152602001600760009054906101000a900473ffffffffffffffffffffffffffffffffffffffff1673ffffffffffffffffffffffffffffffffffffffff1681526020016040518060400160405280600073ffffffffffffffffffffffffffffffffffffffff168152602001600081525081526020016009548152602001838152602001848152509050600560009054906101000a900473ffffffffffffffffffffffffffffffffffffffff1673ffffffffffffffffffffffffffffffffffffffff166362448850826040518263ffffffff1660e01b81526004016112959190613c9c565b6020604051808303816000875af11580156112b4573d6000803e3d6000fd5b505050506040513d601f19601f820116820180604052508101906112d89190613cd3565b505050505050505050565b6112eb61251d565b8060098190555050565b6112fd61251d565b6113076000612661565b565b61131161251d565b80600560006101000a81548173ffffffffffffffffffffffffffffffffffffffff021916908373ffffffffffffffffffffffffffffffffffffffff16021790555050565b600660009054906101000a900473ffffffffffffffffffffffffffffffffffffffff1681565b6003602052806000526040600020600091509050805461139a90613f1a565b80601f01602080910402602001604051908101604052809291908181526020018280546113c690613f1a565b80156114135780601f106113e857610100808354040283529160200191611413565b820191906000526020600020905b8154815290600101906020018083116113f657829003601f168201915b505050505081565b600080611426612738565b90508060000160009054906101000a900473ffffffffffffffffffffffffffffffffffffffff1691505090565b60095481565b600160009054906101000a900473ffffffffffffffffffffffffffffffffffffffff1673ffffffffffffffffffffffffffffffffffffffff163373ffffffffffffffffffffffffffffffffffffffff16146114e9576040517f08c379a00000000000000000000000000000000000000000000000000000000081526004016114e0906137a5565b60405180910390fd5b8373ffffffffffffffffffffffffffffffffffffffff166362252bc38484846040518463ffffffff1660e01b815260040161152693929190613f4b565b600060405180830381600087803b15801561154057600080fd5b505af1158015611554573d6000803e3d6000fd5b5050505050505050565b600560009054906101000a900473ffffffffffffffffffffffffffffffffffffffff1681565b600160009054906101000a900473ffffffffffffffffffffffffffffffffffffffff1673ffffffffffffffffffffffffffffffffffffffff163373ffffffffffffffffffffffffffffffffffffffff1614611614576040517f08c379a000000000000000000000000000000000000000000000000000000000815260040161160b906137a5565b60405180910390fd5b8173ffffffffffffffffffffffffffffffffffffffff166342966c68826040518263ffffffff1660e01b815260040161164d91906131fc565b600060405180830381600087803b15801561166757600080fd5b505af115801561167b573d6000803e3d6000fd5b505050505050565b600160009054906101000a900473ffffffffffffffffffffffffffffffffffffffff1673ffffffffffffffffffffffffffffffffffffffff163373ffffffffffffffffffffffffffffffffffffffff1614611713576040517f08c379a000000000000000000000000000000000000000000000000000000000815260040161170a906137a5565b60405180910390fd5b61171f84848484612760565b50505050565b600160009054906101000a900473ffffffffffffffffffffffffffffffffffffffff1673ffffffffffffffffffffffffffffffffffffffff163373ffffffffffffffffffffffffffffffffffffffff16146117b5576040517f08c379a00000000000000000000000000000000000000000000000000000000081526004016117ac906137a5565b60405180910390fd5b600082826040516020016117ca929190613f82565b604051602081830303815290604052905060006002826040516020016117f1929190613aa7565b60405160208183030381529060405290506000600167ffffffffffffffff81111561181f5761181e612b16565b5b60405190808252806020026020018201604052801561184d5781602001602082028036833780820191505090505b509050600660009054906101000a900473ffffffffffffffffffffffffffffffffffffffff168160008151811061188757611886613ad7565b5b602002602001019073ffffffffffffffffffffffffffffffffffffffff16908173ffffffffffffffffffffffffffffffffffffffff168152505060006040518060c001604052806008548152602001600760009054906101000a900473ffffffffffffffffffffffffffffffffffffffff1673ffffffffffffffffffffffffffffffffffffffff1681526020016040518060400160405280600073ffffffffffffffffffffffffffffffffffffffff168152602001600081525081526020016009548152602001838152602001848152509050600560009054906101000a900473ffffffffffffffffffffffffffffffffffffffff1673ffffffffffffffffffffffffffffffffffffffff166362448850826040518263ffffffff1660e01b81526004016119b59190613c9c565b6020604051808303816000875af11580156119d4573d6000803e3d6000fd5b505050506040513d601f19601f820116820180604052508101906119f89190613cd3565b50505050505050565b611a0961251d565b80600160006101000a81548173ffffffffffffffffffffffffffffffffffffffff021916908373ffffffffffffffffffffffffffffffffffffffff16021790555050565b6000611a57612911565b905060008160000160089054906101000a900460ff1615905060008260000160009054906101000a900467ffffffffffffffff1690506000808267ffffffffffffffff16148015611aa55750825b9050600060018367ffffffffffffffff16148015611ada575060003073ffffffffffffffffffffffffffffffffffffffff163b145b905081158015611ae8575080155b15611b1f576040517ff92ee8a900000000000000000000000000000000000000000000000000000000815260040160405180910390fd5b60018560000160006101000a81548167ffffffffffffffff021916908367ffffffffffffffff1602179055508315611b6f5760018560000160086101000a81548160ff0219169083151502179055505b611b7887612939565b876000806101000a81548173ffffffffffffffffffffffffffffffffffffffff021916908373ffffffffffffffffffffffffffffffffffffffff16021790555085600160006101000a81548173ffffffffffffffffffffffffffffffffffffffff021916908373ffffffffffffffffffffffffffffffffffffffff1602179055508315611c555760008560000160086101000a81548160ff0219169083151502179055507fc7f505b2f371ae2175ee4913f4499e1f2633a7b5936321eed1cdaeb6115181d26001604051611c4c9190614008565b60405180910390a15b5050505050505050565b600560009054906101000a900473ffffffffffffffffffffffffffffffffffffffff1673ffffffffffffffffffffffffffffffffffffffff163373ffffffffffffffffffffffffffffffffffffffff1614611cef576040517f08c379a0000000000000000000000000000000000000000000000000000000008152600401611ce690614095565b60405180910390fd5b600760009054906101000a900473ffffffffffffffffffffffffffffffffffffffff1673ffffffffffffffffffffffffffffffffffffffff168373ffffffffffffffffffffffffffffffffffffffff1614611d7f576040517f08c379a0000000000000000000000000000000000000000000000000000000008152600401611d7690614127565b60405180910390fd5b6008548414611dc3576040517f08c379a0000000000000000000000000000000000000000000000000000000008152600401611dba906141df565b60405180910390fd5b6000808383810190611dd591906142c5565b9150915060006003811115611ded57611dec6139db565b5b826003811115611e0057611dff6139db565b5b03611e3c5760008060008084806020019051810190611e1f91906143a6565b9350935093509350611e3384848484612760565b50505050611f53565b60016003811115611e5057611e4f6139db565b5b826003811115611e6357611e626139db565b5b03611e9a57600080600083806020019051810190611e8191906145c2565b925092509250611e9283838361233a565b505050611f52565b60026003811115611eae57611ead6139db565b5b826003811115611ec157611ec06139db565b5b03611ef25760008082806020019051810190611edd9190614700565b91509150611eeb82826125a4565b5050611f51565b600380811115611f0557611f046139db565b5b826003811115611f1857611f176139db565b5b03611f505760008060008084806020019051810190611f379190614778565b9350935093509350611f4b84848484612426565b505050505b5b5b5b505050505050565b6000606080606060008086600360008973ffffffffffffffffffffffffffffffffffffffff1673ffffffffffffffffffffffffffffffffffffffff1681526020019081526020016000208873ffffffffffffffffffffffffffffffffffffffff166306fdde036040518163ffffffff1660e01b8152600401600060405180830381865afa158015611ff0573d6000803e3d6000fd5b505050506040513d6000823e3d601f19601f82011682018060405250810190612019919061484f565b8973ffffffffffffffffffffffffffffffffffffffff166395d89b416040518163ffffffff1660e01b8152600401600060405180830381865afa158015612064573d6000803e3d6000fd5b505050506040513d6000823e3d601f19601f8201168201806040525081019061208d919061484f565b8a73ffffffffffffffffffffffffffffffffffffffff166318160ddd6040518163ffffffff1660e01b8152600401602060405180830381865afa1580156120d8573d6000803e3d6000fd5b505050506040513d601f19601f820116820180604052508101906120fc9190613d45565b6121058c6121a6565b84805461211190613f1a565b80601f016020809104026020016040519081016040528092919081815260200182805461213d90613f1a565b801561218a5780601f1061215f5761010080835404028352916020019161218a565b820191906000526020600020905b81548152906001019060200180831161216d57829003601f168201915b5050505050945095509550955095509550955091939550919395565b60008173ffffffffffffffffffffffffffffffffffffffff16631aab9a9f6040518163ffffffff1660e01b8152600401602060405180830381865afa1580156121f3573d6000803e3d6000fd5b505050506040513d601f19601f820116820180604052508101906122179190613d45565b9050919050565b61222661251d565b80600660006101000a81548173ffffffffffffffffffffffffffffffffffffffff021916908373ffffffffffffffffffffffffffffffffffffffff16021790555050565b61227261251d565b600073ffffffffffffffffffffffffffffffffffffffff168173ffffffffffffffffffffffffffffffffffffffff16036122e45760006040517f1e4fbdf70000000000000000000000000000000000000000000000000000000081526004016122db91906131d2565b60405180910390fd5b6122ed81612661565b50565b60008054906101000a900473ffffffffffffffffffffffffffffffffffffffff1681565b600760009054906101000a900473ffffffffffffffffffffffffffffffffffffffff1681565b60005b82518110156124205783818151811061235957612358613ad7565b5b602002602001015173ffffffffffffffffffffffffffffffffffffffff1663d0def52184838151811061238f5761238e613ad7565b5b60200260200101518484815181106123aa576123a9613ad7565b5b60200260200101516040518363ffffffff1660e01b81526004016123cf929190613d00565b6020604051808303816000875af11580156123ee573d6000803e3d6000fd5b505050506040513d601f19601f820116820180604052508101906124129190613d45565b50808060010191505061233d565b50505050565b60005b83518110156125165784818151811061244557612444613ad7565b5b602002602001015173ffffffffffffffffffffffffffffffffffffffff166362252bc385838151811061247b5761247a613ad7565b5b602002602001015185848151811061249657612495613ad7565b5b60200260200101518585815181106124b1576124b0613ad7565b5b60200260200101516040518463ffffffff1660e01b81526004016124d793929190613f4b565b600060405180830381600087803b1580156124f157600080fd5b505af1158015612505573d6000803e3d6000fd5b505050508080600101915050612429565b5050505050565b61252561294d565b73ffffffffffffffffffffffffffffffffffffffff1661254361141b565b73ffffffffffffffffffffffffffffffffffffffff16146125a25761256661294d565b6040517f118cdaa700000000000000000000000000000000000000000000000000000000815260040161259991906131d2565b60405180910390fd5b565b60005b825181101561265c578281815181106125c3576125c2613ad7565b5b602002602001015173ffffffffffffffffffffffffffffffffffffffff166342966c688383815181106125f9576125f8613ad7565b5b60200260200101516040518263ffffffff1660e01b815260040161261d91906131fc565b600060405180830381600087803b15801561263757600080fd5b505af115801561264b573d6000803e3d6000fd5b5050505080806001019150506125a7565b505050565b600061266b612738565b905060008160000160009054906101000a900473ffffffffffffffffffffffffffffffffffffffff169050828260000160006101000a81548173ffffffffffffffffffffffffffffffffffffffff021916908373ffffffffffffffffffffffffffffffffffffffff1602179055508273ffffffffffffffffffffffffffffffffffffffff168173ffffffffffffffffffffffffffffffffffffffff167f8be0079c531659141344cd1fd0a4f28419497f9722a3daafe3b4186f6b6457e060405160405180910390a3505050565b60007f9016d09d72d40fdae2fd8ceac6b6234c7706214fd39c1cd1e609a0528c199300905090565b600061278b60008054906101000a900473ffffffffffffffffffffffffffffffffffffffff16612955565b90508073ffffffffffffffffffffffffffffffffffffffff16639ae2869530878787876040518663ffffffff1660e01b81526004016127ce959493929190614898565b600060405180830381600087803b1580156127e857600080fd5b505af11580156127fc573d6000803e3d6000fd5b5050505084600360008373ffffffffffffffffffffffffffffffffffffffff1673ffffffffffffffffffffffffffffffffffffffff168152602001908152602001600020908161284c9190614aa2565b508060046000600254815260200190815260200160002060006101000a81548173ffffffffffffffffffffffffffffffffffffffff021916908373ffffffffffffffffffffffffffffffffffffffff160217905550600260008154809291906128b490614ba3565b91905055508073ffffffffffffffffffffffffffffffffffffffff167e5ad40373f668511e6848a118f38257396030432f57785a69a98403f1ece64086868660405161290293929190614beb565b60405180910390a25050505050565b60007ff0c57e16840df040f15088dc2f81fe391c3923bec73e23a9662efc9c229c6a00905090565b612941612a06565b61294a81612a46565b50565b600033905090565b6000763d602d80600a3d3981f3363d3d373d3d3d363d730000008260601b60e81c176000526e5af43d82803e903d91602b57fd5bf38260781b17602052603760096000f09050600073ffffffffffffffffffffffffffffffffffffffff168173ffffffffffffffffffffffffffffffffffffffff1603612a01576040517fc2f868f400000000000000000000000000000000000000000000000000000000815260040160405180910390fd5b919050565b612a0e612acc565b612a44576040517fd7e6bcf800000000000000000000000000000000000000000000000000000000815260040160405180910390fd5b565b612a4e612a06565b600073ffffffffffffffffffffffffffffffffffffffff168173ffffffffffffffffffffffffffffffffffffffff1603612ac05760006040517f1e4fbdf7000000000000000000000000000000000000000000000000000000008152600401612ab791906131d2565b60405180910390fd5b612ac981612661565b50565b6000612ad6612911565b60000160089054906101000a900460ff16905090565b6000604051905090565b600080fd5b600080fd5b600080fd5b6000601f19601f8301169050919050565b7f4e487b7100000000000000000000000000000000000000000000000000000000600052604160045260246000fd5b612b4e82612b05565b810181811067ffffffffffffffff82111715612b6d57612b6c612b16565b5b80604052505050565b6000612b80612aec565b9050612b8c8282612b45565b919050565b600067ffffffffffffffff821115612bac57612bab612b16565b5b602082029050602081019050919050565b600080fd5b600073ffffffffffffffffffffffffffffffffffffffff82169050919050565b6000612bed82612bc2565b9050919050565b612bfd81612be2565b8114612c0857600080fd5b50565b600081359050612c1a81612bf4565b92915050565b6000612c33612c2e84612b91565b612b76565b90508083825260208201905060208402830185811115612c5657612c55612bbd565b5b835b81811015612c7f5780612c6b8882612c0b565b845260208401935050602081019050612c58565b5050509392505050565b600082601f830112612c9e57612c9d612b00565b5b8135612cae848260208601612c20565b91505092915050565b600067ffffffffffffffff821115612cd257612cd1612b16565b5b602082029050602081019050919050565b600080fd5b600067ffffffffffffffff821115612d0357612d02612b16565b5b612d0c82612b05565b9050602081019050919050565b82818337600083830152505050565b6000612d3b612d3684612ce8565b612b76565b905082815260208101848484011115612d5757612d56612ce3565b5b612d62848285612d19565b509392505050565b600082601f830112612d7f57612d7e612b00565b5b8135612d8f848260208601612d28565b91505092915050565b6000612dab612da684612cb7565b612b76565b90508083825260208201905060208402830185811115612dce57612dcd612bbd565b5b835b81811015612e1557803567ffffffffffffffff811115612df357612df2612b00565b5b808601612e008982612d6a565b85526020850194505050602081019050612dd0565b5050509392505050565b600082601f830112612e3457612e33612b00565b5b8135612e44848260208601612d98565b91505092915050565b600080600060608486031215612e6657612e65612af6565b5b600084013567ffffffffffffffff811115612e8457612e83612afb565b5b612e9086828701612c89565b935050602084013567ffffffffffffffff811115612eb157612eb0612afb565b5b612ebd86828701612c89565b925050604084013567ffffffffffffffff811115612ede57612edd612afb565b5b612eea86828701612e1f565b9150509250925092565b600067ffffffffffffffff821115612f0f57612f0e612b16565b5b602082029050602081019050919050565b6000819050919050565b612f3381612f20565b8114612f3e57600080fd5b50565b600081359050612f5081612f2a565b92915050565b6000612f69612f6484612ef4565b612b76565b90508083825260208201905060208402830185811115612f8c57612f8b612bbd565b5b835b81811015612fb55780612fa18882612f41565b845260208401935050602081019050612f8e565b5050509392505050565b600082601f830112612fd457612fd3612b00565b5b8135612fe4848260208601612f56565b91505092915050565b6000806000806080858703121561300757613006612af6565b5b600085013567ffffffffffffffff81111561302557613024612afb565b5b61303187828801612c89565b945050602085013567ffffffffffffffff81111561305257613051612afb565b5b61305e87828801612c89565b935050604085013567ffffffffffffffff81111561307f5761307e612afb565b5b61308b87828801612c89565b925050606085013567ffffffffffffffff8111156130ac576130ab612afb565b5b6130b887828801612fbf565b91505092959194509250565b6000819050919050565b6130d7816130c4565b81146130e257600080fd5b50565b6000813590506130f4816130ce565b92915050565b6000602082840312156131105761310f612af6565b5b600061311e848285016130e5565b91505092915050565b6000806000606084860312156131405761313f612af6565b5b600061314e86828701612c0b565b935050602061315f86828701612c0b565b925050604084013567ffffffffffffffff8111156131805761317f612afb565b5b61318c86828701612d6a565b9150509250925092565b6000602082840312156131ac576131ab612af6565b5b60006131ba84828501612f41565b91505092915050565b6131cc81612be2565b82525050565b60006020820190506131e760008301846131c3565b92915050565b6131f681612f20565b82525050565b600060208201905061321160008301846131ed565b92915050565b60006020828403121561322d5761322c612af6565b5b600061323b84828501612c0b565b91505092915050565b61324d816130c4565b82525050565b60006020820190506132686000830184613244565b92915050565b6000806040838503121561328557613284612af6565b5b600083013567ffffffffffffffff8111156132a3576132a2612afb565b5b6132af85828601612c89565b925050602083013567ffffffffffffffff8111156132d0576132cf612afb565b5b6132dc85828601612fbf565b9150509250929050565b60008115159050919050565b6132fb816132e6565b811461330657600080fd5b50565b600081359050613318816132f2565b92915050565b6000806000806080858703121561333857613337612af6565b5b600085013567ffffffffffffffff81111561335657613355612afb565b5b61336287828801612d6a565b945050602085013567ffffffffffffffff81111561338357613382612afb565b5b61338f87828801612d6a565b935050604085013567ffffffffffffffff8111156133b0576133af612afb565b5b6133bc87828801612d6a565b92505060606133cd87828801613309565b91505092959194509250565b600081519050919050565b600082825260208201905092915050565b60005b838110156134135780820151818401526020810190506133f8565b60008484015250505050565b600061342a826133d9565b61343481856133e4565b93506134448185602086016133f5565b61344d81612b05565b840191505092915050565b60006020820190508181036000830152613472818461341f565b905092915050565b6000806000806080858703121561349457613493612af6565b5b60006134a287828801612c0b565b94505060206134b387828801612c0b565b93505060406134c487828801612c0b565b92505060606134d587828801612f41565b91505092959194509250565b6000819050919050565b60006135066135016134fc84612bc2565b6134e1565b612bc2565b9050919050565b6000613518826134eb565b9050919050565b600061352a8261350d565b9050919050565b61353a8161351f565b82525050565b60006020820190506135556000830184613531565b92915050565b6000806040838503121561357257613571612af6565b5b600061358085828601612c0b565b925050602061359185828601612f41565b9150509250929050565b6000806000606084860312156135b4576135b3612af6565b5b60006135c286828701612c0b565b93505060206135d386828701612c0b565b92505060406135e486828701612c0b565b9150509250925092565b600080fd5b60008083601f84011261360957613608612b00565b5b8235905067ffffffffffffffff811115613626576136256135ee565b5b60208301915083600182028301111561364257613641612bbd565b5b9250929050565b6000806000806060858703121561366357613662612af6565b5b6000613671878288016130e5565b945050602061368287828801612c0b565b935050604085013567ffffffffffffffff8111156136a3576136a2612afb565b5b6136af878288016135f3565b925092505092959194509250565b600060c0820190506136d260008301896131c3565b81810360208301526136e4818861341f565b905081810360408301526136f8818761341f565b9050818103606083015261370c818661341f565b905061371b60808301856131ed565b61372860a08301846131ed565b979650505050505050565b7f47616d654e6674466163746f72793a2063616c6c6572206973206e6f7420746860008201527f652067616d6520726f7574657200000000000000000000000000000000000000602082015250565b600061378f602d836133e4565b915061379a82613733565b604082019050919050565b600060208201905081810360008301526137be81613782565b9050919050565b600081519050919050565b600082825260208201905092915050565b6000819050602082019050919050565b6137fa81612be2565b82525050565b600061380c83836137f1565b60208301905092915050565b6000602082019050919050565b6000613830826137c5565b61383a81856137d0565b9350613845836137e1565b8060005b8381101561387657815161385d8882613800565b975061386883613818565b925050600181019050613849565b5085935050505092915050565b600081519050919050565b600082825260208201905092915050565b6000819050602082019050919050565b600082825260208201905092915050565b60006138cb826133d9565b6138d581856138af565b93506138e58185602086016133f5565b6138ee81612b05565b840191505092915050565b600061390583836138c0565b905092915050565b6000602082019050919050565b600061392582613883565b61392f818561388e565b9350836020820285016139418561389f565b8060005b8581101561397d578484038952815161395e85826138f9565b94506139698361390d565b925060208a01995050600181019050613945565b50829750879550505050505092915050565b600060608201905081810360008301526139a98186613825565b905081810360208301526139bd8185613825565b905081810360408301526139d1818461391a565b9050949350505050565b7f4e487b7100000000000000000000000000000000000000000000000000000000600052602160045260246000fd5b60048110613a1b57613a1a6139db565b5b50565b6000819050613a2c82613a0a565b919050565b6000613a3c82613a1e565b9050919050565b613a4c81613a31565b82525050565b600081519050919050565b600082825260208201905092915050565b6000613a7982613a52565b613a838185613a5d565b9350613a938185602086016133f5565b613a9c81612b05565b840191505092915050565b6000604082019050613abc6000830185613a43565b8181036020830152613ace8184613a6e565b90509392505050565b7f4e487b7100000000000000000000000000000000000000000000000000000000600052603260045260246000fd5b613b0f816130c4565b82525050565b613b1e81612f20565b82525050565b604082016000820151613b3a60008501826137f1565b506020820151613b4d6020850182613b15565b50505050565b600082825260208201905092915050565b6000613b6f826137c5565b613b798185613b53565b9350613b84836137e1565b8060005b83811015613bb5578151613b9c8882613800565b9750613ba783613818565b925050600181019050613b88565b5085935050505092915050565b600082825260208201905092915050565b6000613bde82613a52565b613be88185613bc2565b9350613bf88185602086016133f5565b613c0181612b05565b840191505092915050565b600060e083016000830151613c246000860182613b06565b506020830151613c3760208601826137f1565b506040830151613c4a6040860182613b24565b506060830151613c5d6080860182613b15565b50608083015184820360a0860152613c758282613b64565b91505060a083015184820360c0860152613c8f8282613bd3565b9150508091505092915050565b60006020820190508181036000830152613cb68184613c0c565b905092915050565b600081519050613ccd816130ce565b92915050565b600060208284031215613ce957613ce8612af6565b5b6000613cf784828501613cbe565b91505092915050565b6000604082019050613d1560008301856131c3565b8181036020830152613d27818461341f565b90509392505050565b600081519050613d3f81612f2a565b92915050565b600060208284031215613d5b57613d5a612af6565b5b6000613d6984828501613d30565b91505092915050565b600081519050919050565b600082825260208201905092915050565b6000819050602082019050919050565b6000613daa8383613b15565b60208301905092915050565b6000602082019050919050565b6000613dce82613d72565b613dd88185613d7d565b9350613de383613d8e565b8060005b83811015613e14578151613dfb8882613d9e565b9750613e0683613db6565b925050600181019050613de7565b5085935050505092915050565b60006080820190508181036000830152613e3b8187613825565b90508181036020830152613e4f8186613825565b90508181036040830152613e638185613825565b90508181036060830152613e778184613dc3565b905095945050505050565b613e8b816132e6565b82525050565b60006080820190508181036000830152613eab818761341f565b90508181036020830152613ebf818661341f565b90508181036040830152613ed3818561341f565b9050613ee26060830184613e82565b95945050505050565b7f4e487b7100000000000000000000000000000000000000000000000000000000600052602260045260246000fd5b60006002820490506001821680613f3257607f821691505b602082108103613f4557613f44613eeb565b5b50919050565b6000606082019050613f6060008301866131c3565b613f6d60208301856131c3565b613f7a60408301846131ed565b949350505050565b60006040820190508181036000830152613f9c8185613825565b90508181036020830152613fb08184613dc3565b90509392505050565b6000819050919050565b600067ffffffffffffffff82169050919050565b6000613ff2613fed613fe884613fb9565b6134e1565b613fc3565b9050919050565b61400281613fd7565b82525050565b600060208201905061401d6000830184613ff9565b92915050565b7f47616d654e6674466163746f72793a2063616c6c6572206973206e6f7420746860008201527f652074656c65706f72746572206d657373656e67657200000000000000000000602082015250565b600061407f6036836133e4565b915061408a82614023565b604082019050919050565b600060208201905081810360008301526140ae81614072565b9050919050565b7f47616d654e6674466163746f72793a206f726967696e2073656e64657220697360008201527f206e6f74207468652072656d6f746520666163746f7279000000000000000000602082015250565b60006141116037836133e4565b915061411c826140b5565b604082019050919050565b6000602082019050818103600083015261414081614104565b9050919050565b7f47616d654e6674466163746f72793a20736f7572636520626c6f636b6368616960008201527f6e204944206973206e6f74207468652072656d6f746520626c6f636b6368616960208201527f6e20494400000000000000000000000000000000000000000000000000000000604082015250565b60006141c96044836133e4565b91506141d482614147565b606082019050919050565b600060208201905081810360008301526141f8816141bc565b9050919050565b6004811061420c57600080fd5b50565b60008135905061421e816141ff565b92915050565b600067ffffffffffffffff82111561423f5761423e612b16565b5b61424882612b05565b9050602081019050919050565b600061426861426384614224565b612b76565b90508281526020810184848401111561428457614283612ce3565b5b61428f848285612d19565b509392505050565b600082601f8301126142ac576142ab612b00565b5b81356142bc848260208601614255565b91505092915050565b600080604083850312156142dc576142db612af6565b5b60006142ea8582860161420f565b925050602083013567ffffffffffffffff81111561430b5761430a612afb565b5b61431785828601614297565b9150509250929050565b600061433461432f84612ce8565b612b76565b9050828152602081018484840111156143505761434f612ce3565b5b61435b8482856133f5565b509392505050565b600082601f83011261437857614377612b00565b5b8151614388848260208601614321565b91505092915050565b6000815190506143a0816132f2565b92915050565b600080600080608085870312156143c0576143bf612af6565b5b600085015167ffffffffffffffff8111156143de576143dd612afb565b5b6143ea87828801614363565b945050602085015167ffffffffffffffff81111561440b5761440a612afb565b5b61441787828801614363565b935050604085015167ffffffffffffffff81111561443857614437612afb565b5b61444487828801614363565b925050606061445587828801614391565b91505092959194509250565b60008151905061447081612bf4565b92915050565b600061448961448484612b91565b612b76565b905080838252602082019050602084028301858111156144ac576144ab612bbd565b5b835b818110156144d557806144c18882614461565b8452602084019350506020810190506144ae565b5050509392505050565b600082601f8301126144f4576144f3612b00565b5b8151614504848260208601614476565b91505092915050565b600061452061451b84612cb7565b612b76565b9050808382526020820190506020840283018581111561454357614542612bbd565b5b835b8181101561458a57805167ffffffffffffffff81111561456857614567612b00565b5b8086016145758982614363565b85526020850194505050602081019050614545565b5050509392505050565b600082601f8301126145a9576145a8612b00565b5b81516145b984826020860161450d565b91505092915050565b6000806000606084860312156145db576145da612af6565b5b600084015167ffffffffffffffff8111156145f9576145f8612afb565b5b614605868287016144df565b935050602084015167ffffffffffffffff81111561462657614625612afb565b5b614632868287016144df565b925050604084015167ffffffffffffffff81111561465357614652612afb565b5b61465f86828701614594565b9150509250925092565b600061467c61467784612ef4565b612b76565b9050808382526020820190506020840283018581111561469f5761469e612bbd565b5b835b818110156146c857806146b48882613d30565b8452602084019350506020810190506146a1565b5050509392505050565b600082601f8301126146e7576146e6612b00565b5b81516146f7848260208601614669565b91505092915050565b6000806040838503121561471757614716612af6565b5b600083015167ffffffffffffffff81111561473557614734612afb565b5b614741858286016144df565b925050602083015167ffffffffffffffff81111561476257614761612afb565b5b61476e858286016146d2565b9150509250929050565b6000806000806080858703121561479257614791612af6565b5b600085015167ffffffffffffffff8111156147b0576147af612afb565b5b6147bc878288016144df565b945050602085015167ffffffffffffffff8111156147dd576147dc612afb565b5b6147e9878288016144df565b935050604085015167ffffffffffffffff81111561480a57614809612afb565b5b614816878288016144df565b925050606085015167ffffffffffffffff81111561483757614836612afb565b5b614843878288016146d2565b91505092959194509250565b60006020828403121561486557614864612af6565b5b600082015167ffffffffffffffff81111561488357614882612afb565b5b61488f84828501614363565b91505092915050565b600060a0820190506148ad60008301886131c3565b81810360208301526148bf818761341f565b905081810360408301526148d3818661341f565b905081810360608301526148e7818561341f565b90506148f66080830184613e82565b9695505050505050565b60008190508160005260206000209050919050565b60006020601f8301049050919050565b600082821b905092915050565b6000600883026149627fffffffffffffffffffffffffffffffffffffffffffffffffffffffffffffffff82614925565b61496c8683614925565b95508019841693508086168417925050509392505050565b600061499f61499a61499584612f20565b6134e1565b612f20565b9050919050565b6000819050919050565b6149b983614984565b6149cd6149c5826149a6565b848454614932565b825550505050565b600090565b6149e26149d5565b6149ed8184846149b0565b505050565b5b81811015614a1157614a066000826149da565b6001810190506149f3565b5050565b601f821115614a5657614a2781614900565b614a3084614915565b81016020851015614a3f578190505b614a53614a4b85614915565b8301826149f2565b50505b505050565b600082821c905092915050565b6000614a7960001984600802614a5b565b1980831691505092915050565b6000614a928383614a68565b9150826002028217905092915050565b614aab826133d9565b67ffffffffffffffff811115614ac457614ac3612b16565b5b614ace8254613f1a565b614ad9828285614a15565b600060209050601f831160018114614b0c5760008415614afa578287015190505b614b048582614a86565b865550614b6c565b601f198416614b1a86614900565b60005b82811015614b4257848901518255600182019150602085019450602081019050614b1d565b86831015614b5f5784890151614b5b601f891682614a68565b8355505b6001600288020188555050505b505050505050565b7f4e487b7100000000000000000000000000000000000000000000000000000000600052601160045260246000fd5b6000614bae82612f20565b91507fffffffffffffffffffffffffffffffffffffffffffffffffffffffffffffffff8203614be057614bdf614b74565b5b600182019050919050565b60006060820190508181036000830152614c05818661341f565b90508181036020830152614c19818561341f565b90508181036040830152614c2d818461341f565b905094935050505056fea2646970667358221220b2e6d932c51f306e054f4565abf4418c59cfd9cf0aae7b22d198c560f752719764736f6c63430008180033",
  "linkReferences": {},
  "deployedLinkReferences": {}
}