{
  "_format": "hh-sol-artifact-1",
  "contractName": "GameRoom",
  "sourceName": "contracts/GameRoom.sol",
  "abi": [
    {
      "inputs": [],
      "stateMutability": "nonpayable",
      "type": "constructor"
    },
    {
      "inputs": [
        {
          "internalType": "address",
          "name": "target",
          "type": "address"
        }
      ],
      "name": "AddressEmptyCode",
      "type": "error"
    },
    {
      "inputs": [
        {
          "internalType": "address",
          "name": "account",
          "type": "address"
        }
      ],
      "name": "AddressInsufficientBalance",
      "type": "error"
    },
    {
      "inputs": [],
      "name": "FailedInnerCall",
      "type": "error"
    },
    {
      "inputs": [],
      "name": "InvalidInitialization",
      "type": "error"
    },
    {
      "inputs": [],
      "name": "NotInitializing",
      "type": "error"
    },
    {
      "inputs": [
        {
          "internalType": "address",
          "name": "owner",
          "type": "address"
        }
      ],
      "name": "OwnableInvalidOwner",
      "type": "error"
    },
    {
      "inputs": [
        {
          "internalType": "address",
          "name": "account",
          "type": "address"
        }
      ],
      "name": "OwnableUnauthorizedAccount",
      "type": "error"
    },
    {
      "inputs": [
        {
          "internalType": "address",
          "name": "token",
          "type": "address"
        }
      ],
      "name": "SafeERC20FailedOperation",
      "type": "error"
    },
    {
      "anonymous": false,
      "inputs": [
        {
          "indexed": false,
          "internalType": "address",
          "name": "to",
          "type": "address"
        },
        {
          "indexed": false,
          "internalType": "uint256",
          "name": "amount",
          "type": "uint256"
        }
      ],
      "name": "Erc20Transfer",
      "type": "event"
    },
    {
      "anonymous": false,
      "inputs": [
        {
          "indexed": false,
          "internalType": "string",
          "name": "gameId",
          "type": "string"
        },
        {
          "indexed": false,
          "internalType": "uint256",
          "name": "roomId",
          "type": "uint256"
        },
        {
          "indexed": false,
          "internalType": "address",
          "name": "team",
          "type": "address"
        }
      ],
      "name": "GameClosed",
      "type": "event"
    },
    {
      "anonymous": false,
      "inputs": [
        {
          "indexed": false,
          "internalType": "string",
          "name": "gameId",
          "type": "string"
        },
        {
          "indexed": false,
          "internalType": "uint256",
          "name": "roomId",
          "type": "uint256"
        }
      ],
      "name": "GameEnded",
      "type": "event"
    },
    {
      "anonymous": false,
      "inputs": [
        {
          "indexed": false,
          "internalType": "string",
          "name": "gameId",
          "type": "string"
        },
        {
          "indexed": false,
          "internalType": "uint256",
          "name": "roomId",
          "type": "uint256"
        },
        {
          "indexed": false,
          "internalType": "uint256",
          "name": "deadline",
          "type": "uint256"
        }
      ],
      "name": "GameRoomInited",
      "type": "event"
    },
    {
      "anonymous": false,
      "inputs": [
        {
          "indexed": false,
          "internalType": "uint64",
          "name": "version",
          "type": "uint64"
        }
      ],
      "name": "Initialized",
      "type": "event"
    },
    {
      "anonymous": false,
      "inputs": [
        {
          "indexed": false,
          "internalType": "address",
          "name": "to",
          "type": "address"
        },
        {
          "indexed": false,
          "internalType": "uint256",
          "name": "amount",
          "type": "uint256"
        }
      ],
      "name": "NativeTransfer",
      "type": "event"
    },
    {
      "anonymous": false,
      "inputs": [
        {
          "indexed": true,
          "internalType": "address",
          "name": "previousOwner",
          "type": "address"
        },
        {
          "indexed": true,
          "internalType": "address",
          "name": "newOwner",
          "type": "address"
        }
      ],
      "name": "OwnershipTransferred",
      "type": "event"
    },
    {
      "anonymous": false,
      "inputs": [
        {
          "indexed": false,
          "internalType": "string",
          "name": "gameId",
          "type": "string"
        },
        {
          "indexed": false,
          "internalType": "uint256",
          "name": "roomId",
          "type": "uint256"
        },
        {
          "indexed": false,
          "internalType": "string",
          "name": "plyrId",
          "type": "string"
        },
        {
          "indexed": false,
          "internalType": "uint256",
          "name": "timestamp",
          "type": "uint256"
        }
      ],
      "name": "PlayerJoined",
      "type": "event"
    },
    {
      "anonymous": false,
      "inputs": [
        {
          "indexed": false,
          "internalType": "string",
          "name": "gameId",
          "type": "string"
        },
        {
          "indexed": false,
          "internalType": "uint256",
          "name": "roomId",
          "type": "uint256"
        },
        {
          "indexed": false,
          "internalType": "string",
          "name": "plyrId",
          "type": "string"
        },
        {
          "indexed": false,
          "internalType": "uint256",
          "name": "timestamp",
          "type": "uint256"
        }
      ],
      "name": "PlayerLeft",
      "type": "event"
    },
    {
      "anonymous": false,
      "inputs": [
        {
          "indexed": false,
          "internalType": "address",
          "name": "token",
          "type": "address"
        }
      ],
      "name": "TokenRegistered",
      "type": "event"
    },
    {
      "inputs": [
        {
          "internalType": "address",
          "name": "_team",
          "type": "address"
        }
      ],
      "name": "close",
      "outputs": [],
      "stateMutability": "nonpayable",
      "type": "function"
    },
    {
      "inputs": [],
      "name": "deadline",
      "outputs": [
        {
          "internalType": "uint256",
          "name": "",
          "type": "uint256"
        }
      ],
      "stateMutability": "view",
      "type": "function"
    },
    {
      "inputs": [],
      "name": "end",
      "outputs": [],
      "stateMutability": "nonpayable",
      "type": "function"
    },
    {
      "inputs": [],
      "name": "gameId",
      "outputs": [
        {
          "internalType": "string",
          "name": "",
          "type": "string"
        }
      ],
      "stateMutability": "view",
      "type": "function"
    },
    {
      "inputs": [],
      "name": "getTokens",
      "outputs": [
        {
          "internalType": "address[]",
          "name": "",
          "type": "address[]"
        }
      ],
      "stateMutability": "view",
      "type": "function"
    },
    {
      "inputs": [
        {
          "internalType": "string",
          "name": "_gameId",
          "type": "string"
        },
        {
          "internalType": "uint256",
          "name": "_roomId",
          "type": "uint256"
        },
        {
          "internalType": "uint256",
          "name": "_expiresIn",
          "type": "uint256"
        }
      ],
      "name": "initialize",
      "outputs": [],
      "stateMutability": "nonpayable",
      "type": "function"
    },
    {
      "inputs": [],
      "name": "isEnded",
      "outputs": [
        {
          "internalType": "bool",
          "name": "",
          "type": "bool"
        }
      ],
      "stateMutability": "view",
      "type": "function"
    },
    {
      "inputs": [
        {
          "internalType": "string",
          "name": "plyrId",
          "type": "string"
        }
      ],
      "name": "isJoined",
      "outputs": [
        {
          "internalType": "bool",
          "name": "",
          "type": "bool"
        }
      ],
      "stateMutability": "view",
      "type": "function"
    },
    {
      "inputs": [
        {
          "internalType": "string[]",
          "name": "plyrIds",
          "type": "string[]"
        }
      ],
      "name": "join",
      "outputs": [],
      "stateMutability": "nonpayable",
      "type": "function"
    },
    {
      "inputs": [
        {
          "internalType": "string",
          "name": "",
          "type": "string"
        }
      ],
      "name": "joinedPlayers",
      "outputs": [
        {
          "internalType": "bool",
          "name": "",
          "type": "bool"
        }
      ],
      "stateMutability": "view",
      "type": "function"
    },
    {
      "inputs": [
        {
          "internalType": "string[]",
          "name": "plyrIds",
          "type": "string[]"
        }
      ],
      "name": "leave",
      "outputs": [],
      "stateMutability": "nonpayable",
      "type": "function"
    },
    {
      "inputs": [
        {
          "internalType": "address payable",
          "name": "_to",
          "type": "address"
        },
        {
          "internalType": "uint256",
          "name": "_amount",
          "type": "uint256"
        }
      ],
      "name": "nativeTransfer",
      "outputs": [],
      "stateMutability": "nonpayable",
      "type": "function"
    },
    {
      "inputs": [],
      "name": "owner",
      "outputs": [
        {
          "internalType": "address",
          "name": "",
          "type": "address"
        }
      ],
      "stateMutability": "view",
      "type": "function"
    },
    {
      "inputs": [
        {
          "internalType": "address",
          "name": "_token",
          "type": "address"
        }
      ],
      "name": "registerToken",
      "outputs": [],
      "stateMutability": "nonpayable",
      "type": "function"
    },
    {
      "inputs": [],
      "name": "renounceOwnership",
      "outputs": [],
      "stateMutability": "nonpayable",
      "type": "function"
    },
    {
      "inputs": [],
      "name": "roomId",
      "outputs": [
        {
          "internalType": "uint256",
          "name": "",
          "type": "uint256"
        }
      ],
      "stateMutability": "view",
      "type": "function"
    },
    {
      "inputs": [
        {
          "internalType": "address",
          "name": "",
          "type": "address"
        }
      ],
      "name": "tokenRegistered",
      "outputs": [
        {
          "internalType": "bool",
          "name": "",
          "type": "bool"
        }
      ],
      "stateMutability": "view",
      "type": "function"
    },
    {
      "inputs": [
        {
          "internalType": "uint256",
          "name": "",
          "type": "uint256"
        }
      ],
      "name": "tokens",
      "outputs": [
        {
          "internalType": "address",
          "name": "",
          "type": "address"
        }
      ],
      "stateMutability": "view",
      "type": "function"
    },
    {
      "inputs": [
        {
          "internalType": "address",
          "name": "_token",
          "type": "address"
        },
        {
          "internalType": "address",
          "name": "_to",
          "type": "address"
        },
        {
          "internalType": "uint256",
          "name": "_amount",
          "type": "uint256"
        }
      ],
      "name": "transfer",
      "outputs": [],
      "stateMutability": "nonpayable",
      "type": "function"
    },
    {
      "inputs": [
        {
          "internalType": "address",
          "name": "newOwner",
          "type": "address"
        }
      ],
      "name": "transferOwnership",
      "outputs": [],
      "stateMutability": "nonpayable",
      "type": "function"
    },
    {
      "stateMutability": "payable",
      "type": "receive"
    }
  ],
  "bytecode": "0x60806040523480156200001157600080fd5b5033600073ffffffffffffffffffffffffffffffffffffffff168173ffffffffffffffffffffffffffffffffffffffff1603620000885760006040517f1e4fbdf70000000000000000000000000000000000000000000000000000000081526004016200007f9190620001a9565b60405180910390fd5b6200009981620000a060201b60201c565b50620001c6565b60008060009054906101000a900473ffffffffffffffffffffffffffffffffffffffff169050816000806101000a81548173ffffffffffffffffffffffffffffffffffffffff021916908373ffffffffffffffffffffffffffffffffffffffff1602179055508173ffffffffffffffffffffffffffffffffffffffff168173ffffffffffffffffffffffffffffffffffffffff167f8be0079c531659141344cd1fd0a4f28419497f9722a3daafe3b4186f6b6457e060405160405180910390a35050565b600073ffffffffffffffffffffffffffffffffffffffff82169050919050565b6000620001918262000164565b9050919050565b620001a38162000184565b82525050565b6000602082019050620001c0600083018462000198565b92915050565b61290980620001d66000396000f3fe6080604052600436106101235760003560e01c8063a2e1ce62116100a0578063d7c81b5511610064578063d7c81b55146103dc578063efbe1c1c14610407578063f2522bcd1461041e578063f2fde38b14610447578063f954d0d9146104705761012a565b8063a2e1ce62146102f7578063a4fd6f5614610334578063aa6ca8081461035f578063beabacc81461038a578063c74073a1146103b35761012a565b80634f64b2be116100e75780634f64b2be14610226578063715018a6146102635780638da5cb5b1461027a578063977d08c0146102a55780639bce4e14146102ce5761012a565b806309824a801461012f57806329dcb0cf146101585780632e136e86146101835780633db8420e146101c0578063475fb9e6146101e95761012a565b3661012a57005b600080fd5b34801561013b57600080fd5b50610156600480360381019061015191906118e3565b61049b565b005b34801561016457600080fd5b5061016d6105ea565b60405161017a9190611929565b60405180910390f35b34801561018f57600080fd5b506101aa60048036038101906101a59190611a8a565b6105f0565b6040516101b79190611aee565b60405180910390f35b3480156101cc57600080fd5b506101e760048036038101906101e29190611bef565b61067c565b005b3480156101f557600080fd5b50610210600480360381019061020b9190611a8a565b61074c565b60405161021d9190611aee565b60405180910390f35b34801561023257600080fd5b5061024d60048036038101906102489190611c64565b610782565b60405161025a9190611ca0565b60405180910390f35b34801561026f57600080fd5b506102786107c1565b005b34801561028657600080fd5b5061028f6107d5565b60405161029c9190611ca0565b60405180910390f35b3480156102b157600080fd5b506102cc60048036038101906102c79190611cbb565b6107fe565b005b3480156102da57600080fd5b506102f560048036038101906102f09190611bef565b6109ef565b005b34801561030357600080fd5b5061031e600480360381019061031991906118e3565b610abf565b60405161032b9190611aee565b60405180910390f35b34801561034057600080fd5b50610349610adf565b6040516103569190611aee565b60405180910390f35b34801561036b57600080fd5b50610374610af2565b6040516103819190611de8565b60405180910390f35b34801561039657600080fd5b506103b160048036038101906103ac9190611e0a565b610b80565b005b3480156103bf57600080fd5b506103da60048036038101906103d591906118e3565b610bb8565b005b3480156103e857600080fd5b506103f1610fcc565b6040516103fe9190611edc565b60405180910390f35b34801561041357600080fd5b5061041c61105a565b005b34801561042a57600080fd5b5061044560048036038101906104409190611f3c565b61129a565b005b34801561045357600080fd5b5061046e600480360381019061046991906118e3565b6112b0565b005b34801561047c57600080fd5b50610485611336565b6040516104929190611929565b60405180910390f35b6104a361133c565b600760008273ffffffffffffffffffffffffffffffffffffffff1673ffffffffffffffffffffffffffffffffffffffff16815260200190815260200160002060009054906101000a900460ff166105e7576005819080600181540180825580915050600190039060005260206000200160009091909190916101000a81548173ffffffffffffffffffffffffffffffffffffffff021916908373ffffffffffffffffffffffffffffffffffffffff1602179055506001600760008373ffffffffffffffffffffffffffffffffffffffff1673ffffffffffffffffffffffffffffffffffffffff16815260200190815260200160002060006101000a81548160ff0219169083151502179055507f158412daecdc1456d01568828bcdb18464cc7f1ce0215ddbc3f3cfede9d1e63d816040516105de9190611ca0565b60405180910390a15b50565b60035481565b60006006826040516106029190611fb8565b908152602001604051809103902060009054906101000a900460ff16806106755750600160405160200161063691906120c7565b604051602081830303815290604052805190602001208260405160200161065d9190611fb8565b60405160208183030381529060405280519060200120145b9050919050565b61068461133c565b60005b815181101561074857600060068383815181106106a7576106a66120de565b5b60200260200101516040516106bc9190611fb8565b908152602001604051809103902060006101000a81548160ff0219169083151502179055507f5cb6468e01c321c195d8437416322f6c7b51e265edab465a79c231fad6b53dee600160025484848151811061071a576107196120de565b5b6020026020010151426040516107339493929190612191565b60405180910390a18080600101915050610687565b5050565b6006818051602081018201805184825260208301602085012081835280955050505050506000915054906101000a900460ff1681565b6005818154811061079257600080fd5b906000526020600020016000915054906101000a900473ffffffffffffffffffffffffffffffffffffffff1681565b6107c961133c565b6107d360006113c3565b565b60008060009054906101000a900473ffffffffffffffffffffffffffffffffffffffff16905090565b6000610808611487565b905060008160000160089054906101000a900460ff1615905060008260000160009054906101000a900467ffffffffffffffff1690506000808267ffffffffffffffff161480156108565750825b9050600060018367ffffffffffffffff1614801561088b575060003073ffffffffffffffffffffffffffffffffffffffff163b145b905081158015610899575080155b156108d0576040517ff92ee8a900000000000000000000000000000000000000000000000000000000815260040160405180910390fd5b60018560000160006101000a81548167ffffffffffffffff021916908367ffffffffffffffff16021790555083156109205760018560000160086101000a81548160ff0219169083151502179055505b876001908161092f919061237b565b50866002819055508542610943919061247c565b6003819055507f5bb40d63135f752607da3ecbfc1ffc67f89afad879bed5dfee15a16bec7c30a56001600254600354604051610981939291906124b0565b60405180910390a183156109e55760008560000160086101000a81548160ff0219169083151502179055507fc7f505b2f371ae2175ee4913f4499e1f2633a7b5936321eed1cdaeb6115181d260016040516109dc919061253d565b60405180910390a15b5050505050505050565b6109f761133c565b60005b8151811015610abb5760016006838381518110610a1a57610a196120de565b5b6020026020010151604051610a2f9190611fb8565b908152602001604051809103902060006101000a81548160ff0219169083151502179055507fcc272659d82aa91a1f080eb07b21500b34be0df4d27769512d27c750aba681a26001600254848481518110610a8d57610a8c6120de565b5b602002602001015142604051610aa69493929190612191565b60405180910390a180806001019150506109fa565b5050565b60076020528060005260406000206000915054906101000a900460ff1681565b600460009054906101000a900460ff1681565b60606005805480602002602001604051908101604052809291908181526020018280548015610b7657602002820191906000526020600020905b8160009054906101000a900473ffffffffffffffffffffffffffffffffffffffff1673ffffffffffffffffffffffffffffffffffffffff1681526020019060010190808311610b2c575b5050505050905090565b610b8861133c565b610bb382828573ffffffffffffffffffffffffffffffffffffffff166114af9092919063ffffffff16565b505050565b610bc061133c565b6003544211610c04576040517f08c379a0000000000000000000000000000000000000000000000000000000008152600401610bfb906125a4565b60405180910390fd5b600460009054906101000a900460ff1615610c54576040517f08c379a0000000000000000000000000000000000000000000000000000000008152600401610c4b90612610565b60405180910390fd5b60005b600580549050811015610f6f57600073ffffffffffffffffffffffffffffffffffffffff1660058281548110610c9057610c8f6120de565b5b9060005260206000200160009054906101000a900473ffffffffffffffffffffffffffffffffffffffff1673ffffffffffffffffffffffffffffffffffffffff1614610f1057600060058281548110610cec57610ceb6120de565b5b9060005260206000200160009054906101000a900473ffffffffffffffffffffffffffffffffffffffff1673ffffffffffffffffffffffffffffffffffffffff166370a08231306040518263ffffffff1660e01b8152600401610d4f9190611ca0565b602060405180830381865afa158015610d6c573d6000803e3d6000fd5b505050506040513d601f19601f82011682018060405250810190610d909190612645565b1115610f0b5760058181548110610daa57610da96120de565b5b9060005260206000200160009054906101000a900473ffffffffffffffffffffffffffffffffffffffff1673ffffffffffffffffffffffffffffffffffffffff1663a9059cbb8360058481548110610e0557610e046120de565b5b9060005260206000200160009054906101000a900473ffffffffffffffffffffffffffffffffffffffff1673ffffffffffffffffffffffffffffffffffffffff166370a08231306040518263ffffffff1660e01b8152600401610e689190611ca0565b602060405180830381865afa158015610e85573d6000803e3d6000fd5b505050506040513d601f19601f82011682018060405250810190610ea99190612645565b6040518363ffffffff1660e01b8152600401610ec6929190612672565b6020604051808303816000875af1158015610ee5573d6000803e3d6000fd5b505050506040513d601f19601f82011682018060405250810190610f0991906126c7565b505b610f62565b6000471115610f61578173ffffffffffffffffffffffffffffffffffffffff166108fc479081150290604051600060405180830381858888f19350505050158015610f5f573d6000803e3d6000fd5b505b5b8080600101915050610c57565b506001600460006101000a81548160ff0219169083151502179055507f51face237fecf262f6f4cbff1e2cb10355e4f478f2a934b059697485a3d039ed600160025483604051610fc1939291906126f4565b60405180910390a150565b60018054610fd990611ffe565b80601f016020809104026020016040519081016040528092919081815260200182805461100590611ffe565b80156110525780601f1061102757610100808354040283529160200191611052565b820191906000526020600020905b81548152906001019060200180831161103557829003601f168201915b505050505081565b61106261133c565b60005b60058054905081101561124057600073ffffffffffffffffffffffffffffffffffffffff166005828154811061109e5761109d6120de565b5b9060005260206000200160009054906101000a900473ffffffffffffffffffffffffffffffffffffffff1673ffffffffffffffffffffffffffffffffffffffff16146111e9576000600582815481106110fa576110f96120de565b5b9060005260206000200160009054906101000a900473ffffffffffffffffffffffffffffffffffffffff1673ffffffffffffffffffffffffffffffffffffffff166370a08231306040518263ffffffff1660e01b815260040161115d9190611ca0565b602060405180830381865afa15801561117a573d6000803e3d6000fd5b505050506040513d601f19601f8201168201806040525081019061119e9190612645565b9050600081146111e3576040517f08c379a00000000000000000000000000000000000000000000000000000000081526004016111da9061277e565b60405180910390fd5b50611233565b600047905060008114611231576040517f08c379a0000000000000000000000000000000000000000000000000000000008152600401611228906127ea565b60405180910390fd5b505b8080600101915050611065565b506001600460006101000a81548160ff0219169083151502179055507fea20419b16267d9e7b733136c4c8d716a7d68522654cf5ba20af0db8820a627d600160025460405161129092919061280a565b60405180910390a1565b6112a261133c565b6112ac828261152e565b5050565b6112b861133c565b600073ffffffffffffffffffffffffffffffffffffffff168173ffffffffffffffffffffffffffffffffffffffff160361132a5760006040517f1e4fbdf70000000000000000000000000000000000000000000000000000000081526004016113219190611ca0565b60405180910390fd5b611333816113c3565b50565b60025481565b61134461161b565b73ffffffffffffffffffffffffffffffffffffffff166113626107d5565b73ffffffffffffffffffffffffffffffffffffffff16146113c15761138561161b565b6040517f118cdaa70000000000000000000000000000000000000000000000000000000081526004016113b89190611ca0565b60405180910390fd5b565b60008060009054906101000a900473ffffffffffffffffffffffffffffffffffffffff169050816000806101000a81548173ffffffffffffffffffffffffffffffffffffffff021916908373ffffffffffffffffffffffffffffffffffffffff1602179055508173ffffffffffffffffffffffffffffffffffffffff168173ffffffffffffffffffffffffffffffffffffffff167f8be0079c531659141344cd1fd0a4f28419497f9722a3daafe3b4186f6b6457e060405160405180910390a35050565b60007ff0c57e16840df040f15088dc2f81fe391c3923bec73e23a9662efc9c229c6a00905090565b611529838473ffffffffffffffffffffffffffffffffffffffff1663a9059cbb85856040516024016114e2929190612672565b604051602081830303815290604052915060e01b6020820180517bffffffffffffffffffffffffffffffffffffffffffffffffffffffff8381831617835250505050611623565b505050565b8047101561157357306040517fcd78605900000000000000000000000000000000000000000000000000000000815260040161156a9190611ca0565b60405180910390fd5b60008273ffffffffffffffffffffffffffffffffffffffff16826040516115999061286b565b60006040518083038185875af1925050503d80600081146115d6576040519150601f19603f3d011682016040523d82523d6000602084013e6115db565b606091505b5050905080611616576040517f1425ea4200000000000000000000000000000000000000000000000000000000815260040160405180910390fd5b505050565b600033905090565b600061164e828473ffffffffffffffffffffffffffffffffffffffff166116ba90919063ffffffff16565b9050600081511415801561167357508080602001905181019061167191906126c7565b155b156116b557826040517f5274afe70000000000000000000000000000000000000000000000000000000081526004016116ac9190611ca0565b60405180910390fd5b505050565b60606116c8838360006116d0565b905092915050565b60608147101561171757306040517fcd78605900000000000000000000000000000000000000000000000000000000815260040161170e9190611ca0565b60405180910390fd5b6000808573ffffffffffffffffffffffffffffffffffffffff16848660405161174091906128bc565b60006040518083038185875af1925050503d806000811461177d576040519150601f19603f3d011682016040523d82523d6000602084013e611782565b606091505b509150915061179286838361179d565b925050509392505050565b6060826117b2576117ad8261182c565b611824565b600082511480156117da575060008473ffffffffffffffffffffffffffffffffffffffff163b145b1561181c57836040517f9996b3150000000000000000000000000000000000000000000000000000000081526004016118139190611ca0565b60405180910390fd5b819050611825565b5b9392505050565b60008151111561183f5780518082602001fd5b6040517f1425ea4200000000000000000000000000000000000000000000000000000000815260040160405180910390fd5b6000604051905090565b600080fd5b600080fd5b600073ffffffffffffffffffffffffffffffffffffffff82169050919050565b60006118b082611885565b9050919050565b6118c0816118a5565b81146118cb57600080fd5b50565b6000813590506118dd816118b7565b92915050565b6000602082840312156118f9576118f861187b565b5b6000611907848285016118ce565b91505092915050565b6000819050919050565b61192381611910565b82525050565b600060208201905061193e600083018461191a565b92915050565b600080fd5b600080fd5b6000601f19601f8301169050919050565b7f4e487b7100000000000000000000000000000000000000000000000000000000600052604160045260246000fd5b6119978261194e565b810181811067ffffffffffffffff821117156119b6576119b561195f565b5b80604052505050565b60006119c9611871565b90506119d5828261198e565b919050565b600067ffffffffffffffff8211156119f5576119f461195f565b5b6119fe8261194e565b9050602081019050919050565b82818337600083830152505050565b6000611a2d611a28846119da565b6119bf565b905082815260208101848484011115611a4957611a48611949565b5b611a54848285611a0b565b509392505050565b600082601f830112611a7157611a70611944565b5b8135611a81848260208601611a1a565b91505092915050565b600060208284031215611aa057611a9f61187b565b5b600082013567ffffffffffffffff811115611abe57611abd611880565b5b611aca84828501611a5c565b91505092915050565b60008115159050919050565b611ae881611ad3565b82525050565b6000602082019050611b036000830184611adf565b92915050565b600067ffffffffffffffff821115611b2457611b2361195f565b5b602082029050602081019050919050565b600080fd5b6000611b4d611b4884611b09565b6119bf565b90508083825260208201905060208402830185811115611b7057611b6f611b35565b5b835b81811015611bb757803567ffffffffffffffff811115611b9557611b94611944565b5b808601611ba28982611a5c565b85526020850194505050602081019050611b72565b5050509392505050565b600082601f830112611bd657611bd5611944565b5b8135611be6848260208601611b3a565b91505092915050565b600060208284031215611c0557611c0461187b565b5b600082013567ffffffffffffffff811115611c2357611c22611880565b5b611c2f84828501611bc1565b91505092915050565b611c4181611910565b8114611c4c57600080fd5b50565b600081359050611c5e81611c38565b92915050565b600060208284031215611c7a57611c7961187b565b5b6000611c8884828501611c4f565b91505092915050565b611c9a816118a5565b82525050565b6000602082019050611cb56000830184611c91565b92915050565b600080600060608486031215611cd457611cd361187b565b5b600084013567ffffffffffffffff811115611cf257611cf1611880565b5b611cfe86828701611a5c565b9350506020611d0f86828701611c4f565b9250506040611d2086828701611c4f565b9150509250925092565b600081519050919050565b600082825260208201905092915050565b6000819050602082019050919050565b611d5f816118a5565b82525050565b6000611d718383611d56565b60208301905092915050565b6000602082019050919050565b6000611d9582611d2a565b611d9f8185611d35565b9350611daa83611d46565b8060005b83811015611ddb578151611dc28882611d65565b9750611dcd83611d7d565b925050600181019050611dae565b5085935050505092915050565b60006020820190508181036000830152611e028184611d8a565b905092915050565b600080600060608486031215611e2357611e2261187b565b5b6000611e31868287016118ce565b9350506020611e42868287016118ce565b9250506040611e5386828701611c4f565b9150509250925092565b600081519050919050565b600082825260208201905092915050565b60005b83811015611e97578082015181840152602081019050611e7c565b60008484015250505050565b6000611eae82611e5d565b611eb88185611e68565b9350611ec8818560208601611e79565b611ed18161194e565b840191505092915050565b60006020820190508181036000830152611ef68184611ea3565b905092915050565b6000611f0982611885565b9050919050565b611f1981611efe565b8114611f2457600080fd5b50565b600081359050611f3681611f10565b92915050565b60008060408385031215611f5357611f5261187b565b5b6000611f6185828601611f27565b9250506020611f7285828601611c4f565b9150509250929050565b600081905092915050565b6000611f9282611e5d565b611f9c8185611f7c565b9350611fac818560208601611e79565b80840191505092915050565b6000611fc48284611f87565b915081905092915050565b7f4e487b7100000000000000000000000000000000000000000000000000000000600052602260045260246000fd5b6000600282049050600182168061201657607f821691505b60208210810361202957612028611fcf565b5b50919050565b60008190508160005260206000209050919050565b6000815461205181611ffe565b61205b8186611f7c565b94506001821660008114612076576001811461208b576120be565b60ff19831686528115158202860193506120be565b6120948561202f565b60005b838110156120b657815481890152600182019150602081019050612097565b838801955050505b50505092915050565b60006120d38284612044565b915081905092915050565b7f4e487b7100000000000000000000000000000000000000000000000000000000600052603260045260246000fd5b6000815461211a81611ffe565b6121248186611e68565b9450600182166000811461213f576001811461215557612188565b60ff198316865281151560200286019350612188565b61215e8561202f565b60005b8381101561218057815481890152600182019150602081019050612161565b808801955050505b50505092915050565b600060808201905081810360008301526121ab818761210d565b90506121ba602083018661191a565b81810360408301526121cc8185611ea3565b90506121db606083018461191a565b95945050505050565b60006020601f8301049050919050565b600082821b905092915050565b6000600883026122317fffffffffffffffffffffffffffffffffffffffffffffffffffffffffffffffff826121f4565b61223b86836121f4565b95508019841693508086168417925050509392505050565b6000819050919050565b600061227861227361226e84611910565b612253565b611910565b9050919050565b6000819050919050565b6122928361225d565b6122a661229e8261227f565b848454612201565b825550505050565b600090565b6122bb6122ae565b6122c6818484612289565b505050565b5b818110156122ea576122df6000826122b3565b6001810190506122cc565b5050565b601f82111561232f576123008161202f565b612309846121e4565b81016020851015612318578190505b61232c612324856121e4565b8301826122cb565b50505b505050565b600082821c905092915050565b600061235260001984600802612334565b1980831691505092915050565b600061236b8383612341565b9150826002028217905092915050565b61238482611e5d565b67ffffffffffffffff81111561239d5761239c61195f565b5b6123a78254611ffe565b6123b28282856122ee565b600060209050601f8311600181146123e557600084156123d3578287015190505b6123dd858261235f565b865550612445565b601f1984166123f38661202f565b60005b8281101561241b578489015182556001820191506020850194506020810190506123f6565b868310156124385784890151612434601f891682612341565b8355505b6001600288020188555050505b505050505050565b7f4e487b7100000000000000000000000000000000000000000000000000000000600052601160045260246000fd5b600061248782611910565b915061249283611910565b92508282019050808211156124aa576124a961244d565b5b92915050565b600060608201905081810360008301526124ca818661210d565b90506124d9602083018561191a565b6124e6604083018461191a565b949350505050565b6000819050919050565b600067ffffffffffffffff82169050919050565b600061252761252261251d846124ee565b612253565b6124f8565b9050919050565b6125378161250c565b82525050565b6000602082019050612552600083018461252e565b92915050565b7f47616d654e6f74456e6465640000000000000000000000000000000000000000600082015250565b600061258e600c83611e68565b915061259982612558565b602082019050919050565b600060208201905081810360008301526125bd81612581565b9050919050565b7f47616d65416c7265616479456e64656400000000000000000000000000000000600082015250565b60006125fa601083611e68565b9150612605826125c4565b602082019050919050565b60006020820190508181036000830152612629816125ed565b9050919050565b60008151905061263f81611c38565b92915050565b60006020828403121561265b5761265a61187b565b5b600061266984828501612630565b91505092915050565b60006040820190506126876000830185611c91565b612694602083018461191a565b9392505050565b6126a481611ad3565b81146126af57600080fd5b50565b6000815190506126c18161269b565b92915050565b6000602082840312156126dd576126dc61187b565b5b60006126eb848285016126b2565b91505092915050565b6000606082019050818103600083015261270e818661210d565b905061271d602083018561191a565b61272a6040830184611c91565b949350505050565b7f546f6b656e42616c616e63654e6f745a65726f00000000000000000000000000600082015250565b6000612768601383611e68565b915061277382612732565b602082019050919050565b600060208201905081810360008301526127978161275b565b9050919050565b7f4e6174697665436f696e42616c616e63654e6f745a65726f0000000000000000600082015250565b60006127d4601883611e68565b91506127df8261279e565b602082019050919050565b60006020820190508181036000830152612803816127c7565b9050919050565b60006040820190508181036000830152612824818561210d565b9050612833602083018461191a565b9392505050565b600081905092915050565b50565b600061285560008361283a565b915061286082612845565b600082019050919050565b600061287682612848565b9150819050919050565b600081519050919050565b600061289682612880565b6128a0818561283a565b93506128b0818560208601611e79565b80840191505092915050565b60006128c8828461288b565b91508190509291505056fea26469706673582212209a2f728530bfcb82aa6f760750a40919502e09c5612ef9d5bd0731b2099433b364736f6c63430008180033",
  "linkReferences": {},
  "deployedLinkReferences": {}
}