{
  "_format": "hh-sol-artifact-1",
  "contractName": "GameRuleV1",
  "sourceName": "contracts/GameRuleV1.sol",
  "abi": [
    {
      "inputs": [],
      "stateMutability": "nonpayable",
      "type": "constructor"
    },
    {
      "inputs": [],
      "name": "Create2EmptyBytecode",
      "type": "error"
    },
    {
      "inputs": [],
      "name": "Create2FailedDeployment",
      "type": "error"
    },
    {
      "inputs": [
        {
          "internalType": "uint256",
          "name": "balance",
          "type": "uint256"
        },
        {
          "internalType": "uint256",
          "name": "needed",
          "type": "uint256"
        }
      ],
      "name": "Create2InsufficientBalance",
      "type": "error"
    },
    {
      "inputs": [],
      "name": "InvalidInitialization",
      "type": "error"
    },
    {
      "inputs": [],
      "name": "NotInitializing",
      "type": "error"
    },
    {
      "inputs": [
        {
          "internalType": "address",
          "name": "owner",
          "type": "address"
        }
      ],
      "name": "OwnableInvalidOwner",
      "type": "error"
    },
    {
      "inputs": [
        {
          "internalType": "address",
          "name": "account",
          "type": "address"
        }
      ],
      "name": "OwnableUnauthorizedAccount",
      "type": "error"
    },
    {
      "inputs": [],
      "name": "ReentrancyGuardReentrantCall",
      "type": "error"
    },
    {
      "anonymous": false,
      "inputs": [
        {
          "indexed": false,
          "internalType": "string",
          "name": "gameId",
          "type": "string"
        },
        {
          "indexed": false,
          "internalType": "uint256",
          "name": "roomId",
          "type": "uint256"
        },
        {
          "indexed": false,
          "internalType": "address",
          "name": "roomAddress",
          "type": "address"
        }
      ],
      "name": "GameRoomCreated",
      "type": "event"
    },
    {
      "anonymous": false,
      "inputs": [
        {
          "indexed": false,
          "internalType": "uint64",
          "name": "version",
          "type": "uint64"
        }
      ],
      "name": "Initialized",
      "type": "event"
    },
    {
      "anonymous": false,
      "inputs": [
        {
          "indexed": true,
          "internalType": "address",
          "name": "previousOwner",
          "type": "address"
        },
        {
          "indexed": true,
          "internalType": "address",
          "name": "newOwner",
          "type": "address"
        }
      ],
      "name": "OwnershipTransferred",
      "type": "event"
    },
    {
      "inputs": [
        {
          "internalType": "string",
          "name": "gameId",
          "type": "string"
        },
        {
          "internalType": "uint256",
          "name": "roomId",
          "type": "uint256"
        },
        {
          "internalType": "address",
          "name": "team",
          "type": "address"
        }
      ],
      "name": "close",
      "outputs": [],
      "stateMutability": "nonpayable",
      "type": "function"
    },
    {
      "inputs": [
        {
          "internalType": "string",
          "name": "gameId",
          "type": "string"
        },
        {
          "internalType": "uint256",
          "name": "roomId",
          "type": "uint256"
        }
      ],
      "name": "computeRoomAddress",
      "outputs": [
        {
          "internalType": "address",
          "name": "",
          "type": "address"
        }
      ],
      "stateMutability": "view",
      "type": "function"
    },
    {
      "inputs": [
        {
          "internalType": "address",
          "name": "_feeTo",
          "type": "address"
        }
      ],
      "name": "configFeeTo",
      "outputs": [],
      "stateMutability": "nonpayable",
      "type": "function"
    },
    {
      "inputs": [
        {
          "internalType": "address",
          "name": "_operator",
          "type": "address"
        },
        {
          "internalType": "bool",
          "name": "_status",
          "type": "bool"
        }
      ],
      "name": "configOperator",
      "outputs": [],
      "stateMutability": "nonpayable",
      "type": "function"
    },
    {
      "inputs": [
        {
          "internalType": "uint256",
          "name": "_platformFee",
          "type": "uint256"
        }
      ],
      "name": "configPlatformFee",
      "outputs": [],
      "stateMutability": "nonpayable",
      "type": "function"
    },
    {
      "inputs": [
        {
          "internalType": "string",
          "name": "gameId",
          "type": "string"
        },
        {
          "internalType": "uint256",
          "name": "expiresIn",
          "type": "uint256"
        }
      ],
      "name": "create",
      "outputs": [],
      "stateMutability": "nonpayable",
      "type": "function"
    },
    {
      "inputs": [
        {
          "internalType": "string",
          "name": "gameId",
          "type": "string"
        },
        {
          "internalType": "uint256",
          "name": "roomId",
          "type": "uint256"
        },
        {
          "internalType": "string",
          "name": "plyrId",
          "type": "string"
        },
        {
          "internalType": "address",
          "name": "token",
          "type": "address"
        },
        {
          "internalType": "uint256",
          "name": "amount",
          "type": "uint256"
        }
      ],
      "name": "earn",
      "outputs": [],
      "stateMutability": "nonpayable",
      "type": "function"
    },
    {
      "inputs": [
        {
          "internalType": "string",
          "name": "gameId",
          "type": "string"
        },
        {
          "internalType": "uint256",
          "name": "roomId",
          "type": "uint256"
        }
      ],
      "name": "end",
      "outputs": [],
      "stateMutability": "nonpayable",
      "type": "function"
    },
    {
      "inputs": [],
      "name": "feeTo",
      "outputs": [
        {
          "internalType": "address",
          "name": "",
          "type": "address"
        }
      ],
      "stateMutability": "view",
      "type": "function"
    },
    {
      "inputs": [
        {
          "internalType": "string",
          "name": "",
          "type": "string"
        },
        {
          "internalType": "uint256",
          "name": "",
          "type": "uint256"
        }
      ],
      "name": "gameRoomAddress",
      "outputs": [
        {
          "internalType": "address",
          "name": "",
          "type": "address"
        }
      ],
      "stateMutability": "view",
      "type": "function"
    },
    {
      "inputs": [
        {
          "internalType": "string",
          "name": "",
          "type": "string"
        }
      ],
      "name": "gameRoomCount",
      "outputs": [
        {
          "internalType": "uint256",
          "name": "",
          "type": "uint256"
        }
      ],
      "stateMutability": "view",
      "type": "function"
    },
    {
      "inputs": [
        {
          "internalType": "address",
          "name": "_owner",
          "type": "address"
        },
        {
          "internalType": "address",
          "name": "_router",
          "type": "address"
        },
        {
          "internalType": "address",
          "name": "_feeTo",
          "type": "address"
        },
        {
          "internalType": "address",
          "name": "_registerSC",
          "type": "address"
        }
      ],
      "name": "initialize",
      "outputs": [],
      "stateMutability": "nonpayable",
      "type": "function"
    },
    {
      "inputs": [
        {
          "internalType": "string",
          "name": "gameId",
          "type": "string"
        },
        {
          "internalType": "uint256",
          "name": "roomId",
          "type": "uint256"
        },
        {
          "internalType": "string",
          "name": "plyrId",
          "type": "string"
        }
      ],
      "name": "isJoined",
      "outputs": [
        {
          "internalType": "bool",
          "name": "",
          "type": "bool"
        }
      ],
      "stateMutability": "view",
      "type": "function"
    },
    {
      "inputs": [
        {
          "internalType": "string",
          "name": "gameId",
          "type": "string"
        },
        {
          "internalType": "uint256",
          "name": "roomId",
          "type": "uint256"
        },
        {
          "internalType": "string[]",
          "name": "plyrIds",
          "type": "string[]"
        }
      ],
      "name": "join",
      "outputs": [],
      "stateMutability": "nonpayable",
      "type": "function"
    },
    {
      "inputs": [
        {
          "internalType": "string",
          "name": "gameId",
          "type": "string"
        },
        {
          "internalType": "uint256",
          "name": "roomId",
          "type": "uint256"
        },
        {
          "internalType": "string[]",
          "name": "plyrIds",
          "type": "string[]"
        }
      ],
      "name": "leave",
      "outputs": [],
      "stateMutability": "nonpayable",
      "type": "function"
    },
    {
      "inputs": [
        {
          "internalType": "bytes[]",
          "name": "data",
          "type": "bytes[]"
        }
      ],
      "name": "multicall",
      "outputs": [
        {
          "internalType": "bytes[]",
          "name": "results",
          "type": "bytes[]"
        }
      ],
      "stateMutability": "payable",
      "type": "function"
    },
    {
      "inputs": [
        {
          "internalType": "address",
          "name": "",
          "type": "address"
        }
      ],
      "name": "operators",
      "outputs": [
        {
          "internalType": "bool",
          "name": "",
          "type": "bool"
        }
      ],
      "stateMutability": "view",
      "type": "function"
    },
    {
      "inputs": [],
      "name": "owner",
      "outputs": [
        {
          "internalType": "address",
          "name": "",
          "type": "address"
        }
      ],
      "stateMutability": "view",
      "type": "function"
    },
    {
      "inputs": [
        {
          "internalType": "string",
          "name": "gameId",
          "type": "string"
        },
        {
          "internalType": "uint256",
          "name": "roomId",
          "type": "uint256"
        },
        {
          "internalType": "string",
          "name": "plyrId",
          "type": "string"
        },
        {
          "internalType": "address",
          "name": "token",
          "type": "address"
        },
        {
          "internalType": "uint256",
          "name": "amount",
          "type": "uint256"
        }
      ],
      "name": "pay",
      "outputs": [],
      "stateMutability": "nonpayable",
      "type": "function"
    },
    {
      "inputs": [],
      "name": "platformFee",
      "outputs": [
        {
          "internalType": "uint256",
          "name": "",
          "type": "uint256"
        }
      ],
      "stateMutability": "view",
      "type": "function"
    },
    {
      "inputs": [],
      "name": "registerSC",
      "outputs": [
        {
          "internalType": "address",
          "name": "",
          "type": "address"
        }
      ],
      "stateMutability": "view",
      "type": "function"
    },
    {
      "inputs": [],
      "name": "renounceOwnership",
      "outputs": [],
      "stateMutability": "nonpayable",
      "type": "function"
    },
    {
      "inputs": [
        {
          "internalType": "address",
          "name": "",
          "type": "address"
        }
      ],
      "name": "roomOwner",
      "outputs": [
        {
          "internalType": "string",
          "name": "",
          "type": "string"
        }
      ],
      "stateMutability": "view",
      "type": "function"
    },
    {
      "inputs": [],
      "name": "router",
      "outputs": [
        {
          "internalType": "address",
          "name": "",
          "type": "address"
        }
      ],
      "stateMutability": "view",
      "type": "function"
    },
    {
      "inputs": [
        {
          "internalType": "address",
          "name": "newOwner",
          "type": "address"
        }
      ],
      "name": "transferOwnership",
      "outputs": [],
      "stateMutability": "nonpayable",
      "type": "function"
    }
  ],
  "bytecode": "0x608060405234801561001057600080fd5b50614092806100206000396000f3fe608060405260043610620001845760003560e01c80636574405a11620000e2578063ac9650d81162000095578063e8f090bb116200006c578063e8f090bb146200050a578063f2fde38b146200052f578063f887ea401462000554578063f8c8765e146200057657600080fd5b8063ac9650d8146200049a578063da7fd99d14620004c0578063e6ff0bde14620004e557600080fd5b80636574405a14620003d9578063715018a614620003fb57806371d578fa14620004135780637d1d920314620004385780638da5cb5b146200045d5780639c4a4ed5146200047557600080fd5b806331804f1c116200013b57806331804f1c14620002ec57806333b57a40146200031157806346f81a8714620003365780634b5e1304146200035b5780634ee9a94d146200038057806356b0040a14620003b457600080fd5b8063017e7e5814620001895780630b1eef0614620001c85780630eeff633146200021357806313e7c9d8146200026857806326232a2e14620002ad57806330244e6e14620002c5575b600080fd5b3480156200019657600080fd5b50600354620001ab906001600160a01b031681565b6040516001600160a01b0390911681526020015b60405180910390f35b348015620001d557600080fd5b5062000204620001e736600462001d38565b805160208183018101805160058252928201919093012091525481565b604051908152602001620001bf565b3480156200022057600080fd5b50620001ab6200023236600462001d78565b8151602081840181018051600682529282019482019490942091909352909152600090815260409020546001600160a01b031681565b3480156200027557600080fd5b506200029c6200028736600462001dd6565b60046020526000908152604090205460ff1681565b6040519015158152602001620001bf565b348015620002ba57600080fd5b506200020460025481565b348015620002d257600080fd5b50620002ea620002e436600462001df6565b6200059b565b005b348015620002f957600080fd5b50620002ea6200030b36600462001d78565b620006be565b3480156200031e57600080fd5b50620002ea6200033036600462001f05565b620007ca565b3480156200034357600080fd5b50620002ea6200035536600462001d78565b620007ff565b3480156200036857600080fd5b50620002ea6200037a36600462001f43565b6200099d565b3480156200038d57600080fd5b50620003a56200039f36600462001dd6565b620009ac565b604051620001bf919062001fb1565b348015620003c157600080fd5b50620002ea620003d336600462001fc6565b62000a4e565b348015620003e657600080fd5b50600154620001ab906001600160a01b031681565b3480156200040857600080fd5b50620002ea62000e16565b3480156200042057600080fd5b50620002ea6200043236600462002056565b62000e2e565b3480156200044557600080fd5b50620002ea6200045736600462001df6565b62000f0f565b3480156200046a57600080fd5b50620001ab62000fef565b3480156200048257600080fd5b50620001ab6200049436600462001d78565b6200101d565b620004b1620004ab366004620020b6565b62001095565b604051620001bf91906200212f565b348015620004cd57600080fd5b50620002ea620004df36600462001dd6565b620011fa565b348015620004f257600080fd5b50620002ea6200050436600462001fc6565b62001226565b3480156200051757600080fd5b506200029c6200052936600462002197565b6200172b565b3480156200053c57600080fd5b50620002ea6200054e36600462001dd6565b620017f4565b3480156200056157600080fd5b50600054620001ab906001600160a01b031681565b3480156200058357600080fd5b50620002ea620005953660046200220a565b62001838565b3360009081526004602052604090205460ff1680620005d45750620005bf62000fef565b6001600160a01b0316336001600160a01b0316145b620005fc5760405162461bcd60e51b8152600401620005f3906200226f565b60405180910390fd5b6000600684604051620006109190620022a6565b9081526040805160209281900383019020600086815292529020546001600160a01b0316905080620006565760405162461bcd60e51b8152600401620005f390620022c4565b6040516326f3938560e21b81526001600160a01b03821690639bce4e149062000684908590600401620022fb565b600060405180830381600087803b1580156200069f57600080fd5b505af1158015620006b4573d6000803e3d6000fd5b5050505050505050565b3360009081526004602052604090205460ff1680620006f75750620006e262000fef565b6001600160a01b0316336001600160a01b0316145b620007165760405162461bcd60e51b8152600401620005f3906200226f565b60006006836040516200072a9190620022a6565b9081526040805160209281900383019020600085815292529020546001600160a01b0316905080620007705760405162461bcd60e51b8152600401620005f390620022c4565b806001600160a01b031663efbe1c1c6040518163ffffffff1660e01b8152600401600060405180830381600087803b158015620007ac57600080fd5b505af1158015620007c1573d6000803e3d6000fd5b50505050505050565b620007d46200199c565b6001600160a01b03919091166000908152600460205260409020805460ff1916911515919091179055565b3360009081526004602052604090205460ff16806200083857506200082362000fef565b6001600160a01b0316336001600160a01b0316145b620008575760405162461bcd60e51b8152600401620005f3906200226f565b60006005836040516200086b9190620022a6565b9081526040519081900360200190205490506200088a8160016200236c565b6005846040516200089c9190620022a6565b908152604051908190036020019020556000620008bb8260016200236c565b90506000620008cb8583620019d2565b60405163025df42360e61b81529091506001600160a01b0382169063977d08c090620009009088908690899060040162002382565b600060405180830381600087803b1580156200091b57600080fd5b505af115801562000930573d6000803e3d6000fd5b5050505080600686604051620009479190620022a6565b9081526040805160209281900383019020600086815290835281812080546001600160a01b0319166001600160a01b0395861617905592841683526007909152902062000995868262002436565b505050505050565b620009a76200199c565b600255565b60076020526000908152604090208054620009c790620023a9565b80601f0160208091040260200160405190810160405280929190818152602001828054620009f590620023a9565b801562000a465780601f1062000a1a5761010080835404028352916020019162000a46565b820191906000526020600020905b81548152906001019060200180831162000a2857829003601f168201915b505050505081565b3360009081526004602052604090205460ff168062000a87575062000a7262000fef565b6001600160a01b0316336001600160a01b0316145b62000aa65760405162461bcd60e51b8152600401620005f3906200226f565b600060068660405162000aba9190620022a6565b9081526040805160209281900383019020600088815292529020546001600160a01b031690508062000b005760405162461bcd60e51b8152600401620005f390620022c4565b604051631709b74360e11b81526001600160a01b03821690632e136e869062000b2e90879060040162001fb1565b602060405180830381865afa15801562000b4c573d6000803e3d6000fd5b505050506040513d601f19601f8201168201806040525081019062000b72919062002502565b62000bc05760405162461bcd60e51b815260206004820152601b60248201527f47616d6552756c6556313a20706c7972206e6f74206a6f696e656400000000006044820152606401620005f3565b6040516213049560e71b81526001600160a01b0384811660048301528216906309824a8090602401600060405180830381600087803b15801562000c0357600080fd5b505af115801562000c18573d6000803e3d6000fd5b5050506001600160a01b038416905062000d1c5760015460405163305f840560e11b81526000916001600160a01b0316906360bf080a9062000c5f90889060040162001fb1565b602060405180830381865afa15801562000c7d573d6000803e3d6000fd5b505050506040513d601f19601f8201168201806040525081019062000ca3919062002522565b6000546040516369d1654160e11b81526001600160a01b03808416600483015285811660248301526044820187905292935091169063d3a2ca8290606401600060405180830381600087803b15801562000cfc57600080fd5b505af115801562000d11573d6000803e3d6000fd5b505050505062000995565b60015460405163305f840560e11b81526000916001600160a01b0316906360bf080a9062000d4f90889060040162001fb1565b602060405180830381865afa15801562000d6d573d6000803e3d6000fd5b505050506040513d601f19601f8201168201806040525081019062000d93919062002522565b600054604051632a02e08560e11b81526001600160a01b0387811660048301528084166024830152858116604483015260648201879052929350911690635405c10a90608401600060405180830381600087803b15801562000df457600080fd5b505af115801562000e09573d6000803e3d6000fd5b5050505050505050505050565b62000e206200199c565b62000e2c600062001a80565b565b3360009081526004602052604090205460ff168062000e67575062000e5262000fef565b6001600160a01b0316336001600160a01b0316145b62000e865760405162461bcd60e51b8152600401620005f3906200226f565b600060068460405162000e9a9190620022a6565b9081526040805160209281900383019020600086815292529020546001600160a01b031690508062000ee05760405162461bcd60e51b8152600401620005f390620022c4565b60405163c74073a160e01b81526001600160a01b03838116600483015282169063c74073a19060240162000684565b3360009081526004602052604090205460ff168062000f48575062000f3362000fef565b6001600160a01b0316336001600160a01b0316145b62000f675760405162461bcd60e51b8152600401620005f3906200226f565b600060068460405162000f7b9190620022a6565b9081526040805160209281900383019020600086815292529020546001600160a01b031690508062000fc15760405162461bcd60e51b8152600401620005f390620022c4565b604051631edc210760e11b81526001600160a01b03821690633db8420e9062000684908590600401620022fb565b7f9016d09d72d40fdae2fd8ceac6b6234c7706214fd39c1cd1e609a0528c199300546001600160a01b031690565b60008083836040516020016200103592919062002542565b604051602081830303815290604052805190602001209050600060405180602001620010619062001c5b565b6020820181038252601f19601f8201166040525090506200108a82828051906020012062001af1565b925050505b92915050565b6060816001600160401b03811115620010b257620010b262001c69565b604051908082528060200260200182016040528015620010e757816020015b6060815260200190600190039081620010d15790505b50905060005b82811015620011f357600080308686858181106200110f576200110f62002566565b90506020028101906200112391906200257c565b60405162001133929190620025cc565b600060405180830381855af49150503d806000811462001170576040519150601f19603f3d011682016040523d82523d6000602084013e62001175565b606091505b509150915081620011c7576044815110156200119057600080fd5b60048101905080806020019051810190620011ac9190620025dc565b60405162461bcd60e51b8152600401620005f3919062001fb1565b80848481518110620011dd57620011dd62002566565b60209081029190910101525050600101620010ed565b5092915050565b620012046200199c565b600380546001600160a01b0319166001600160a01b0392909216919091179055565b3360009081526004602052604090205460ff16806200125f57506200124a62000fef565b6001600160a01b0316336001600160a01b0316145b6200127e5760405162461bcd60e51b8152600401620005f3906200226f565b6000600686604051620012929190620022a6565b9081526040805160209281900383019020600088815292529020546001600160a01b0316905080620012d85760405162461bcd60e51b8152600401620005f390620022c4565b604051631709b74360e11b81526001600160a01b03821690632e136e86906200130690879060040162001fb1565b602060405180830381865afa15801562001324573d6000803e3d6000fd5b505050506040513d601f19601f820116820180604052508101906200134a919062002502565b620013985760405162461bcd60e51b815260206004820152601b60248201527f47616d6552756c6556313a20706c7972206e6f74206a6f696e656400000000006044820152606401620005f3565b6040516213049560e71b81526001600160a01b0384811660048301528216906309824a8090602401600060405180830381600087803b158015620013db57600080fd5b505af1158015620013f0573d6000803e3d6000fd5b5050505060006064600254846200140891906200265b565b62001414919062002675565b9050600062001424828562002698565b90506001600160a01b038516620015a6576001546040516000916001600160a01b0316906360bf080a906200145e908a90602001620026ae565b6040516020818303038152906040526040518263ffffffff1660e01b81526004016200148b919062001fb1565b602060405180830381865afa158015620014a9573d6000803e3d6000fd5b505050506040513d601f19601f82011682018060405250810190620014cf919062002522565b60405163f2522bcd60e01b81526001600160a01b038083166004830152602482018590529192509085169063f2522bcd90604401600060405180830381600087803b1580156200151e57600080fd5b505af115801562001533573d6000803e3d6000fd5b505060035460405163f2522bcd60e01b81526001600160a01b03918216600482015260248101879052908716925063f2522bcd9150604401600060405180830381600087803b1580156200158657600080fd5b505af11580156200159b573d6000803e3d6000fd5b5050505050620006b4565b6001546040516000916001600160a01b0316906360bf080a90620015cf908a90602001620026ae565b6040516020818303038152906040526040518263ffffffff1660e01b8152600401620015fc919062001fb1565b602060405180830381865afa1580156200161a573d6000803e3d6000fd5b505050506040513d601f19601f8201168201806040525081019062001640919062002522565b6040516317d5759960e31b81526001600160a01b0388811660048301528083166024830152604482018590529192509085169063beabacc890606401600060405180830381600087803b1580156200169757600080fd5b505af1158015620016ac573d6000803e3d6000fd5b50506003546040516317d5759960e31b81526001600160a01b038a81166004830152918216602482015260448101879052908716925063beabacc89150606401600060405180830381600087803b1580156200170757600080fd5b505af11580156200171c573d6000803e3d6000fd5b50505050505050505050505050565b600080600685604051620017409190620022a6565b9081526040805160209281900383019020600087815292529020546001600160a01b031690508062001777576000915050620017ed565b604051631709b74360e11b81526001600160a01b03821690632e136e8690620017a590869060040162001fb1565b602060405180830381865afa158015620017c3573d6000803e3d6000fd5b505050506040513d601f19601f82011682018060405250810190620017e9919062002502565b9150505b9392505050565b620017fe6200199c565b6001600160a01b0381166200182a57604051631e4fbdf760e01b815260006004820152602401620005f3565b620018358162001a80565b50565b7ff0c57e16840df040f15088dc2f81fe391c3923bec73e23a9662efc9c229c6a008054600160401b810460ff1615906001600160401b03166000811580156200187e5750825b90506000826001600160401b031660011480156200189b5750303b155b905081158015620018aa575080155b15620018c95760405163f92ee8a960e01b815260040160405180910390fd5b845467ffffffffffffffff191660011785558315620018f457845460ff60401b1916600160401b1785555b60028055600380546001600160a01b03808a166001600160a01b031992831617909255600080548b84169083161790556001805492891692909116919091179055620019408962001b00565b6200194a62001b15565b83156200199157845460ff60401b19168555604051600181527fc7f505b2f371ae2175ee4913f4499e1f2633a7b5936321eed1cdaeb6115181d29060200160405180910390a15b505050505050505050565b33620019a762000fef565b6001600160a01b03161462000e2c5760405163118cdaa760e01b8152336004820152602401620005f3565b6000808383604051602001620019ea92919062002542565b60405160208183030381529060405280519060200120905060006040518060200162001a169062001c5b565b601f1982820381018352601f90910116604052905062001a396000838362001b29565b92507ffb7cc44ea40b5981af090fdacf3750b5fe758fc83a7eff829837ac9f53dcc7a985858560405162001a7093929190620026d9565b60405180910390a1505092915050565b7f9016d09d72d40fdae2fd8ceac6b6234c7706214fd39c1cd1e609a0528c19930080546001600160a01b031981166001600160a01b03848116918217845560405192169182907f8be0079c531659141344cd1fd0a4f28419497f9722a3daafe3b4186f6b6457e090600090a3505050565b6000620017ed83833062001bad565b62001b0a62001bd7565b620018358162001c21565b62001b1f62001bd7565b62000e2c62001c2b565b60008347101562001b575760405163392efb2b60e21b815247600482015260248101859052604401620005f3565b815160000362001b7a57604051631328927760e21b815260040160405180910390fd5b8282516020840186f590506001600160a01b038116620017ed57604051633a0ba96160e11b815260040160405180910390fd5b6000604051836040820152846020820152828152600b8101905060ff815360559020949350505050565b7ff0c57e16840df040f15088dc2f81fe391c3923bec73e23a9662efc9c229c6a0054600160401b900460ff1662000e2c57604051631afcd79f60e31b815260040160405180910390fd5b620017fe62001bd7565b62001c3562001bd7565b60017f9b779b17422d0df92223018b32b4d1fa46e071723d6817e2486d003becc55f0055565b61194e806200270f83390190565b634e487b7160e01b600052604160045260246000fd5b604051601f8201601f191681016001600160401b038111828210171562001caa5762001caa62001c69565b604052919050565b60006001600160401b0382111562001cce5762001cce62001c69565b50601f01601f191660200190565b600082601f83011262001cee57600080fd5b813562001d0562001cff8262001cb2565b62001c7f565b81815284602083860101111562001d1b57600080fd5b816020850160208301376000918101602001919091529392505050565b60006020828403121562001d4b57600080fd5b81356001600160401b0381111562001d6257600080fd5b62001d708482850162001cdc565b949350505050565b6000806040838503121562001d8c57600080fd5b82356001600160401b0381111562001da357600080fd5b62001db18582860162001cdc565b95602094909401359450505050565b6001600160a01b03811681146200183557600080fd5b60006020828403121562001de957600080fd5b8135620017ed8162001dc0565b60008060006060848603121562001e0c57600080fd5b83356001600160401b038082111562001e2457600080fd5b62001e328783880162001cdc565b94506020915081860135935060408601358181111562001e5157600080fd5b8601601f8101881362001e6357600080fd5b80358281111562001e785762001e7862001c69565b8060051b62001e8985820162001c7f565b918252828101850191858101908b84111562001ea457600080fd5b86850192505b8383101562001ee55782358681111562001ec45760008081fd5b62001ed48d898389010162001cdc565b835250918601919086019062001eaa565b809750505050505050509250925092565b80151581146200183557600080fd5b6000806040838503121562001f1957600080fd5b823562001f268162001dc0565b9150602083013562001f388162001ef6565b809150509250929050565b60006020828403121562001f5657600080fd5b5035919050565b60005b8381101562001f7a57818101518382015260200162001f60565b50506000910152565b6000815180845262001f9d81602086016020860162001f5d565b601f01601f19169290920160200192915050565b602081526000620017ed602083018462001f83565b600080600080600060a0868803121562001fdf57600080fd5b85356001600160401b038082111562001ff757600080fd5b6200200589838a0162001cdc565b96506020880135955060408801359150808211156200202357600080fd5b50620020328882890162001cdc565b9350506060860135620020458162001dc0565b949793965091946080013592915050565b6000806000606084860312156200206c57600080fd5b83356001600160401b038111156200208357600080fd5b620020918682870162001cdc565b935050602084013591506040840135620020ab8162001dc0565b809150509250925092565b60008060208385031215620020ca57600080fd5b82356001600160401b0380821115620020e257600080fd5b818501915085601f830112620020f757600080fd5b8135818111156200210757600080fd5b8660208260051b85010111156200211d57600080fd5b60209290920196919550909350505050565b600060208083016020845280855180835260408601915060408160051b87010192506020870160005b828110156200218a57603f198886030184526200217785835162001f83565b9450928501929085019060010162002158565b5092979650505050505050565b600080600060608486031215620021ad57600080fd5b83356001600160401b0380821115620021c557600080fd5b620021d38783880162001cdc565b9450602086013593506040860135915080821115620021f157600080fd5b50620022008682870162001cdc565b9150509250925092565b600080600080608085870312156200222157600080fd5b84356200222e8162001dc0565b93506020850135620022408162001dc0565b92506040850135620022528162001dc0565b91506060850135620022648162001dc0565b939692955090935050565b6020808252601a908201527f47616d6552756c6556313a206f6e6c79206f70657261746f7273000000000000604082015260600190565b60008251620022ba81846020870162001f5d565b9190910192915050565b6020808252601a908201527f47616d6552756c6556313a20726f6f6d206e6f7420666f756e64000000000000604082015260600190565b600060208083016020845280855180835260408601915060408160051b87010192506020870160005b828110156200218a57603f198886030184526200234385835162001f83565b9450928501929085019060010162002324565b634e487b7160e01b600052601160045260246000fd5b808201808211156200108f576200108f62002356565b60608152600062002397606083018662001f83565b60208301949094525060400152919050565b600181811c90821680620023be57607f821691505b602082108103620023df57634e487b7160e01b600052602260045260246000fd5b50919050565b601f82111562002431576000816000526020600020601f850160051c81016020861015620024105750805b601f850160051c820191505b8181101562000995578281556001016200241c565b505050565b81516001600160401b0381111562002452576200245262001c69565b6200246a81620024638454620023a9565b84620023e5565b602080601f831160018114620024a25760008415620024895750858301515b600019600386901b1c1916600185901b17855562000995565b600085815260208120601f198616915b82811015620024d357888601518255948401946001909101908401620024b2565b5085821015620024f25787850151600019600388901b60f8161c191681555b5050505050600190811b01905550565b6000602082840312156200251557600080fd5b8151620017ed8162001ef6565b6000602082840312156200253557600080fd5b8151620017ed8162001dc0565b60408152600062002557604083018562001f83565b90508260208301529392505050565b634e487b7160e01b600052603260045260246000fd5b6000808335601e198436030181126200259457600080fd5b8301803591506001600160401b03821115620025af57600080fd5b602001915036819003821315620025c557600080fd5b9250929050565b8183823760009101908152919050565b600060208284031215620025ef57600080fd5b81516001600160401b038111156200260657600080fd5b8201601f810184136200261857600080fd5b80516200262962001cff8262001cb2565b8181528560208385010111156200263f57600080fd5b6200265282602083016020860162001f5d565b95945050505050565b80820281158282048414176200108f576200108f62002356565b6000826200269357634e487b7160e01b600052601260045260246000fd5b500490565b818103818111156200108f576200108f62002356565b60008251620026c281846020870162001f5d565b641738363cb960d91b920191825250600501919050565b606081526000620026ee606083018662001f83565b6020830194909452506001600160a01b039190911660409091015291905056fe608060405234801561001057600080fd5b50338061003757604051631e4fbdf760e01b81526000600482015260240160405180910390fd5b61004081610046565b50610096565b600080546001600160a01b038381166001600160a01b0319831681178455604051919092169283917f8be0079c531659141344cd1fd0a4f28419497f9722a3daafe3b4186f6b6457e09190a35050565b6118a9806100a56000396000f3fe6080604052600436106101235760003560e01c8063a2e1ce62116100a0578063d7c81b5511610064578063d7c81b551461035c578063efbe1c1c1461037e578063f2522bcd14610393578063f2fde38b146103b3578063f954d0d9146103d357600080fd5b8063a2e1ce62146102b0578063a4fd6f56146102e0578063aa6ca808146102fa578063beabacc81461031c578063c74073a11461033c57600080fd5b80634f64b2be116100e75780634f64b2be14610205578063715018a61461023d5780638da5cb5b14610252578063977d08c0146102705780639bce4e141461029057600080fd5b806309824a801461012f57806329dcb0cf146101515780632e136e861461017a5780633db8420e146101aa578063475fb9e6146101ca57600080fd5b3661012a57005b600080fd5b34801561013b57600080fd5b5061014f61014a366004611199565b6103e9565b005b34801561015d57600080fd5b5061016760035481565b6040519081526020015b60405180910390f35b34801561018657600080fd5b5061019a61019536600461126d565b6104ad565b6040519015158152602001610171565b3480156101b657600080fd5b5061014f6101c53660046112aa565b61052f565b3480156101d657600080fd5b5061019a6101e536600461126d565b805160208183018101805160068252928201919093012091525460ff1681565b34801561021157600080fd5b5061022561022036600461136d565b6105f8565b6040516001600160a01b039091168152602001610171565b34801561024957600080fd5b5061014f610622565b34801561025e57600080fd5b506000546001600160a01b0316610225565b34801561027c57600080fd5b5061014f61028b366004611386565b610636565b34801561029c57600080fd5b5061014f6102ab3660046112aa565b61079f565b3480156102bc57600080fd5b5061019a6102cb366004611199565b60076020526000908152604090205460ff1681565b3480156102ec57600080fd5b5060045461019a9060ff1681565b34801561030657600080fd5b5061030f610864565b60405161017191906113d4565b34801561032857600080fd5b5061014f610337366004611421565b6108c6565b34801561034857600080fd5b5061014f610357366004611199565b6108e7565b34801561036857600080fd5b50610371610bdf565b60405161017191906114b2565b34801561038a57600080fd5b5061014f610c6d565b34801561039f57600080fd5b5061014f6103ae3660046114c5565b610e37565b3480156103bf57600080fd5b5061014f6103ce366004611199565b610e49565b3480156103df57600080fd5b5061016760025481565b6103f1610e84565b6001600160a01b03811660009081526007602052604090205460ff166104aa576005805460018082019092557f036b6384b5eca791c62761152d0c79bb0604c104a5fb6f4eb0703f3154bb3db00180546001600160a01b0319166001600160a01b038416908117909155600081815260076020908152604091829020805460ff1916909417909355519081527f158412daecdc1456d01568828bcdb18464cc7f1ce0215ddbc3f3cfede9d1e63d91015b60405180910390a15b50565b60006006826040516104bf91906114f1565b9081526040519081900360200190205460ff1680610529575060016040516020016104ea9190611547565b604051602081830303815290604052805190602001208260405160200161051191906114f1565b60405160208183030381529060405280519060200120145b92915050565b610537610e84565b60005b81518110156105f45760006006838381518110610559576105596115bd565b602002602001015160405161056e91906114f1565b908152602001604051809103902060006101000a81548160ff0219169083151502179055507f5cb6468e01c321c195d8437416322f6c7b51e265edab465a79c231fad6b53dee60016002548484815181106105cb576105cb6115bd565b6020026020010151426040516105e49493929190611650565b60405180910390a160010161053a565b5050565b6005818154811061060857600080fd5b6000918252602090912001546001600160a01b0316905081565b61062a610e84565b6106346000610eb1565b565b7ff0c57e16840df040f15088dc2f81fe391c3923bec73e23a9662efc9c229c6a008054600160401b810460ff16159067ffffffffffffffff1660008115801561067c5750825b905060008267ffffffffffffffff1660011480156106995750303b155b9050811580156106a7575080155b156106c55760405163f92ee8a960e01b815260040160405180910390fd5b845467ffffffffffffffff1916600117855583156106ef57845460ff60401b1916600160401b1785555b60016106fb89826116dd565b50600287905561070b864261179d565b60038190556002546040517f5bb40d63135f752607da3ecbfc1ffc67f89afad879bed5dfee15a16bec7c30a592610747926001929091906117be565b60405180910390a1831561079557845460ff60401b19168555604051600181527fc7f505b2f371ae2175ee4913f4499e1f2633a7b5936321eed1cdaeb6115181d29060200160405180910390a15b5050505050505050565b6107a7610e84565b60005b81518110156105f457600160068383815181106107c9576107c96115bd565b60200260200101516040516107de91906114f1565b908152602001604051809103902060006101000a81548160ff0219169083151502179055507fcc272659d82aa91a1f080eb07b21500b34be0df4d27769512d27c750aba681a2600160025484848151811061083b5761083b6115bd565b6020026020010151426040516108549493929190611650565b60405180910390a16001016107aa565b606060058054806020026020016040519081016040528092919081815260200182805480156108bc57602002820191906000526020600020905b81546001600160a01b0316815260019091019060200180831161089e575b5050505050905090565b6108ce610e84565b6108e26001600160a01b0384168383610f01565b505050565b6108ef610e84565b60035442116109345760405162461bcd60e51b815260206004820152600c60248201526b11d85b59539bdd115b99195960a21b60448201526064015b60405180910390fd5b60045460ff161561097a5760405162461bcd60e51b815260206004820152601060248201526f11d85b59505b1c9958591e515b99195960821b604482015260640161092b565b60005b600554811015610b995760006001600160a01b0316600582815481106109a5576109a56115bd565b6000918252602090912001546001600160a01b031614610b81576000600582815481106109d4576109d46115bd565b6000918252602090912001546040516370a0823160e01b81523060048201526001600160a01b03909116906370a0823190602401602060405180830381865afa158015610a25573d6000803e3d6000fd5b505050506040513d601f19601f82011682018060405250810190610a4991906117e3565b1115610b7c5760058181548110610a6257610a626115bd565b600091825260209091200154600580546001600160a01b039092169163a9059cbb91859185908110610a9657610a966115bd565b6000918252602090912001546040516370a0823160e01b81523060048201526001600160a01b03909116906370a0823190602401602060405180830381865afa158015610ae7573d6000803e3d6000fd5b505050506040513d601f19601f82011682018060405250810190610b0b91906117e3565b6040516001600160e01b031960e085901b1681526001600160a01b03909216600483015260248201526044016020604051808303816000875af1158015610b56573d6000803e3d6000fd5b505050506040513d601f19601f82011682018060405250810190610b7a91906117fc565b505b610b91565b4715610b9157610b918247610f53565b60010161097d565b506004805460ff191660019081179091556002546040517f51face237fecf262f6f4cbff1e2cb10355e4f478f2a934b059697485a3d039ed926104a1929091859061181e565b60018054610bec9061150d565b80601f0160208091040260200160405190810160405280929190818152602001828054610c189061150d565b8015610c655780601f10610c3a57610100808354040283529160200191610c65565b820191906000526020600020905b815481529060010190602001808311610c4857829003601f168201915b505050505081565b610c75610e84565b60005b600554811015610de95760006001600160a01b031660058281548110610ca057610ca06115bd565b6000918252602090912001546001600160a01b031614610d9057600060058281548110610ccf57610ccf6115bd565b6000918252602090912001546040516370a0823160e01b81523060048201526001600160a01b03909116906370a0823190602401602060405180830381865afa158015610d20573d6000803e3d6000fd5b505050506040513d601f19601f82011682018060405250810190610d4491906117e3565b90508015610d8a5760405162461bcd60e51b8152602060048201526013602482015272546f6b656e42616c616e63654e6f745a65726f60681b604482015260640161092b565b50610de1565b478015610ddf5760405162461bcd60e51b815260206004820152601860248201527f4e6174697665436f696e42616c616e63654e6f745a65726f0000000000000000604482015260640161092b565b505b600101610c78565b506004805460ff191660019081179091556002546040517fea20419b16267d9e7b733136c4c8d716a7d68522654cf5ba20af0db8820a627d92610e2d929091611851565b60405180910390a1565b610e3f610e84565b6105f48282610f53565b610e51610e84565b6001600160a01b038116610e7b57604051631e4fbdf760e01b81526000600482015260240161092b565b6104aa81610eb1565b6000546001600160a01b031633146106345760405163118cdaa760e01b815233600482015260240161092b565b600080546001600160a01b038381166001600160a01b0319831681178455604051919092169283917f8be0079c531659141344cd1fd0a4f28419497f9722a3daafe3b4186f6b6457e09190a35050565b604080516001600160a01b038416602482015260448082018490528251808303909101815260649091019091526020810180516001600160e01b031663a9059cbb60e01b1790526108e2908490610fea565b80471015610f765760405163cd78605960e01b815230600482015260240161092b565b6000826001600160a01b03168260405160006040518083038185875af1925050503d8060008114610fc3576040519150601f19603f3d011682016040523d82523d6000602084013e610fc8565b606091505b50509050806108e257604051630a12f52160e11b815260040160405180910390fd5b6000610fff6001600160a01b0384168361104d565b9050805160001415801561102457508080602001905181019061102291906117fc565b155b156108e257604051635274afe760e01b81526001600160a01b038416600482015260240161092b565b606061105b83836000611062565b9392505050565b6060814710156110875760405163cd78605960e01b815230600482015260240161092b565b600080856001600160a01b031684866040516110a391906114f1565b60006040518083038185875af1925050503d80600081146110e0576040519150601f19603f3d011682016040523d82523d6000602084013e6110e5565b606091505b50915091506110f58683836110ff565b9695505050505050565b6060826111145761110f8261115b565b61105b565b815115801561112b57506001600160a01b0384163b155b1561115457604051639996b31560e01b81526001600160a01b038516600482015260240161092b565b508061105b565b80511561116b5780518082602001fd5b604051630a12f52160e11b815260040160405180910390fd5b6001600160a01b03811681146104aa57600080fd5b6000602082840312156111ab57600080fd5b813561105b81611184565b634e487b7160e01b600052604160045260246000fd5b604051601f8201601f1916810167ffffffffffffffff811182821017156111f5576111f56111b6565b604052919050565b600082601f83011261120e57600080fd5b813567ffffffffffffffff811115611228576112286111b6565b61123b601f8201601f19166020016111cc565b81815284602083860101111561125057600080fd5b816020850160208301376000918101602001919091529392505050565b60006020828403121561127f57600080fd5b813567ffffffffffffffff81111561129657600080fd5b6112a2848285016111fd565b949350505050565b600060208083850312156112bd57600080fd5b823567ffffffffffffffff808211156112d557600080fd5b818501915085601f8301126112e957600080fd5b8135818111156112fb576112fb6111b6565b8060051b61130a8582016111cc565b918252838101850191858101908984111561132457600080fd5b86860192505b83831015611360578235858111156113425760008081fd5b6113508b89838a01016111fd565b835250918601919086019061132a565b9998505050505050505050565b60006020828403121561137f57600080fd5b5035919050565b60008060006060848603121561139b57600080fd5b833567ffffffffffffffff8111156113b257600080fd5b6113be868287016111fd565b9660208601359650604090950135949350505050565b6020808252825182820181905260009190848201906040850190845b818110156114155783516001600160a01b0316835292840192918401916001016113f0565b50909695505050505050565b60008060006060848603121561143657600080fd5b833561144181611184565b9250602084013561145181611184565b929592945050506040919091013590565b60005b8381101561147d578181015183820152602001611465565b50506000910152565b6000815180845261149e816020860160208601611462565b601f01601f19169290920160200192915050565b60208152600061105b6020830184611486565b600080604083850312156114d857600080fd5b82356114e381611184565b946020939093013593505050565b60008251611503818460208701611462565b9190910192915050565b600181811c9082168061152157607f821691505b60208210810361154157634e487b7160e01b600052602260045260246000fd5b50919050565b60008083546115558161150d565b6001828116801561156d5760018114611582576115b1565b60ff19841687528215158302870194506115b1565b8760005260208060002060005b858110156115a85781548a82015290840190820161158f565b50505082870194505b50929695505050505050565b634e487b7160e01b600052603260045260246000fd5b600081546115e08161150d565b8085526020600183811680156115fd576001811461161757611645565b60ff1985168884015283151560051b880183019550611645565b866000528260002060005b8581101561163d5781548a8201860152908301908401611622565b890184019650505b505050505092915050565b60808152600061166360808301876115d3565b856020840152828103604084015261167b8186611486565b91505082606083015295945050505050565b601f8211156108e2576000816000526020600020601f850160051c810160208610156116b65750805b601f850160051c820191505b818110156116d5578281556001016116c2565b505050505050565b815167ffffffffffffffff8111156116f7576116f76111b6565b61170b81611705845461150d565b8461168d565b602080601f83116001811461174057600084156117285750858301515b600019600386901b1c1916600185901b1785556116d5565b600085815260208120601f198616915b8281101561176f57888601518255948401946001909101908401611750565b508582101561178d5787850151600019600388901b60f8161c191681555b5050505050600190811b01905550565b8082018082111561052957634e487b7160e01b600052601160045260246000fd5b6060815260006117d160608301866115d3565b60208301949094525060400152919050565b6000602082840312156117f557600080fd5b5051919050565b60006020828403121561180e57600080fd5b8151801515811461105b57600080fd5b60608152600061183160608301866115d3565b6020830194909452506001600160a01b0391909116604090910152919050565b60408152600061186460408301856115d3565b9050826020830152939250505056fea2646970667358221220a2b7c31dbcc69709f5b248e39b77f4ac645e89206b625f15d6c88db49d2968b964736f6c63430008180033a2646970667358221220fbe512f6ef83bcfb7e4cd697abe67b23b9852a63288eabc526d4fbee9a97d05f64736f6c63430008180033",
  "linkReferences": {},
  "deployedLinkReferences": {}
}