{
  "_format": "hh-sol-artifact-1",
  "contractName": "GameChipFactory",
  "sourceName": "contracts/GameChipFactory.sol",
  "abi": [
    {
      "inputs": [],
      "stateMutability": "nonpayable",
      "type": "constructor"
    },
    {
      "inputs": [],
      "name": "ERC1167FailedCreateClone",
      "type": "error"
    },
    {
      "inputs": [],
      "name": "InvalidInitialization",
      "type": "error"
    },
    {
      "inputs": [],
      "name": "NotInitializing",
      "type": "error"
    },
    {
      "inputs": [
        {
          "internalType": "address",
          "name": "owner",
          "type": "address"
        }
      ],
      "name": "OwnableInvalidOwner",
      "type": "error"
    },
    {
      "inputs": [
        {
          "internalType": "address",
          "name": "account",
          "type": "address"
        }
      ],
      "name": "OwnableUnauthorizedAccount",
      "type": "error"
    },
    {
      "anonymous": false,
      "inputs": [
        {
          "indexed": true,
          "internalType": "address",
          "name": "chip",
          "type": "address"
        },
        {
          "indexed": false,
          "internalType": "string",
          "name": "gameId",
          "type": "string"
        },
        {
          "indexed": false,
          "internalType": "string",
          "name": "name",
          "type": "string"
        },
        {
          "indexed": false,
          "internalType": "string",
          "name": "symbol",
          "type": "string"
        }
      ],
      "name": "ChipCreated",
      "type": "event"
    },
    {
      "anonymous": false,
      "inputs": [
        {
          "indexed": false,
          "internalType": "uint64",
          "name": "version",
          "type": "uint64"
        }
      ],
      "name": "Initialized",
      "type": "event"
    },
    {
      "anonymous": false,
      "inputs": [
        {
          "indexed": true,
          "internalType": "address",
          "name": "previousOwner",
          "type": "address"
        },
        {
          "indexed": true,
          "internalType": "address",
          "name": "newOwner",
          "type": "address"
        }
      ],
      "name": "OwnershipTransferred",
      "type": "event"
    },
    {
      "inputs": [
        {
          "internalType": "address",
          "name": "_chip",
          "type": "address"
        },
        {
          "internalType": "address",
          "name": "_from",
          "type": "address"
        },
        {
          "internalType": "uint256",
          "name": "_amount",
          "type": "uint256"
        }
      ],
      "name": "burn",
      "outputs": [],
      "stateMutability": "nonpayable",
      "type": "function"
    },
    {
      "inputs": [
        {
          "internalType": "address",
          "name": "",
          "type": "address"
        }
      ],
      "name": "chipGameId",
      "outputs": [
        {
          "internalType": "string",
          "name": "",
          "type": "string"
        }
      ],
      "stateMutability": "view",
      "type": "function"
    },
    {
      "inputs": [
        {
          "internalType": "address",
          "name": "",
          "type": "address"
        }
      ],
      "name": "chipHolderCount",
      "outputs": [
        {
          "internalType": "uint256",
          "name": "",
          "type": "uint256"
        }
      ],
      "stateMutability": "view",
      "type": "function"
    },
    {
      "inputs": [],
      "name": "chipImplementation",
      "outputs": [
        {
          "internalType": "address",
          "name": "",
          "type": "address"
        }
      ],
      "stateMutability": "view",
      "type": "function"
    },
    {
      "inputs": [
        {
          "internalType": "address",
          "name": "_chip",
          "type": "address"
        }
      ],
      "name": "chipInfo",
      "outputs": [
        {
          "internalType": "address",
          "name": "tokenAddress",
          "type": "address"
        },
        {
          "internalType": "string",
          "name": "gameId",
          "type": "string"
        },
        {
          "internalType": "string",
          "name": "name",
          "type": "string"
        },
        {
          "internalType": "string",
          "name": "symbol",
          "type": "string"
        },
        {
          "internalType": "uint256",
          "name": "totalSupply",
          "type": "uint256"
        },
        {
          "internalType": "uint256",
          "name": "holderCount",
          "type": "uint256"
        }
      ],
      "stateMutability": "view",
      "type": "function"
    },
    {
      "inputs": [
        {
          "internalType": "uint256",
          "name": "",
          "type": "uint256"
        }
      ],
      "name": "chips",
      "outputs": [
        {
          "internalType": "address",
          "name": "",
          "type": "address"
        }
      ],
      "stateMutability": "view",
      "type": "function"
    },
    {
      "inputs": [
        {
          "internalType": "address",
          "name": "_implementation",
          "type": "address"
        }
      ],
      "name": "configChipImplementation",
      "outputs": [],
      "stateMutability": "nonpayable",
      "type": "function"
    },
    {
      "inputs": [
        {
          "internalType": "address",
          "name": "_gameRouter",
          "type": "address"
        }
      ],
      "name": "configGameRouter",
      "outputs": [],
      "stateMutability": "nonpayable",
      "type": "function"
    },
    {
      "inputs": [
        {
          "internalType": "string",
          "name": "_gameId",
          "type": "string"
        },
        {
          "internalType": "string",
          "name": "_name",
          "type": "string"
        },
        {
          "internalType": "string",
          "name": "_symbol",
          "type": "string"
        }
      ],
      "name": "createChip",
      "outputs": [],
      "stateMutability": "nonpayable",
      "type": "function"
    },
    {
      "inputs": [],
      "name": "gameRouter",
      "outputs": [
        {
          "internalType": "address",
          "name": "",
          "type": "address"
        }
      ],
      "stateMutability": "view",
      "type": "function"
    },
    {
      "inputs": [
        {
          "internalType": "address",
          "name": "_chip",
          "type": "address"
        },
        {
          "internalType": "address",
          "name": "_from",
          "type": "address"
        },
        {
          "internalType": "address",
          "name": "_to",
          "type": "address"
        },
        {
          "internalType": "uint256",
          "name": "_amount",
          "type": "uint256"
        }
      ],
      "name": "gameTransfer",
      "outputs": [],
      "stateMutability": "nonpayable",
      "type": "function"
    },
    {
      "inputs": [
        {
          "internalType": "address",
          "name": "_implementation",
          "type": "address"
        },
        {
          "internalType": "address",
          "name": "_owner",
          "type": "address"
        },
        {
          "internalType": "address",
          "name": "_gameRouter",
          "type": "address"
        }
      ],
      "name": "initialize",
      "outputs": [],
      "stateMutability": "nonpayable",
      "type": "function"
    },
    {
      "inputs": [
        {
          "internalType": "address",
          "name": "_chip",
          "type": "address"
        },
        {
          "internalType": "address",
          "name": "_to",
          "type": "address"
        },
        {
          "internalType": "uint256",
          "name": "_amount",
          "type": "uint256"
        }
      ],
      "name": "mint",
      "outputs": [],
      "stateMutability": "nonpayable",
      "type": "function"
    },
    {
      "inputs": [],
      "name": "owner",
      "outputs": [
        {
          "internalType": "address",
          "name": "",
          "type": "address"
        }
      ],
      "stateMutability": "view",
      "type": "function"
    },
    {
      "inputs": [],
      "name": "renounceOwnership",
      "outputs": [],
      "stateMutability": "nonpayable",
      "type": "function"
    },
    {
      "inputs": [],
      "name": "totalChipCount",
      "outputs": [
        {
          "internalType": "uint256",
          "name": "",
          "type": "uint256"
        }
      ],
      "stateMutability": "view",
      "type": "function"
    },
    {
      "inputs": [
        {
          "internalType": "address",
          "name": "newOwner",
          "type": "address"
        }
      ],
      "name": "transferOwnership",
      "outputs": [],
      "stateMutability": "nonpayable",
      "type": "function"
    }
  ],
  "bytecode": "0x60806040523480156200001157600080fd5b50620000226200002860201b60201c565b6200019c565b60006200003a6200013260201b60201c565b90508060000160089054906101000a900460ff161562000086576040517ff92ee8a900000000000000000000000000000000000000000000000000000000815260040160405180910390fd5b67ffffffffffffffff80168160000160009054906101000a900467ffffffffffffffff1667ffffffffffffffff16146200012f5767ffffffffffffffff8160000160006101000a81548167ffffffffffffffff021916908367ffffffffffffffff1602179055507fc7f505b2f371ae2175ee4913f4499e1f2633a7b5936321eed1cdaeb6115181d267ffffffffffffffff6040516200012691906200017f565b60405180910390a15b50565b60007ff0c57e16840df040f15088dc2f81fe391c3923bec73e23a9662efc9c229c6a00905090565b600067ffffffffffffffff82169050919050565b62000179816200015a565b82525050565b60006020820190506200019660008301846200016e565b92915050565b6122a080620001ac6000396000f3fe608060405234801561001057600080fd5b506004361061010b5760003560e01c8063c0c53b8b116100a2578063ee3e73ab11610071578063ee3e73ab1461028e578063ef9b53bd146102ac578063f2cb319c146102ca578063f2fde38b146102ff578063f6b911bc1461031b5761010b565b8063c0c53b8b1461021e578063c6c3bbe61461023a578063cb2985f214610256578063e4e20ead146102725761010b565b80637ff405c0116100de5780637ff405c0146101965780638da5cb5b146101c657806393c85fea146101e4578063a18d4132146102005761010b565b806340d96050146101105780634849e55d146101405780636b33942c14610170578063715018a61461018c575b600080fd5b61012a600480360381019061012591906116d2565b610337565b6040516101379190611740565b60405180910390f35b61015a60048036038101906101559190611787565b61036a565b60405161016791906117c3565b60405180910390f35b61018a60048036038101906101859190611787565b610382565b005b6101946103cd565b005b6101b060048036038101906101ab9190611787565b6103e1565b6040516101bd919061186e565b60405180910390f35b6101ce610481565b6040516101db9190611740565b60405180910390f35b6101fe60048036038101906101f99190611890565b6104b9565b005b610208610776565b6040516102159190611740565b60405180910390f35b610238600480360381019061023391906118f7565b61079c565b005b610254600480360381019061024f919061194a565b6109ae565b005b610270600480360381019061026b9190611ad2565b610b91565b005b61028c60048036038101906102879190611787565b610dd0565b005b610296610e1c565b6040516102a39190611740565b60405180910390f35b6102b4610e40565b6040516102c191906117c3565b60405180910390f35b6102e460048036038101906102df9190611787565b610e46565b6040516102f696959493929190611b79565b60405180910390f35b61031960048036038101906103149190611787565b6110c8565b005b6103356004803603810190610330919061194a565b61114e565b005b60046020528060005260406000206000915054906101000a900473ffffffffffffffffffffffffffffffffffffffff1681565b60056020528060005260406000206000915090505481565b61038a611327565b806000806101000a81548173ffffffffffffffffffffffffffffffffffffffff021916908373ffffffffffffffffffffffffffffffffffffffff16021790555050565b6103d5611327565b6103df60006113ae565b565b6003602052806000526040600020600091509050805461040090611c1e565b80601f016020809104026020016040519081016040528092919081815260200182805461042c90611c1e565b80156104795780601f1061044e57610100808354040283529160200191610479565b820191906000526020600020905b81548152906001019060200180831161045c57829003601f168201915b505050505081565b60008061048c611485565b90508060000160009054906101000a900473ffffffffffffffffffffffffffffffffffffffff1691505090565b600160009054906101000a900473ffffffffffffffffffffffffffffffffffffffff1673ffffffffffffffffffffffffffffffffffffffff163373ffffffffffffffffffffffffffffffffffffffff1614610549576040517f08c379a000000000000000000000000000000000000000000000000000000000815260040161054090611cc1565b60405180910390fd5b60008103156107705760008473ffffffffffffffffffffffffffffffffffffffff166370a08231846040518263ffffffff1660e01b815260040161058d9190611740565b602060405180830381865afa1580156105aa573d6000803e3d6000fd5b505050506040513d601f19601f820116820180604052508101906105ce9190611cf6565b0361062957600560008573ffffffffffffffffffffffffffffffffffffffff1673ffffffffffffffffffffffffffffffffffffffff168152602001908152602001600020600081548092919061062390611d52565b91905055505b8373ffffffffffffffffffffffffffffffffffffffff166362252bc38484846040518463ffffffff1660e01b815260040161066693929190611d9a565b600060405180830381600087803b15801561068057600080fd5b505af1158015610694573d6000803e3d6000fd5b5050505060008473ffffffffffffffffffffffffffffffffffffffff166370a08231856040518263ffffffff1660e01b81526004016106d39190611740565b602060405180830381865afa1580156106f0573d6000803e3d6000fd5b505050506040513d601f19601f820116820180604052508101906107149190611cf6565b0361076f57600560008573ffffffffffffffffffffffffffffffffffffffff1673ffffffffffffffffffffffffffffffffffffffff168152602001908152602001600020600081548092919061076990611dd1565b91905055505b5b50505050565b600160009054906101000a900473ffffffffffffffffffffffffffffffffffffffff1681565b60006107a66114ad565b905060008160000160089054906101000a900460ff1615905060008260000160009054906101000a900467ffffffffffffffff1690506000808267ffffffffffffffff161480156107f45750825b9050600060018367ffffffffffffffff16148015610829575060003073ffffffffffffffffffffffffffffffffffffffff163b145b905081158015610837575080155b1561086e576040517ff92ee8a900000000000000000000000000000000000000000000000000000000815260040160405180910390fd5b60018560000160006101000a81548167ffffffffffffffff021916908367ffffffffffffffff16021790555083156108be5760018560000160086101000a81548160ff0219169083151502179055505b6108c7876114d5565b876000806101000a81548173ffffffffffffffffffffffffffffffffffffffff021916908373ffffffffffffffffffffffffffffffffffffffff16021790555085600160006101000a81548173ffffffffffffffffffffffffffffffffffffffff021916908373ffffffffffffffffffffffffffffffffffffffff16021790555083156109a45760008560000160086101000a81548160ff0219169083151502179055507fc7f505b2f371ae2175ee4913f4499e1f2633a7b5936321eed1cdaeb6115181d2600160405161099b9190611e53565b60405180910390a15b5050505050505050565b600160009054906101000a900473ffffffffffffffffffffffffffffffffffffffff1673ffffffffffffffffffffffffffffffffffffffff163373ffffffffffffffffffffffffffffffffffffffff1614610a3e576040517f08c379a0000000000000000000000000000000000000000000000000000000008152600401610a3590611cc1565b60405180910390fd5b6000810315610b8c5760008373ffffffffffffffffffffffffffffffffffffffff166370a08231846040518263ffffffff1660e01b8152600401610a829190611740565b602060405180830381865afa158015610a9f573d6000803e3d6000fd5b505050506040513d601f19601f82011682018060405250810190610ac39190611cf6565b03610b1e57600560008473ffffffffffffffffffffffffffffffffffffffff1673ffffffffffffffffffffffffffffffffffffffff1681526020019081526020016000206000815480929190610b1890611d52565b91905055505b8273ffffffffffffffffffffffffffffffffffffffff166340c10f1983836040518363ffffffff1660e01b8152600401610b59929190611e6e565b600060405180830381600087803b158015610b7357600080fd5b505af1158015610b87573d6000803e3d6000fd5b505050505b505050565b600160009054906101000a900473ffffffffffffffffffffffffffffffffffffffff1673ffffffffffffffffffffffffffffffffffffffff163373ffffffffffffffffffffffffffffffffffffffff1614610c21576040517f08c379a0000000000000000000000000000000000000000000000000000000008152600401610c1890611cc1565b60405180910390fd5b6000610c4c60008054906101000a900473ffffffffffffffffffffffffffffffffffffffff166114e9565b90508073ffffffffffffffffffffffffffffffffffffffff16635f1e6f6d308686866040518563ffffffff1660e01b8152600401610c8d9493929190611e97565b600060405180830381600087803b158015610ca757600080fd5b505af1158015610cbb573d6000803e3d6000fd5b5050505083600360008373ffffffffffffffffffffffffffffffffffffffff1673ffffffffffffffffffffffffffffffffffffffff1681526020019081526020016000209081610d0b9190612093565b508060046000600254815260200190815260200160002060006101000a81548173ffffffffffffffffffffffffffffffffffffffff021916908373ffffffffffffffffffffffffffffffffffffffff16021790555060026000815480929190610d7390611d52565b91905055508073ffffffffffffffffffffffffffffffffffffffff167f9dabdbefdf7752ef97e64f9618ca8d96e817cf06c227a9f830c55eb5ad91372f858585604051610dc293929190612165565b60405180910390a250505050565b610dd8611327565b80600160006101000a81548173ffffffffffffffffffffffffffffffffffffffff021916908373ffffffffffffffffffffffffffffffffffffffff16021790555050565b60008054906101000a900473ffffffffffffffffffffffffffffffffffffffff1681565b60025481565b6000606080606060008086600360008973ffffffffffffffffffffffffffffffffffffffff1673ffffffffffffffffffffffffffffffffffffffff1681526020019081526020016000208873ffffffffffffffffffffffffffffffffffffffff166306fdde036040518163ffffffff1660e01b8152600401600060405180830381865afa158015610edb573d6000803e3d6000fd5b505050506040513d6000823e3d601f19601f82011682018060405250810190610f049190612221565b8973ffffffffffffffffffffffffffffffffffffffff166395d89b416040518163ffffffff1660e01b8152600401600060405180830381865afa158015610f4f573d6000803e3d6000fd5b505050506040513d6000823e3d601f19601f82011682018060405250810190610f789190612221565b8a73ffffffffffffffffffffffffffffffffffffffff166318160ddd6040518163ffffffff1660e01b8152600401602060405180830381865afa158015610fc3573d6000803e3d6000fd5b505050506040513d601f19601f82011682018060405250810190610fe79190611cf6565b600560008d73ffffffffffffffffffffffffffffffffffffffff1673ffffffffffffffffffffffffffffffffffffffff1681526020019081526020016000205484805461103390611c1e565b80601f016020809104026020016040519081016040528092919081815260200182805461105f90611c1e565b80156110ac5780601f10611081576101008083540402835291602001916110ac565b820191906000526020600020905b81548152906001019060200180831161108f57829003601f168201915b5050505050945095509550955095509550955091939550919395565b6110d0611327565b600073ffffffffffffffffffffffffffffffffffffffff168173ffffffffffffffffffffffffffffffffffffffff16036111425760006040517f1e4fbdf70000000000000000000000000000000000000000000000000000000081526004016111399190611740565b60405180910390fd5b61114b816113ae565b50565b600160009054906101000a900473ffffffffffffffffffffffffffffffffffffffff1673ffffffffffffffffffffffffffffffffffffffff163373ffffffffffffffffffffffffffffffffffffffff16146111de576040517f08c379a00000000000000000000000000000000000000000000000000000000081526004016111d590611cc1565b60405180910390fd5b8273ffffffffffffffffffffffffffffffffffffffff16639dc29fac83836040518363ffffffff1660e01b8152600401611219929190611e6e565b600060405180830381600087803b15801561123357600080fd5b505af1158015611247573d6000803e3d6000fd5b5050505060008373ffffffffffffffffffffffffffffffffffffffff166370a08231846040518263ffffffff1660e01b81526004016112869190611740565b602060405180830381865afa1580156112a3573d6000803e3d6000fd5b505050506040513d601f19601f820116820180604052508101906112c79190611cf6565b0361132257600560008473ffffffffffffffffffffffffffffffffffffffff1673ffffffffffffffffffffffffffffffffffffffff168152602001908152602001600020600081548092919061131c90611dd1565b91905055505b505050565b61132f61159a565b73ffffffffffffffffffffffffffffffffffffffff1661134d610481565b73ffffffffffffffffffffffffffffffffffffffff16146113ac5761137061159a565b6040517f118cdaa70000000000000000000000000000000000000000000000000000000081526004016113a39190611740565b60405180910390fd5b565b60006113b8611485565b905060008160000160009054906101000a900473ffffffffffffffffffffffffffffffffffffffff169050828260000160006101000a81548173ffffffffffffffffffffffffffffffffffffffff021916908373ffffffffffffffffffffffffffffffffffffffff1602179055508273ffffffffffffffffffffffffffffffffffffffff168173ffffffffffffffffffffffffffffffffffffffff167f8be0079c531659141344cd1fd0a4f28419497f9722a3daafe3b4186f6b6457e060405160405180910390a3505050565b60007f9016d09d72d40fdae2fd8ceac6b6234c7706214fd39c1cd1e609a0528c199300905090565b60007ff0c57e16840df040f15088dc2f81fe391c3923bec73e23a9662efc9c229c6a00905090565b6114dd6115a2565b6114e6816115e2565b50565b6000763d602d80600a3d3981f3363d3d373d3d3d363d730000008260601b60e81c176000526e5af43d82803e903d91602b57fd5bf38260781b17602052603760096000f09050600073ffffffffffffffffffffffffffffffffffffffff168173ffffffffffffffffffffffffffffffffffffffff1603611595576040517fc2f868f400000000000000000000000000000000000000000000000000000000815260040160405180910390fd5b919050565b600033905090565b6115aa611668565b6115e0576040517fd7e6bcf800000000000000000000000000000000000000000000000000000000815260040160405180910390fd5b565b6115ea6115a2565b600073ffffffffffffffffffffffffffffffffffffffff168173ffffffffffffffffffffffffffffffffffffffff160361165c5760006040517f1e4fbdf70000000000000000000000000000000000000000000000000000000081526004016116539190611740565b60405180910390fd5b611665816113ae565b50565b60006116726114ad565b60000160089054906101000a900460ff16905090565b6000604051905090565b600080fd5b600080fd5b6000819050919050565b6116af8161169c565b81146116ba57600080fd5b50565b6000813590506116cc816116a6565b92915050565b6000602082840312156116e8576116e7611692565b5b60006116f6848285016116bd565b91505092915050565b600073ffffffffffffffffffffffffffffffffffffffff82169050919050565b600061172a826116ff565b9050919050565b61173a8161171f565b82525050565b60006020820190506117556000830184611731565b92915050565b6117648161171f565b811461176f57600080fd5b50565b6000813590506117818161175b565b92915050565b60006020828403121561179d5761179c611692565b5b60006117ab84828501611772565b91505092915050565b6117bd8161169c565b82525050565b60006020820190506117d860008301846117b4565b92915050565b600081519050919050565b600082825260208201905092915050565b60005b838110156118185780820151818401526020810190506117fd565b60008484015250505050565b6000601f19601f8301169050919050565b6000611840826117de565b61184a81856117e9565b935061185a8185602086016117fa565b61186381611824565b840191505092915050565b600060208201905081810360008301526118888184611835565b905092915050565b600080600080608085870312156118aa576118a9611692565b5b60006118b887828801611772565b94505060206118c987828801611772565b93505060406118da87828801611772565b92505060606118eb878288016116bd565b91505092959194509250565b6000806000606084860312156119105761190f611692565b5b600061191e86828701611772565b935050602061192f86828701611772565b925050604061194086828701611772565b9150509250925092565b60008060006060848603121561196357611962611692565b5b600061197186828701611772565b935050602061198286828701611772565b9250506040611993868287016116bd565b9150509250925092565b600080fd5b600080fd5b7f4e487b7100000000000000000000000000000000000000000000000000000000600052604160045260246000fd5b6119df82611824565b810181811067ffffffffffffffff821117156119fe576119fd6119a7565b5b80604052505050565b6000611a11611688565b9050611a1d82826119d6565b919050565b600067ffffffffffffffff821115611a3d57611a3c6119a7565b5b611a4682611824565b9050602081019050919050565b82818337600083830152505050565b6000611a75611a7084611a22565b611a07565b905082815260208101848484011115611a9157611a906119a2565b5b611a9c848285611a53565b509392505050565b600082601f830112611ab957611ab861199d565b5b8135611ac9848260208601611a62565b91505092915050565b600080600060608486031215611aeb57611aea611692565b5b600084013567ffffffffffffffff811115611b0957611b08611697565b5b611b1586828701611aa4565b935050602084013567ffffffffffffffff811115611b3657611b35611697565b5b611b4286828701611aa4565b925050604084013567ffffffffffffffff811115611b6357611b62611697565b5b611b6f86828701611aa4565b9150509250925092565b600060c082019050611b8e6000830189611731565b8181036020830152611ba08188611835565b90508181036040830152611bb48187611835565b90508181036060830152611bc88186611835565b9050611bd760808301856117b4565b611be460a08301846117b4565b979650505050505050565b7f4e487b7100000000000000000000000000000000000000000000000000000000600052602260045260246000fd5b60006002820490506001821680611c3657607f821691505b602082108103611c4957611c48611bef565b5b50919050565b7f47616d6543686970466163746f72793a2063616c6c6572206973206e6f74207460008201527f68652067616d6520726f75746572000000000000000000000000000000000000602082015250565b6000611cab602e836117e9565b9150611cb682611c4f565b604082019050919050565b60006020820190508181036000830152611cda81611c9e565b9050919050565b600081519050611cf0816116a6565b92915050565b600060208284031215611d0c57611d0b611692565b5b6000611d1a84828501611ce1565b91505092915050565b7f4e487b7100000000000000000000000000000000000000000000000000000000600052601160045260246000fd5b6000611d5d8261169c565b91507fffffffffffffffffffffffffffffffffffffffffffffffffffffffffffffffff8203611d8f57611d8e611d23565b5b600182019050919050565b6000606082019050611daf6000830186611731565b611dbc6020830185611731565b611dc960408301846117b4565b949350505050565b6000611ddc8261169c565b915060008203611def57611dee611d23565b5b600182039050919050565b6000819050919050565b600067ffffffffffffffff82169050919050565b6000819050919050565b6000611e3d611e38611e3384611dfa565b611e18565b611e04565b9050919050565b611e4d81611e22565b82525050565b6000602082019050611e686000830184611e44565b92915050565b6000604082019050611e836000830185611731565b611e9060208301846117b4565b9392505050565b6000608082019050611eac6000830187611731565b8181036020830152611ebe8186611835565b90508181036040830152611ed28185611835565b90508181036060830152611ee68184611835565b905095945050505050565b60008190508160005260206000209050919050565b60006020601f8301049050919050565b600082821b905092915050565b600060088302611f537fffffffffffffffffffffffffffffffffffffffffffffffffffffffffffffffff82611f16565b611f5d8683611f16565b95508019841693508086168417925050509392505050565b6000611f90611f8b611f868461169c565b611e18565b61169c565b9050919050565b6000819050919050565b611faa83611f75565b611fbe611fb682611f97565b848454611f23565b825550505050565b600090565b611fd3611fc6565b611fde818484611fa1565b505050565b5b8181101561200257611ff7600082611fcb565b600181019050611fe4565b5050565b601f8211156120475761201881611ef1565b61202184611f06565b81016020851015612030578190505b61204461203c85611f06565b830182611fe3565b50505b505050565b600082821c905092915050565b600061206a6000198460080261204c565b1980831691505092915050565b60006120838383612059565b9150826002028217905092915050565b61209c826117de565b67ffffffffffffffff8111156120b5576120b46119a7565b5b6120bf8254611c1e565b6120ca828285612006565b600060209050601f8311600181146120fd57600084156120eb578287015190505b6120f58582612077565b86555061215d565b601f19841661210b86611ef1565b60005b828110156121335784890151825560018201915060208501945060208101905061210e565b86831015612150578489015161214c601f891682612059565b8355505b6001600288020188555050505b505050505050565b6000606082019050818103600083015261217f8186611835565b905081810360208301526121938185611835565b905081810360408301526121a78184611835565b9050949350505050565b60006121c46121bf84611a22565b611a07565b9050828152602081018484840111156121e0576121df6119a2565b5b6121eb8482856117fa565b509392505050565b600082601f8301126122085761220761199d565b5b81516122188482602086016121b1565b91505092915050565b60006020828403121561223757612236611692565b5b600082015167ffffffffffffffff81111561225557612254611697565b5b612261848285016121f3565b9150509291505056fea2646970667358221220bdfe7ff66ad0eaa079dfe5353698abb4b7ae142b8a2874f6acefcf18a0e2a52664736f6c63430008180033",
  "linkReferences": {},
  "deployedLinkReferences": {}
}