{
  "_format": "hh-sol-artifact-1",
  "contractName": "GameRuleV1",
  "sourceName": "contracts/GameRuleV1.sol",
  "abi": [
    {
      "inputs": [],
      "stateMutability": "nonpayable",
      "type": "constructor"
    },
    {
      "inputs": [],
      "name": "Create2EmptyBytecode",
      "type": "error"
    },
    {
      "inputs": [],
      "name": "Create2FailedDeployment",
      "type": "error"
    },
    {
      "inputs": [
        {
          "internalType": "uint256",
          "name": "balance",
          "type": "uint256"
        },
        {
          "internalType": "uint256",
          "name": "needed",
          "type": "uint256"
        }
      ],
      "name": "Create2InsufficientBalance",
      "type": "error"
    },
    {
      "inputs": [],
      "name": "InvalidInitialization",
      "type": "error"
    },
    {
      "inputs": [],
      "name": "NotInitializing",
      "type": "error"
    },
    {
      "inputs": [
        {
          "internalType": "address",
          "name": "owner",
          "type": "address"
        }
      ],
      "name": "OwnableInvalidOwner",
      "type": "error"
    },
    {
      "inputs": [
        {
          "internalType": "address",
          "name": "account",
          "type": "address"
        }
      ],
      "name": "OwnableUnauthorizedAccount",
      "type": "error"
    },
    {
      "inputs": [],
      "name": "ReentrancyGuardReentrantCall",
      "type": "error"
    },
    {
      "anonymous": false,
      "inputs": [
        {
          "indexed": false,
          "internalType": "string",
          "name": "gameId",
          "type": "string"
        },
        {
          "indexed": false,
          "internalType": "uint256",
          "name": "roomId",
          "type": "uint256"
        },
        {
          "indexed": false,
          "internalType": "address",
          "name": "roomAddress",
          "type": "address"
        }
      ],
      "name": "GameRoomCreated",
      "type": "event"
    },
    {
      "anonymous": false,
      "inputs": [
        {
          "indexed": false,
          "internalType": "uint64",
          "name": "version",
          "type": "uint64"
        }
      ],
      "name": "Initialized",
      "type": "event"
    },
    {
      "anonymous": false,
      "inputs": [
        {
          "indexed": true,
          "internalType": "address",
          "name": "previousOwner",
          "type": "address"
        },
        {
          "indexed": true,
          "internalType": "address",
          "name": "newOwner",
          "type": "address"
        }
      ],
      "name": "OwnershipTransferred",
      "type": "event"
    },
    {
      "inputs": [
        {
          "internalType": "string",
          "name": "gameId",
          "type": "string"
        },
        {
          "internalType": "uint256",
          "name": "roomId",
          "type": "uint256"
        },
        {
          "internalType": "string[]",
          "name": "plyrIds",
          "type": "string[]"
        },
        {
          "internalType": "address[]",
          "name": "tokens",
          "type": "address[]"
        },
        {
          "internalType": "uint256[]",
          "name": "amounts",
          "type": "uint256[]"
        }
      ],
      "name": "batchEarn",
      "outputs": [],
      "stateMutability": "nonpayable",
      "type": "function"
    },
    {
      "inputs": [
        {
          "internalType": "string",
          "name": "gameId",
          "type": "string"
        },
        {
          "internalType": "uint256",
          "name": "roomId",
          "type": "uint256"
        },
        {
          "internalType": "string[]",
          "name": "plyrIds",
          "type": "string[]"
        },
        {
          "internalType": "address[]",
          "name": "tokens",
          "type": "address[]"
        },
        {
          "internalType": "uint256[]",
          "name": "amounts",
          "type": "uint256[]"
        }
      ],
      "name": "batchPay",
      "outputs": [],
      "stateMutability": "nonpayable",
      "type": "function"
    },
    {
      "inputs": [
        {
          "internalType": "string",
          "name": "gameId",
          "type": "string"
        },
        {
          "internalType": "uint256",
          "name": "roomId",
          "type": "uint256"
        },
        {
          "internalType": "address",
          "name": "team",
          "type": "address"
        }
      ],
      "name": "close",
      "outputs": [],
      "stateMutability": "nonpayable",
      "type": "function"
    },
    {
      "inputs": [
        {
          "internalType": "string",
          "name": "gameId",
          "type": "string"
        },
        {
          "internalType": "uint256",
          "name": "roomId",
          "type": "uint256"
        }
      ],
      "name": "computeRoomAddress",
      "outputs": [
        {
          "internalType": "address",
          "name": "",
          "type": "address"
        }
      ],
      "stateMutability": "view",
      "type": "function"
    },
    {
      "inputs": [
        {
          "internalType": "address",
          "name": "_feeTo",
          "type": "address"
        }
      ],
      "name": "configFeeTo",
      "outputs": [],
      "stateMutability": "nonpayable",
      "type": "function"
    },
    {
      "inputs": [
        {
          "internalType": "address",
          "name": "_operator",
          "type": "address"
        },
        {
          "internalType": "bool",
          "name": "_status",
          "type": "bool"
        }
      ],
      "name": "configOperator",
      "outputs": [],
      "stateMutability": "nonpayable",
      "type": "function"
    },
    {
      "inputs": [
        {
          "internalType": "uint256",
          "name": "_platformFee",
          "type": "uint256"
        }
      ],
      "name": "configPlatformFee",
      "outputs": [],
      "stateMutability": "nonpayable",
      "type": "function"
    },
    {
      "inputs": [
        {
          "internalType": "string",
          "name": "gameId",
          "type": "string"
        },
        {
          "internalType": "uint256",
          "name": "expiresIn",
          "type": "uint256"
        }
      ],
      "name": "create",
      "outputs": [],
      "stateMutability": "nonpayable",
      "type": "function"
    },
    {
      "inputs": [
        {
          "internalType": "string",
          "name": "gameId",
          "type": "string"
        },
        {
          "internalType": "uint256",
          "name": "expiresIn",
          "type": "uint256"
        },
        {
          "internalType": "string[]",
          "name": "plyrIds",
          "type": "string[]"
        },
        {
          "internalType": "address[]",
          "name": "tokens",
          "type": "address[]"
        },
        {
          "internalType": "uint256[]",
          "name": "amounts",
          "type": "uint256[]"
        }
      ],
      "name": "createJoinPay",
      "outputs": [],
      "stateMutability": "nonpayable",
      "type": "function"
    },
    {
      "inputs": [
        {
          "internalType": "string",
          "name": "gameId",
          "type": "string"
        },
        {
          "internalType": "uint256",
          "name": "roomId",
          "type": "uint256"
        },
        {
          "internalType": "string",
          "name": "plyrId",
          "type": "string"
        },
        {
          "internalType": "address",
          "name": "token",
          "type": "address"
        },
        {
          "internalType": "uint256",
          "name": "amount",
          "type": "uint256"
        }
      ],
      "name": "earn",
      "outputs": [],
      "stateMutability": "nonpayable",
      "type": "function"
    },
    {
      "inputs": [
        {
          "internalType": "string",
          "name": "gameId",
          "type": "string"
        },
        {
          "internalType": "uint256",
          "name": "roomId",
          "type": "uint256"
        },
        {
          "internalType": "string[]",
          "name": "plyrIds",
          "type": "string[]"
        },
        {
          "internalType": "address[]",
          "name": "tokens",
          "type": "address[]"
        },
        {
          "internalType": "uint256[]",
          "name": "amounts",
          "type": "uint256[]"
        }
      ],
      "name": "earnLeave",
      "outputs": [],
      "stateMutability": "nonpayable",
      "type": "function"
    },
    {
      "inputs": [
        {
          "internalType": "string",
          "name": "gameId",
          "type": "string"
        },
        {
          "internalType": "uint256",
          "name": "roomId",
          "type": "uint256"
        },
        {
          "internalType": "string[]",
          "name": "plyrIds",
          "type": "string[]"
        },
        {
          "internalType": "address[]",
          "name": "tokens",
          "type": "address[]"
        },
        {
          "internalType": "uint256[]",
          "name": "amounts",
          "type": "uint256[]"
        }
      ],
      "name": "earnLeaveEnd",
      "outputs": [],
      "stateMutability": "nonpayable",
      "type": "function"
    },
    {
      "inputs": [
        {
          "internalType": "string",
          "name": "gameId",
          "type": "string"
        },
        {
          "internalType": "uint256",
          "name": "roomId",
          "type": "uint256"
        }
      ],
      "name": "end",
      "outputs": [],
      "stateMutability": "nonpayable",
      "type": "function"
    },
    {
      "inputs": [],
      "name": "feeTo",
      "outputs": [
        {
          "internalType": "address",
          "name": "",
          "type": "address"
        }
      ],
      "stateMutability": "view",
      "type": "function"
    },
    {
      "inputs": [
        {
          "internalType": "string",
          "name": "",
          "type": "string"
        },
        {
          "internalType": "uint256",
          "name": "",
          "type": "uint256"
        }
      ],
      "name": "gameRoomAddress",
      "outputs": [
        {
          "internalType": "address",
          "name": "",
          "type": "address"
        }
      ],
      "stateMutability": "view",
      "type": "function"
    },
    {
      "inputs": [
        {
          "internalType": "string",
          "name": "",
          "type": "string"
        }
      ],
      "name": "gameRoomCount",
      "outputs": [
        {
          "internalType": "uint256",
          "name": "",
          "type": "uint256"
        }
      ],
      "stateMutability": "view",
      "type": "function"
    },
    {
      "inputs": [
        {
          "internalType": "address",
          "name": "_owner",
          "type": "address"
        },
        {
          "internalType": "address",
          "name": "_router",
          "type": "address"
        },
        {
          "internalType": "address",
          "name": "_feeTo",
          "type": "address"
        },
        {
          "internalType": "address",
          "name": "_registerSC",
          "type": "address"
        }
      ],
      "name": "initialize",
      "outputs": [],
      "stateMutability": "nonpayable",
      "type": "function"
    },
    {
      "inputs": [
        {
          "internalType": "string",
          "name": "gameId",
          "type": "string"
        },
        {
          "internalType": "uint256",
          "name": "roomId",
          "type": "uint256"
        },
        {
          "internalType": "string",
          "name": "plyrId",
          "type": "string"
        }
      ],
      "name": "isJoined",
      "outputs": [
        {
          "internalType": "bool",
          "name": "",
          "type": "bool"
        }
      ],
      "stateMutability": "view",
      "type": "function"
    },
    {
      "inputs": [
        {
          "internalType": "string",
          "name": "gameId",
          "type": "string"
        },
        {
          "internalType": "uint256",
          "name": "roomId",
          "type": "uint256"
        },
        {
          "internalType": "string[]",
          "name": "plyrIds",
          "type": "string[]"
        }
      ],
      "name": "join",
      "outputs": [],
      "stateMutability": "nonpayable",
      "type": "function"
    },
    {
      "inputs": [
        {
          "internalType": "string",
          "name": "gameId",
          "type": "string"
        },
        {
          "internalType": "uint256",
          "name": "roomId",
          "type": "uint256"
        },
        {
          "internalType": "string[]",
          "name": "plyrIds",
          "type": "string[]"
        },
        {
          "internalType": "address[]",
          "name": "tokens",
          "type": "address[]"
        },
        {
          "internalType": "uint256[]",
          "name": "amounts",
          "type": "uint256[]"
        }
      ],
      "name": "joinPay",
      "outputs": [],
      "stateMutability": "nonpayable",
      "type": "function"
    },
    {
      "inputs": [
        {
          "internalType": "string",
          "name": "gameId",
          "type": "string"
        },
        {
          "internalType": "uint256",
          "name": "roomId",
          "type": "uint256"
        },
        {
          "internalType": "string[]",
          "name": "plyrIds",
          "type": "string[]"
        }
      ],
      "name": "leave",
      "outputs": [],
      "stateMutability": "nonpayable",
      "type": "function"
    },
    {
      "inputs": [
        {
          "internalType": "bytes[]",
          "name": "data",
          "type": "bytes[]"
        }
      ],
      "name": "multicall",
      "outputs": [
        {
          "internalType": "bytes[]",
          "name": "results",
          "type": "bytes[]"
        }
      ],
      "stateMutability": "payable",
      "type": "function"
    },
    {
      "inputs": [
        {
          "internalType": "address",
          "name": "",
          "type": "address"
        }
      ],
      "name": "operators",
      "outputs": [
        {
          "internalType": "bool",
          "name": "",
          "type": "bool"
        }
      ],
      "stateMutability": "view",
      "type": "function"
    },
    {
      "inputs": [],
      "name": "owner",
      "outputs": [
        {
          "internalType": "address",
          "name": "",
          "type": "address"
        }
      ],
      "stateMutability": "view",
      "type": "function"
    },
    {
      "inputs": [
        {
          "internalType": "string",
          "name": "gameId",
          "type": "string"
        },
        {
          "internalType": "uint256",
          "name": "roomId",
          "type": "uint256"
        },
        {
          "internalType": "string",
          "name": "plyrId",
          "type": "string"
        },
        {
          "internalType": "address",
          "name": "token",
          "type": "address"
        },
        {
          "internalType": "uint256",
          "name": "amount",
          "type": "uint256"
        }
      ],
      "name": "pay",
      "outputs": [],
      "stateMutability": "nonpayable",
      "type": "function"
    },
    {
      "inputs": [],
      "name": "platformFee",
      "outputs": [
        {
          "internalType": "uint256",
          "name": "",
          "type": "uint256"
        }
      ],
      "stateMutability": "view",
      "type": "function"
    },
    {
      "inputs": [],
      "name": "registerSC",
      "outputs": [
        {
          "internalType": "address",
          "name": "",
          "type": "address"
        }
      ],
      "stateMutability": "view",
      "type": "function"
    },
    {
      "inputs": [],
      "name": "renounceOwnership",
      "outputs": [],
      "stateMutability": "nonpayable",
      "type": "function"
    },
    {
      "inputs": [
        {
          "internalType": "address",
          "name": "",
          "type": "address"
        }
      ],
      "name": "roomOwner",
      "outputs": [
        {
          "internalType": "string",
          "name": "",
          "type": "string"
        }
      ],
      "stateMutability": "view",
      "type": "function"
    },
    {
      "inputs": [],
      "name": "router",
      "outputs": [
        {
          "internalType": "address",
          "name": "",
          "type": "address"
        }
      ],
      "stateMutability": "view",
      "type": "function"
    },
    {
      "inputs": [
        {
          "internalType": "address",
          "name": "newOwner",
          "type": "address"
        }
      ],
      "name": "transferOwnership",
      "outputs": [],
      "stateMutability": "nonpayable",
      "type": "function"
    }
  ],
  "bytecode": "0x608060405234801561001057600080fd5b50614b27806100206000396000f3fe608060405260043610620001ff5760003560e01c80636574405a1162000117578063c0b33a1111620000a1578063f2fde38b116200006c578063f2fde38b1462000663578063f887ea401462000688578063f8c8765e14620006aa578063fdc112a014620006cf57600080fd5b8063c0b33a1114620005cf578063da7fd99d14620005f4578063e6ff0bde1462000619578063e8f090bb146200063e57600080fd5b80638da5cb5b11620000e25780638da5cb5b14620005475780639c4a4ed5146200055f578063a0d46feb1462000584578063ac9650d814620005a957600080fd5b80636574405a14620004c3578063715018a614620004e557806371d578fa14620004fd5780637d1d9203146200052257600080fd5b806331804f1c11620001995780634b5e130411620001645780634b5e130414620004205780634ee9a94d146200044557806356b0040a1462000479578063575ecee6146200049e57600080fd5b806331804f1c146200038c57806333b57a4014620003b15780634197811e14620003d657806346f81a8714620003fb57600080fd5b8063104c5d2911620001da578063104c5d2914620002e357806313e7c9d8146200030a57806326232a2e146200034f57806330244e6e146200036757600080fd5b8063017e7e5814620002045780630b1eef0614620002435780630eeff633146200028e575b600080fd5b3480156200021157600080fd5b5060035462000226906001600160a01b031681565b6040516001600160a01b0390911681526020015b60405180910390f35b3480156200025057600080fd5b506200027f6200026236600462002623565b805160208183018101805160058252928201919093012091525481565b6040519081526020016200023a565b3480156200029b57600080fd5b5062000226620002ad36600462002663565b8151602081840181018051600682529282019482019490942091909352909152600090815260409020546001600160a01b031681565b348015620002f057600080fd5b506200030862000302366004620027e1565b620006f4565b005b3480156200031757600080fd5b506200033e6200032936600462002907565b60046020526000908152604090205460ff1681565b60405190151581526020016200023a565b3480156200035c57600080fd5b506200027f60025481565b3480156200037457600080fd5b50620003086200038636600462002927565b620007d6565b3480156200039957600080fd5b5062000308620003ab36600462002663565b620008f0565b348015620003be57600080fd5b5062000308620003d0366004620029a9565b620009fc565b348015620003e357600080fd5b5062000308620003f5366004620027e1565b62000a31565b3480156200040857600080fd5b50620003086200041a36600462002663565b62000bb0565b3480156200042d57600080fd5b50620003086200043f366004620029e7565b62000c19565b3480156200045257600080fd5b506200046a6200046436600462002907565b62000c28565b6040516200023a919062002a55565b3480156200048657600080fd5b50620003086200049836600462002a6a565b62000cca565b348015620004ab57600080fd5b5062000308620004bd366004620027e1565b62000d38565b348015620004d057600080fd5b5060015462000226906001600160a01b031681565b348015620004f257600080fd5b506200030862000f23565b3480156200050a57600080fd5b50620003086200051c36600462002afa565b62000f3b565b3480156200052f57600080fd5b50620003086200054136600462002927565b6200101c565b3480156200055457600080fd5b5062000226620010fc565b3480156200056c57600080fd5b50620002266200057e36600462002663565b6200112a565b3480156200059157600080fd5b5062000308620005a3366004620027e1565b620011a2565b620005c0620005ba36600462002b5a565b620012cf565b6040516200023a919062002bd3565b348015620005dc57600080fd5b5062000308620005ee366004620027e1565b62001434565b3480156200060157600080fd5b50620003086200061336600462002907565b620014bd565b3480156200062657600080fd5b50620003086200063836600462002a6a565b620014e9565b3480156200064b57600080fd5b506200033e6200065d36600462002c3b565b62001550565b3480156200067057600080fd5b50620003086200068236600462002907565b62001619565b3480156200069557600080fd5b5060005462000226906001600160a01b031681565b348015620006b757600080fd5b5062000308620006c936600462002ca4565b6200165d565b348015620006dc57600080fd5b5062000308620006ee366004620027e1565b620017c1565b3360009081526004602052604090205460ff16806200072d575062000718620010fc565b6001600160a01b0316336001600160a01b0316145b620007555760405162461bcd60e51b81526004016200074c9062002d09565b60405180910390fd5b60005b8351811015620007ce57620007c586868684815181106200077d576200077d62002d40565b60200260200101518685815181106200079a576200079a62002d40565b6020026020010151868681518110620007b757620007b762002d40565b602002602001015162001924565b60010162000758565b505050505050565b3360009081526004602052604090205460ff16806200080f5750620007fa620010fc565b6001600160a01b0316336001600160a01b0316145b6200082e5760405162461bcd60e51b81526004016200074c9062002d09565b600060068460405162000842919062002d56565b9081526040805160209281900383019020600086815292529020546001600160a01b0316905080620008885760405162461bcd60e51b81526004016200074c9062002d74565b6040516326f3938560e21b81526001600160a01b03821690639bce4e1490620008b690859060040162002dab565b600060405180830381600087803b158015620008d157600080fd5b505af1158015620008e6573d6000803e3d6000fd5b5050505050505050565b3360009081526004602052604090205460ff168062000929575062000914620010fc565b6001600160a01b0316336001600160a01b0316145b620009485760405162461bcd60e51b81526004016200074c9062002d09565b60006006836040516200095c919062002d56565b9081526040805160209281900383019020600085815292529020546001600160a01b0316905080620009a25760405162461bcd60e51b81526004016200074c9062002d74565b806001600160a01b031663efbe1c1c6040518163ffffffff1660e01b8152600401600060405180830381600087803b158015620009de57600080fd5b505af1158015620009f3573d6000803e3d6000fd5b50505050505050565b62000a0662001c94565b6001600160a01b03919091166000908152600460205260409020805460ff1916911515919091179055565b3360009081526004602052604090205460ff168062000a6a575062000a55620010fc565b6001600160a01b0316336001600160a01b0316145b62000a895760405162461bcd60e51b81526004016200074c9062002d09565b600060068660405162000a9d919062002d56565b9081526040805160209281900383019020600088815292529020546001600160a01b031690508062000ae35760405162461bcd60e51b81526004016200074c9062002d74565b6040516326f3938560e21b81526001600160a01b03821690639bce4e149062000b1190879060040162002dab565b600060405180830381600087803b15801562000b2c57600080fd5b505af115801562000b41573d6000803e3d6000fd5b5050505060005b8451811015620009f35762000ba7878787848151811062000b6d5762000b6d62002d40565b602002602001015187858151811062000b8a5762000b8a62002d40565b6020026020010151878681518110620007b757620007b762002d40565b60010162000b48565b3360009081526004602052604090205460ff168062000be9575062000bd4620010fc565b6001600160a01b0316336001600160a01b0316145b62000c085760405162461bcd60e51b81526004016200074c9062002d09565b62000c14828262001cca565b505050565b62000c2362001c94565b600255565b6007602052600090815260409020805462000c439062002e06565b80601f016020809104026020016040519081016040528092919081815260200182805462000c719062002e06565b801562000cc25780601f1062000c965761010080835404028352916020019162000cc2565b820191906000526020600020905b81548152906001019060200180831162000ca457829003601f168201915b505050505081565b3360009081526004602052604090205460ff168062000d03575062000cee620010fc565b6001600160a01b0316336001600160a01b0316145b62000d225760405162461bcd60e51b81526004016200074c9062002d09565b62000d31858585858562001924565b5050505050565b3360009081526004602052604090205460ff168062000d71575062000d5c620010fc565b6001600160a01b0316336001600160a01b0316145b62000d905760405162461bcd60e51b81526004016200074c9062002d09565b60005b835181101562000e095762000e00868686848151811062000db85762000db862002d40565b602002602001015186858151811062000dd55762000dd562002d40565b602002602001015186868151811062000df25762000df262002d40565b602002602001015162001e10565b60010162000d93565b50600060068660405162000e1e919062002d56565b9081526040805160209281900383019020600088815292529020546001600160a01b031690508062000e645760405162461bcd60e51b81526004016200074c9062002d74565b604051631edc210760e11b81526001600160a01b03821690633db8420e9062000e9290879060040162002dab565b600060405180830381600087803b15801562000ead57600080fd5b505af115801562000ec2573d6000803e3d6000fd5b50505050806001600160a01b031663efbe1c1c6040518163ffffffff1660e01b8152600401600060405180830381600087803b15801562000f0257600080fd5b505af115801562000f17573d6000803e3d6000fd5b50505050505050505050565b62000f2d62001c94565b62000f396000620022bd565b565b3360009081526004602052604090205460ff168062000f74575062000f5f620010fc565b6001600160a01b0316336001600160a01b0316145b62000f935760405162461bcd60e51b81526004016200074c9062002d09565b600060068460405162000fa7919062002d56565b9081526040805160209281900383019020600086815292529020546001600160a01b031690508062000fed5760405162461bcd60e51b81526004016200074c9062002d74565b60405163c74073a160e01b81526001600160a01b03838116600483015282169063c74073a190602401620008b6565b3360009081526004602052604090205460ff168062001055575062001040620010fc565b6001600160a01b0316336001600160a01b0316145b620010745760405162461bcd60e51b81526004016200074c9062002d09565b600060068460405162001088919062002d56565b9081526040805160209281900383019020600086815292529020546001600160a01b0316905080620010ce5760405162461bcd60e51b81526004016200074c9062002d74565b604051631edc210760e11b81526001600160a01b03821690633db8420e90620008b690859060040162002dab565b7f9016d09d72d40fdae2fd8ceac6b6234c7706214fd39c1cd1e609a0528c199300546001600160a01b031690565b60008083836040516020016200114292919062002e42565b6040516020818303038152906040528051906020012090506000604051806020016200116e9062002546565b6020820181038252601f19601f820116604052509050620011978282805190602001206200232e565b925050505b92915050565b3360009081526004602052604090205460ff1680620011db5750620011c6620010fc565b6001600160a01b0316336001600160a01b0316145b620011fa5760405162461bcd60e51b81526004016200074c9062002d09565b60005b83518110156200122b5762001222868686848151811062000db85762000db862002d40565b600101620011fd565b50600060068660405162001240919062002d56565b9081526040805160209281900383019020600088815292529020546001600160a01b0316905080620012865760405162461bcd60e51b81526004016200074c9062002d74565b604051631edc210760e11b81526001600160a01b03821690633db8420e90620012b490879060040162002dab565b600060405180830381600087803b15801562000f0257600080fd5b6060816001600160401b03811115620012ec57620012ec62002554565b6040519080825280602002602001820160405280156200132157816020015b60608152602001906001900390816200130b5790505b50905060005b828110156200142d576000803086868581811062001349576200134962002d40565b90506020028101906200135d919062002e66565b6040516200136d92919062002eb6565b600060405180830381855af49150503d8060008114620013aa576040519150601f19603f3d011682016040523d82523d6000602084013e620013af565b606091505b5091509150816200140157604481511015620013ca57600080fd5b60048101905080806020019051810190620013e6919062002ec6565b60405162461bcd60e51b81526004016200074c919062002a55565b8084848151811062001417576200141762002d40565b6020908102919091010152505060010162001327565b5092915050565b3360009081526004602052604090205460ff16806200146d575062001458620010fc565b6001600160a01b0316336001600160a01b0316145b6200148c5760405162461bcd60e51b81526004016200074c9062002d09565b60005b8351811015620007ce57620014b4868686848151811062000db85762000db862002d40565b6001016200148f565b620014c762001c94565b600380546001600160a01b0319166001600160a01b0392909216919091179055565b3360009081526004602052604090205460ff16806200152257506200150d620010fc565b6001600160a01b0316336001600160a01b0316145b620015415760405162461bcd60e51b81526004016200074c9062002d09565b62000d31858585858562001e10565b60008060068560405162001565919062002d56565b9081526040805160209281900383019020600087815292529020546001600160a01b03169050806200159c57600091505062001612565b604051631709b74360e11b81526001600160a01b03821690632e136e8690620015ca90869060040162002a55565b602060405180830381865afa158015620015e8573d6000803e3d6000fd5b505050506040513d601f19601f820116820180604052508101906200160e919062002f45565b9150505b9392505050565b6200162362001c94565b6001600160a01b0381166200164f57604051631e4fbdf760e01b8152600060048201526024016200074c565b6200165a81620022bd565b50565b7ff0c57e16840df040f15088dc2f81fe391c3923bec73e23a9662efc9c229c6a008054600160401b810460ff1615906001600160401b0316600081158015620016a35750825b90506000826001600160401b03166001148015620016c05750303b155b905081158015620016cf575080155b15620016ee5760405163f92ee8a960e01b815260040160405180910390fd5b845467ffffffffffffffff1916600117855583156200171957845460ff60401b1916600160401b1785555b60028055600380546001600160a01b03808a166001600160a01b031992831617909255600080548b8416908316179055600180549289169290911691909117905562001765896200233d565b6200176f62002352565b8315620017b657845460ff60401b19168555604051600181527fc7f505b2f371ae2175ee4913f4499e1f2633a7b5936321eed1cdaeb6115181d29060200160405180910390a15b505050505050505050565b3360009081526004602052604090205460ff1680620017fa5750620017e5620010fc565b6001600160a01b0316336001600160a01b0316145b620018195760405162461bcd60e51b81526004016200074c9062002d09565b600062001827868662001cca565b905060006006876040516200183d919062002d56565b9081526040805191829003602090810183206000868152915220546326f3938560e21b82526001600160a01b031691508190639bce4e14906200188590889060040162002dab565b600060405180830381600087803b158015620018a057600080fd5b505af1158015620018b5573d6000803e3d6000fd5b5050505060005b8551811015620008e6576200191b8884888481518110620018e157620018e162002d40565b6020026020010151888581518110620018fe57620018fe62002d40565b6020026020010151888681518110620007b757620007b762002d40565b600101620018bc565b600060068660405162001938919062002d56565b9081526040805160209281900383019020600088815292529020546001600160a01b03169050806200197e5760405162461bcd60e51b81526004016200074c9062002d74565b604051631709b74360e11b81526001600160a01b03821690632e136e8690620019ac90879060040162002a55565b602060405180830381865afa158015620019ca573d6000803e3d6000fd5b505050506040513d601f19601f82011682018060405250810190620019f0919062002f45565b62001a3e5760405162461bcd60e51b815260206004820152601b60248201527f47616d6552756c6556313a20706c7972206e6f74206a6f696e6564000000000060448201526064016200074c565b6040516213049560e71b81526001600160a01b0384811660048301528216906309824a8090602401600060405180830381600087803b15801562001a8157600080fd5b505af115801562001a96573d6000803e3d6000fd5b5050506001600160a01b038416905062001b9a5760015460405163305f840560e11b81526000916001600160a01b0316906360bf080a9062001add90889060040162002a55565b602060405180830381865afa15801562001afb573d6000803e3d6000fd5b505050506040513d601f19601f8201168201806040525081019062001b21919062002f65565b6000546040516369d1654160e11b81526001600160a01b03808416600483015285811660248301526044820187905292935091169063d3a2ca8290606401600060405180830381600087803b15801562001b7a57600080fd5b505af115801562001b8f573d6000803e3d6000fd5b5050505050620007ce565b60015460405163305f840560e11b81526000916001600160a01b0316906360bf080a9062001bcd90889060040162002a55565b602060405180830381865afa15801562001beb573d6000803e3d6000fd5b505050506040513d601f19601f8201168201806040525081019062001c11919062002f65565b600054604051632a02e08560e11b81526001600160a01b0387811660048301528084166024830152858116604483015260648201879052929350911690635405c10a90608401600060405180830381600087803b15801562001c7257600080fd5b505af115801562001c87573d6000803e3d6000fd5b5050505050505050505050565b3362001c9f620010fc565b6001600160a01b03161462000f395760405163118cdaa760e01b81523360048201526024016200074c565b60008060058460405162001cdf919062002d56565b90815260405190819003602001902054905062001cfe81600162002f9b565b60058560405162001d10919062002d56565b9081526040519081900360200190205562001d2d81600162002f9b565b9150600062001d3d858462002366565b60405163025df42360e61b81529091506001600160a01b0382169063977d08c09062001d729088908790899060040162002fb1565b600060405180830381600087803b15801562001d8d57600080fd5b505af115801562001da2573d6000803e3d6000fd5b505050508060068660405162001db9919062002d56565b9081526040805160209281900383019020600087815290835281812080546001600160a01b0319166001600160a01b0395861617905592841683526007909152902062001e07868262003024565b50505092915050565b600060068660405162001e24919062002d56565b9081526040805160209281900383019020600088815292529020546001600160a01b031690508062001e6a5760405162461bcd60e51b81526004016200074c9062002d74565b604051631709b74360e11b81526001600160a01b03821690632e136e869062001e9890879060040162002a55565b602060405180830381865afa15801562001eb6573d6000803e3d6000fd5b505050506040513d601f19601f8201168201806040525081019062001edc919062002f45565b62001f2a5760405162461bcd60e51b815260206004820152601b60248201527f47616d6552756c6556313a20706c7972206e6f74206a6f696e6564000000000060448201526064016200074c565b6040516213049560e71b81526001600160a01b0384811660048301528216906309824a8090602401600060405180830381600087803b15801562001f6d57600080fd5b505af115801562001f82573d6000803e3d6000fd5b50505050600060646002548462001f9a9190620030f0565b62001fa691906200310a565b9050600062001fb682856200312d565b90506001600160a01b03851662002138576001546040516000916001600160a01b0316906360bf080a9062001ff0908a9060200162003143565b6040516020818303038152906040526040518263ffffffff1660e01b81526004016200201d919062002a55565b602060405180830381865afa1580156200203b573d6000803e3d6000fd5b505050506040513d601f19601f8201168201806040525081019062002061919062002f65565b60405163f2522bcd60e01b81526001600160a01b038083166004830152602482018590529192509085169063f2522bcd90604401600060405180830381600087803b158015620020b057600080fd5b505af1158015620020c5573d6000803e3d6000fd5b505060035460405163f2522bcd60e01b81526001600160a01b03918216600482015260248101879052908716925063f2522bcd9150604401600060405180830381600087803b1580156200211857600080fd5b505af11580156200212d573d6000803e3d6000fd5b5050505050620008e6565b6001546040516000916001600160a01b0316906360bf080a9062002161908a9060200162003143565b6040516020818303038152906040526040518263ffffffff1660e01b81526004016200218e919062002a55565b602060405180830381865afa158015620021ac573d6000803e3d6000fd5b505050506040513d601f19601f82011682018060405250810190620021d2919062002f65565b6040516317d5759960e31b81526001600160a01b0388811660048301528083166024830152604482018590529192509085169063beabacc890606401600060405180830381600087803b1580156200222957600080fd5b505af11580156200223e573d6000803e3d6000fd5b50506003546040516317d5759960e31b81526001600160a01b038a81166004830152918216602482015260448101879052908716925063beabacc89150606401600060405180830381600087803b1580156200229957600080fd5b505af1158015620022ae573d6000803e3d6000fd5b50505050505050505050505050565b7f9016d09d72d40fdae2fd8ceac6b6234c7706214fd39c1cd1e609a0528c19930080546001600160a01b031981166001600160a01b03848116918217845560405192169182907f8be0079c531659141344cd1fd0a4f28419497f9722a3daafe3b4186f6b6457e090600090a3505050565b60006200161283833062002414565b620023476200243e565b6200165a8162002488565b6200235c6200243e565b62000f3962002492565b60008083836040516020016200237e92919062002e42565b604051602081830303815290604052805190602001209050600060405180602001620023aa9062002546565b601f1982820381018352601f909101166040529050620023cd60008383620024c2565b92507ffb7cc44ea40b5981af090fdacf3750b5fe758fc83a7eff829837ac9f53dcc7a985858560405162002404939291906200316e565b60405180910390a1505092915050565b6000604051836040820152846020820152828152600b8101905060ff815360559020949350505050565b7ff0c57e16840df040f15088dc2f81fe391c3923bec73e23a9662efc9c229c6a0054600160401b900460ff1662000f3957604051631afcd79f60e31b815260040160405180910390fd5b620016236200243e565b6200249c6200243e565b60017f9b779b17422d0df92223018b32b4d1fa46e071723d6817e2486d003becc55f0055565b600083471015620024f05760405163392efb2b60e21b8152476004820152602481018590526044016200074c565b81516000036200251357604051631328927760e21b815260040160405180910390fd5b8282516020840186f590506001600160a01b0381166200161257604051633a0ba96160e11b815260040160405180910390fd5b61194e80620031a483390190565b634e487b7160e01b600052604160045260246000fd5b604051601f8201601f191681016001600160401b038111828210171562002595576200259562002554565b604052919050565b60006001600160401b03821115620025b957620025b962002554565b50601f01601f191660200190565b600082601f830112620025d957600080fd5b8135620025f0620025ea826200259d565b6200256a565b8181528460208386010111156200260657600080fd5b816020850160208301376000918101602001919091529392505050565b6000602082840312156200263657600080fd5b81356001600160401b038111156200264d57600080fd5b6200265b84828501620025c7565b949350505050565b600080604083850312156200267757600080fd5b82356001600160401b038111156200268e57600080fd5b6200269c85828601620025c7565b95602094909401359450505050565b60006001600160401b03821115620026c757620026c762002554565b5060051b60200190565b600082601f830112620026e357600080fd5b81356020620026f6620025ea83620026ab565b82815260059290921b840181019181810190868411156200271657600080fd5b8286015b848110156200275a5780356001600160401b038111156200273b5760008081fd5b6200274b8986838b0101620025c7565b8452509183019183016200271a565b509695505050505050565b6001600160a01b03811681146200165a57600080fd5b600082601f8301126200278d57600080fd5b81356020620027a0620025ea83620026ab565b8083825260208201915060208460051b870101935086841115620027c357600080fd5b602086015b848110156200275a5780358352918301918301620027c8565b600080600080600060a08688031215620027fa57600080fd5b85356001600160401b03808211156200281257600080fd5b6200282089838a01620025c7565b9650602091508188013595506040880135818111156200283f57600080fd5b6200284d8a828b01620026d1565b9550506060880135818111156200286357600080fd5b8801601f81018a136200287557600080fd5b803562002886620025ea82620026ab565b81815260059190911b8201840190848101908c831115620028a657600080fd5b928501925b82841015620028d1578335620028c18162002765565b82529285019290850190620028ab565b96505050506080880135915080821115620028eb57600080fd5b50620028fa888289016200277b565b9150509295509295909350565b6000602082840312156200291a57600080fd5b8135620016128162002765565b6000806000606084860312156200293d57600080fd5b83356001600160401b03808211156200295557600080fd5b6200296387838801620025c7565b94506020860135935060408601359150808211156200298157600080fd5b506200299086828701620026d1565b9150509250925092565b80151581146200165a57600080fd5b60008060408385031215620029bd57600080fd5b8235620029ca8162002765565b91506020830135620029dc816200299a565b809150509250929050565b600060208284031215620029fa57600080fd5b5035919050565b60005b8381101562002a1e57818101518382015260200162002a04565b50506000910152565b6000815180845262002a4181602086016020860162002a01565b601f01601f19169290920160200192915050565b60208152600062001612602083018462002a27565b600080600080600060a0868803121562002a8357600080fd5b85356001600160401b038082111562002a9b57600080fd5b62002aa989838a01620025c7565b965060208801359550604088013591508082111562002ac757600080fd5b5062002ad688828901620025c7565b935050606086013562002ae98162002765565b949793965091946080013592915050565b60008060006060848603121562002b1057600080fd5b83356001600160401b0381111562002b2757600080fd5b62002b3586828701620025c7565b93505060208401359150604084013562002b4f8162002765565b809150509250925092565b6000806020838503121562002b6e57600080fd5b82356001600160401b038082111562002b8657600080fd5b818501915085601f83011262002b9b57600080fd5b81358181111562002bab57600080fd5b8660208260051b850101111562002bc157600080fd5b60209290920196919550909350505050565b600060208083016020845280855180835260408601915060408160051b87010192506020870160005b8281101562002c2e57603f1988860301845262002c1b85835162002a27565b9450928501929085019060010162002bfc565b5092979650505050505050565b60008060006060848603121562002c5157600080fd5b83356001600160401b038082111562002c6957600080fd5b62002c7787838801620025c7565b945060208601359350604086013591508082111562002c9557600080fd5b506200299086828701620025c7565b6000806000806080858703121562002cbb57600080fd5b843562002cc88162002765565b9350602085013562002cda8162002765565b9250604085013562002cec8162002765565b9150606085013562002cfe8162002765565b939692955090935050565b6020808252601a908201527f47616d6552756c6556313a206f6e6c79206f70657261746f7273000000000000604082015260600190565b634e487b7160e01b600052603260045260246000fd5b6000825162002d6a81846020870162002a01565b9190910192915050565b6020808252601a908201527f47616d6552756c6556313a20726f6f6d206e6f7420666f756e64000000000000604082015260600190565b600060208083016020845280855180835260408601915060408160051b87010192506020870160005b8281101562002c2e57603f1988860301845262002df385835162002a27565b9450928501929085019060010162002dd4565b600181811c9082168062002e1b57607f821691505b60208210810362002e3c57634e487b7160e01b600052602260045260246000fd5b50919050565b60408152600062002e57604083018562002a27565b90508260208301529392505050565b6000808335601e1984360301811262002e7e57600080fd5b8301803591506001600160401b0382111562002e9957600080fd5b60200191503681900382131562002eaf57600080fd5b9250929050565b8183823760009101908152919050565b60006020828403121562002ed957600080fd5b81516001600160401b0381111562002ef057600080fd5b8201601f8101841362002f0257600080fd5b805162002f13620025ea826200259d565b81815285602083850101111562002f2957600080fd5b62002f3c82602083016020860162002a01565b95945050505050565b60006020828403121562002f5857600080fd5b815162001612816200299a565b60006020828403121562002f7857600080fd5b8151620016128162002765565b634e487b7160e01b600052601160045260246000fd5b808201808211156200119c576200119c62002f85565b60608152600062002fc6606083018662002a27565b60208301949094525060400152919050565b601f82111562000c14576000816000526020600020601f850160051c81016020861015620030035750805b601f850160051c820191505b81811015620007ce578281556001016200300f565b81516001600160401b0381111562003040576200304062002554565b620030588162003051845462002e06565b8462002fd8565b602080601f831160018114620030905760008415620030775750858301515b600019600386901b1c1916600185901b178555620007ce565b600085815260208120601f198616915b82811015620030c157888601518255948401946001909101908401620030a0565b5085821015620030e05787850151600019600388901b60f8161c191681555b5050505050600190811b01905550565b80820281158282048414176200119c576200119c62002f85565b6000826200312857634e487b7160e01b600052601260045260246000fd5b500490565b818103818111156200119c576200119c62002f85565b600082516200315781846020870162002a01565b641738363cb960d91b920191825250600501919050565b60608152600062003183606083018662002a27565b6020830194909452506001600160a01b039190911660409091015291905056fe608060405234801561001057600080fd5b50338061003757604051631e4fbdf760e01b81526000600482015260240160405180910390fd5b61004081610046565b50610096565b600080546001600160a01b038381166001600160a01b0319831681178455604051919092169283917f8be0079c531659141344cd1fd0a4f28419497f9722a3daafe3b4186f6b6457e09190a35050565b6118a9806100a56000396000f3fe6080604052600436106101235760003560e01c8063a2e1ce62116100a0578063d7c81b5511610064578063d7c81b551461035c578063efbe1c1c1461037e578063f2522bcd14610393578063f2fde38b146103b3578063f954d0d9146103d357600080fd5b8063a2e1ce62146102b0578063a4fd6f56146102e0578063aa6ca808146102fa578063beabacc81461031c578063c74073a11461033c57600080fd5b80634f64b2be116100e75780634f64b2be14610205578063715018a61461023d5780638da5cb5b14610252578063977d08c0146102705780639bce4e141461029057600080fd5b806309824a801461012f57806329dcb0cf146101515780632e136e861461017a5780633db8420e146101aa578063475fb9e6146101ca57600080fd5b3661012a57005b600080fd5b34801561013b57600080fd5b5061014f61014a366004611199565b6103e9565b005b34801561015d57600080fd5b5061016760035481565b6040519081526020015b60405180910390f35b34801561018657600080fd5b5061019a61019536600461126d565b6104ad565b6040519015158152602001610171565b3480156101b657600080fd5b5061014f6101c53660046112aa565b61052f565b3480156101d657600080fd5b5061019a6101e536600461126d565b805160208183018101805160068252928201919093012091525460ff1681565b34801561021157600080fd5b5061022561022036600461136d565b6105f8565b6040516001600160a01b039091168152602001610171565b34801561024957600080fd5b5061014f610622565b34801561025e57600080fd5b506000546001600160a01b0316610225565b34801561027c57600080fd5b5061014f61028b366004611386565b610636565b34801561029c57600080fd5b5061014f6102ab3660046112aa565b61079f565b3480156102bc57600080fd5b5061019a6102cb366004611199565b60076020526000908152604090205460ff1681565b3480156102ec57600080fd5b5060045461019a9060ff1681565b34801561030657600080fd5b5061030f610864565b60405161017191906113d4565b34801561032857600080fd5b5061014f610337366004611421565b6108c6565b34801561034857600080fd5b5061014f610357366004611199565b6108e7565b34801561036857600080fd5b50610371610bdf565b60405161017191906114b2565b34801561038a57600080fd5b5061014f610c6d565b34801561039f57600080fd5b5061014f6103ae3660046114c5565b610e37565b3480156103bf57600080fd5b5061014f6103ce366004611199565b610e49565b3480156103df57600080fd5b5061016760025481565b6103f1610e84565b6001600160a01b03811660009081526007602052604090205460ff166104aa576005805460018082019092557f036b6384b5eca791c62761152d0c79bb0604c104a5fb6f4eb0703f3154bb3db00180546001600160a01b0319166001600160a01b038416908117909155600081815260076020908152604091829020805460ff1916909417909355519081527f158412daecdc1456d01568828bcdb18464cc7f1ce0215ddbc3f3cfede9d1e63d91015b60405180910390a15b50565b60006006826040516104bf91906114f1565b9081526040519081900360200190205460ff1680610529575060016040516020016104ea9190611547565b604051602081830303815290604052805190602001208260405160200161051191906114f1565b60405160208183030381529060405280519060200120145b92915050565b610537610e84565b60005b81518110156105f45760006006838381518110610559576105596115bd565b602002602001015160405161056e91906114f1565b908152602001604051809103902060006101000a81548160ff0219169083151502179055507f5cb6468e01c321c195d8437416322f6c7b51e265edab465a79c231fad6b53dee60016002548484815181106105cb576105cb6115bd565b6020026020010151426040516105e49493929190611650565b60405180910390a160010161053a565b5050565b6005818154811061060857600080fd5b6000918252602090912001546001600160a01b0316905081565b61062a610e84565b6106346000610eb1565b565b7ff0c57e16840df040f15088dc2f81fe391c3923bec73e23a9662efc9c229c6a008054600160401b810460ff16159067ffffffffffffffff1660008115801561067c5750825b905060008267ffffffffffffffff1660011480156106995750303b155b9050811580156106a7575080155b156106c55760405163f92ee8a960e01b815260040160405180910390fd5b845467ffffffffffffffff1916600117855583156106ef57845460ff60401b1916600160401b1785555b60016106fb89826116dd565b50600287905561070b864261179d565b60038190556002546040517f5bb40d63135f752607da3ecbfc1ffc67f89afad879bed5dfee15a16bec7c30a592610747926001929091906117be565b60405180910390a1831561079557845460ff60401b19168555604051600181527fc7f505b2f371ae2175ee4913f4499e1f2633a7b5936321eed1cdaeb6115181d29060200160405180910390a15b5050505050505050565b6107a7610e84565b60005b81518110156105f457600160068383815181106107c9576107c96115bd565b60200260200101516040516107de91906114f1565b908152602001604051809103902060006101000a81548160ff0219169083151502179055507fcc272659d82aa91a1f080eb07b21500b34be0df4d27769512d27c750aba681a2600160025484848151811061083b5761083b6115bd565b6020026020010151426040516108549493929190611650565b60405180910390a16001016107aa565b606060058054806020026020016040519081016040528092919081815260200182805480156108bc57602002820191906000526020600020905b81546001600160a01b0316815260019091019060200180831161089e575b5050505050905090565b6108ce610e84565b6108e26001600160a01b0384168383610f01565b505050565b6108ef610e84565b60035442116109345760405162461bcd60e51b815260206004820152600c60248201526b11d85b59539bdd115b99195960a21b60448201526064015b60405180910390fd5b60045460ff161561097a5760405162461bcd60e51b815260206004820152601060248201526f11d85b59505b1c9958591e515b99195960821b604482015260640161092b565b60005b600554811015610b995760006001600160a01b0316600582815481106109a5576109a56115bd565b6000918252602090912001546001600160a01b031614610b81576000600582815481106109d4576109d46115bd565b6000918252602090912001546040516370a0823160e01b81523060048201526001600160a01b03909116906370a0823190602401602060405180830381865afa158015610a25573d6000803e3d6000fd5b505050506040513d601f19601f82011682018060405250810190610a4991906117e3565b1115610b7c5760058181548110610a6257610a626115bd565b600091825260209091200154600580546001600160a01b039092169163a9059cbb91859185908110610a9657610a966115bd565b6000918252602090912001546040516370a0823160e01b81523060048201526001600160a01b03909116906370a0823190602401602060405180830381865afa158015610ae7573d6000803e3d6000fd5b505050506040513d601f19601f82011682018060405250810190610b0b91906117e3565b6040516001600160e01b031960e085901b1681526001600160a01b03909216600483015260248201526044016020604051808303816000875af1158015610b56573d6000803e3d6000fd5b505050506040513d601f19601f82011682018060405250810190610b7a91906117fc565b505b610b91565b4715610b9157610b918247610f53565b60010161097d565b506004805460ff191660019081179091556002546040517f51face237fecf262f6f4cbff1e2cb10355e4f478f2a934b059697485a3d039ed926104a1929091859061181e565b60018054610bec9061150d565b80601f0160208091040260200160405190810160405280929190818152602001828054610c189061150d565b8015610c655780601f10610c3a57610100808354040283529160200191610c65565b820191906000526020600020905b815481529060010190602001808311610c4857829003601f168201915b505050505081565b610c75610e84565b60005b600554811015610de95760006001600160a01b031660058281548110610ca057610ca06115bd565b6000918252602090912001546001600160a01b031614610d9057600060058281548110610ccf57610ccf6115bd565b6000918252602090912001546040516370a0823160e01b81523060048201526001600160a01b03909116906370a0823190602401602060405180830381865afa158015610d20573d6000803e3d6000fd5b505050506040513d601f19601f82011682018060405250810190610d4491906117e3565b90508015610d8a5760405162461bcd60e51b8152602060048201526013602482015272546f6b656e42616c616e63654e6f745a65726f60681b604482015260640161092b565b50610de1565b478015610ddf5760405162461bcd60e51b815260206004820152601860248201527f4e6174697665436f696e42616c616e63654e6f745a65726f0000000000000000604482015260640161092b565b505b600101610c78565b506004805460ff191660019081179091556002546040517fea20419b16267d9e7b733136c4c8d716a7d68522654cf5ba20af0db8820a627d92610e2d929091611851565b60405180910390a1565b610e3f610e84565b6105f48282610f53565b610e51610e84565b6001600160a01b038116610e7b57604051631e4fbdf760e01b81526000600482015260240161092b565b6104aa81610eb1565b6000546001600160a01b031633146106345760405163118cdaa760e01b815233600482015260240161092b565b600080546001600160a01b038381166001600160a01b0319831681178455604051919092169283917f8be0079c531659141344cd1fd0a4f28419497f9722a3daafe3b4186f6b6457e09190a35050565b604080516001600160a01b038416602482015260448082018490528251808303909101815260649091019091526020810180516001600160e01b031663a9059cbb60e01b1790526108e2908490610fea565b80471015610f765760405163cd78605960e01b815230600482015260240161092b565b6000826001600160a01b03168260405160006040518083038185875af1925050503d8060008114610fc3576040519150601f19603f3d011682016040523d82523d6000602084013e610fc8565b606091505b50509050806108e257604051630a12f52160e11b815260040160405180910390fd5b6000610fff6001600160a01b0384168361104d565b9050805160001415801561102457508080602001905181019061102291906117fc565b155b156108e257604051635274afe760e01b81526001600160a01b038416600482015260240161092b565b606061105b83836000611062565b9392505050565b6060814710156110875760405163cd78605960e01b815230600482015260240161092b565b600080856001600160a01b031684866040516110a391906114f1565b60006040518083038185875af1925050503d80600081146110e0576040519150601f19603f3d011682016040523d82523d6000602084013e6110e5565b606091505b50915091506110f58683836110ff565b9695505050505050565b6060826111145761110f8261115b565b61105b565b815115801561112b57506001600160a01b0384163b155b1561115457604051639996b31560e01b81526001600160a01b038516600482015260240161092b565b508061105b565b80511561116b5780518082602001fd5b604051630a12f52160e11b815260040160405180910390fd5b6001600160a01b03811681146104aa57600080fd5b6000602082840312156111ab57600080fd5b813561105b81611184565b634e487b7160e01b600052604160045260246000fd5b604051601f8201601f1916810167ffffffffffffffff811182821017156111f5576111f56111b6565b604052919050565b600082601f83011261120e57600080fd5b813567ffffffffffffffff811115611228576112286111b6565b61123b601f8201601f19166020016111cc565b81815284602083860101111561125057600080fd5b816020850160208301376000918101602001919091529392505050565b60006020828403121561127f57600080fd5b813567ffffffffffffffff81111561129657600080fd5b6112a2848285016111fd565b949350505050565b600060208083850312156112bd57600080fd5b823567ffffffffffffffff808211156112d557600080fd5b818501915085601f8301126112e957600080fd5b8135818111156112fb576112fb6111b6565b8060051b61130a8582016111cc565b918252838101850191858101908984111561132457600080fd5b86860192505b83831015611360578235858111156113425760008081fd5b6113508b89838a01016111fd565b835250918601919086019061132a565b9998505050505050505050565b60006020828403121561137f57600080fd5b5035919050565b60008060006060848603121561139b57600080fd5b833567ffffffffffffffff8111156113b257600080fd5b6113be868287016111fd565b9660208601359650604090950135949350505050565b6020808252825182820181905260009190848201906040850190845b818110156114155783516001600160a01b0316835292840192918401916001016113f0565b50909695505050505050565b60008060006060848603121561143657600080fd5b833561144181611184565b9250602084013561145181611184565b929592945050506040919091013590565b60005b8381101561147d578181015183820152602001611465565b50506000910152565b6000815180845261149e816020860160208601611462565b601f01601f19169290920160200192915050565b60208152600061105b6020830184611486565b600080604083850312156114d857600080fd5b82356114e381611184565b946020939093013593505050565b60008251611503818460208701611462565b9190910192915050565b600181811c9082168061152157607f821691505b60208210810361154157634e487b7160e01b600052602260045260246000fd5b50919050565b60008083546115558161150d565b6001828116801561156d5760018114611582576115b1565b60ff19841687528215158302870194506115b1565b8760005260208060002060005b858110156115a85781548a82015290840190820161158f565b50505082870194505b50929695505050505050565b634e487b7160e01b600052603260045260246000fd5b600081546115e08161150d565b8085526020600183811680156115fd576001811461161757611645565b60ff1985168884015283151560051b880183019550611645565b866000528260002060005b8581101561163d5781548a8201860152908301908401611622565b890184019650505b505050505092915050565b60808152600061166360808301876115d3565b856020840152828103604084015261167b8186611486565b91505082606083015295945050505050565b601f8211156108e2576000816000526020600020601f850160051c810160208610156116b65750805b601f850160051c820191505b818110156116d5578281556001016116c2565b505050505050565b815167ffffffffffffffff8111156116f7576116f76111b6565b61170b81611705845461150d565b8461168d565b602080601f83116001811461174057600084156117285750858301515b600019600386901b1c1916600185901b1785556116d5565b600085815260208120601f198616915b8281101561176f57888601518255948401946001909101908401611750565b508582101561178d5787850151600019600388901b60f8161c191681555b5050505050600190811b01905550565b8082018082111561052957634e487b7160e01b600052601160045260246000fd5b6060815260006117d160608301866115d3565b60208301949094525060400152919050565b6000602082840312156117f557600080fd5b5051919050565b60006020828403121561180e57600080fd5b8151801515811461105b57600080fd5b60608152600061183160608301866115d3565b6020830194909452506001600160a01b0391909116604090910152919050565b60408152600061186460408301856115d3565b9050826020830152939250505056fea2646970667358221220a2b7c31dbcc69709f5b248e39b77f4ac645e89206b625f15d6c88db49d2968b964736f6c63430008180033a264697066735822122092f40710dd91c4fc7168c0e93d4fbff832eb9f791501bf566ece5a01f1de18e864736f6c63430008180033",
  "linkReferences": {},
  "deployedLinkReferences": {}
}