{
  "_format": "hh-sol-artifact-1",
  "contractName": "GameRuleV1",
  "sourceName": "contracts/GameRuleV1.sol",
  "abi": [
    {
      "inputs": [],
      "stateMutability": "nonpayable",
      "type": "constructor"
    },
    {
      "inputs": [],
      "name": "Create2EmptyBytecode",
      "type": "error"
    },
    {
      "inputs": [],
      "name": "Create2FailedDeployment",
      "type": "error"
    },
    {
      "inputs": [
        {
          "internalType": "uint256",
          "name": "balance",
          "type": "uint256"
        },
        {
          "internalType": "uint256",
          "name": "needed",
          "type": "uint256"
        }
      ],
      "name": "Create2InsufficientBalance",
      "type": "error"
    },
    {
      "inputs": [],
      "name": "InvalidInitialization",
      "type": "error"
    },
    {
      "inputs": [],
      "name": "NotInitializing",
      "type": "error"
    },
    {
      "inputs": [
        {
          "internalType": "address",
          "name": "owner",
          "type": "address"
        }
      ],
      "name": "OwnableInvalidOwner",
      "type": "error"
    },
    {
      "inputs": [
        {
          "internalType": "address",
          "name": "account",
          "type": "address"
        }
      ],
      "name": "OwnableUnauthorizedAccount",
      "type": "error"
    },
    {
      "inputs": [],
      "name": "ReentrancyGuardReentrantCall",
      "type": "error"
    },
    {
      "anonymous": false,
      "inputs": [
        {
          "indexed": false,
          "internalType": "string",
          "name": "gameId",
          "type": "string"
        },
        {
          "indexed": false,
          "internalType": "uint256",
          "name": "roomId",
          "type": "uint256"
        },
        {
          "indexed": false,
          "internalType": "address",
          "name": "roomAddress",
          "type": "address"
        }
      ],
      "name": "GameRoomCreated",
      "type": "event"
    },
    {
      "anonymous": false,
      "inputs": [
        {
          "indexed": false,
          "internalType": "uint64",
          "name": "version",
          "type": "uint64"
        }
      ],
      "name": "Initialized",
      "type": "event"
    },
    {
      "anonymous": false,
      "inputs": [
        {
          "indexed": true,
          "internalType": "address",
          "name": "previousOwner",
          "type": "address"
        },
        {
          "indexed": true,
          "internalType": "address",
          "name": "newOwner",
          "type": "address"
        }
      ],
      "name": "OwnershipTransferred",
      "type": "event"
    },
    {
      "inputs": [
        {
          "internalType": "string",
          "name": "gameId",
          "type": "string"
        },
        {
          "internalType": "uint256",
          "name": "roomId",
          "type": "uint256"
        },
        {
          "internalType": "address",
          "name": "team",
          "type": "address"
        }
      ],
      "name": "close",
      "outputs": [],
      "stateMutability": "nonpayable",
      "type": "function"
    },
    {
      "inputs": [
        {
          "internalType": "string",
          "name": "gameId",
          "type": "string"
        },
        {
          "internalType": "uint256",
          "name": "roomId",
          "type": "uint256"
        }
      ],
      "name": "computeRoomAddress",
      "outputs": [
        {
          "internalType": "address",
          "name": "",
          "type": "address"
        }
      ],
      "stateMutability": "view",
      "type": "function"
    },
    {
      "inputs": [
        {
          "internalType": "address",
          "name": "_feeTo",
          "type": "address"
        }
      ],
      "name": "configFeeTo",
      "outputs": [],
      "stateMutability": "nonpayable",
      "type": "function"
    },
    {
      "inputs": [
        {
          "internalType": "address",
          "name": "_operator",
          "type": "address"
        },
        {
          "internalType": "bool",
          "name": "_status",
          "type": "bool"
        }
      ],
      "name": "configOperator",
      "outputs": [],
      "stateMutability": "nonpayable",
      "type": "function"
    },
    {
      "inputs": [
        {
          "internalType": "uint256",
          "name": "_platformFee",
          "type": "uint256"
        }
      ],
      "name": "configPlatformFee",
      "outputs": [],
      "stateMutability": "nonpayable",
      "type": "function"
    },
    {
      "inputs": [
        {
          "internalType": "string",
          "name": "gameId",
          "type": "string"
        },
        {
          "internalType": "uint256",
          "name": "expiresIn",
          "type": "uint256"
        }
      ],
      "name": "create",
      "outputs": [],
      "stateMutability": "nonpayable",
      "type": "function"
    },
    {
      "inputs": [
        {
          "internalType": "string",
          "name": "gameId",
          "type": "string"
        },
        {
          "internalType": "uint256",
          "name": "roomId",
          "type": "uint256"
        },
        {
          "internalType": "string",
          "name": "plyrId",
          "type": "string"
        },
        {
          "internalType": "address",
          "name": "token",
          "type": "address"
        },
        {
          "internalType": "uint256",
          "name": "amount",
          "type": "uint256"
        }
      ],
      "name": "earn",
      "outputs": [],
      "stateMutability": "nonpayable",
      "type": "function"
    },
    {
      "inputs": [
        {
          "internalType": "string",
          "name": "gameId",
          "type": "string"
        },
        {
          "internalType": "uint256",
          "name": "roomId",
          "type": "uint256"
        }
      ],
      "name": "end",
      "outputs": [],
      "stateMutability": "nonpayable",
      "type": "function"
    },
    {
      "inputs": [],
      "name": "feeTo",
      "outputs": [
        {
          "internalType": "address",
          "name": "",
          "type": "address"
        }
      ],
      "stateMutability": "view",
      "type": "function"
    },
    {
      "inputs": [
        {
          "internalType": "string",
          "name": "",
          "type": "string"
        },
        {
          "internalType": "uint256",
          "name": "",
          "type": "uint256"
        }
      ],
      "name": "gameRoomAddress",
      "outputs": [
        {
          "internalType": "address",
          "name": "",
          "type": "address"
        }
      ],
      "stateMutability": "view",
      "type": "function"
    },
    {
      "inputs": [
        {
          "internalType": "string",
          "name": "",
          "type": "string"
        }
      ],
      "name": "gameRoomCount",
      "outputs": [
        {
          "internalType": "uint256",
          "name": "",
          "type": "uint256"
        }
      ],
      "stateMutability": "view",
      "type": "function"
    },
    {
      "inputs": [
        {
          "internalType": "address",
          "name": "_owner",
          "type": "address"
        },
        {
          "internalType": "address",
          "name": "_router",
          "type": "address"
        },
        {
          "internalType": "address",
          "name": "_feeTo",
          "type": "address"
        },
        {
          "internalType": "address",
          "name": "_registerSC",
          "type": "address"
        }
      ],
      "name": "initialize",
      "outputs": [],
      "stateMutability": "nonpayable",
      "type": "function"
    },
    {
      "inputs": [
        {
          "internalType": "string",
          "name": "gameId",
          "type": "string"
        },
        {
          "internalType": "uint256",
          "name": "roomId",
          "type": "uint256"
        },
        {
          "internalType": "string[]",
          "name": "plyrIds",
          "type": "string[]"
        }
      ],
      "name": "join",
      "outputs": [],
      "stateMutability": "nonpayable",
      "type": "function"
    },
    {
      "inputs": [
        {
          "internalType": "string",
          "name": "gameId",
          "type": "string"
        },
        {
          "internalType": "uint256",
          "name": "roomId",
          "type": "uint256"
        },
        {
          "internalType": "string[]",
          "name": "plyrIds",
          "type": "string[]"
        }
      ],
      "name": "leave",
      "outputs": [],
      "stateMutability": "nonpayable",
      "type": "function"
    },
    {
      "inputs": [
        {
          "internalType": "bytes[]",
          "name": "data",
          "type": "bytes[]"
        }
      ],
      "name": "multicall",
      "outputs": [
        {
          "internalType": "bytes[]",
          "name": "results",
          "type": "bytes[]"
        }
      ],
      "stateMutability": "payable",
      "type": "function"
    },
    {
      "inputs": [
        {
          "internalType": "address",
          "name": "",
          "type": "address"
        }
      ],
      "name": "operators",
      "outputs": [
        {
          "internalType": "bool",
          "name": "",
          "type": "bool"
        }
      ],
      "stateMutability": "view",
      "type": "function"
    },
    {
      "inputs": [],
      "name": "owner",
      "outputs": [
        {
          "internalType": "address",
          "name": "",
          "type": "address"
        }
      ],
      "stateMutability": "view",
      "type": "function"
    },
    {
      "inputs": [
        {
          "internalType": "string",
          "name": "gameId",
          "type": "string"
        },
        {
          "internalType": "uint256",
          "name": "roomId",
          "type": "uint256"
        },
        {
          "internalType": "string",
          "name": "plyrId",
          "type": "string"
        },
        {
          "internalType": "address",
          "name": "token",
          "type": "address"
        },
        {
          "internalType": "uint256",
          "name": "amount",
          "type": "uint256"
        }
      ],
      "name": "pay",
      "outputs": [],
      "stateMutability": "nonpayable",
      "type": "function"
    },
    {
      "inputs": [],
      "name": "platformFee",
      "outputs": [
        {
          "internalType": "uint256",
          "name": "",
          "type": "uint256"
        }
      ],
      "stateMutability": "view",
      "type": "function"
    },
    {
      "inputs": [],
      "name": "registerSC",
      "outputs": [
        {
          "internalType": "address",
          "name": "",
          "type": "address"
        }
      ],
      "stateMutability": "view",
      "type": "function"
    },
    {
      "inputs": [],
      "name": "renounceOwnership",
      "outputs": [],
      "stateMutability": "nonpayable",
      "type": "function"
    },
    {
      "inputs": [
        {
          "internalType": "address",
          "name": "",
          "type": "address"
        }
      ],
      "name": "roomOwner",
      "outputs": [
        {
          "internalType": "string",
          "name": "",
          "type": "string"
        }
      ],
      "stateMutability": "view",
      "type": "function"
    },
    {
      "inputs": [],
      "name": "router",
      "outputs": [
        {
          "internalType": "address",
          "name": "",
          "type": "address"
        }
      ],
      "stateMutability": "view",
      "type": "function"
    },
    {
      "inputs": [
        {
          "internalType": "address",
          "name": "newOwner",
          "type": "address"
        }
      ],
      "name": "transferOwnership",
      "outputs": [],
      "stateMutability": "nonpayable",
      "type": "function"
    }
  ],
  "bytecode": "0x608060405234801561001057600080fd5b50613f48806100206000396000f3fe608060405260043610620001675760003560e01c80636574405a11620000c5578063ac9650d81162000078578063ac9650d8146200047d578063da7fd99d14620004a3578063e6ff0bde14620004c8578063f2fde38b14620004ed578063f887ea401462000512578063f8c8765e146200053457600080fd5b80636574405a14620003bc578063715018a614620003de57806371d578fa14620003f65780637d1d9203146200041b5780638da5cb5b14620004405780639c4a4ed5146200045857600080fd5b806331804f1c116200011e57806331804f1c14620002cf57806333b57a4014620002f457806346f81a8714620003195780634b5e1304146200033e5780634ee9a94d146200036357806356b0040a146200039757600080fd5b8063017e7e58146200016c5780630b1eef0614620001ab5780630eeff63314620001f657806313e7c9d8146200024b57806326232a2e146200029057806330244e6e14620002a8575b600080fd5b3480156200017957600080fd5b506003546200018e906001600160a01b031681565b6040516001600160a01b0390911681526020015b60405180910390f35b348015620001b857600080fd5b50620001e7620001ca36600462001c34565b805160208183018101805160058252928201919093012091525481565b604051908152602001620001a2565b3480156200020357600080fd5b506200018e6200021536600462001c74565b8151602081840181018051600682529282019482019490942091909352909152600090815260409020546001600160a01b031681565b3480156200025857600080fd5b506200027f6200026a36600462001cd2565b60046020526000908152604090205460ff1681565b6040519015158152602001620001a2565b3480156200029d57600080fd5b50620001e760025481565b348015620002b557600080fd5b50620002cd620002c736600462001cf2565b62000559565b005b348015620002dc57600080fd5b50620002cd620002ee36600462001c74565b6200067c565b3480156200030157600080fd5b50620002cd6200031336600462001e01565b62000788565b3480156200032657600080fd5b50620002cd6200033836600462001c74565b620007bd565b3480156200034b57600080fd5b50620002cd6200035d36600462001e3f565b6200095b565b3480156200037057600080fd5b50620003886200038236600462001cd2565b6200096a565b604051620001a2919062001ead565b348015620003a457600080fd5b50620002cd620003b636600462001ec2565b62000a0c565b348015620003c957600080fd5b506001546200018e906001600160a01b031681565b348015620003eb57600080fd5b50620002cd62000dd4565b3480156200040357600080fd5b50620002cd6200041536600462001f52565b62000dec565b3480156200042857600080fd5b50620002cd6200043a36600462001cf2565b62000ecd565b3480156200044d57600080fd5b506200018e62000fad565b3480156200046557600080fd5b506200018e6200047736600462001c74565b62000fdb565b620004946200048e36600462001fb2565b62001053565b604051620001a291906200202b565b348015620004b057600080fd5b50620002cd620004c236600462001cd2565b620011b8565b348015620004d557600080fd5b50620002cd620004e736600462001ec2565b620011e4565b348015620004fa57600080fd5b50620002cd6200050c36600462001cd2565b620016e9565b3480156200051f57600080fd5b506000546200018e906001600160a01b031681565b3480156200054157600080fd5b50620002cd6200055336600462002093565b6200172d565b3360009081526004602052604090205460ff16806200059257506200057d62000fad565b6001600160a01b0316336001600160a01b0316145b620005ba5760405162461bcd60e51b8152600401620005b190620020f8565b60405180910390fd5b6000600684604051620005ce91906200212f565b9081526040805160209281900383019020600086815292529020546001600160a01b0316905080620006145760405162461bcd60e51b8152600401620005b1906200214d565b6040516326f3938560e21b81526001600160a01b03821690639bce4e14906200064290859060040162002184565b600060405180830381600087803b1580156200065d57600080fd5b505af115801562000672573d6000803e3d6000fd5b5050505050505050565b3360009081526004602052604090205460ff1680620006b55750620006a062000fad565b6001600160a01b0316336001600160a01b0316145b620006d45760405162461bcd60e51b8152600401620005b190620020f8565b6000600683604051620006e891906200212f565b9081526040805160209281900383019020600085815292529020546001600160a01b03169050806200072e5760405162461bcd60e51b8152600401620005b1906200214d565b806001600160a01b031663efbe1c1c6040518163ffffffff1660e01b8152600401600060405180830381600087803b1580156200076a57600080fd5b505af11580156200077f573d6000803e3d6000fd5b50505050505050565b6200079262001891565b6001600160a01b03919091166000908152600460205260409020805460ff1916911515919091179055565b3360009081526004602052604090205460ff1680620007f65750620007e162000fad565b6001600160a01b0316336001600160a01b0316145b620008155760405162461bcd60e51b8152600401620005b190620020f8565b60006005836040516200082991906200212f565b90815260405190819003602001902054905062000848816001620021f5565b6005846040516200085a91906200212f565b90815260405190819003602001902055600062000879826001620021f5565b90506000620008898583620018c7565b60405163025df42360e61b81529091506001600160a01b0382169063977d08c090620008be908890869089906004016200220b565b600060405180830381600087803b158015620008d957600080fd5b505af1158015620008ee573d6000803e3d6000fd5b50505050806006866040516200090591906200212f565b9081526040805160209281900383019020600086815290835281812080546001600160a01b0319166001600160a01b03958616179055928416835260079091529020620009538682620022bf565b505050505050565b6200096562001891565b600255565b60076020526000908152604090208054620009859062002232565b80601f0160208091040260200160405190810160405280929190818152602001828054620009b39062002232565b801562000a045780601f10620009d85761010080835404028352916020019162000a04565b820191906000526020600020905b815481529060010190602001808311620009e657829003601f168201915b505050505081565b3360009081526004602052604090205460ff168062000a45575062000a3062000fad565b6001600160a01b0316336001600160a01b0316145b62000a645760405162461bcd60e51b8152600401620005b190620020f8565b600060068660405162000a7891906200212f565b9081526040805160209281900383019020600088815292529020546001600160a01b031690508062000abe5760405162461bcd60e51b8152600401620005b1906200214d565b604051631709b74360e11b81526001600160a01b03821690632e136e869062000aec90879060040162001ead565b602060405180830381865afa15801562000b0a573d6000803e3d6000fd5b505050506040513d601f19601f8201168201806040525081019062000b3091906200238b565b62000b7e5760405162461bcd60e51b815260206004820152601b60248201527f47616d6552756c6556313a20706c7972206e6f74206a6f696e656400000000006044820152606401620005b1565b6040516213049560e71b81526001600160a01b0384811660048301528216906309824a8090602401600060405180830381600087803b15801562000bc157600080fd5b505af115801562000bd6573d6000803e3d6000fd5b5050506001600160a01b038416905062000cda5760015460405163305f840560e11b81526000916001600160a01b0316906360bf080a9062000c1d90889060040162001ead565b602060405180830381865afa15801562000c3b573d6000803e3d6000fd5b505050506040513d601f19601f8201168201806040525081019062000c619190620023ab565b6000546040516369d1654160e11b81526001600160a01b03808416600483015285811660248301526044820187905292935091169063d3a2ca8290606401600060405180830381600087803b15801562000cba57600080fd5b505af115801562000ccf573d6000803e3d6000fd5b505050505062000953565b60015460405163305f840560e11b81526000916001600160a01b0316906360bf080a9062000d0d90889060040162001ead565b602060405180830381865afa15801562000d2b573d6000803e3d6000fd5b505050506040513d601f19601f8201168201806040525081019062000d519190620023ab565b600054604051632a02e08560e11b81526001600160a01b0387811660048301528084166024830152858116604483015260648201879052929350911690635405c10a90608401600060405180830381600087803b15801562000db257600080fd5b505af115801562000dc7573d6000803e3d6000fd5b5050505050505050505050565b62000dde62001891565b62000dea600062001975565b565b3360009081526004602052604090205460ff168062000e25575062000e1062000fad565b6001600160a01b0316336001600160a01b0316145b62000e445760405162461bcd60e51b8152600401620005b190620020f8565b600060068460405162000e5891906200212f565b9081526040805160209281900383019020600086815292529020546001600160a01b031690508062000e9e5760405162461bcd60e51b8152600401620005b1906200214d565b60405163c74073a160e01b81526001600160a01b03838116600483015282169063c74073a19060240162000642565b3360009081526004602052604090205460ff168062000f06575062000ef162000fad565b6001600160a01b0316336001600160a01b0316145b62000f255760405162461bcd60e51b8152600401620005b190620020f8565b600060068460405162000f3991906200212f565b9081526040805160209281900383019020600086815292529020546001600160a01b031690508062000f7f5760405162461bcd60e51b8152600401620005b1906200214d565b604051631edc210760e11b81526001600160a01b03821690633db8420e906200064290859060040162002184565b7f9016d09d72d40fdae2fd8ceac6b6234c7706214fd39c1cd1e609a0528c199300546001600160a01b031690565b600080838360405160200162000ff3929190620023cb565b6040516020818303038152906040528051906020012090506000604051806020016200101f9062001b57565b6020820181038252601f19601f82011660405250905062001048828280519060200120620019e6565b925050505b92915050565b6060816001600160401b0381111562001070576200107062001b65565b604051908082528060200260200182016040528015620010a557816020015b60608152602001906001900390816200108f5790505b50905060005b82811015620011b15760008030868685818110620010cd57620010cd620023ef565b9050602002810190620010e1919062002405565b604051620010f192919062002455565b600060405180830381855af49150503d80600081146200112e576040519150601f19603f3d011682016040523d82523d6000602084013e62001133565b606091505b50915091508162001185576044815110156200114e57600080fd5b600481019050808060200190518101906200116a919062002465565b60405162461bcd60e51b8152600401620005b1919062001ead565b808484815181106200119b576200119b620023ef565b60209081029190910101525050600101620010ab565b5092915050565b620011c262001891565b600380546001600160a01b0319166001600160a01b0392909216919091179055565b3360009081526004602052604090205460ff16806200121d57506200120862000fad565b6001600160a01b0316336001600160a01b0316145b6200123c5760405162461bcd60e51b8152600401620005b190620020f8565b60006006866040516200125091906200212f565b9081526040805160209281900383019020600088815292529020546001600160a01b0316905080620012965760405162461bcd60e51b8152600401620005b1906200214d565b604051631709b74360e11b81526001600160a01b03821690632e136e8690620012c490879060040162001ead565b602060405180830381865afa158015620012e2573d6000803e3d6000fd5b505050506040513d601f19601f820116820180604052508101906200130891906200238b565b620013565760405162461bcd60e51b815260206004820152601b60248201527f47616d6552756c6556313a20706c7972206e6f74206a6f696e656400000000006044820152606401620005b1565b6040516213049560e71b81526001600160a01b0384811660048301528216906309824a8090602401600060405180830381600087803b1580156200139957600080fd5b505af1158015620013ae573d6000803e3d6000fd5b505050506000606460025484620013c69190620024e4565b620013d29190620024fe565b90506000620013e2828562002521565b90506001600160a01b03851662001564576001546040516000916001600160a01b0316906360bf080a906200141c908a9060200162002537565b6040516020818303038152906040526040518263ffffffff1660e01b815260040162001449919062001ead565b602060405180830381865afa15801562001467573d6000803e3d6000fd5b505050506040513d601f19601f820116820180604052508101906200148d9190620023ab565b60405163f2522bcd60e01b81526001600160a01b038083166004830152602482018590529192509085169063f2522bcd90604401600060405180830381600087803b158015620014dc57600080fd5b505af1158015620014f1573d6000803e3d6000fd5b505060035460405163f2522bcd60e01b81526001600160a01b03918216600482015260248101879052908716925063f2522bcd9150604401600060405180830381600087803b1580156200154457600080fd5b505af115801562001559573d6000803e3d6000fd5b505050505062000672565b6001546040516000916001600160a01b0316906360bf080a906200158d908a9060200162002537565b6040516020818303038152906040526040518263ffffffff1660e01b8152600401620015ba919062001ead565b602060405180830381865afa158015620015d8573d6000803e3d6000fd5b505050506040513d601f19601f82011682018060405250810190620015fe9190620023ab565b6040516317d5759960e31b81526001600160a01b0388811660048301528083166024830152604482018590529192509085169063beabacc890606401600060405180830381600087803b1580156200165557600080fd5b505af11580156200166a573d6000803e3d6000fd5b50506003546040516317d5759960e31b81526001600160a01b038a81166004830152918216602482015260448101879052908716925063beabacc89150606401600060405180830381600087803b158015620016c557600080fd5b505af1158015620016da573d6000803e3d6000fd5b50505050505050505050505050565b620016f362001891565b6001600160a01b0381166200171f57604051631e4fbdf760e01b815260006004820152602401620005b1565b6200172a8162001975565b50565b7ff0c57e16840df040f15088dc2f81fe391c3923bec73e23a9662efc9c229c6a008054600160401b810460ff1615906001600160401b0316600081158015620017735750825b90506000826001600160401b03166001148015620017905750303b155b9050811580156200179f575080155b15620017be5760405163f92ee8a960e01b815260040160405180910390fd5b845467ffffffffffffffff191660011785558315620017e957845460ff60401b1916600160401b1785555b60028055600380546001600160a01b03808a166001600160a01b031992831617909255600080548b841690831617905560018054928916929091169190911790556200183589620019fc565b6200183f62001a11565b83156200188657845460ff60401b19168555604051600181527fc7f505b2f371ae2175ee4913f4499e1f2633a7b5936321eed1cdaeb6115181d29060200160405180910390a15b505050505050505050565b336200189c62000fad565b6001600160a01b03161462000dea5760405163118cdaa760e01b8152336004820152602401620005b1565b6000808383604051602001620018df929190620023cb565b6040516020818303038152906040528051906020012090506000604051806020016200190b9062001b57565b601f1982820381018352601f9091011660405290506200192e6000838362001a25565b92507ffb7cc44ea40b5981af090fdacf3750b5fe758fc83a7eff829837ac9f53dcc7a9858585604051620019659392919062002562565b60405180910390a1505092915050565b7f9016d09d72d40fdae2fd8ceac6b6234c7706214fd39c1cd1e609a0528c19930080546001600160a01b031981166001600160a01b03848116918217845560405192169182907f8be0079c531659141344cd1fd0a4f28419497f9722a3daafe3b4186f6b6457e090600090a3505050565b6000620019f583833062001aa9565b9392505050565b62001a0662001ad3565b6200172a8162001b1d565b62001a1b62001ad3565b62000dea62001b27565b60008347101562001a535760405163392efb2b60e21b815247600482015260248101859052604401620005b1565b815160000362001a7657604051631328927760e21b815260040160405180910390fd5b8282516020840186f590506001600160a01b038116620019f557604051633a0ba96160e11b815260040160405180910390fd5b6000604051836040820152846020820152828152600b8101905060ff815360559020949350505050565b7ff0c57e16840df040f15088dc2f81fe391c3923bec73e23a9662efc9c229c6a0054600160401b900460ff1662000dea57604051631afcd79f60e31b815260040160405180910390fd5b620016f362001ad3565b62001b3162001ad3565b60017f9b779b17422d0df92223018b32b4d1fa46e071723d6817e2486d003becc55f0055565b61197b806200259883390190565b634e487b7160e01b600052604160045260246000fd5b604051601f8201601f191681016001600160401b038111828210171562001ba65762001ba662001b65565b604052919050565b60006001600160401b0382111562001bca5762001bca62001b65565b50601f01601f191660200190565b600082601f83011262001bea57600080fd5b813562001c0162001bfb8262001bae565b62001b7b565b81815284602083860101111562001c1757600080fd5b816020850160208301376000918101602001919091529392505050565b60006020828403121562001c4757600080fd5b81356001600160401b0381111562001c5e57600080fd5b62001c6c8482850162001bd8565b949350505050565b6000806040838503121562001c8857600080fd5b82356001600160401b0381111562001c9f57600080fd5b62001cad8582860162001bd8565b95602094909401359450505050565b6001600160a01b03811681146200172a57600080fd5b60006020828403121562001ce557600080fd5b8135620019f58162001cbc565b60008060006060848603121562001d0857600080fd5b83356001600160401b038082111562001d2057600080fd5b62001d2e8783880162001bd8565b94506020915081860135935060408601358181111562001d4d57600080fd5b8601601f8101881362001d5f57600080fd5b80358281111562001d745762001d7462001b65565b8060051b62001d8585820162001b7b565b918252828101850191858101908b84111562001da057600080fd5b86850192505b8383101562001de15782358681111562001dc05760008081fd5b62001dd08d898389010162001bd8565b835250918601919086019062001da6565b809750505050505050509250925092565b80151581146200172a57600080fd5b6000806040838503121562001e1557600080fd5b823562001e228162001cbc565b9150602083013562001e348162001df2565b809150509250929050565b60006020828403121562001e5257600080fd5b5035919050565b60005b8381101562001e7657818101518382015260200162001e5c565b50506000910152565b6000815180845262001e9981602086016020860162001e59565b601f01601f19169290920160200192915050565b602081526000620019f5602083018462001e7f565b600080600080600060a0868803121562001edb57600080fd5b85356001600160401b038082111562001ef357600080fd5b62001f0189838a0162001bd8565b965060208801359550604088013591508082111562001f1f57600080fd5b5062001f2e8882890162001bd8565b935050606086013562001f418162001cbc565b949793965091946080013592915050565b60008060006060848603121562001f6857600080fd5b83356001600160401b0381111562001f7f57600080fd5b62001f8d8682870162001bd8565b93505060208401359150604084013562001fa78162001cbc565b809150509250925092565b6000806020838503121562001fc657600080fd5b82356001600160401b038082111562001fde57600080fd5b818501915085601f83011262001ff357600080fd5b8135818111156200200357600080fd5b8660208260051b85010111156200201957600080fd5b60209290920196919550909350505050565b600060208083016020845280855180835260408601915060408160051b87010192506020870160005b828110156200208657603f198886030184526200207385835162001e7f565b9450928501929085019060010162002054565b5092979650505050505050565b60008060008060808587031215620020aa57600080fd5b8435620020b78162001cbc565b93506020850135620020c98162001cbc565b92506040850135620020db8162001cbc565b91506060850135620020ed8162001cbc565b939692955090935050565b6020808252601a908201527f47616d6552756c6556313a206f6e6c79206f70657261746f7273000000000000604082015260600190565b600082516200214381846020870162001e59565b9190910192915050565b6020808252601a908201527f47616d6552756c6556313a20726f6f6d206e6f7420666f756e64000000000000604082015260600190565b600060208083016020845280855180835260408601915060408160051b87010192506020870160005b828110156200208657603f19888603018452620021cc85835162001e7f565b94509285019290850190600101620021ad565b634e487b7160e01b600052601160045260246000fd5b808201808211156200104d576200104d620021df565b60608152600062002220606083018662001e7f565b60208301949094525060400152919050565b600181811c908216806200224757607f821691505b6020821081036200226857634e487b7160e01b600052602260045260246000fd5b50919050565b601f821115620022ba576000816000526020600020601f850160051c81016020861015620022995750805b601f850160051c820191505b818110156200095357828155600101620022a5565b505050565b81516001600160401b03811115620022db57620022db62001b65565b620022f381620022ec845462002232565b846200226e565b602080601f8311600181146200232b5760008415620023125750858301515b600019600386901b1c1916600185901b17855562000953565b600085815260208120601f198616915b828110156200235c578886015182559484019460019091019084016200233b565b50858210156200237b5787850151600019600388901b60f8161c191681555b5050505050600190811b01905550565b6000602082840312156200239e57600080fd5b8151620019f58162001df2565b600060208284031215620023be57600080fd5b8151620019f58162001cbc565b604081526000620023e0604083018562001e7f565b90508260208301529392505050565b634e487b7160e01b600052603260045260246000fd5b6000808335601e198436030181126200241d57600080fd5b8301803591506001600160401b038211156200243857600080fd5b6020019150368190038213156200244e57600080fd5b9250929050565b8183823760009101908152919050565b6000602082840312156200247857600080fd5b81516001600160401b038111156200248f57600080fd5b8201601f81018413620024a157600080fd5b8051620024b262001bfb8262001bae565b818152856020838501011115620024c857600080fd5b620024db82602083016020860162001e59565b95945050505050565b80820281158282048414176200104d576200104d620021df565b6000826200251c57634e487b7160e01b600052601260045260246000fd5b500490565b818103818111156200104d576200104d620021df565b600082516200254b81846020870162001e59565b641738363cb960d91b920191825250600501919050565b60608152600062002577606083018662001e7f565b6020830194909452506001600160a01b039190911660409091015291905056fe608060405234801561001057600080fd5b50338061003757604051631e4fbdf760e01b81526000600482015260240160405180910390fd5b61004081610046565b50610096565b600080546001600160a01b038381166001600160a01b0319831681178455604051919092169283917f8be0079c531659141344cd1fd0a4f28419497f9722a3daafe3b4186f6b6457e09190a35050565b6118d6806100a56000396000f3fe6080604052600436106101235760003560e01c8063a2e1ce62116100a0578063d7c81b5511610064578063d7c81b551461035c578063efbe1c1c1461037e578063f2522bcd14610393578063f2fde38b146103b3578063f954d0d9146103d357600080fd5b8063a2e1ce62146102b0578063a4fd6f56146102e0578063aa6ca808146102fa578063beabacc81461031c578063c74073a11461033c57600080fd5b80634f64b2be116100e75780634f64b2be14610205578063715018a61461023d5780638da5cb5b14610252578063977d08c0146102705780639bce4e141461029057600080fd5b806309824a801461012f57806329dcb0cf146101515780632e136e861461017a5780633db8420e146101aa578063475fb9e6146101ca57600080fd5b3661012a57005b600080fd5b34801561013b57600080fd5b5061014f61014a3660046111c6565b6103e9565b005b34801561015d57600080fd5b5061016760035481565b6040519081526020015b60405180910390f35b34801561018657600080fd5b5061019a61019536600461129a565b6104ad565b6040519015158152602001610171565b3480156101b657600080fd5b5061014f6101c53660046112d7565b61052f565b3480156101d657600080fd5b5061019a6101e536600461129a565b805160208183018101805160068252928201919093012091525460ff1681565b34801561021157600080fd5b5061022561022036600461139a565b6105f8565b6040516001600160a01b039091168152602001610171565b34801561024957600080fd5b5061014f610622565b34801561025e57600080fd5b506000546001600160a01b0316610225565b34801561027c57600080fd5b5061014f61028b3660046113b3565b610636565b34801561029c57600080fd5b5061014f6102ab3660046112d7565b61079f565b3480156102bc57600080fd5b5061019a6102cb3660046111c6565b60076020526000908152604090205460ff1681565b3480156102ec57600080fd5b5060045461019a9060ff1681565b34801561030657600080fd5b5061030f610864565b6040516101719190611401565b34801561032857600080fd5b5061014f61033736600461144e565b6108c6565b34801561034857600080fd5b5061014f6103573660046111c6565b6108e7565b34801561036857600080fd5b50610371610c0c565b60405161017191906114df565b34801561038a57600080fd5b5061014f610c9a565b34801561039f57600080fd5b5061014f6103ae3660046114f2565b610e64565b3480156103bf57600080fd5b5061014f6103ce3660046111c6565b610e76565b3480156103df57600080fd5b5061016760025481565b6103f1610eb1565b6001600160a01b03811660009081526007602052604090205460ff166104aa576005805460018082019092557f036b6384b5eca791c62761152d0c79bb0604c104a5fb6f4eb0703f3154bb3db00180546001600160a01b0319166001600160a01b038416908117909155600081815260076020908152604091829020805460ff1916909417909355519081527f158412daecdc1456d01568828bcdb18464cc7f1ce0215ddbc3f3cfede9d1e63d91015b60405180910390a15b50565b60006006826040516104bf919061151e565b9081526040519081900360200190205460ff1680610529575060016040516020016104ea9190611574565b6040516020818303038152906040528051906020012082604051602001610511919061151e565b60405160208183030381529060405280519060200120145b92915050565b610537610eb1565b60005b81518110156105f45760006006838381518110610559576105596115ea565b602002602001015160405161056e919061151e565b908152602001604051809103902060006101000a81548160ff0219169083151502179055507f5cb6468e01c321c195d8437416322f6c7b51e265edab465a79c231fad6b53dee60016002548484815181106105cb576105cb6115ea565b6020026020010151426040516105e4949392919061167d565b60405180910390a160010161053a565b5050565b6005818154811061060857600080fd5b6000918252602090912001546001600160a01b0316905081565b61062a610eb1565b6106346000610ede565b565b7ff0c57e16840df040f15088dc2f81fe391c3923bec73e23a9662efc9c229c6a008054600160401b810460ff16159067ffffffffffffffff1660008115801561067c5750825b905060008267ffffffffffffffff1660011480156106995750303b155b9050811580156106a7575080155b156106c55760405163f92ee8a960e01b815260040160405180910390fd5b845467ffffffffffffffff1916600117855583156106ef57845460ff60401b1916600160401b1785555b60016106fb898261170a565b50600287905561070b86426117ca565b60038190556002546040517f5bb40d63135f752607da3ecbfc1ffc67f89afad879bed5dfee15a16bec7c30a592610747926001929091906117eb565b60405180910390a1831561079557845460ff60401b19168555604051600181527fc7f505b2f371ae2175ee4913f4499e1f2633a7b5936321eed1cdaeb6115181d29060200160405180910390a15b5050505050505050565b6107a7610eb1565b60005b81518110156105f457600160068383815181106107c9576107c96115ea565b60200260200101516040516107de919061151e565b908152602001604051809103902060006101000a81548160ff0219169083151502179055507fcc272659d82aa91a1f080eb07b21500b34be0df4d27769512d27c750aba681a2600160025484848151811061083b5761083b6115ea565b602002602001015142604051610854949392919061167d565b60405180910390a16001016107aa565b606060058054806020026020016040519081016040528092919081815260200182805480156108bc57602002820191906000526020600020905b81546001600160a01b0316815260019091019060200180831161089e575b5050505050905090565b6108ce610eb1565b6108e26001600160a01b0384168383610f2e565b505050565b6108ef610eb1565b60035442116109345760405162461bcd60e51b815260206004820152600c60248201526b11d85b59539bdd115b99195960a21b60448201526064015b60405180910390fd5b60045460ff161561097a5760405162461bcd60e51b815260206004820152601060248201526f11d85b59505b1c9958591e515b99195960821b604482015260640161092b565b60005b600554811015610bc65760006001600160a01b0316600582815481106109a5576109a56115ea565b6000918252602090912001546001600160a01b031614610b81576000600582815481106109d4576109d46115ea565b6000918252602090912001546040516370a0823160e01b81523060048201526001600160a01b03909116906370a0823190602401602060405180830381865afa158015610a25573d6000803e3d6000fd5b505050506040513d601f19601f82011682018060405250810190610a499190611810565b1115610b7c5760058181548110610a6257610a626115ea565b600091825260209091200154600580546001600160a01b039092169163a9059cbb91859185908110610a9657610a966115ea565b6000918252602090912001546040516370a0823160e01b81523060048201526001600160a01b03909116906370a0823190602401602060405180830381865afa158015610ae7573d6000803e3d6000fd5b505050506040513d601f19601f82011682018060405250810190610b0b9190611810565b6040516001600160e01b031960e085901b1681526001600160a01b03909216600483015260248201526044016020604051808303816000875af1158015610b56573d6000803e3d6000fd5b505050506040513d601f19601f82011682018060405250810190610b7a9190611829565b505b610bbe565b4715610bbe576040516001600160a01b038316904780156108fc02916000818181858888f19350505050158015610bbc573d6000803e3d6000fd5b505b60010161097d565b506004805460ff191660019081179091556002546040517f51face237fecf262f6f4cbff1e2cb10355e4f478f2a934b059697485a3d039ed926104a1929091859061184b565b60018054610c199061153a565b80601f0160208091040260200160405190810160405280929190818152602001828054610c459061153a565b8015610c925780601f10610c6757610100808354040283529160200191610c92565b820191906000526020600020905b815481529060010190602001808311610c7557829003601f168201915b505050505081565b610ca2610eb1565b60005b600554811015610e165760006001600160a01b031660058281548110610ccd57610ccd6115ea565b6000918252602090912001546001600160a01b031614610dbd57600060058281548110610cfc57610cfc6115ea565b6000918252602090912001546040516370a0823160e01b81523060048201526001600160a01b03909116906370a0823190602401602060405180830381865afa158015610d4d573d6000803e3d6000fd5b505050506040513d601f19601f82011682018060405250810190610d719190611810565b90508015610db75760405162461bcd60e51b8152602060048201526013602482015272546f6b656e42616c616e63654e6f745a65726f60681b604482015260640161092b565b50610e0e565b478015610e0c5760405162461bcd60e51b815260206004820152601860248201527f4e6174697665436f696e42616c616e63654e6f745a65726f0000000000000000604482015260640161092b565b505b600101610ca5565b506004805460ff191660019081179091556002546040517fea20419b16267d9e7b733136c4c8d716a7d68522654cf5ba20af0db8820a627d92610e5a92909161187e565b60405180910390a1565b610e6c610eb1565b6105f48282610f80565b610e7e610eb1565b6001600160a01b038116610ea857604051631e4fbdf760e01b81526000600482015260240161092b565b6104aa81610ede565b6000546001600160a01b031633146106345760405163118cdaa760e01b815233600482015260240161092b565b600080546001600160a01b038381166001600160a01b0319831681178455604051919092169283917f8be0079c531659141344cd1fd0a4f28419497f9722a3daafe3b4186f6b6457e09190a35050565b604080516001600160a01b038416602482015260448082018490528251808303909101815260649091019091526020810180516001600160e01b031663a9059cbb60e01b1790526108e2908490611017565b80471015610fa35760405163cd78605960e01b815230600482015260240161092b565b6000826001600160a01b03168260405160006040518083038185875af1925050503d8060008114610ff0576040519150601f19603f3d011682016040523d82523d6000602084013e610ff5565b606091505b50509050806108e257604051630a12f52160e11b815260040160405180910390fd5b600061102c6001600160a01b0384168361107a565b9050805160001415801561105157508080602001905181019061104f9190611829565b155b156108e257604051635274afe760e01b81526001600160a01b038416600482015260240161092b565b60606110888383600061108f565b9392505050565b6060814710156110b45760405163cd78605960e01b815230600482015260240161092b565b600080856001600160a01b031684866040516110d0919061151e565b60006040518083038185875af1925050503d806000811461110d576040519150601f19603f3d011682016040523d82523d6000602084013e611112565b606091505b509150915061112286838361112c565b9695505050505050565b6060826111415761113c82611188565b611088565b815115801561115857506001600160a01b0384163b155b1561118157604051639996b31560e01b81526001600160a01b038516600482015260240161092b565b5080611088565b8051156111985780518082602001fd5b604051630a12f52160e11b815260040160405180910390fd5b6001600160a01b03811681146104aa57600080fd5b6000602082840312156111d857600080fd5b8135611088816111b1565b634e487b7160e01b600052604160045260246000fd5b604051601f8201601f1916810167ffffffffffffffff81118282101715611222576112226111e3565b604052919050565b600082601f83011261123b57600080fd5b813567ffffffffffffffff811115611255576112556111e3565b611268601f8201601f19166020016111f9565b81815284602083860101111561127d57600080fd5b816020850160208301376000918101602001919091529392505050565b6000602082840312156112ac57600080fd5b813567ffffffffffffffff8111156112c357600080fd5b6112cf8482850161122a565b949350505050565b600060208083850312156112ea57600080fd5b823567ffffffffffffffff8082111561130257600080fd5b818501915085601f83011261131657600080fd5b813581811115611328576113286111e3565b8060051b6113378582016111f9565b918252838101850191858101908984111561135157600080fd5b86860192505b8383101561138d5782358581111561136f5760008081fd5b61137d8b89838a010161122a565b8352509186019190860190611357565b9998505050505050505050565b6000602082840312156113ac57600080fd5b5035919050565b6000806000606084860312156113c857600080fd5b833567ffffffffffffffff8111156113df57600080fd5b6113eb8682870161122a565b9660208601359650604090950135949350505050565b6020808252825182820181905260009190848201906040850190845b818110156114425783516001600160a01b03168352928401929184019160010161141d565b50909695505050505050565b60008060006060848603121561146357600080fd5b833561146e816111b1565b9250602084013561147e816111b1565b929592945050506040919091013590565b60005b838110156114aa578181015183820152602001611492565b50506000910152565b600081518084526114cb81602086016020860161148f565b601f01601f19169290920160200192915050565b60208152600061108860208301846114b3565b6000806040838503121561150557600080fd5b8235611510816111b1565b946020939093013593505050565b6000825161153081846020870161148f565b9190910192915050565b600181811c9082168061154e57607f821691505b60208210810361156e57634e487b7160e01b600052602260045260246000fd5b50919050565b60008083546115828161153a565b6001828116801561159a57600181146115af576115de565b60ff19841687528215158302870194506115de565b8760005260208060002060005b858110156115d55781548a8201529084019082016115bc565b50505082870194505b50929695505050505050565b634e487b7160e01b600052603260045260246000fd5b6000815461160d8161153a565b80855260206001838116801561162a576001811461164457611672565b60ff1985168884015283151560051b880183019550611672565b866000528260002060005b8581101561166a5781548a820186015290830190840161164f565b890184019650505b505050505092915050565b6080815260006116906080830187611600565b85602084015282810360408401526116a881866114b3565b91505082606083015295945050505050565b601f8211156108e2576000816000526020600020601f850160051c810160208610156116e35750805b601f850160051c820191505b81811015611702578281556001016116ef565b505050505050565b815167ffffffffffffffff811115611724576117246111e3565b61173881611732845461153a565b846116ba565b602080601f83116001811461176d57600084156117555750858301515b600019600386901b1c1916600185901b178555611702565b600085815260208120601f198616915b8281101561179c5788860151825594840194600190910190840161177d565b50858210156117ba5787850151600019600388901b60f8161c191681555b5050505050600190811b01905550565b8082018082111561052957634e487b7160e01b600052601160045260246000fd5b6060815260006117fe6060830186611600565b60208301949094525060400152919050565b60006020828403121561182257600080fd5b5051919050565b60006020828403121561183b57600080fd5b8151801515811461108857600080fd5b60608152600061185e6060830186611600565b6020830194909452506001600160a01b0391909116604090910152919050565b6040815260006118916040830185611600565b9050826020830152939250505056fea264697066735822122038d1642c6db4882c406e7075c60366dd6a3a051596234abb23a405095a2bb5ae64736f6c63430008180033a26469706673582212205627ebbec57fb760f8756ed38c41dcce2de14e4b0a77b58280f6753b4053da1464736f6c63430008180033",
  "linkReferences": {},
  "deployedLinkReferences": {}
}