{
  "_format": "hh-sol-artifact-1",
  "contractName": "GameNftFactory",
  "sourceName": "contracts/GameNftFactory.sol",
  "abi": [
    {
      "inputs": [],
      "stateMutability": "nonpayable",
      "type": "constructor"
    },
    {
      "inputs": [],
      "name": "ERC1167FailedCreateClone",
      "type": "error"
    },
    {
      "inputs": [],
      "name": "InvalidInitialization",
      "type": "error"
    },
    {
      "inputs": [],
      "name": "NotInitializing",
      "type": "error"
    },
    {
      "inputs": [
        {
          "internalType": "address",
          "name": "owner",
          "type": "address"
        }
      ],
      "name": "OwnableInvalidOwner",
      "type": "error"
    },
    {
      "inputs": [
        {
          "internalType": "address",
          "name": "account",
          "type": "address"
        }
      ],
      "name": "OwnableUnauthorizedAccount",
      "type": "error"
    },
    {
      "anonymous": false,
      "inputs": [
        {
          "indexed": false,
          "internalType": "uint64",
          "name": "version",
          "type": "uint64"
        }
      ],
      "name": "Initialized",
      "type": "event"
    },
    {
      "anonymous": false,
      "inputs": [
        {
          "indexed": true,
          "internalType": "address",
          "name": "nft",
          "type": "address"
        },
        {
          "indexed": false,
          "internalType": "string",
          "name": "gameId",
          "type": "string"
        },
        {
          "indexed": false,
          "internalType": "string",
          "name": "name",
          "type": "string"
        },
        {
          "indexed": false,
          "internalType": "string",
          "name": "symbol",
          "type": "string"
        }
      ],
      "name": "NftCreated",
      "type": "event"
    },
    {
      "anonymous": false,
      "inputs": [
        {
          "indexed": true,
          "internalType": "address",
          "name": "previousOwner",
          "type": "address"
        },
        {
          "indexed": true,
          "internalType": "address",
          "name": "newOwner",
          "type": "address"
        }
      ],
      "name": "OwnershipTransferred",
      "type": "event"
    },
    {
      "inputs": [
        {
          "internalType": "address[]",
          "name": "_nft",
          "type": "address[]"
        },
        {
          "internalType": "uint256[]",
          "name": "_tokenId",
          "type": "uint256[]"
        }
      ],
      "name": "batchBurn",
      "outputs": [],
      "stateMutability": "nonpayable",
      "type": "function"
    },
    {
      "inputs": [
        {
          "internalType": "address[]",
          "name": "_nft",
          "type": "address[]"
        },
        {
          "internalType": "address[]",
          "name": "_from",
          "type": "address[]"
        },
        {
          "internalType": "address[]",
          "name": "_to",
          "type": "address[]"
        },
        {
          "internalType": "uint256[]",
          "name": "_tokenId",
          "type": "uint256[]"
        }
      ],
      "name": "batchGameTransfer",
      "outputs": [],
      "stateMutability": "nonpayable",
      "type": "function"
    },
    {
      "inputs": [
        {
          "internalType": "address[]",
          "name": "_nft",
          "type": "address[]"
        },
        {
          "internalType": "address[]",
          "name": "_to",
          "type": "address[]"
        },
        {
          "internalType": "string[]",
          "name": "_tokenURI",
          "type": "string[]"
        }
      ],
      "name": "batchMint",
      "outputs": [],
      "stateMutability": "nonpayable",
      "type": "function"
    },
    {
      "inputs": [
        {
          "internalType": "address",
          "name": "_nft",
          "type": "address"
        },
        {
          "internalType": "uint256",
          "name": "_tokenId",
          "type": "uint256"
        }
      ],
      "name": "burn",
      "outputs": [],
      "stateMutability": "nonpayable",
      "type": "function"
    },
    {
      "inputs": [
        {
          "internalType": "address",
          "name": "_implementation",
          "type": "address"
        }
      ],
      "name": "configNftImplementation",
      "outputs": [],
      "stateMutability": "nonpayable",
      "type": "function"
    },
    {
      "inputs": [
        {
          "internalType": "address",
          "name": "_operator",
          "type": "address"
        }
      ],
      "name": "configOperator",
      "outputs": [],
      "stateMutability": "nonpayable",
      "type": "function"
    },
    {
      "inputs": [
        {
          "internalType": "string",
          "name": "_gameId",
          "type": "string"
        },
        {
          "internalType": "string",
          "name": "_name",
          "type": "string"
        },
        {
          "internalType": "string",
          "name": "_symbol",
          "type": "string"
        }
      ],
      "name": "createNft",
      "outputs": [],
      "stateMutability": "nonpayable",
      "type": "function"
    },
    {
      "inputs": [
        {
          "internalType": "address",
          "name": "_nft",
          "type": "address"
        },
        {
          "internalType": "address",
          "name": "_from",
          "type": "address"
        },
        {
          "internalType": "address",
          "name": "_to",
          "type": "address"
        },
        {
          "internalType": "uint256",
          "name": "_tokenId",
          "type": "uint256"
        }
      ],
      "name": "gameTransfer",
      "outputs": [],
      "stateMutability": "nonpayable",
      "type": "function"
    },
    {
      "inputs": [
        {
          "internalType": "address",
          "name": "_implementation",
          "type": "address"
        },
        {
          "internalType": "address",
          "name": "_owner",
          "type": "address"
        },
        {
          "internalType": "address",
          "name": "_operator",
          "type": "address"
        }
      ],
      "name": "initialize",
      "outputs": [],
      "stateMutability": "nonpayable",
      "type": "function"
    },
    {
      "inputs": [
        {
          "internalType": "address",
          "name": "_nft",
          "type": "address"
        },
        {
          "internalType": "address",
          "name": "_to",
          "type": "address"
        },
        {
          "internalType": "string",
          "name": "_tokenURI",
          "type": "string"
        }
      ],
      "name": "mint",
      "outputs": [],
      "stateMutability": "nonpayable",
      "type": "function"
    },
    {
      "inputs": [
        {
          "internalType": "address",
          "name": "",
          "type": "address"
        }
      ],
      "name": "nftGameId",
      "outputs": [
        {
          "internalType": "string",
          "name": "",
          "type": "string"
        }
      ],
      "stateMutability": "view",
      "type": "function"
    },
    {
      "inputs": [
        {
          "internalType": "address",
          "name": "_nft",
          "type": "address"
        }
      ],
      "name": "nftHolderCount",
      "outputs": [
        {
          "internalType": "uint256",
          "name": "",
          "type": "uint256"
        }
      ],
      "stateMutability": "view",
      "type": "function"
    },
    {
      "inputs": [],
      "name": "nftImplementation",
      "outputs": [
        {
          "internalType": "address",
          "name": "",
          "type": "address"
        }
      ],
      "stateMutability": "view",
      "type": "function"
    },
    {
      "inputs": [
        {
          "internalType": "address",
          "name": "_nft",
          "type": "address"
        }
      ],
      "name": "nftInfo",
      "outputs": [
        {
          "internalType": "address",
          "name": "tokenAddress",
          "type": "address"
        },
        {
          "internalType": "string",
          "name": "gameId",
          "type": "string"
        },
        {
          "internalType": "string",
          "name": "name",
          "type": "string"
        },
        {
          "internalType": "string",
          "name": "symbol",
          "type": "string"
        },
        {
          "internalType": "uint256",
          "name": "totalSupply",
          "type": "uint256"
        },
        {
          "internalType": "uint256",
          "name": "holderCount",
          "type": "uint256"
        }
      ],
      "stateMutability": "view",
      "type": "function"
    },
    {
      "inputs": [
        {
          "internalType": "uint256",
          "name": "",
          "type": "uint256"
        }
      ],
      "name": "nfts",
      "outputs": [
        {
          "internalType": "address",
          "name": "",
          "type": "address"
        }
      ],
      "stateMutability": "view",
      "type": "function"
    },
    {
      "inputs": [],
      "name": "operator",
      "outputs": [
        {
          "internalType": "address",
          "name": "",
          "type": "address"
        }
      ],
      "stateMutability": "view",
      "type": "function"
    },
    {
      "inputs": [],
      "name": "owner",
      "outputs": [
        {
          "internalType": "address",
          "name": "",
          "type": "address"
        }
      ],
      "stateMutability": "view",
      "type": "function"
    },
    {
      "inputs": [],
      "name": "renounceOwnership",
      "outputs": [],
      "stateMutability": "nonpayable",
      "type": "function"
    },
    {
      "inputs": [],
      "name": "totalNftCount",
      "outputs": [
        {
          "internalType": "uint256",
          "name": "",
          "type": "uint256"
        }
      ],
      "stateMutability": "view",
      "type": "function"
    },
    {
      "inputs": [
        {
          "internalType": "address",
          "name": "newOwner",
          "type": "address"
        }
      ],
      "name": "transferOwnership",
      "outputs": [],
      "stateMutability": "nonpayable",
      "type": "function"
    }
  ],
  "bytecode": "0x60806040523480156200001157600080fd5b50620000226200002860201b60201c565b6200019c565b60006200003a6200013260201b60201c565b90508060000160089054906101000a900460ff161562000086576040517ff92ee8a900000000000000000000000000000000000000000000000000000000815260040160405180910390fd5b67ffffffffffffffff80168160000160009054906101000a900467ffffffffffffffff1667ffffffffffffffff16146200012f5767ffffffffffffffff8160000160006101000a81548167ffffffffffffffff021916908367ffffffffffffffff1602179055507fc7f505b2f371ae2175ee4913f4499e1f2633a7b5936321eed1cdaeb6115181d267ffffffffffffffff6040516200012691906200017f565b60405180910390a15b50565b60007ff0c57e16840df040f15088dc2f81fe391c3923bec73e23a9662efc9c229c6a00905090565b600067ffffffffffffffff82169050919050565b62000179816200015a565b82525050565b60006020820190506200019660008301846200016e565b92915050565b6127bf80620001ac6000396000f3fe608060405234801561001057600080fd5b506004361061012c5760003560e01c80638b0cb500116100ad578063c0c53b8b11610071578063c0c53b8b146102f1578063e9545b921461030d578063ea8ebd9e14610342578063f2fde38b14610372578063f61ac58b1461038e5761012c565b80638b0cb5001461024f5780638da5cb5b1461027f57806393c85fea1461029d5780639dc29fac146102b9578063c0aa7128146102d55761012c565b8063497a9850116100f4578063497a9850146101d35780634a6cc677146101ef5780634ccd8cad1461020b578063570ca73514610227578063715018a6146102455761012c565b806311aa1b911461013157806315ae1ee21461014d578063221375a614610169578063265aa62114610185578063272ff9c0146101b5575b600080fd5b61014b60048036038101906101469190611a3d565b6103ac565b005b61016760048036038101906101629190611bdd565b6104b4565b005b610183600480360381019061017e9190611cb4565b6105d8565b005b61019f600480360381019061019a9190611d23565b6106ec565b6040516101ac9190611d5f565b60405180910390f35b6101bd61071f565b6040516101ca9190611d89565b60405180910390f35b6101ed60048036038101906101e89190611da4565b610725565b005b61020960048036038101906102049190611e4b565b610963565b005b61022560048036038101906102209190611ec3565b610a4f565b005b61022f610a9a565b60405161023c9190611d5f565b60405180910390f35b61024d610ac0565b005b61026960048036038101906102649190611ec3565b610ad4565b6040516102769190611f6f565b60405180910390f35b610287610b74565b6040516102949190611d5f565b60405180910390f35b6102b760048036038101906102b29190611f91565b610bac565b005b6102d360048036038101906102ce9190611ff8565b610cb1565b005b6102ef60048036038101906102ea9190611ec3565b610db0565b005b61030b60048036038101906103069190612038565b610dfc565b005b61032760048036038101906103229190611ec3565b61100e565b6040516103399695949392919061208b565b60405180910390f35b61035c60048036038101906103579190611ec3565b611259565b6040516103699190611d89565b60405180910390f35b61038c60048036038101906103879190611ec3565b6112d1565b005b610396611357565b6040516103a39190611d5f565b60405180910390f35b600160009054906101000a900473ffffffffffffffffffffffffffffffffffffffff1673ffffffffffffffffffffffffffffffffffffffff163373ffffffffffffffffffffffffffffffffffffffff161461043c576040517f08c379a000000000000000000000000000000000000000000000000000000000815260040161043390612173565b60405180910390fd5b60005b82518110156104ae576104a184828151811061045e5761045d612193565b5b602002602001015184838151811061047957610478612193565b5b602002602001015184848151811061049457610493612193565b5b60200260200101516105d8565b808060010191505061043f565b50505050565b600160009054906101000a900473ffffffffffffffffffffffffffffffffffffffff1673ffffffffffffffffffffffffffffffffffffffff163373ffffffffffffffffffffffffffffffffffffffff1614610544576040517f08c379a000000000000000000000000000000000000000000000000000000000815260040161053b90612173565b60405180910390fd5b60005b83518110156105d1576105c485828151811061056657610565612193565b5b602002602001015185838151811061058157610580612193565b5b602002602001015185848151811061059c5761059b612193565b5b60200260200101518585815181106105b7576105b6612193565b5b6020026020010151610bac565b8080600101915050610547565b5050505050565b600160009054906101000a900473ffffffffffffffffffffffffffffffffffffffff1673ffffffffffffffffffffffffffffffffffffffff163373ffffffffffffffffffffffffffffffffffffffff1614610668576040517f08c379a000000000000000000000000000000000000000000000000000000000815260040161065f90612173565b60405180910390fd5b8273ffffffffffffffffffffffffffffffffffffffff1663d0def52183836040518363ffffffff1660e01b81526004016106a39291906121c2565b6020604051808303816000875af11580156106c2573d6000803e3d6000fd5b505050506040513d601f19601f820116820180604052508101906106e69190612207565b50505050565b60046020528060005260406000206000915054906101000a900473ffffffffffffffffffffffffffffffffffffffff1681565b60025481565b600160009054906101000a900473ffffffffffffffffffffffffffffffffffffffff1673ffffffffffffffffffffffffffffffffffffffff163373ffffffffffffffffffffffffffffffffffffffff16146107b5576040517f08c379a00000000000000000000000000000000000000000000000000000000081526004016107ac90612173565b60405180910390fd5b60006107e060008054906101000a900473ffffffffffffffffffffffffffffffffffffffff1661137b565b90508073ffffffffffffffffffffffffffffffffffffffff16635f1e6f6d308686866040518563ffffffff1660e01b81526004016108219493929190612234565b600060405180830381600087803b15801561083b57600080fd5b505af115801561084f573d6000803e3d6000fd5b5050505083600360008373ffffffffffffffffffffffffffffffffffffffff1673ffffffffffffffffffffffffffffffffffffffff168152602001908152602001600020908161089f919061249a565b508060046000600254815260200190815260200160002060006101000a81548173ffffffffffffffffffffffffffffffffffffffff021916908373ffffffffffffffffffffffffffffffffffffffff160217905550600260008154809291906109079061259b565b91905055508073ffffffffffffffffffffffffffffffffffffffff167e5ad40373f668511e6848a118f38257396030432f57785a69a98403f1ece640858585604051610955939291906125e3565b60405180910390a250505050565b600160009054906101000a900473ffffffffffffffffffffffffffffffffffffffff1673ffffffffffffffffffffffffffffffffffffffff163373ffffffffffffffffffffffffffffffffffffffff16146109f3576040517f08c379a00000000000000000000000000000000000000000000000000000000081526004016109ea90612173565b60405180910390fd5b60005b8251811015610a4a57610a3d838281518110610a1557610a14612193565b5b6020026020010151838381518110610a3057610a2f612193565b5b6020026020010151610cb1565b80806001019150506109f6565b505050565b610a5761142c565b806000806101000a81548173ffffffffffffffffffffffffffffffffffffffff021916908373ffffffffffffffffffffffffffffffffffffffff16021790555050565b600160009054906101000a900473ffffffffffffffffffffffffffffffffffffffff1681565b610ac861142c565b610ad260006114b3565b565b60036020528060005260406000206000915090508054610af3906122bd565b80601f0160208091040260200160405190810160405280929190818152602001828054610b1f906122bd565b8015610b6c5780601f10610b4157610100808354040283529160200191610b6c565b820191906000526020600020905b815481529060010190602001808311610b4f57829003601f168201915b505050505081565b600080610b7f61158a565b90508060000160009054906101000a900473ffffffffffffffffffffffffffffffffffffffff1691505090565b600160009054906101000a900473ffffffffffffffffffffffffffffffffffffffff1673ffffffffffffffffffffffffffffffffffffffff163373ffffffffffffffffffffffffffffffffffffffff1614610c3c576040517f08c379a0000000000000000000000000000000000000000000000000000000008152600401610c3390612173565b60405180910390fd5b8373ffffffffffffffffffffffffffffffffffffffff166362252bc38484846040518463ffffffff1660e01b8152600401610c799392919061262f565b600060405180830381600087803b158015610c9357600080fd5b505af1158015610ca7573d6000803e3d6000fd5b5050505050505050565b600160009054906101000a900473ffffffffffffffffffffffffffffffffffffffff1673ffffffffffffffffffffffffffffffffffffffff163373ffffffffffffffffffffffffffffffffffffffff1614610d41576040517f08c379a0000000000000000000000000000000000000000000000000000000008152600401610d3890612173565b60405180910390fd5b8173ffffffffffffffffffffffffffffffffffffffff166342966c68826040518263ffffffff1660e01b8152600401610d7a9190611d89565b600060405180830381600087803b158015610d9457600080fd5b505af1158015610da8573d6000803e3d6000fd5b505050505050565b610db861142c565b80600160006101000a81548173ffffffffffffffffffffffffffffffffffffffff021916908373ffffffffffffffffffffffffffffffffffffffff16021790555050565b6000610e066115b2565b905060008160000160089054906101000a900460ff1615905060008260000160009054906101000a900467ffffffffffffffff1690506000808267ffffffffffffffff16148015610e545750825b9050600060018367ffffffffffffffff16148015610e89575060003073ffffffffffffffffffffffffffffffffffffffff163b145b905081158015610e97575080155b15610ece576040517ff92ee8a900000000000000000000000000000000000000000000000000000000815260040160405180910390fd5b60018560000160006101000a81548167ffffffffffffffff021916908367ffffffffffffffff1602179055508315610f1e5760018560000160086101000a81548160ff0219169083151502179055505b610f27876115da565b876000806101000a81548173ffffffffffffffffffffffffffffffffffffffff021916908373ffffffffffffffffffffffffffffffffffffffff16021790555085600160006101000a81548173ffffffffffffffffffffffffffffffffffffffff021916908373ffffffffffffffffffffffffffffffffffffffff16021790555083156110045760008560000160086101000a81548160ff0219169083151502179055507fc7f505b2f371ae2175ee4913f4499e1f2633a7b5936321eed1cdaeb6115181d26001604051610ffb91906126b5565b60405180910390a15b5050505050505050565b6000606080606060008086600360008973ffffffffffffffffffffffffffffffffffffffff1673ffffffffffffffffffffffffffffffffffffffff1681526020019081526020016000208873ffffffffffffffffffffffffffffffffffffffff166306fdde036040518163ffffffff1660e01b8152600401600060405180830381865afa1580156110a3573d6000803e3d6000fd5b505050506040513d6000823e3d601f19601f820116820180604052508101906110cc9190612740565b8973ffffffffffffffffffffffffffffffffffffffff166395d89b416040518163ffffffff1660e01b8152600401600060405180830381865afa158015611117573d6000803e3d6000fd5b505050506040513d6000823e3d601f19601f820116820180604052508101906111409190612740565b8a73ffffffffffffffffffffffffffffffffffffffff166318160ddd6040518163ffffffff1660e01b8152600401602060405180830381865afa15801561118b573d6000803e3d6000fd5b505050506040513d601f19601f820116820180604052508101906111af9190612207565b6111b88c611259565b8480546111c4906122bd565b80601f01602080910402602001604051908101604052809291908181526020018280546111f0906122bd565b801561123d5780601f106112125761010080835404028352916020019161123d565b820191906000526020600020905b81548152906001019060200180831161122057829003601f168201915b5050505050945095509550955095509550955091939550919395565b60008173ffffffffffffffffffffffffffffffffffffffff16631aab9a9f6040518163ffffffff1660e01b8152600401602060405180830381865afa1580156112a6573d6000803e3d6000fd5b505050506040513d601f19601f820116820180604052508101906112ca9190612207565b9050919050565b6112d961142c565b600073ffffffffffffffffffffffffffffffffffffffff168173ffffffffffffffffffffffffffffffffffffffff160361134b5760006040517f1e4fbdf70000000000000000000000000000000000000000000000000000000081526004016113429190611d5f565b60405180910390fd5b611354816114b3565b50565b60008054906101000a900473ffffffffffffffffffffffffffffffffffffffff1681565b6000763d602d80600a3d3981f3363d3d373d3d3d363d730000008260601b60e81c176000526e5af43d82803e903d91602b57fd5bf38260781b17602052603760096000f09050600073ffffffffffffffffffffffffffffffffffffffff168173ffffffffffffffffffffffffffffffffffffffff1603611427576040517fc2f868f400000000000000000000000000000000000000000000000000000000815260040160405180910390fd5b919050565b6114346115ee565b73ffffffffffffffffffffffffffffffffffffffff16611452610b74565b73ffffffffffffffffffffffffffffffffffffffff16146114b1576114756115ee565b6040517f118cdaa70000000000000000000000000000000000000000000000000000000081526004016114a89190611d5f565b60405180910390fd5b565b60006114bd61158a565b905060008160000160009054906101000a900473ffffffffffffffffffffffffffffffffffffffff169050828260000160006101000a81548173ffffffffffffffffffffffffffffffffffffffff021916908373ffffffffffffffffffffffffffffffffffffffff1602179055508273ffffffffffffffffffffffffffffffffffffffff168173ffffffffffffffffffffffffffffffffffffffff167f8be0079c531659141344cd1fd0a4f28419497f9722a3daafe3b4186f6b6457e060405160405180910390a3505050565b60007f9016d09d72d40fdae2fd8ceac6b6234c7706214fd39c1cd1e609a0528c199300905090565b60007ff0c57e16840df040f15088dc2f81fe391c3923bec73e23a9662efc9c229c6a00905090565b6115e26115f6565b6115eb81611636565b50565b600033905090565b6115fe6116bc565b611634576040517fd7e6bcf800000000000000000000000000000000000000000000000000000000815260040160405180910390fd5b565b61163e6115f6565b600073ffffffffffffffffffffffffffffffffffffffff168173ffffffffffffffffffffffffffffffffffffffff16036116b05760006040517f1e4fbdf70000000000000000000000000000000000000000000000000000000081526004016116a79190611d5f565b60405180910390fd5b6116b9816114b3565b50565b60006116c66115b2565b60000160089054906101000a900460ff16905090565b6000604051905090565b600080fd5b600080fd5b600080fd5b6000601f19601f8301169050919050565b7f4e487b7100000000000000000000000000000000000000000000000000000000600052604160045260246000fd5b61173e826116f5565b810181811067ffffffffffffffff8211171561175d5761175c611706565b5b80604052505050565b60006117706116dc565b905061177c8282611735565b919050565b600067ffffffffffffffff82111561179c5761179b611706565b5b602082029050602081019050919050565b600080fd5b600073ffffffffffffffffffffffffffffffffffffffff82169050919050565b60006117dd826117b2565b9050919050565b6117ed816117d2565b81146117f857600080fd5b50565b60008135905061180a816117e4565b92915050565b600061182361181e84611781565b611766565b90508083825260208201905060208402830185811115611846576118456117ad565b5b835b8181101561186f578061185b88826117fb565b845260208401935050602081019050611848565b5050509392505050565b600082601f83011261188e5761188d6116f0565b5b813561189e848260208601611810565b91505092915050565b600067ffffffffffffffff8211156118c2576118c1611706565b5b602082029050602081019050919050565b600080fd5b600067ffffffffffffffff8211156118f3576118f2611706565b5b6118fc826116f5565b9050602081019050919050565b82818337600083830152505050565b600061192b611926846118d8565b611766565b905082815260208101848484011115611947576119466118d3565b5b611952848285611909565b509392505050565b600082601f83011261196f5761196e6116f0565b5b813561197f848260208601611918565b91505092915050565b600061199b611996846118a7565b611766565b905080838252602082019050602084028301858111156119be576119bd6117ad565b5b835b81811015611a0557803567ffffffffffffffff8111156119e3576119e26116f0565b5b8086016119f0898261195a565b855260208501945050506020810190506119c0565b5050509392505050565b600082601f830112611a2457611a236116f0565b5b8135611a34848260208601611988565b91505092915050565b600080600060608486031215611a5657611a556116e6565b5b600084013567ffffffffffffffff811115611a7457611a736116eb565b5b611a8086828701611879565b935050602084013567ffffffffffffffff811115611aa157611aa06116eb565b5b611aad86828701611879565b925050604084013567ffffffffffffffff811115611ace57611acd6116eb565b5b611ada86828701611a0f565b9150509250925092565b600067ffffffffffffffff821115611aff57611afe611706565b5b602082029050602081019050919050565b6000819050919050565b611b2381611b10565b8114611b2e57600080fd5b50565b600081359050611b4081611b1a565b92915050565b6000611b59611b5484611ae4565b611766565b90508083825260208201905060208402830185811115611b7c57611b7b6117ad565b5b835b81811015611ba55780611b918882611b31565b845260208401935050602081019050611b7e565b5050509392505050565b600082601f830112611bc457611bc36116f0565b5b8135611bd4848260208601611b46565b91505092915050565b60008060008060808587031215611bf757611bf66116e6565b5b600085013567ffffffffffffffff811115611c1557611c146116eb565b5b611c2187828801611879565b945050602085013567ffffffffffffffff811115611c4257611c416116eb565b5b611c4e87828801611879565b935050604085013567ffffffffffffffff811115611c6f57611c6e6116eb565b5b611c7b87828801611879565b925050606085013567ffffffffffffffff811115611c9c57611c9b6116eb565b5b611ca887828801611baf565b91505092959194509250565b600080600060608486031215611ccd57611ccc6116e6565b5b6000611cdb868287016117fb565b9350506020611cec868287016117fb565b925050604084013567ffffffffffffffff811115611d0d57611d0c6116eb565b5b611d198682870161195a565b9150509250925092565b600060208284031215611d3957611d386116e6565b5b6000611d4784828501611b31565b91505092915050565b611d59816117d2565b82525050565b6000602082019050611d746000830184611d50565b92915050565b611d8381611b10565b82525050565b6000602082019050611d9e6000830184611d7a565b92915050565b600080600060608486031215611dbd57611dbc6116e6565b5b600084013567ffffffffffffffff811115611ddb57611dda6116eb565b5b611de78682870161195a565b935050602084013567ffffffffffffffff811115611e0857611e076116eb565b5b611e148682870161195a565b925050604084013567ffffffffffffffff811115611e3557611e346116eb565b5b611e418682870161195a565b9150509250925092565b60008060408385031215611e6257611e616116e6565b5b600083013567ffffffffffffffff811115611e8057611e7f6116eb565b5b611e8c85828601611879565b925050602083013567ffffffffffffffff811115611ead57611eac6116eb565b5b611eb985828601611baf565b9150509250929050565b600060208284031215611ed957611ed86116e6565b5b6000611ee7848285016117fb565b91505092915050565b600081519050919050565b600082825260208201905092915050565b60005b83811015611f2a578082015181840152602081019050611f0f565b60008484015250505050565b6000611f4182611ef0565b611f4b8185611efb565b9350611f5b818560208601611f0c565b611f64816116f5565b840191505092915050565b60006020820190508181036000830152611f898184611f36565b905092915050565b60008060008060808587031215611fab57611faa6116e6565b5b6000611fb9878288016117fb565b9450506020611fca878288016117fb565b9350506040611fdb878288016117fb565b9250506060611fec87828801611b31565b91505092959194509250565b6000806040838503121561200f5761200e6116e6565b5b600061201d858286016117fb565b925050602061202e85828601611b31565b9150509250929050565b600080600060608486031215612051576120506116e6565b5b600061205f868287016117fb565b9350506020612070868287016117fb565b9250506040612081868287016117fb565b9150509250925092565b600060c0820190506120a06000830189611d50565b81810360208301526120b28188611f36565b905081810360408301526120c68187611f36565b905081810360608301526120da8186611f36565b90506120e96080830185611d7a565b6120f660a0830184611d7a565b979650505050505050565b7f47616d654e6674466163746f72793a2063616c6c6572206973206e6f7420746860008201527f652067616d6520726f7574657200000000000000000000000000000000000000602082015250565b600061215d602d83611efb565b915061216882612101565b604082019050919050565b6000602082019050818103600083015261218c81612150565b9050919050565b7f4e487b7100000000000000000000000000000000000000000000000000000000600052603260045260246000fd5b60006040820190506121d76000830185611d50565b81810360208301526121e98184611f36565b90509392505050565b60008151905061220181611b1a565b92915050565b60006020828403121561221d5761221c6116e6565b5b600061222b848285016121f2565b91505092915050565b60006080820190506122496000830187611d50565b818103602083015261225b8186611f36565b9050818103604083015261226f8185611f36565b905081810360608301526122838184611f36565b905095945050505050565b7f4e487b7100000000000000000000000000000000000000000000000000000000600052602260045260246000fd5b600060028204905060018216806122d557607f821691505b6020821081036122e8576122e761228e565b5b50919050565b60008190508160005260206000209050919050565b60006020601f8301049050919050565b600082821b905092915050565b6000600883026123507fffffffffffffffffffffffffffffffffffffffffffffffffffffffffffffffff82612313565b61235a8683612313565b95508019841693508086168417925050509392505050565b6000819050919050565b600061239761239261238d84611b10565b612372565b611b10565b9050919050565b6000819050919050565b6123b18361237c565b6123c56123bd8261239e565b848454612320565b825550505050565b600090565b6123da6123cd565b6123e58184846123a8565b505050565b5b81811015612409576123fe6000826123d2565b6001810190506123eb565b5050565b601f82111561244e5761241f816122ee565b61242884612303565b81016020851015612437578190505b61244b61244385612303565b8301826123ea565b50505b505050565b600082821c905092915050565b600061247160001984600802612453565b1980831691505092915050565b600061248a8383612460565b9150826002028217905092915050565b6124a382611ef0565b67ffffffffffffffff8111156124bc576124bb611706565b5b6124c682546122bd565b6124d182828561240d565b600060209050601f83116001811461250457600084156124f2578287015190505b6124fc858261247e565b865550612564565b601f198416612512866122ee565b60005b8281101561253a57848901518255600182019150602085019450602081019050612515565b868310156125575784890151612553601f891682612460565b8355505b6001600288020188555050505b505050505050565b7f4e487b7100000000000000000000000000000000000000000000000000000000600052601160045260246000fd5b60006125a682611b10565b91507fffffffffffffffffffffffffffffffffffffffffffffffffffffffffffffffff82036125d8576125d761256c565b5b600182019050919050565b600060608201905081810360008301526125fd8186611f36565b905081810360208301526126118185611f36565b905081810360408301526126258184611f36565b9050949350505050565b60006060820190506126446000830186611d50565b6126516020830185611d50565b61265e6040830184611d7a565b949350505050565b6000819050919050565b600067ffffffffffffffff82169050919050565b600061269f61269a61269584612666565b612372565b612670565b9050919050565b6126af81612684565b82525050565b60006020820190506126ca60008301846126a6565b92915050565b60006126e36126de846118d8565b611766565b9050828152602081018484840111156126ff576126fe6118d3565b5b61270a848285611f0c565b509392505050565b600082601f830112612727576127266116f0565b5b81516127378482602086016126d0565b91505092915050565b600060208284031215612756576127556116e6565b5b600082015167ffffffffffffffff811115612774576127736116eb565b5b61278084828501612712565b9150509291505056fea264697066735822122090312204b25c290ee1f8d82c07dde4f7715cf22067c168db30a584c72b99028164736f6c63430008180033",
  "linkReferences": {},
  "deployedLinkReferences": {}
}