{
  "_format": "hh-sol-artifact-1",
  "contractName": "GameRuleV1",
  "sourceName": "contracts/GameRuleV1.sol",
  "abi": [
    {
      "inputs": [],
      "stateMutability": "nonpayable",
      "type": "constructor"
    },
    {
      "inputs": [],
      "name": "Create2EmptyBytecode",
      "type": "error"
    },
    {
      "inputs": [],
      "name": "Create2FailedDeployment",
      "type": "error"
    },
    {
      "inputs": [
        {
          "internalType": "uint256",
          "name": "balance",
          "type": "uint256"
        },
        {
          "internalType": "uint256",
          "name": "needed",
          "type": "uint256"
        }
      ],
      "name": "Create2InsufficientBalance",
      "type": "error"
    },
    {
      "inputs": [],
      "name": "InvalidInitialization",
      "type": "error"
    },
    {
      "inputs": [],
      "name": "NotInitializing",
      "type": "error"
    },
    {
      "inputs": [
        {
          "internalType": "address",
          "name": "owner",
          "type": "address"
        }
      ],
      "name": "OwnableInvalidOwner",
      "type": "error"
    },
    {
      "inputs": [
        {
          "internalType": "address",
          "name": "account",
          "type": "address"
        }
      ],
      "name": "OwnableUnauthorizedAccount",
      "type": "error"
    },
    {
      "inputs": [],
      "name": "ReentrancyGuardReentrantCall",
      "type": "error"
    },
    {
      "anonymous": false,
      "inputs": [
        {
          "indexed": false,
          "internalType": "string",
          "name": "gameId",
          "type": "string"
        },
        {
          "indexed": false,
          "internalType": "uint256",
          "name": "roomId",
          "type": "uint256"
        },
        {
          "indexed": false,
          "internalType": "address",
          "name": "roomAddress",
          "type": "address"
        }
      ],
      "name": "GameRoomCreated",
      "type": "event"
    },
    {
      "anonymous": false,
      "inputs": [
        {
          "indexed": false,
          "internalType": "uint64",
          "name": "version",
          "type": "uint64"
        }
      ],
      "name": "Initialized",
      "type": "event"
    },
    {
      "anonymous": false,
      "inputs": [
        {
          "indexed": true,
          "internalType": "address",
          "name": "previousOwner",
          "type": "address"
        },
        {
          "indexed": true,
          "internalType": "address",
          "name": "newOwner",
          "type": "address"
        }
      ],
      "name": "OwnershipTransferred",
      "type": "event"
    },
    {
      "inputs": [
        {
          "internalType": "string",
          "name": "gameId",
          "type": "string"
        },
        {
          "internalType": "uint256",
          "name": "roomId",
          "type": "uint256"
        },
        {
          "internalType": "address",
          "name": "team",
          "type": "address"
        }
      ],
      "name": "close",
      "outputs": [],
      "stateMutability": "nonpayable",
      "type": "function"
    },
    {
      "inputs": [
        {
          "internalType": "string",
          "name": "gameId",
          "type": "string"
        },
        {
          "internalType": "uint256",
          "name": "roomId",
          "type": "uint256"
        }
      ],
      "name": "computeRoomAddress",
      "outputs": [
        {
          "internalType": "address",
          "name": "",
          "type": "address"
        }
      ],
      "stateMutability": "view",
      "type": "function"
    },
    {
      "inputs": [
        {
          "internalType": "address",
          "name": "_feeTo",
          "type": "address"
        }
      ],
      "name": "configFeeTo",
      "outputs": [],
      "stateMutability": "nonpayable",
      "type": "function"
    },
    {
      "inputs": [
        {
          "internalType": "address",
          "name": "_operator",
          "type": "address"
        },
        {
          "internalType": "bool",
          "name": "_status",
          "type": "bool"
        }
      ],
      "name": "configOperator",
      "outputs": [],
      "stateMutability": "nonpayable",
      "type": "function"
    },
    {
      "inputs": [
        {
          "internalType": "uint256",
          "name": "_platformFee",
          "type": "uint256"
        }
      ],
      "name": "configPlatformFee",
      "outputs": [],
      "stateMutability": "nonpayable",
      "type": "function"
    },
    {
      "inputs": [
        {
          "internalType": "string",
          "name": "gameId",
          "type": "string"
        },
        {
          "internalType": "uint256",
          "name": "expiresIn",
          "type": "uint256"
        }
      ],
      "name": "create",
      "outputs": [],
      "stateMutability": "nonpayable",
      "type": "function"
    },
    {
      "inputs": [
        {
          "internalType": "string",
          "name": "gameId",
          "type": "string"
        },
        {
          "internalType": "uint256",
          "name": "expiresIn",
          "type": "uint256"
        },
        {
          "internalType": "string[]",
          "name": "plyrIds",
          "type": "string[]"
        },
        {
          "internalType": "address[]",
          "name": "tokens",
          "type": "address[]"
        },
        {
          "internalType": "uint256[]",
          "name": "amounts",
          "type": "uint256[]"
        }
      ],
      "name": "createJoinPay",
      "outputs": [],
      "stateMutability": "nonpayable",
      "type": "function"
    },
    {
      "inputs": [
        {
          "internalType": "string",
          "name": "gameId",
          "type": "string"
        },
        {
          "internalType": "uint256",
          "name": "roomId",
          "type": "uint256"
        },
        {
          "internalType": "string",
          "name": "plyrId",
          "type": "string"
        },
        {
          "internalType": "address",
          "name": "token",
          "type": "address"
        },
        {
          "internalType": "uint256",
          "name": "amount",
          "type": "uint256"
        }
      ],
      "name": "earn",
      "outputs": [],
      "stateMutability": "nonpayable",
      "type": "function"
    },
    {
      "inputs": [
        {
          "internalType": "string",
          "name": "gameId",
          "type": "string"
        },
        {
          "internalType": "uint256",
          "name": "roomId",
          "type": "uint256"
        },
        {
          "internalType": "string[]",
          "name": "plyrIds",
          "type": "string[]"
        },
        {
          "internalType": "address[]",
          "name": "tokens",
          "type": "address[]"
        },
        {
          "internalType": "uint256[]",
          "name": "amounts",
          "type": "uint256[]"
        }
      ],
      "name": "earnLeaveEnd",
      "outputs": [],
      "stateMutability": "nonpayable",
      "type": "function"
    },
    {
      "inputs": [
        {
          "internalType": "string",
          "name": "gameId",
          "type": "string"
        },
        {
          "internalType": "uint256",
          "name": "roomId",
          "type": "uint256"
        }
      ],
      "name": "end",
      "outputs": [],
      "stateMutability": "nonpayable",
      "type": "function"
    },
    {
      "inputs": [],
      "name": "feeTo",
      "outputs": [
        {
          "internalType": "address",
          "name": "",
          "type": "address"
        }
      ],
      "stateMutability": "view",
      "type": "function"
    },
    {
      "inputs": [
        {
          "internalType": "string",
          "name": "",
          "type": "string"
        },
        {
          "internalType": "uint256",
          "name": "",
          "type": "uint256"
        }
      ],
      "name": "gameRoomAddress",
      "outputs": [
        {
          "internalType": "address",
          "name": "",
          "type": "address"
        }
      ],
      "stateMutability": "view",
      "type": "function"
    },
    {
      "inputs": [
        {
          "internalType": "string",
          "name": "",
          "type": "string"
        }
      ],
      "name": "gameRoomCount",
      "outputs": [
        {
          "internalType": "uint256",
          "name": "",
          "type": "uint256"
        }
      ],
      "stateMutability": "view",
      "type": "function"
    },
    {
      "inputs": [
        {
          "internalType": "address",
          "name": "_owner",
          "type": "address"
        },
        {
          "internalType": "address",
          "name": "_router",
          "type": "address"
        },
        {
          "internalType": "address",
          "name": "_feeTo",
          "type": "address"
        },
        {
          "internalType": "address",
          "name": "_registerSC",
          "type": "address"
        }
      ],
      "name": "initialize",
      "outputs": [],
      "stateMutability": "nonpayable",
      "type": "function"
    },
    {
      "inputs": [
        {
          "internalType": "string",
          "name": "gameId",
          "type": "string"
        },
        {
          "internalType": "uint256",
          "name": "roomId",
          "type": "uint256"
        },
        {
          "internalType": "string",
          "name": "plyrId",
          "type": "string"
        }
      ],
      "name": "isJoined",
      "outputs": [
        {
          "internalType": "bool",
          "name": "",
          "type": "bool"
        }
      ],
      "stateMutability": "view",
      "type": "function"
    },
    {
      "inputs": [
        {
          "internalType": "string",
          "name": "gameId",
          "type": "string"
        },
        {
          "internalType": "uint256",
          "name": "roomId",
          "type": "uint256"
        },
        {
          "internalType": "string[]",
          "name": "plyrIds",
          "type": "string[]"
        }
      ],
      "name": "join",
      "outputs": [],
      "stateMutability": "nonpayable",
      "type": "function"
    },
    {
      "inputs": [
        {
          "internalType": "string",
          "name": "gameId",
          "type": "string"
        },
        {
          "internalType": "uint256",
          "name": "roomId",
          "type": "uint256"
        },
        {
          "internalType": "string[]",
          "name": "plyrIds",
          "type": "string[]"
        }
      ],
      "name": "leave",
      "outputs": [],
      "stateMutability": "nonpayable",
      "type": "function"
    },
    {
      "inputs": [
        {
          "internalType": "bytes[]",
          "name": "data",
          "type": "bytes[]"
        }
      ],
      "name": "multicall",
      "outputs": [
        {
          "internalType": "bytes[]",
          "name": "results",
          "type": "bytes[]"
        }
      ],
      "stateMutability": "payable",
      "type": "function"
    },
    {
      "inputs": [
        {
          "internalType": "address",
          "name": "",
          "type": "address"
        }
      ],
      "name": "operators",
      "outputs": [
        {
          "internalType": "bool",
          "name": "",
          "type": "bool"
        }
      ],
      "stateMutability": "view",
      "type": "function"
    },
    {
      "inputs": [],
      "name": "owner",
      "outputs": [
        {
          "internalType": "address",
          "name": "",
          "type": "address"
        }
      ],
      "stateMutability": "view",
      "type": "function"
    },
    {
      "inputs": [
        {
          "internalType": "string",
          "name": "gameId",
          "type": "string"
        },
        {
          "internalType": "uint256",
          "name": "roomId",
          "type": "uint256"
        },
        {
          "internalType": "string",
          "name": "plyrId",
          "type": "string"
        },
        {
          "internalType": "address",
          "name": "token",
          "type": "address"
        },
        {
          "internalType": "uint256",
          "name": "amount",
          "type": "uint256"
        }
      ],
      "name": "pay",
      "outputs": [],
      "stateMutability": "nonpayable",
      "type": "function"
    },
    {
      "inputs": [],
      "name": "platformFee",
      "outputs": [
        {
          "internalType": "uint256",
          "name": "",
          "type": "uint256"
        }
      ],
      "stateMutability": "view",
      "type": "function"
    },
    {
      "inputs": [],
      "name": "registerSC",
      "outputs": [
        {
          "internalType": "address",
          "name": "",
          "type": "address"
        }
      ],
      "stateMutability": "view",
      "type": "function"
    },
    {
      "inputs": [],
      "name": "renounceOwnership",
      "outputs": [],
      "stateMutability": "nonpayable",
      "type": "function"
    },
    {
      "inputs": [
        {
          "internalType": "address",
          "name": "",
          "type": "address"
        }
      ],
      "name": "roomOwner",
      "outputs": [
        {
          "internalType": "string",
          "name": "",
          "type": "string"
        }
      ],
      "stateMutability": "view",
      "type": "function"
    },
    {
      "inputs": [],
      "name": "router",
      "outputs": [
        {
          "internalType": "address",
          "name": "",
          "type": "address"
        }
      ],
      "stateMutability": "view",
      "type": "function"
    },
    {
      "inputs": [
        {
          "internalType": "address",
          "name": "newOwner",
          "type": "address"
        }
      ],
      "name": "transferOwnership",
      "outputs": [],
      "stateMutability": "nonpayable",
      "type": "function"
    }
  ],
  "bytecode": "0x608060405234801561001057600080fd5b50614653806100206000396000f3fe608060405260043610620001be5760003560e01c80636574405a11620000ff578063da7fd99d1162000095578063f2fde38b116200006c578063f2fde38b146200058e578063f887ea4014620005b3578063f8c8765e14620005d5578063fdc112a014620005fa57600080fd5b8063da7fd99d146200051f578063e6ff0bde1462000544578063e8f090bb146200056957600080fd5b80637d1d920311620000d65780637d1d920314620004975780638da5cb5b14620004bc5780639c4a4ed514620004d4578063ac9650d814620004f957600080fd5b80636574405a1462000438578063715018a6146200045a57806371d578fa146200047257600080fd5b806331804f1c11620001755780634b5e1304116200014c5780634b5e130414620003955780634ee9a94d14620003ba57806356b0040a14620003ee578063575ecee6146200041357600080fd5b806331804f1c146200032657806333b57a40146200034b57806346f81a87146200037057600080fd5b8063017e7e5814620001c35780630b1eef0614620002025780630eeff633146200024d57806313e7c9d814620002a257806326232a2e14620002e757806330244e6e14620002ff575b600080fd5b348015620001d057600080fd5b50600354620001e5906001600160a01b031681565b6040516001600160a01b0390911681526020015b60405180910390f35b3480156200020f57600080fd5b506200023e620002213660046200214f565b805160208183018101805160058252928201919093012091525481565b604051908152602001620001f9565b3480156200025a57600080fd5b50620001e56200026c3660046200218f565b8151602081840181018051600682529282019482019490942091909352909152600090815260409020546001600160a01b031681565b348015620002af57600080fd5b50620002d6620002c1366004620021ed565b60046020526000908152604090205460ff1681565b6040519015158152602001620001f9565b348015620002f457600080fd5b506200023e60025481565b3480156200030c57600080fd5b50620003246200031e366004620022c7565b6200061f565b005b3480156200033357600080fd5b5062000324620003453660046200218f565b62000742565b3480156200035857600080fd5b50620003246200036a36600462002349565b6200084e565b3480156200037d57600080fd5b50620003246200038f3660046200218f565b62000883565b348015620003a257600080fd5b5062000324620003b436600462002387565b620008ec565b348015620003c757600080fd5b50620003df620003d9366004620021ed565b620008fb565b604051620001f99190620023f5565b348015620003fb57600080fd5b50620003246200040d3660046200240a565b6200099d565b3480156200042057600080fd5b50620003246200043236600462002500565b62000a0b565b3480156200044557600080fd5b50600154620001e5906001600160a01b031681565b3480156200046757600080fd5b506200032462000bf6565b3480156200047f57600080fd5b50620003246200049136600462002626565b62000c0e565b348015620004a457600080fd5b5062000324620004b6366004620022c7565b62000cef565b348015620004c957600080fd5b50620001e562000dcf565b348015620004e157600080fd5b50620001e5620004f33660046200218f565b62000dfd565b620005106200050a36600462002686565b62000e75565b604051620001f99190620026ff565b3480156200052c57600080fd5b50620003246200053e366004620021ed565b62000fda565b3480156200055157600080fd5b5062000324620005633660046200240a565b62001006565b3480156200057657600080fd5b50620002d66200058836600462002767565b6200106d565b3480156200059b57600080fd5b5062000324620005ad366004620021ed565b62001136565b348015620005c057600080fd5b50600054620001e5906001600160a01b031681565b348015620005e257600080fd5b5062000324620005f4366004620027d0565b6200117a565b3480156200060757600080fd5b50620003246200061936600462002500565b620012de565b3360009081526004602052604090205460ff16806200065857506200064362000dcf565b6001600160a01b0316336001600160a01b0316145b620006805760405162461bcd60e51b8152600401620006779062002835565b60405180910390fd5b60006006846040516200069491906200286c565b9081526040805160209281900383019020600086815292529020546001600160a01b0316905080620006da5760405162461bcd60e51b815260040162000677906200288a565b6040516326f3938560e21b81526001600160a01b03821690639bce4e149062000708908590600401620028c1565b600060405180830381600087803b1580156200072357600080fd5b505af115801562000738573d6000803e3d6000fd5b5050505050505050565b3360009081526004602052604090205460ff16806200077b57506200076662000dcf565b6001600160a01b0316336001600160a01b0316145b6200079a5760405162461bcd60e51b8152600401620006779062002835565b6000600683604051620007ae91906200286c565b9081526040805160209281900383019020600085815292529020546001600160a01b0316905080620007f45760405162461bcd60e51b815260040162000677906200288a565b806001600160a01b031663efbe1c1c6040518163ffffffff1660e01b8152600401600060405180830381600087803b1580156200083057600080fd5b505af115801562000845573d6000803e3d6000fd5b50505050505050565b620008586200144f565b6001600160a01b03919091166000908152600460205260409020805460ff1916911515919091179055565b3360009081526004602052604090205460ff1680620008bc5750620008a762000dcf565b6001600160a01b0316336001600160a01b0316145b620008db5760405162461bcd60e51b8152600401620006779062002835565b620008e7828262001485565b505050565b620008f66200144f565b600255565b6007602052600090815260409020805462000916906200291c565b80601f016020809104026020016040519081016040528092919081815260200182805462000944906200291c565b8015620009955780601f10620009695761010080835404028352916020019162000995565b820191906000526020600020905b8154815290600101906020018083116200097757829003601f168201915b505050505081565b3360009081526004602052604090205460ff1680620009d65750620009c162000dcf565b6001600160a01b0316336001600160a01b0316145b620009f55760405162461bcd60e51b8152600401620006779062002835565b62000a048585858585620015cb565b5050505050565b3360009081526004602052604090205460ff168062000a44575062000a2f62000dcf565b6001600160a01b0316336001600160a01b0316145b62000a635760405162461bcd60e51b8152600401620006779062002835565b60005b835181101562000adc5762000ad3868686848151811062000a8b5762000a8b62002958565b602002602001015186858151811062000aa85762000aa862002958565b602002602001015186868151811062000ac55762000ac562002958565b60200260200101516200193c565b60010162000a66565b50600060068660405162000af191906200286c565b9081526040805160209281900383019020600088815292529020546001600160a01b031690508062000b375760405162461bcd60e51b815260040162000677906200288a565b604051631edc210760e11b81526001600160a01b03821690633db8420e9062000b65908790600401620028c1565b600060405180830381600087803b15801562000b8057600080fd5b505af115801562000b95573d6000803e3d6000fd5b50505050806001600160a01b031663efbe1c1c6040518163ffffffff1660e01b8152600401600060405180830381600087803b15801562000bd557600080fd5b505af115801562000bea573d6000803e3d6000fd5b50505050505050505050565b62000c006200144f565b62000c0c600062001de9565b565b3360009081526004602052604090205460ff168062000c47575062000c3262000dcf565b6001600160a01b0316336001600160a01b0316145b62000c665760405162461bcd60e51b8152600401620006779062002835565b600060068460405162000c7a91906200286c565b9081526040805160209281900383019020600086815292529020546001600160a01b031690508062000cc05760405162461bcd60e51b815260040162000677906200288a565b60405163c74073a160e01b81526001600160a01b03838116600483015282169063c74073a19060240162000708565b3360009081526004602052604090205460ff168062000d28575062000d1362000dcf565b6001600160a01b0316336001600160a01b0316145b62000d475760405162461bcd60e51b8152600401620006779062002835565b600060068460405162000d5b91906200286c565b9081526040805160209281900383019020600086815292529020546001600160a01b031690508062000da15760405162461bcd60e51b815260040162000677906200288a565b604051631edc210760e11b81526001600160a01b03821690633db8420e9062000708908590600401620028c1565b7f9016d09d72d40fdae2fd8ceac6b6234c7706214fd39c1cd1e609a0528c199300546001600160a01b031690565b600080838360405160200162000e159291906200296e565b60405160208183030381529060405280519060200120905060006040518060200162000e419062002072565b6020820181038252601f19601f82011660405250905062000e6a82828051906020012062001e5a565b925050505b92915050565b6060816001600160401b0381111562000e925762000e9262002080565b60405190808252806020026020018201604052801562000ec757816020015b606081526020019060019003908162000eb15790505b50905060005b8281101562000fd3576000803086868581811062000eef5762000eef62002958565b905060200281019062000f03919062002992565b60405162000f13929190620029e2565b600060405180830381855af49150503d806000811462000f50576040519150601f19603f3d011682016040523d82523d6000602084013e62000f55565b606091505b50915091508162000fa75760448151101562000f7057600080fd5b6004810190508080602001905181019062000f8c9190620029f2565b60405162461bcd60e51b8152600401620006779190620023f5565b8084848151811062000fbd5762000fbd62002958565b6020908102919091010152505060010162000ecd565b5092915050565b62000fe46200144f565b600380546001600160a01b0319166001600160a01b0392909216919091179055565b3360009081526004602052604090205460ff16806200103f57506200102a62000dcf565b6001600160a01b0316336001600160a01b0316145b6200105e5760405162461bcd60e51b8152600401620006779062002835565b62000a0485858585856200193c565b6000806006856040516200108291906200286c565b9081526040805160209281900383019020600087815292529020546001600160a01b0316905080620010b95760009150506200112f565b604051631709b74360e11b81526001600160a01b03821690632e136e8690620010e7908690600401620023f5565b602060405180830381865afa15801562001105573d6000803e3d6000fd5b505050506040513d601f19601f820116820180604052508101906200112b919062002a71565b9150505b9392505050565b620011406200144f565b6001600160a01b0381166200116c57604051631e4fbdf760e01b81526000600482015260240162000677565b620011778162001de9565b50565b7ff0c57e16840df040f15088dc2f81fe391c3923bec73e23a9662efc9c229c6a008054600160401b810460ff1615906001600160401b0316600081158015620011c05750825b90506000826001600160401b03166001148015620011dd5750303b155b905081158015620011ec575080155b156200120b5760405163f92ee8a960e01b815260040160405180910390fd5b845467ffffffffffffffff1916600117855583156200123657845460ff60401b1916600160401b1785555b60028055600380546001600160a01b03808a166001600160a01b031992831617909255600080548b84169083161790556001805492891692909116919091179055620012828962001e69565b6200128c62001e7e565b8315620012d357845460ff60401b19168555604051600181527fc7f505b2f371ae2175ee4913f4499e1f2633a7b5936321eed1cdaeb6115181d29060200160405180910390a15b505050505050505050565b3360009081526004602052604090205460ff16806200131757506200130262000dcf565b6001600160a01b0316336001600160a01b0316145b620013365760405162461bcd60e51b8152600401620006779062002835565b600062001344868662001485565b905060006006876040516200135a91906200286c565b9081526040805191829003602090810183206000868152915220546326f3938560e21b82526001600160a01b031691508190639bce4e1490620013a2908890600401620028c1565b600060405180830381600087803b158015620013bd57600080fd5b505af1158015620013d2573d6000803e3d6000fd5b5050505060005b85518110156200073857620014468884888481518110620013fe57620013fe62002958565b60200260200101518885815181106200141b576200141b62002958565b602002602001015188868151811062001438576200143862002958565b6020026020010151620015cb565b600101620013d9565b336200145a62000dcf565b6001600160a01b03161462000c0c5760405163118cdaa760e01b815233600482015260240162000677565b6000806005846040516200149a91906200286c565b908152604051908190036020019020549050620014b981600162002aa7565b600585604051620014cb91906200286c565b90815260405190819003602001902055620014e881600162002aa7565b91506000620014f8858462001e92565b60405163025df42360e61b81529091506001600160a01b0382169063977d08c0906200152d9088908790899060040162002abd565b600060405180830381600087803b1580156200154857600080fd5b505af11580156200155d573d6000803e3d6000fd5b50505050806006866040516200157491906200286c565b9081526040805160209281900383019020600087815290835281812080546001600160a01b0319166001600160a01b03958616179055928416835260079091529020620015c2868262002b30565b50505092915050565b6000600686604051620015df91906200286c565b9081526040805160209281900383019020600088815292529020546001600160a01b0316905080620016255760405162461bcd60e51b815260040162000677906200288a565b604051631709b74360e11b81526001600160a01b03821690632e136e869062001653908790600401620023f5565b602060405180830381865afa15801562001671573d6000803e3d6000fd5b505050506040513d601f19601f8201168201806040525081019062001697919062002a71565b620016e55760405162461bcd60e51b815260206004820152601b60248201527f47616d6552756c6556313a20706c7972206e6f74206a6f696e65640000000000604482015260640162000677565b6040516213049560e71b81526001600160a01b0384811660048301528216906309824a8090602401600060405180830381600087803b1580156200172857600080fd5b505af11580156200173d573d6000803e3d6000fd5b5050506001600160a01b0384169050620018415760015460405163305f840560e11b81526000916001600160a01b0316906360bf080a9062001784908890600401620023f5565b602060405180830381865afa158015620017a2573d6000803e3d6000fd5b505050506040513d601f19601f82011682018060405250810190620017c8919062002bfc565b6000546040516369d1654160e11b81526001600160a01b03808416600483015285811660248301526044820187905292935091169063d3a2ca8290606401600060405180830381600087803b1580156200182157600080fd5b505af115801562001836573d6000803e3d6000fd5b505050505062001934565b60015460405163305f840560e11b81526000916001600160a01b0316906360bf080a9062001874908890600401620023f5565b602060405180830381865afa15801562001892573d6000803e3d6000fd5b505050506040513d601f19601f82011682018060405250810190620018b8919062002bfc565b600054604051632a02e08560e11b81526001600160a01b0387811660048301528084166024830152858116604483015260648201879052929350911690635405c10a90608401600060405180830381600087803b1580156200191957600080fd5b505af11580156200192e573d6000803e3d6000fd5b50505050505b505050505050565b60006006866040516200195091906200286c565b9081526040805160209281900383019020600088815292529020546001600160a01b0316905080620019965760405162461bcd60e51b815260040162000677906200288a565b604051631709b74360e11b81526001600160a01b03821690632e136e8690620019c4908790600401620023f5565b602060405180830381865afa158015620019e2573d6000803e3d6000fd5b505050506040513d601f19601f8201168201806040525081019062001a08919062002a71565b62001a565760405162461bcd60e51b815260206004820152601b60248201527f47616d6552756c6556313a20706c7972206e6f74206a6f696e65640000000000604482015260640162000677565b6040516213049560e71b81526001600160a01b0384811660048301528216906309824a8090602401600060405180830381600087803b15801562001a9957600080fd5b505af115801562001aae573d6000803e3d6000fd5b50505050600060646002548462001ac6919062002c1c565b62001ad2919062002c36565b9050600062001ae2828562002c59565b90506001600160a01b03851662001c64576001546040516000916001600160a01b0316906360bf080a9062001b1c908a9060200162002c6f565b6040516020818303038152906040526040518263ffffffff1660e01b815260040162001b499190620023f5565b602060405180830381865afa15801562001b67573d6000803e3d6000fd5b505050506040513d601f19601f8201168201806040525081019062001b8d919062002bfc565b60405163f2522bcd60e01b81526001600160a01b038083166004830152602482018590529192509085169063f2522bcd90604401600060405180830381600087803b15801562001bdc57600080fd5b505af115801562001bf1573d6000803e3d6000fd5b505060035460405163f2522bcd60e01b81526001600160a01b03918216600482015260248101879052908716925063f2522bcd9150604401600060405180830381600087803b15801562001c4457600080fd5b505af115801562001c59573d6000803e3d6000fd5b505050505062000738565b6001546040516000916001600160a01b0316906360bf080a9062001c8d908a9060200162002c6f565b6040516020818303038152906040526040518263ffffffff1660e01b815260040162001cba9190620023f5565b602060405180830381865afa15801562001cd8573d6000803e3d6000fd5b505050506040513d601f19601f8201168201806040525081019062001cfe919062002bfc565b6040516317d5759960e31b81526001600160a01b0388811660048301528083166024830152604482018590529192509085169063beabacc890606401600060405180830381600087803b15801562001d5557600080fd5b505af115801562001d6a573d6000803e3d6000fd5b50506003546040516317d5759960e31b81526001600160a01b038a81166004830152918216602482015260448101879052908716925063beabacc89150606401600060405180830381600087803b15801562001dc557600080fd5b505af115801562001dda573d6000803e3d6000fd5b50505050505050505050505050565b7f9016d09d72d40fdae2fd8ceac6b6234c7706214fd39c1cd1e609a0528c19930080546001600160a01b031981166001600160a01b03848116918217845560405192169182907f8be0079c531659141344cd1fd0a4f28419497f9722a3daafe3b4186f6b6457e090600090a3505050565b60006200112f83833062001f40565b62001e7362001f6a565b620011778162001fb4565b62001e8862001f6a565b62000c0c62001fbe565b600080838360405160200162001eaa9291906200296e565b60405160208183030381529060405280519060200120905060006040518060200162001ed69062002072565b601f1982820381018352601f90910116604052905062001ef96000838362001fee565b92507ffb7cc44ea40b5981af090fdacf3750b5fe758fc83a7eff829837ac9f53dcc7a985858560405162001f309392919062002c9a565b60405180910390a1505092915050565b6000604051836040820152846020820152828152600b8101905060ff815360559020949350505050565b7ff0c57e16840df040f15088dc2f81fe391c3923bec73e23a9662efc9c229c6a0054600160401b900460ff1662000c0c57604051631afcd79f60e31b815260040160405180910390fd5b6200114062001f6a565b62001fc862001f6a565b60017f9b779b17422d0df92223018b32b4d1fa46e071723d6817e2486d003becc55f0055565b6000834710156200201c5760405163392efb2b60e21b81524760048201526024810185905260440162000677565b81516000036200203f57604051631328927760e21b815260040160405180910390fd5b8282516020840186f590506001600160a01b0381166200112f57604051633a0ba96160e11b815260040160405180910390fd5b61194e8062002cd083390190565b634e487b7160e01b600052604160045260246000fd5b604051601f8201601f191681016001600160401b0381118282101715620020c157620020c162002080565b604052919050565b60006001600160401b03821115620020e557620020e562002080565b50601f01601f191660200190565b600082601f8301126200210557600080fd5b81356200211c6200211682620020c9565b62002096565b8181528460208386010111156200213257600080fd5b816020850160208301376000918101602001919091529392505050565b6000602082840312156200216257600080fd5b81356001600160401b038111156200217957600080fd5b6200218784828501620020f3565b949350505050565b60008060408385031215620021a357600080fd5b82356001600160401b03811115620021ba57600080fd5b620021c885828601620020f3565b95602094909401359450505050565b6001600160a01b03811681146200117757600080fd5b6000602082840312156200220057600080fd5b81356200112f81620021d7565b60006001600160401b0382111562002229576200222962002080565b5060051b60200190565b600082601f8301126200224557600080fd5b813560206200225862002116836200220d565b82815260059290921b840181019181810190868411156200227857600080fd5b8286015b84811015620022bc5780356001600160401b038111156200229d5760008081fd5b620022ad8986838b0101620020f3565b8452509183019183016200227c565b509695505050505050565b600080600060608486031215620022dd57600080fd5b83356001600160401b0380821115620022f557600080fd5b6200230387838801620020f3565b94506020860135935060408601359150808211156200232157600080fd5b50620023308682870162002233565b9150509250925092565b80151581146200117757600080fd5b600080604083850312156200235d57600080fd5b82356200236a81620021d7565b915060208301356200237c816200233a565b809150509250929050565b6000602082840312156200239a57600080fd5b5035919050565b60005b83811015620023be578181015183820152602001620023a4565b50506000910152565b60008151808452620023e1816020860160208601620023a1565b601f01601f19169290920160200192915050565b6020815260006200112f6020830184620023c7565b600080600080600060a086880312156200242357600080fd5b85356001600160401b03808211156200243b57600080fd5b6200244989838a01620020f3565b96506020880135955060408801359150808211156200246757600080fd5b506200247688828901620020f3565b93505060608601356200248981620021d7565b949793965091946080013592915050565b600082601f830112620024ac57600080fd5b81356020620024bf62002116836200220d565b8083825260208201915060208460051b870101935086841115620024e257600080fd5b602086015b84811015620022bc5780358352918301918301620024e7565b600080600080600060a086880312156200251957600080fd5b85356001600160401b03808211156200253157600080fd5b6200253f89838a01620020f3565b9650602091508188013595506040880135818111156200255e57600080fd5b6200256c8a828b0162002233565b9550506060880135818111156200258257600080fd5b8801601f81018a136200259457600080fd5b8035620025a562002116826200220d565b81815260059190911b8201840190848101908c831115620025c557600080fd5b928501925b82841015620025f0578335620025e081620021d7565b82529285019290850190620025ca565b965050505060808801359150808211156200260a57600080fd5b5062002619888289016200249a565b9150509295509295909350565b6000806000606084860312156200263c57600080fd5b83356001600160401b038111156200265357600080fd5b6200266186828701620020f3565b9350506020840135915060408401356200267b81620021d7565b809150509250925092565b600080602083850312156200269a57600080fd5b82356001600160401b0380821115620026b257600080fd5b818501915085601f830112620026c757600080fd5b813581811115620026d757600080fd5b8660208260051b8501011115620026ed57600080fd5b60209290920196919550909350505050565b600060208083016020845280855180835260408601915060408160051b87010192506020870160005b828110156200275a57603f1988860301845262002747858351620023c7565b9450928501929085019060010162002728565b5092979650505050505050565b6000806000606084860312156200277d57600080fd5b83356001600160401b03808211156200279557600080fd5b620027a387838801620020f3565b9450602086013593506040860135915080821115620027c157600080fd5b506200233086828701620020f3565b60008060008060808587031215620027e757600080fd5b8435620027f481620021d7565b935060208501356200280681620021d7565b925060408501356200281881620021d7565b915060608501356200282a81620021d7565b939692955090935050565b6020808252601a908201527f47616d6552756c6556313a206f6e6c79206f70657261746f7273000000000000604082015260600190565b6000825162002880818460208701620023a1565b9190910192915050565b6020808252601a908201527f47616d6552756c6556313a20726f6f6d206e6f7420666f756e64000000000000604082015260600190565b600060208083016020845280855180835260408601915060408160051b87010192506020870160005b828110156200275a57603f1988860301845262002909858351620023c7565b94509285019290850190600101620028ea565b600181811c908216806200293157607f821691505b6020821081036200295257634e487b7160e01b600052602260045260246000fd5b50919050565b634e487b7160e01b600052603260045260246000fd5b604081526000620029836040830185620023c7565b90508260208301529392505050565b6000808335601e19843603018112620029aa57600080fd5b8301803591506001600160401b03821115620029c557600080fd5b602001915036819003821315620029db57600080fd5b9250929050565b8183823760009101908152919050565b60006020828403121562002a0557600080fd5b81516001600160401b0381111562002a1c57600080fd5b8201601f8101841362002a2e57600080fd5b805162002a3f6200211682620020c9565b81815285602083850101111562002a5557600080fd5b62002a68826020830160208601620023a1565b95945050505050565b60006020828403121562002a8457600080fd5b81516200112f816200233a565b634e487b7160e01b600052601160045260246000fd5b8082018082111562000e6f5762000e6f62002a91565b60608152600062002ad26060830186620023c7565b60208301949094525060400152919050565b601f821115620008e7576000816000526020600020601f850160051c8101602086101562002b0f5750805b601f850160051c820191505b81811015620019345782815560010162002b1b565b81516001600160401b0381111562002b4c5762002b4c62002080565b62002b648162002b5d84546200291c565b8462002ae4565b602080601f83116001811462002b9c576000841562002b835750858301515b600019600386901b1c1916600185901b17855562001934565b600085815260208120601f198616915b8281101562002bcd5788860151825594840194600190910190840162002bac565b508582101562002bec5787850151600019600388901b60f8161c191681555b5050505050600190811b01905550565b60006020828403121562002c0f57600080fd5b81516200112f81620021d7565b808202811582820484141762000e6f5762000e6f62002a91565b60008262002c5457634e487b7160e01b600052601260045260246000fd5b500490565b8181038181111562000e6f5762000e6f62002a91565b6000825162002c83818460208701620023a1565b641738363cb960d91b920191825250600501919050565b60608152600062002caf6060830186620023c7565b6020830194909452506001600160a01b039190911660409091015291905056fe608060405234801561001057600080fd5b50338061003757604051631e4fbdf760e01b81526000600482015260240160405180910390fd5b61004081610046565b50610096565b600080546001600160a01b038381166001600160a01b0319831681178455604051919092169283917f8be0079c531659141344cd1fd0a4f28419497f9722a3daafe3b4186f6b6457e09190a35050565b6118a9806100a56000396000f3fe6080604052600436106101235760003560e01c8063a2e1ce62116100a0578063d7c81b5511610064578063d7c81b551461035c578063efbe1c1c1461037e578063f2522bcd14610393578063f2fde38b146103b3578063f954d0d9146103d357600080fd5b8063a2e1ce62146102b0578063a4fd6f56146102e0578063aa6ca808146102fa578063beabacc81461031c578063c74073a11461033c57600080fd5b80634f64b2be116100e75780634f64b2be14610205578063715018a61461023d5780638da5cb5b14610252578063977d08c0146102705780639bce4e141461029057600080fd5b806309824a801461012f57806329dcb0cf146101515780632e136e861461017a5780633db8420e146101aa578063475fb9e6146101ca57600080fd5b3661012a57005b600080fd5b34801561013b57600080fd5b5061014f61014a366004611199565b6103e9565b005b34801561015d57600080fd5b5061016760035481565b6040519081526020015b60405180910390f35b34801561018657600080fd5b5061019a61019536600461126d565b6104ad565b6040519015158152602001610171565b3480156101b657600080fd5b5061014f6101c53660046112aa565b61052f565b3480156101d657600080fd5b5061019a6101e536600461126d565b805160208183018101805160068252928201919093012091525460ff1681565b34801561021157600080fd5b5061022561022036600461136d565b6105f8565b6040516001600160a01b039091168152602001610171565b34801561024957600080fd5b5061014f610622565b34801561025e57600080fd5b506000546001600160a01b0316610225565b34801561027c57600080fd5b5061014f61028b366004611386565b610636565b34801561029c57600080fd5b5061014f6102ab3660046112aa565b61079f565b3480156102bc57600080fd5b5061019a6102cb366004611199565b60076020526000908152604090205460ff1681565b3480156102ec57600080fd5b5060045461019a9060ff1681565b34801561030657600080fd5b5061030f610864565b60405161017191906113d4565b34801561032857600080fd5b5061014f610337366004611421565b6108c6565b34801561034857600080fd5b5061014f610357366004611199565b6108e7565b34801561036857600080fd5b50610371610bdf565b60405161017191906114b2565b34801561038a57600080fd5b5061014f610c6d565b34801561039f57600080fd5b5061014f6103ae3660046114c5565b610e37565b3480156103bf57600080fd5b5061014f6103ce366004611199565b610e49565b3480156103df57600080fd5b5061016760025481565b6103f1610e84565b6001600160a01b03811660009081526007602052604090205460ff166104aa576005805460018082019092557f036b6384b5eca791c62761152d0c79bb0604c104a5fb6f4eb0703f3154bb3db00180546001600160a01b0319166001600160a01b038416908117909155600081815260076020908152604091829020805460ff1916909417909355519081527f158412daecdc1456d01568828bcdb18464cc7f1ce0215ddbc3f3cfede9d1e63d91015b60405180910390a15b50565b60006006826040516104bf91906114f1565b9081526040519081900360200190205460ff1680610529575060016040516020016104ea9190611547565b604051602081830303815290604052805190602001208260405160200161051191906114f1565b60405160208183030381529060405280519060200120145b92915050565b610537610e84565b60005b81518110156105f45760006006838381518110610559576105596115bd565b602002602001015160405161056e91906114f1565b908152602001604051809103902060006101000a81548160ff0219169083151502179055507f5cb6468e01c321c195d8437416322f6c7b51e265edab465a79c231fad6b53dee60016002548484815181106105cb576105cb6115bd565b6020026020010151426040516105e49493929190611650565b60405180910390a160010161053a565b5050565b6005818154811061060857600080fd5b6000918252602090912001546001600160a01b0316905081565b61062a610e84565b6106346000610eb1565b565b7ff0c57e16840df040f15088dc2f81fe391c3923bec73e23a9662efc9c229c6a008054600160401b810460ff16159067ffffffffffffffff1660008115801561067c5750825b905060008267ffffffffffffffff1660011480156106995750303b155b9050811580156106a7575080155b156106c55760405163f92ee8a960e01b815260040160405180910390fd5b845467ffffffffffffffff1916600117855583156106ef57845460ff60401b1916600160401b1785555b60016106fb89826116dd565b50600287905561070b864261179d565b60038190556002546040517f5bb40d63135f752607da3ecbfc1ffc67f89afad879bed5dfee15a16bec7c30a592610747926001929091906117be565b60405180910390a1831561079557845460ff60401b19168555604051600181527fc7f505b2f371ae2175ee4913f4499e1f2633a7b5936321eed1cdaeb6115181d29060200160405180910390a15b5050505050505050565b6107a7610e84565b60005b81518110156105f457600160068383815181106107c9576107c96115bd565b60200260200101516040516107de91906114f1565b908152602001604051809103902060006101000a81548160ff0219169083151502179055507fcc272659d82aa91a1f080eb07b21500b34be0df4d27769512d27c750aba681a2600160025484848151811061083b5761083b6115bd565b6020026020010151426040516108549493929190611650565b60405180910390a16001016107aa565b606060058054806020026020016040519081016040528092919081815260200182805480156108bc57602002820191906000526020600020905b81546001600160a01b0316815260019091019060200180831161089e575b5050505050905090565b6108ce610e84565b6108e26001600160a01b0384168383610f01565b505050565b6108ef610e84565b60035442116109345760405162461bcd60e51b815260206004820152600c60248201526b11d85b59539bdd115b99195960a21b60448201526064015b60405180910390fd5b60045460ff161561097a5760405162461bcd60e51b815260206004820152601060248201526f11d85b59505b1c9958591e515b99195960821b604482015260640161092b565b60005b600554811015610b995760006001600160a01b0316600582815481106109a5576109a56115bd565b6000918252602090912001546001600160a01b031614610b81576000600582815481106109d4576109d46115bd565b6000918252602090912001546040516370a0823160e01b81523060048201526001600160a01b03909116906370a0823190602401602060405180830381865afa158015610a25573d6000803e3d6000fd5b505050506040513d601f19601f82011682018060405250810190610a4991906117e3565b1115610b7c5760058181548110610a6257610a626115bd565b600091825260209091200154600580546001600160a01b039092169163a9059cbb91859185908110610a9657610a966115bd565b6000918252602090912001546040516370a0823160e01b81523060048201526001600160a01b03909116906370a0823190602401602060405180830381865afa158015610ae7573d6000803e3d6000fd5b505050506040513d601f19601f82011682018060405250810190610b0b91906117e3565b6040516001600160e01b031960e085901b1681526001600160a01b03909216600483015260248201526044016020604051808303816000875af1158015610b56573d6000803e3d6000fd5b505050506040513d601f19601f82011682018060405250810190610b7a91906117fc565b505b610b91565b4715610b9157610b918247610f53565b60010161097d565b506004805460ff191660019081179091556002546040517f51face237fecf262f6f4cbff1e2cb10355e4f478f2a934b059697485a3d039ed926104a1929091859061181e565b60018054610bec9061150d565b80601f0160208091040260200160405190810160405280929190818152602001828054610c189061150d565b8015610c655780601f10610c3a57610100808354040283529160200191610c65565b820191906000526020600020905b815481529060010190602001808311610c4857829003601f168201915b505050505081565b610c75610e84565b60005b600554811015610de95760006001600160a01b031660058281548110610ca057610ca06115bd565b6000918252602090912001546001600160a01b031614610d9057600060058281548110610ccf57610ccf6115bd565b6000918252602090912001546040516370a0823160e01b81523060048201526001600160a01b03909116906370a0823190602401602060405180830381865afa158015610d20573d6000803e3d6000fd5b505050506040513d601f19601f82011682018060405250810190610d4491906117e3565b90508015610d8a5760405162461bcd60e51b8152602060048201526013602482015272546f6b656e42616c616e63654e6f745a65726f60681b604482015260640161092b565b50610de1565b478015610ddf5760405162461bcd60e51b815260206004820152601860248201527f4e6174697665436f696e42616c616e63654e6f745a65726f0000000000000000604482015260640161092b565b505b600101610c78565b506004805460ff191660019081179091556002546040517fea20419b16267d9e7b733136c4c8d716a7d68522654cf5ba20af0db8820a627d92610e2d929091611851565b60405180910390a1565b610e3f610e84565b6105f48282610f53565b610e51610e84565b6001600160a01b038116610e7b57604051631e4fbdf760e01b81526000600482015260240161092b565b6104aa81610eb1565b6000546001600160a01b031633146106345760405163118cdaa760e01b815233600482015260240161092b565b600080546001600160a01b038381166001600160a01b0319831681178455604051919092169283917f8be0079c531659141344cd1fd0a4f28419497f9722a3daafe3b4186f6b6457e09190a35050565b604080516001600160a01b038416602482015260448082018490528251808303909101815260649091019091526020810180516001600160e01b031663a9059cbb60e01b1790526108e2908490610fea565b80471015610f765760405163cd78605960e01b815230600482015260240161092b565b6000826001600160a01b03168260405160006040518083038185875af1925050503d8060008114610fc3576040519150601f19603f3d011682016040523d82523d6000602084013e610fc8565b606091505b50509050806108e257604051630a12f52160e11b815260040160405180910390fd5b6000610fff6001600160a01b0384168361104d565b9050805160001415801561102457508080602001905181019061102291906117fc565b155b156108e257604051635274afe760e01b81526001600160a01b038416600482015260240161092b565b606061105b83836000611062565b9392505050565b6060814710156110875760405163cd78605960e01b815230600482015260240161092b565b600080856001600160a01b031684866040516110a391906114f1565b60006040518083038185875af1925050503d80600081146110e0576040519150601f19603f3d011682016040523d82523d6000602084013e6110e5565b606091505b50915091506110f58683836110ff565b9695505050505050565b6060826111145761110f8261115b565b61105b565b815115801561112b57506001600160a01b0384163b155b1561115457604051639996b31560e01b81526001600160a01b038516600482015260240161092b565b508061105b565b80511561116b5780518082602001fd5b604051630a12f52160e11b815260040160405180910390fd5b6001600160a01b03811681146104aa57600080fd5b6000602082840312156111ab57600080fd5b813561105b81611184565b634e487b7160e01b600052604160045260246000fd5b604051601f8201601f1916810167ffffffffffffffff811182821017156111f5576111f56111b6565b604052919050565b600082601f83011261120e57600080fd5b813567ffffffffffffffff811115611228576112286111b6565b61123b601f8201601f19166020016111cc565b81815284602083860101111561125057600080fd5b816020850160208301376000918101602001919091529392505050565b60006020828403121561127f57600080fd5b813567ffffffffffffffff81111561129657600080fd5b6112a2848285016111fd565b949350505050565b600060208083850312156112bd57600080fd5b823567ffffffffffffffff808211156112d557600080fd5b818501915085601f8301126112e957600080fd5b8135818111156112fb576112fb6111b6565b8060051b61130a8582016111cc565b918252838101850191858101908984111561132457600080fd5b86860192505b83831015611360578235858111156113425760008081fd5b6113508b89838a01016111fd565b835250918601919086019061132a565b9998505050505050505050565b60006020828403121561137f57600080fd5b5035919050565b60008060006060848603121561139b57600080fd5b833567ffffffffffffffff8111156113b257600080fd5b6113be868287016111fd565b9660208601359650604090950135949350505050565b6020808252825182820181905260009190848201906040850190845b818110156114155783516001600160a01b0316835292840192918401916001016113f0565b50909695505050505050565b60008060006060848603121561143657600080fd5b833561144181611184565b9250602084013561145181611184565b929592945050506040919091013590565b60005b8381101561147d578181015183820152602001611465565b50506000910152565b6000815180845261149e816020860160208601611462565b601f01601f19169290920160200192915050565b60208152600061105b6020830184611486565b600080604083850312156114d857600080fd5b82356114e381611184565b946020939093013593505050565b60008251611503818460208701611462565b9190910192915050565b600181811c9082168061152157607f821691505b60208210810361154157634e487b7160e01b600052602260045260246000fd5b50919050565b60008083546115558161150d565b6001828116801561156d5760018114611582576115b1565b60ff19841687528215158302870194506115b1565b8760005260208060002060005b858110156115a85781548a82015290840190820161158f565b50505082870194505b50929695505050505050565b634e487b7160e01b600052603260045260246000fd5b600081546115e08161150d565b8085526020600183811680156115fd576001811461161757611645565b60ff1985168884015283151560051b880183019550611645565b866000528260002060005b8581101561163d5781548a8201860152908301908401611622565b890184019650505b505050505092915050565b60808152600061166360808301876115d3565b856020840152828103604084015261167b8186611486565b91505082606083015295945050505050565b601f8211156108e2576000816000526020600020601f850160051c810160208610156116b65750805b601f850160051c820191505b818110156116d5578281556001016116c2565b505050505050565b815167ffffffffffffffff8111156116f7576116f76111b6565b61170b81611705845461150d565b8461168d565b602080601f83116001811461174057600084156117285750858301515b600019600386901b1c1916600185901b1785556116d5565b600085815260208120601f198616915b8281101561176f57888601518255948401946001909101908401611750565b508582101561178d5787850151600019600388901b60f8161c191681555b5050505050600190811b01905550565b8082018082111561052957634e487b7160e01b600052601160045260246000fd5b6060815260006117d160608301866115d3565b60208301949094525060400152919050565b6000602082840312156117f557600080fd5b5051919050565b60006020828403121561180e57600080fd5b8151801515811461105b57600080fd5b60608152600061183160608301866115d3565b6020830194909452506001600160a01b0391909116604090910152919050565b60408152600061186460408301856115d3565b9050826020830152939250505056fea2646970667358221220a2b7c31dbcc69709f5b248e39b77f4ac645e89206b625f15d6c88db49d2968b964736f6c63430008180033a26469706673582212201ef8882c562f195af63e9750341d321f4670150d860a6de167725614fb9b50e764736f6c63430008180033",
  "linkReferences": {},
  "deployedLinkReferences": {}
}