{
  "_format": "hh-sol-artifact-1",
  "contractName": "GameNft",
  "sourceName": "contracts/GameNft.sol",
  "abi": [
    {
      "inputs": [],
      "stateMutability": "nonpayable",
      "type": "constructor"
    },
    {
      "inputs": [],
      "name": "ERC721EnumerableForbiddenBatchMint",
      "type": "error"
    },
    {
      "inputs": [
        {
          "internalType": "address",
          "name": "sender",
          "type": "address"
        },
        {
          "internalType": "uint256",
          "name": "tokenId",
          "type": "uint256"
        },
        {
          "internalType": "address",
          "name": "owner",
          "type": "address"
        }
      ],
      "name": "ERC721IncorrectOwner",
      "type": "error"
    },
    {
      "inputs": [
        {
          "internalType": "address",
          "name": "operator",
          "type": "address"
        },
        {
          "internalType": "uint256",
          "name": "tokenId",
          "type": "uint256"
        }
      ],
      "name": "ERC721InsufficientApproval",
      "type": "error"
    },
    {
      "inputs": [
        {
          "internalType": "address",
          "name": "approver",
          "type": "address"
        }
      ],
      "name": "ERC721InvalidApprover",
      "type": "error"
    },
    {
      "inputs": [
        {
          "internalType": "address",
          "name": "operator",
          "type": "address"
        }
      ],
      "name": "ERC721InvalidOperator",
      "type": "error"
    },
    {
      "inputs": [
        {
          "internalType": "address",
          "name": "owner",
          "type": "address"
        }
      ],
      "name": "ERC721InvalidOwner",
      "type": "error"
    },
    {
      "inputs": [
        {
          "internalType": "address",
          "name": "receiver",
          "type": "address"
        }
      ],
      "name": "ERC721InvalidReceiver",
      "type": "error"
    },
    {
      "inputs": [
        {
          "internalType": "address",
          "name": "sender",
          "type": "address"
        }
      ],
      "name": "ERC721InvalidSender",
      "type": "error"
    },
    {
      "inputs": [
        {
          "internalType": "uint256",
          "name": "tokenId",
          "type": "uint256"
        }
      ],
      "name": "ERC721NonexistentToken",
      "type": "error"
    },
    {
      "inputs": [
        {
          "internalType": "address",
          "name": "owner",
          "type": "address"
        },
        {
          "internalType": "uint256",
          "name": "index",
          "type": "uint256"
        }
      ],
      "name": "ERC721OutOfBoundsIndex",
      "type": "error"
    },
    {
      "inputs": [],
      "name": "InvalidInitialization",
      "type": "error"
    },
    {
      "inputs": [],
      "name": "NotInitializing",
      "type": "error"
    },
    {
      "inputs": [
        {
          "internalType": "address",
          "name": "owner",
          "type": "address"
        }
      ],
      "name": "OwnableInvalidOwner",
      "type": "error"
    },
    {
      "inputs": [
        {
          "internalType": "address",
          "name": "account",
          "type": "address"
        }
      ],
      "name": "OwnableUnauthorizedAccount",
      "type": "error"
    },
    {
      "anonymous": false,
      "inputs": [
        {
          "indexed": true,
          "internalType": "address",
          "name": "owner",
          "type": "address"
        },
        {
          "indexed": true,
          "internalType": "address",
          "name": "approved",
          "type": "address"
        },
        {
          "indexed": true,
          "internalType": "uint256",
          "name": "tokenId",
          "type": "uint256"
        }
      ],
      "name": "Approval",
      "type": "event"
    },
    {
      "anonymous": false,
      "inputs": [
        {
          "indexed": true,
          "internalType": "address",
          "name": "owner",
          "type": "address"
        },
        {
          "indexed": true,
          "internalType": "address",
          "name": "operator",
          "type": "address"
        },
        {
          "indexed": false,
          "internalType": "bool",
          "name": "approved",
          "type": "bool"
        }
      ],
      "name": "ApprovalForAll",
      "type": "event"
    },
    {
      "anonymous": false,
      "inputs": [
        {
          "indexed": false,
          "internalType": "uint256",
          "name": "_fromTokenId",
          "type": "uint256"
        },
        {
          "indexed": false,
          "internalType": "uint256",
          "name": "_toTokenId",
          "type": "uint256"
        }
      ],
      "name": "BatchMetadataUpdate",
      "type": "event"
    },
    {
      "anonymous": false,
      "inputs": [
        {
          "indexed": false,
          "internalType": "uint64",
          "name": "version",
          "type": "uint64"
        }
      ],
      "name": "Initialized",
      "type": "event"
    },
    {
      "anonymous": false,
      "inputs": [
        {
          "indexed": false,
          "internalType": "uint256",
          "name": "_tokenId",
          "type": "uint256"
        }
      ],
      "name": "MetadataUpdate",
      "type": "event"
    },
    {
      "anonymous": false,
      "inputs": [
        {
          "indexed": true,
          "internalType": "address",
          "name": "previousOwner",
          "type": "address"
        },
        {
          "indexed": true,
          "internalType": "address",
          "name": "newOwner",
          "type": "address"
        }
      ],
      "name": "OwnershipTransferred",
      "type": "event"
    },
    {
      "anonymous": false,
      "inputs": [
        {
          "indexed": true,
          "internalType": "address",
          "name": "from",
          "type": "address"
        },
        {
          "indexed": true,
          "internalType": "address",
          "name": "to",
          "type": "address"
        },
        {
          "indexed": true,
          "internalType": "uint256",
          "name": "tokenId",
          "type": "uint256"
        }
      ],
      "name": "Transfer",
      "type": "event"
    },
    {
      "inputs": [
        {
          "internalType": "address",
          "name": "to",
          "type": "address"
        },
        {
          "internalType": "uint256",
          "name": "tokenId",
          "type": "uint256"
        }
      ],
      "name": "approve",
      "outputs": [],
      "stateMutability": "nonpayable",
      "type": "function"
    },
    {
      "inputs": [
        {
          "internalType": "address",
          "name": "owner",
          "type": "address"
        }
      ],
      "name": "balanceOf",
      "outputs": [
        {
          "internalType": "uint256",
          "name": "",
          "type": "uint256"
        }
      ],
      "stateMutability": "view",
      "type": "function"
    },
    {
      "inputs": [
        {
          "internalType": "uint256",
          "name": "_tokenId",
          "type": "uint256"
        }
      ],
      "name": "burn",
      "outputs": [],
      "stateMutability": "nonpayable",
      "type": "function"
    },
    {
      "inputs": [],
      "name": "gameId",
      "outputs": [
        {
          "internalType": "string",
          "name": "",
          "type": "string"
        }
      ],
      "stateMutability": "view",
      "type": "function"
    },
    {
      "inputs": [
        {
          "internalType": "address",
          "name": "_from",
          "type": "address"
        },
        {
          "internalType": "address",
          "name": "_to",
          "type": "address"
        },
        {
          "internalType": "uint256",
          "name": "_tokenId",
          "type": "uint256"
        }
      ],
      "name": "gameTransfer",
      "outputs": [],
      "stateMutability": "nonpayable",
      "type": "function"
    },
    {
      "inputs": [
        {
          "internalType": "uint256",
          "name": "tokenId",
          "type": "uint256"
        }
      ],
      "name": "getApproved",
      "outputs": [
        {
          "internalType": "address",
          "name": "",
          "type": "address"
        }
      ],
      "stateMutability": "view",
      "type": "function"
    },
    {
      "inputs": [],
      "name": "holderCount",
      "outputs": [
        {
          "internalType": "uint256",
          "name": "",
          "type": "uint256"
        }
      ],
      "stateMutability": "view",
      "type": "function"
    },
    {
      "inputs": [
        {
          "internalType": "address",
          "name": "_owner",
          "type": "address"
        },
        {
          "internalType": "string",
          "name": "_gameId",
          "type": "string"
        },
        {
          "internalType": "string",
          "name": "_name",
          "type": "string"
        },
        {
          "internalType": "string",
          "name": "_symbol",
          "type": "string"
        }
      ],
      "name": "initialize",
      "outputs": [],
      "stateMutability": "nonpayable",
      "type": "function"
    },
    {
      "inputs": [
        {
          "internalType": "address",
          "name": "owner",
          "type": "address"
        },
        {
          "internalType": "address",
          "name": "operator",
          "type": "address"
        }
      ],
      "name": "isApprovedForAll",
      "outputs": [
        {
          "internalType": "bool",
          "name": "",
          "type": "bool"
        }
      ],
      "stateMutability": "view",
      "type": "function"
    },
    {
      "inputs": [
        {
          "internalType": "address",
          "name": "_to",
          "type": "address"
        },
        {
          "internalType": "string",
          "name": "_tokenURI",
          "type": "string"
        }
      ],
      "name": "mint",
      "outputs": [
        {
          "internalType": "uint256",
          "name": "",
          "type": "uint256"
        }
      ],
      "stateMutability": "nonpayable",
      "type": "function"
    },
    {
      "inputs": [],
      "name": "name",
      "outputs": [
        {
          "internalType": "string",
          "name": "",
          "type": "string"
        }
      ],
      "stateMutability": "view",
      "type": "function"
    },
    {
      "inputs": [],
      "name": "owner",
      "outputs": [
        {
          "internalType": "address",
          "name": "",
          "type": "address"
        }
      ],
      "stateMutability": "view",
      "type": "function"
    },
    {
      "inputs": [
        {
          "internalType": "uint256",
          "name": "tokenId",
          "type": "uint256"
        }
      ],
      "name": "ownerOf",
      "outputs": [
        {
          "internalType": "address",
          "name": "",
          "type": "address"
        }
      ],
      "stateMutability": "view",
      "type": "function"
    },
    {
      "inputs": [],
      "name": "renounceOwnership",
      "outputs": [],
      "stateMutability": "nonpayable",
      "type": "function"
    },
    {
      "inputs": [
        {
          "internalType": "address",
          "name": "from",
          "type": "address"
        },
        {
          "internalType": "address",
          "name": "to",
          "type": "address"
        },
        {
          "internalType": "uint256",
          "name": "tokenId",
          "type": "uint256"
        }
      ],
      "name": "safeTransferFrom",
      "outputs": [],
      "stateMutability": "nonpayable",
      "type": "function"
    },
    {
      "inputs": [
        {
          "internalType": "address",
          "name": "from",
          "type": "address"
        },
        {
          "internalType": "address",
          "name": "to",
          "type": "address"
        },
        {
          "internalType": "uint256",
          "name": "tokenId",
          "type": "uint256"
        },
        {
          "internalType": "bytes",
          "name": "data",
          "type": "bytes"
        }
      ],
      "name": "safeTransferFrom",
      "outputs": [],
      "stateMutability": "nonpayable",
      "type": "function"
    },
    {
      "inputs": [
        {
          "internalType": "address",
          "name": "operator",
          "type": "address"
        },
        {
          "internalType": "bool",
          "name": "approved",
          "type": "bool"
        }
      ],
      "name": "setApprovalForAll",
      "outputs": [],
      "stateMutability": "nonpayable",
      "type": "function"
    },
    {
      "inputs": [
        {
          "internalType": "bytes4",
          "name": "interfaceId",
          "type": "bytes4"
        }
      ],
      "name": "supportsInterface",
      "outputs": [
        {
          "internalType": "bool",
          "name": "",
          "type": "bool"
        }
      ],
      "stateMutability": "view",
      "type": "function"
    },
    {
      "inputs": [],
      "name": "symbol",
      "outputs": [
        {
          "internalType": "string",
          "name": "",
          "type": "string"
        }
      ],
      "stateMutability": "view",
      "type": "function"
    },
    {
      "inputs": [
        {
          "internalType": "uint256",
          "name": "index",
          "type": "uint256"
        }
      ],
      "name": "tokenByIndex",
      "outputs": [
        {
          "internalType": "uint256",
          "name": "",
          "type": "uint256"
        }
      ],
      "stateMutability": "view",
      "type": "function"
    },
    {
      "inputs": [
        {
          "internalType": "address",
          "name": "owner",
          "type": "address"
        },
        {
          "internalType": "uint256",
          "name": "index",
          "type": "uint256"
        }
      ],
      "name": "tokenOfOwnerByIndex",
      "outputs": [
        {
          "internalType": "uint256",
          "name": "",
          "type": "uint256"
        }
      ],
      "stateMutability": "view",
      "type": "function"
    },
    {
      "inputs": [
        {
          "internalType": "uint256",
          "name": "tokenId",
          "type": "uint256"
        }
      ],
      "name": "tokenURI",
      "outputs": [
        {
          "internalType": "string",
          "name": "",
          "type": "string"
        }
      ],
      "stateMutability": "view",
      "type": "function"
    },
    {
      "inputs": [],
      "name": "totalSupply",
      "outputs": [
        {
          "internalType": "uint256",
          "name": "",
          "type": "uint256"
        }
      ],
      "stateMutability": "view",
      "type": "function"
    },
    {
      "inputs": [
        {
          "internalType": "address",
          "name": "from",
          "type": "address"
        },
        {
          "internalType": "address",
          "name": "to",
          "type": "address"
        },
        {
          "internalType": "uint256",
          "name": "tokenId",
          "type": "uint256"
        }
      ],
      "name": "transferFrom",
      "outputs": [],
      "stateMutability": "nonpayable",
      "type": "function"
    },
    {
      "inputs": [
        {
          "internalType": "address",
          "name": "newOwner",
          "type": "address"
        }
      ],
      "name": "transferOwnership",
      "outputs": [],
      "stateMutability": "nonpayable",
      "type": "function"
    }
  ],
  "bytecode": "0x60806040523480156200001157600080fd5b50620000226200002860201b60201c565b6200019c565b60006200003a6200013260201b60201c565b90508060000160089054906101000a900460ff161562000086576040517ff92ee8a900000000000000000000000000000000000000000000000000000000815260040160405180910390fd5b67ffffffffffffffff80168160000160009054906101000a900467ffffffffffffffff1667ffffffffffffffff16146200012f5767ffffffffffffffff8160000160006101000a81548167ffffffffffffffff021916908367ffffffffffffffff1602179055507fc7f505b2f371ae2175ee4913f4499e1f2633a7b5936321eed1cdaeb6115181d267ffffffffffffffff6040516200012691906200017f565b60405180910390a15b50565b60007ff0c57e16840df040f15088dc2f81fe391c3923bec73e23a9662efc9c229c6a00905090565b600067ffffffffffffffff82169050919050565b62000179816200015a565b82525050565b60006020820190506200019660008301846200016e565b92915050565b6138cc80620001ac6000396000f3fe608060405234801561001057600080fd5b50600436106101735760003560e01c806362252bc3116100de578063a22cb46511610097578063d0def52111610071578063d0def52114610448578063d7c81b5514610478578063e985e9c514610496578063f2fde38b146104c657610173565b8063a22cb465146103e0578063b88d4fde146103fc578063c87b56dd1461041857610173565b806362252bc31461031e5780636352211e1461033a57806370a082311461036a578063715018a61461039a5780638da5cb5b146103a457806395d89b41146103c257610173565b806323b872dd1161013057806323b872dd1461024e5780632f745c591461026a57806342842e0e1461029a57806342966c68146102b65780634f6ccce7146102d25780635f1e6f6d1461030257610173565b806301ffc9a71461017857806306fdde03146101a8578063081812fc146101c6578063095ea7b3146101f657806318160ddd146102125780631aab9a9f14610230575b600080fd5b610192600480360381019061018d9190612b81565b6104e2565b60405161019f9190612bc9565b60405180910390f35b6101b06104f4565b6040516101bd9190612c74565b60405180910390f35b6101e060048036038101906101db9190612ccc565b610595565b6040516101ed9190612d3a565b60405180910390f35b610210600480360381019061020b9190612d81565b6105b1565b005b61021a6105c7565b6040516102279190612dd0565b60405180910390f35b6102386105e2565b6040516102459190612dd0565b60405180910390f35b61026860048036038101906102639190612deb565b6105e8565b005b610284600480360381019061027f9190612d81565b6106ea565b6040516102919190612dd0565b60405180910390f35b6102b460048036038101906102af9190612deb565b6107a1565b005b6102d060048036038101906102cb9190612ccc565b6107c1565b005b6102ec60048036038101906102e79190612ccc565b6107d5565b6040516102f99190612dd0565b60405180910390f35b61031c60048036038101906103179190612f73565b610859565b005b61033860048036038101906103339190612deb565b610a15565b005b610354600480360381019061034f9190612ccc565b610a3d565b6040516103619190612d3a565b60405180910390f35b610384600480360381019061037f919061302e565b610a4f565b6040516103919190612dd0565b60405180910390f35b6103a2610b18565b005b6103ac610b2c565b6040516103b99190612d3a565b60405180910390f35b6103ca610b64565b6040516103d79190612c74565b60405180910390f35b6103fa60048036038101906103f59190613087565b610c05565b005b61041660048036038101906104119190613168565b610c1b565b005b610432600480360381019061042d9190612ccc565b610c38565b60405161043f9190612c74565b60405180910390f35b610462600480360381019061045d91906131eb565b610c4a565b60405161046f9190612dd0565b60405180910390f35b610480610c8a565b60405161048d9190612c74565b60405180910390f35b6104b060048036038101906104ab9190613247565b610d18565b6040516104bd9190612bc9565b60405180910390f35b6104e060048036038101906104db919061302e565b610dba565b005b60006104ed82610e40565b9050919050565b60606000610500610eba565b9050806000018054610511906132b6565b80601f016020809104026020016040519081016040528092919081815260200182805461053d906132b6565b801561058a5780601f1061055f5761010080835404028352916020019161058a565b820191906000526020600020905b81548152906001019060200180831161056d57829003601f168201915b505050505091505090565b60006105a082610ee2565b506105aa82610f6a565b9050919050565b6105c382826105be610fb5565b610fbd565b5050565b6000806105d2610fcf565b9050806002018054905091505090565b60015481565b600073ffffffffffffffffffffffffffffffffffffffff168273ffffffffffffffffffffffffffffffffffffffff160361065a5760006040517f64a0ae920000000000000000000000000000000000000000000000000000000081526004016106519190612d3a565b60405180910390fd5b600061066e8383610669610fb5565b610ff7565b90508373ffffffffffffffffffffffffffffffffffffffff168173ffffffffffffffffffffffffffffffffffffffff16146106e4578382826040517f64283d7b0000000000000000000000000000000000000000000000000000000081526004016106db939291906132e7565b60405180910390fd5b50505050565b6000806106f5610fcf565b905061070084610a4f565b83106107455783836040517fa57d13dc00000000000000000000000000000000000000000000000000000000815260040161073c92919061331e565b60405180910390fd5b8060000160008573ffffffffffffffffffffffffffffffffffffffff1673ffffffffffffffffffffffffffffffffffffffff16815260200190815260200160002060008481526020019081526020016000205491505092915050565b6107bc83838360405180602001604052806000815250610c1b565b505050565b6107c961113d565b6107d2816111c4565b50565b6000806107e0610fcf565b90506107ea6105c7565b8310610830576000836040517fa57d13dc00000000000000000000000000000000000000000000000000000000815260040161082792919061331e565b60405180910390fd5b80600201838154811061084657610845613347565b5b9060005260206000200154915050919050565b600061086361124a565b905060008160000160089054906101000a900460ff1615905060008260000160009054906101000a900467ffffffffffffffff1690506000808267ffffffffffffffff161480156108b15750825b9050600060018367ffffffffffffffff161480156108e6575060003073ffffffffffffffffffffffffffffffffffffffff163b145b9050811580156108f4575080155b1561092b576040517ff92ee8a900000000000000000000000000000000000000000000000000000000815260040160405180910390fd5b60018560000160006101000a81548167ffffffffffffffff021916908367ffffffffffffffff160217905550831561097b5760018560000160086101000a81548160ff0219169083151502179055505b61098489611272565b61098e8787611286565b61099661129c565b61099e6112a6565b87600090816109ad9190613522565b508315610a0a5760008560000160086101000a81548160ff0219169083151502179055507fc7f505b2f371ae2175ee4913f4499e1f2633a7b5936321eed1cdaeb6115181d26001604051610a019190613643565b60405180910390a15b505050505050505050565b610a1d61113d565b610a38838383604051806020016040528060008152506112b0565b505050565b6000610a4882610ee2565b9050919050565b600080610a5a610eba565b9050600073ffffffffffffffffffffffffffffffffffffffff168373ffffffffffffffffffffffffffffffffffffffff1603610ace5760006040517f89c62b64000000000000000000000000000000000000000000000000000000008152600401610ac59190612d3a565b60405180910390fd5b8060030160008473ffffffffffffffffffffffffffffffffffffffff1673ffffffffffffffffffffffffffffffffffffffff16815260200190815260200160002054915050919050565b610b2061113d565b610b2a60006112cd565b565b600080610b376113a4565b90508060000160009054906101000a900473ffffffffffffffffffffffffffffffffffffffff1691505090565b60606000610b70610eba565b9050806001018054610b81906132b6565b80601f0160208091040260200160405190810160405280929190818152602001828054610bad906132b6565b8015610bfa5780601f10610bcf57610100808354040283529160200191610bfa565b820191906000526020600020905b815481529060010190602001808311610bdd57829003601f168201915b505050505091505090565b610c17610c10610fb5565b83836113cc565b5050565b610c268484846105e8565b610c328484848461154a565b50505050565b6060610c4382611701565b9050919050565b6000610c5461113d565b60006001610c606105c7565b610c6a919061368d565b9050610c768482611825565b610c808184611843565b8091505092915050565b60008054610c97906132b6565b80601f0160208091040260200160405190810160405280929190818152602001828054610cc3906132b6565b8015610d105780601f10610ce557610100808354040283529160200191610d10565b820191906000526020600020905b815481529060010190602001808311610cf357829003601f168201915b505050505081565b600080610d23610eba565b90508060050160008573ffffffffffffffffffffffffffffffffffffffff1673ffffffffffffffffffffffffffffffffffffffff16815260200190815260200160002060008473ffffffffffffffffffffffffffffffffffffffff1673ffffffffffffffffffffffffffffffffffffffff16815260200190815260200160002060009054906101000a900460ff1691505092915050565b610dc261113d565b600073ffffffffffffffffffffffffffffffffffffffff168173ffffffffffffffffffffffffffffffffffffffff1603610e345760006040517f1e4fbdf7000000000000000000000000000000000000000000000000000000008152600401610e2b9190612d3a565b60405180910390fd5b610e3d816112cd565b50565b60007f780e9d63000000000000000000000000000000000000000000000000000000007bffffffffffffffffffffffffffffffffffffffffffffffffffffffff1916827bffffffffffffffffffffffffffffffffffffffffffffffffffffffff19161480610eb35750610eb2826118ae565b5b9050919050565b60007f80bb2b638cc20bc4d0a60d66940f3ab4a00c1d7b313497ca82fb0b4ab0079300905090565b600080610eee8361190f565b9050600073ffffffffffffffffffffffffffffffffffffffff168173ffffffffffffffffffffffffffffffffffffffff1603610f6157826040517f7e273289000000000000000000000000000000000000000000000000000000008152600401610f589190612dd0565b60405180910390fd5b80915050919050565b600080610f75610eba565b905080600401600084815260200190815260200160002060009054906101000a900473ffffffffffffffffffffffffffffffffffffffff16915050919050565b600033905090565b610fca838383600161195a565b505050565b60007f645e039705490088daad89bae25049a34f4a9072d398537b1ab2425f24cbed00905090565b60008073ffffffffffffffffffffffffffffffffffffffff168473ffffffffffffffffffffffffffffffffffffffff161415801561103d5750600061103b85610a4f565b145b1561105c576001806000828254611054919061368d565b925050819055505b6000611069858585611b2e565b9050600073ffffffffffffffffffffffffffffffffffffffff168173ffffffffffffffffffffffffffffffffffffffff16141580156110b0575060006110ae82610a4f565b145b156110cf5760018060008282546110c791906136c1565b925050819055505b600073ffffffffffffffffffffffffffffffffffffffff168573ffffffffffffffffffffffffffffffffffffffff161480156111135750600061111182610a4f565b145b1561113257600180600082825461112a91906136c1565b925050819055505b809150509392505050565b611145610fb5565b73ffffffffffffffffffffffffffffffffffffffff16611163610b2c565b73ffffffffffffffffffffffffffffffffffffffff16146111c257611186610fb5565b6040517f118cdaa70000000000000000000000000000000000000000000000000000000081526004016111b99190612d3a565b60405180910390fd5b565b60006111d36000836000610ff7565b9050600073ffffffffffffffffffffffffffffffffffffffff168173ffffffffffffffffffffffffffffffffffffffff160361124657816040517f7e27328900000000000000000000000000000000000000000000000000000000815260040161123d9190612dd0565b60405180910390fd5b5050565b60007ff0c57e16840df040f15088dc2f81fe391c3923bec73e23a9662efc9c229c6a00905090565b61127a611c4b565b61128381611c8b565b50565b61128e611c4b565b6112988282611d11565b5050565b6112a4611c4b565b565b6112ae611c4b565b565b6112bb848484611d4e565b6112c78484848461154a565b50505050565b60006112d76113a4565b905060008160000160009054906101000a900473ffffffffffffffffffffffffffffffffffffffff169050828260000160006101000a81548173ffffffffffffffffffffffffffffffffffffffff021916908373ffffffffffffffffffffffffffffffffffffffff1602179055508273ffffffffffffffffffffffffffffffffffffffff168173ffffffffffffffffffffffffffffffffffffffff167f8be0079c531659141344cd1fd0a4f28419497f9722a3daafe3b4186f6b6457e060405160405180910390a3505050565b60007f9016d09d72d40fdae2fd8ceac6b6234c7706214fd39c1cd1e609a0528c199300905090565b60006113d6610eba565b9050600073ffffffffffffffffffffffffffffffffffffffff168373ffffffffffffffffffffffffffffffffffffffff160361144957826040517f5b08ba180000000000000000000000000000000000000000000000000000000081526004016114409190612d3a565b60405180910390fd5b818160050160008673ffffffffffffffffffffffffffffffffffffffff1673ffffffffffffffffffffffffffffffffffffffff16815260200190815260200160002060008573ffffffffffffffffffffffffffffffffffffffff1673ffffffffffffffffffffffffffffffffffffffff16815260200190815260200160002060006101000a81548160ff0219169083151502179055508273ffffffffffffffffffffffffffffffffffffffff168473ffffffffffffffffffffffffffffffffffffffff167f17307eab39ab6107e8899845ad3d59bd9653f200f220920489ca2b5937696c318460405161153c9190612bc9565b60405180910390a350505050565b60008373ffffffffffffffffffffffffffffffffffffffff163b11156116fb578273ffffffffffffffffffffffffffffffffffffffff1663150b7a0261158e610fb5565b8685856040518563ffffffff1660e01b81526004016115b0949392919061374a565b6020604051808303816000875af19250505080156115ec57506040513d601f19601f820116820180604052508101906115e991906137ab565b60015b611670573d806000811461161c576040519150601f19603f3d011682016040523d82523d6000602084013e611621565b606091505b50600081510361166857836040517f64a0ae9200000000000000000000000000000000000000000000000000000000815260040161165f9190612d3a565b60405180910390fd5b805181602001fd5b63150b7a0260e01b7bffffffffffffffffffffffffffffffffffffffffffffffffffffffff1916817bffffffffffffffffffffffffffffffffffffffffffffffffffffffff1916146116f957836040517f64a0ae920000000000000000000000000000000000000000000000000000000081526004016116f09190612d3a565b60405180910390fd5b505b50505050565b6060600061170d611ebb565b905061171883610ee2565b506000816000016000858152602001908152602001600020805461173b906132b6565b80601f0160208091040260200160405190810160405280929190818152602001828054611767906132b6565b80156117b45780601f10611789576101008083540402835291602001916117b4565b820191906000526020600020905b81548152906001019060200180831161179757829003601f168201915b5050505050905060006117c5611ee3565b905060008151036117db57819350505050611820565b6000825111156118115780826040516020016117f8929190613814565b6040516020818303038152906040529350505050611820565b61181a85611efa565b93505050505b919050565b61183f828260405180602001604052806000815250611f63565b5050565b600061184d611ebb565b90508181600001600085815260200190815260200160002090816118719190613522565b507ff8e1a15aba9398e019f0b49df1a4fde98ee17ae345cb5f6b5e2c27f5033e8ce7836040516118a19190612dd0565b60405180910390a1505050565b6000634906490660e01b7bffffffffffffffffffffffffffffffffffffffffffffffffffffffff1916827bffffffffffffffffffffffffffffffffffffffffffffffffffffffff19161480611908575061190782611f7f565b5b9050919050565b60008061191a610eba565b905080600201600084815260200190815260200160002060009054906101000a900473ffffffffffffffffffffffffffffffffffffffff16915050919050565b6000611964610eba565b9050818061199f5750600073ffffffffffffffffffffffffffffffffffffffff168373ffffffffffffffffffffffffffffffffffffffff1614155b15611ad35760006119af85610ee2565b9050600073ffffffffffffffffffffffffffffffffffffffff168473ffffffffffffffffffffffffffffffffffffffff1614158015611a1a57508373ffffffffffffffffffffffffffffffffffffffff168173ffffffffffffffffffffffffffffffffffffffff1614155b8015611a2d5750611a2b8185610d18565b155b15611a6f57836040517fa9fbf51f000000000000000000000000000000000000000000000000000000008152600401611a669190612d3a565b60405180910390fd5b8215611ad157848673ffffffffffffffffffffffffffffffffffffffff168273ffffffffffffffffffffffffffffffffffffffff167f8c5be1e5ebec7d5bd14f71427d1e84f3dd0314c0f7b2291e5b200ac8c7c3b92560405160405180910390a45b505b8481600401600086815260200190815260200160002060006101000a81548173ffffffffffffffffffffffffffffffffffffffff021916908373ffffffffffffffffffffffffffffffffffffffff1602179055505050505050565b600080611b3c858585612061565b9050600073ffffffffffffffffffffffffffffffffffffffff168173ffffffffffffffffffffffffffffffffffffffff1603611b8057611b7b8461228e565b611bbf565b8473ffffffffffffffffffffffffffffffffffffffff168173ffffffffffffffffffffffffffffffffffffffff1614611bbe57611bbd81856122ea565b5b5b600073ffffffffffffffffffffffffffffffffffffffff168573ffffffffffffffffffffffffffffffffffffffff1603611c0157611bfc84612464565b611c40565b8473ffffffffffffffffffffffffffffffffffffffff168173ffffffffffffffffffffffffffffffffffffffff1614611c3f57611c3e8585612550565b5b5b809150509392505050565b611c536125ec565b611c89576040517fd7e6bcf800000000000000000000000000000000000000000000000000000000815260040160405180910390fd5b565b611c93611c4b565b600073ffffffffffffffffffffffffffffffffffffffff168173ffffffffffffffffffffffffffffffffffffffff1603611d055760006040517f1e4fbdf7000000000000000000000000000000000000000000000000000000008152600401611cfc9190612d3a565b60405180910390fd5b611d0e816112cd565b50565b611d19611c4b565b6000611d23610eba565b905082816000019081611d369190613522565b5081816001019081611d489190613522565b50505050565b600073ffffffffffffffffffffffffffffffffffffffff168273ffffffffffffffffffffffffffffffffffffffff1603611dc05760006040517f64a0ae92000000000000000000000000000000000000000000000000000000008152600401611db79190612d3a565b60405180910390fd5b6000611dce83836000610ff7565b9050600073ffffffffffffffffffffffffffffffffffffffff168173ffffffffffffffffffffffffffffffffffffffff1603611e4157816040517f7e273289000000000000000000000000000000000000000000000000000000008152600401611e389190612dd0565b60405180910390fd5b8373ffffffffffffffffffffffffffffffffffffffff168173ffffffffffffffffffffffffffffffffffffffff1614611eb5578382826040517f64283d7b000000000000000000000000000000000000000000000000000000008152600401611eac939291906132e7565b60405180910390fd5b50505050565b60007f0542a41881ee128a365a727b282c86fa859579490b9bb45aab8503648c8e7900905090565b606060405180602001604052806000815250905090565b6060611f0582610ee2565b506000611f10611ee3565b90506000815111611f305760405180602001604052806000815250611f5b565b80611f3a8461260c565b604051602001611f4b929190613814565b6040516020818303038152906040525b915050919050565b611f6d83836126da565b611f7a600084848461154a565b505050565b60007f80ac58cd000000000000000000000000000000000000000000000000000000007bffffffffffffffffffffffffffffffffffffffffffffffffffffffff1916827bffffffffffffffffffffffffffffffffffffffffffffffffffffffff1916148061204a57507f5b5e139f000000000000000000000000000000000000000000000000000000007bffffffffffffffffffffffffffffffffffffffffffffffffffffffff1916827bffffffffffffffffffffffffffffffffffffffffffffffffffffffff1916145b8061205a5750612059826127d3565b5b9050919050565b60008061206c610eba565b905060006120798561190f565b9050600073ffffffffffffffffffffffffffffffffffffffff168473ffffffffffffffffffffffffffffffffffffffff16146120bb576120ba81858761283d565b5b600073ffffffffffffffffffffffffffffffffffffffff168173ffffffffffffffffffffffffffffffffffffffff161461214e576120fd60008660008061195a565b60018260030160008373ffffffffffffffffffffffffffffffffffffffff1673ffffffffffffffffffffffffffffffffffffffff168152602001908152602001600020600082825403925050819055505b600073ffffffffffffffffffffffffffffffffffffffff168673ffffffffffffffffffffffffffffffffffffffff16146121d35760018260030160008873ffffffffffffffffffffffffffffffffffffffff1673ffffffffffffffffffffffffffffffffffffffff168152602001908152602001600020600082825401925050819055505b8582600201600087815260200190815260200160002060006101000a81548173ffffffffffffffffffffffffffffffffffffffff021916908373ffffffffffffffffffffffffffffffffffffffff160217905550848673ffffffffffffffffffffffffffffffffffffffff168273ffffffffffffffffffffffffffffffffffffffff167fddf252ad1be2c89b69c2b068fc378daa952ba7f163c4a11628f55a4df523b3ef60405160405180910390a480925050509392505050565b6000612298610fcf565b9050806002018054905081600301600084815260200190815260200160002081905550806002018290806001815401808255809150506001900390600052602060002001600090919091909150555050565b60006122f4610fcf565b9050600061230184610a4f565b905060008260010160008581526020019081526020016000205490508181146123ee5760008360000160008773ffffffffffffffffffffffffffffffffffffffff1673ffffffffffffffffffffffffffffffffffffffff1681526020019081526020016000206000848152602001908152602001600020549050808460000160008873ffffffffffffffffffffffffffffffffffffffff1673ffffffffffffffffffffffffffffffffffffffff1681526020019081526020016000206000848152602001908152602001600020819055508184600101600083815260200190815260200160002081905550505b826001016000858152602001908152602001600020600090558260000160008673ffffffffffffffffffffffffffffffffffffffff1673ffffffffffffffffffffffffffffffffffffffff1681526020019081526020016000206000838152602001908152602001600020600090555050505050565b600061246e610fcf565b905060006001826002018054905061248691906136c1565b9050600082600301600085815260200190815260200160002054905060008360020183815481106124ba576124b9613347565b5b90600052602060002001549050808460020183815481106124de576124dd613347565b5b90600052602060002001819055508184600301600083815260200190815260200160002081905550836003016000868152602001908152602001600020600090558360020180548061253357612532613838565b5b600190038181906000526020600020016000905590555050505050565b600061255a610fcf565b90506000600161256985610a4f565b61257391906136c1565b9050828260000160008673ffffffffffffffffffffffffffffffffffffffff1673ffffffffffffffffffffffffffffffffffffffff168152602001908152602001600020600083815260200190815260200160002081905550808260010160008581526020019081526020016000208190555050505050565b60006125f661124a565b60000160089054906101000a900460ff16905090565b60606000600161261b84612901565b01905060008167ffffffffffffffff81111561263a57612639612e48565b5b6040519080825280601f01601f19166020018201604052801561266c5781602001600182028036833780820191505090505b509050600082602001820190505b6001156126cf578080600190039150507f3031323334353637383961626364656600000000000000000000000000000000600a86061a8153600a85816126c3576126c2613867565b5b0494506000850361267a575b819350505050919050565b600073ffffffffffffffffffffffffffffffffffffffff168273ffffffffffffffffffffffffffffffffffffffff160361274c5760006040517f64a0ae920000000000000000000000000000000000000000000000000000000081526004016127439190612d3a565b60405180910390fd5b600061275a83836000610ff7565b9050600073ffffffffffffffffffffffffffffffffffffffff168173ffffffffffffffffffffffffffffffffffffffff16146127ce5760006040517f73c6ac6e0000000000000000000000000000000000000000000000000000000081526004016127c59190612d3a565b60405180910390fd5b505050565b60007f01ffc9a7000000000000000000000000000000000000000000000000000000007bffffffffffffffffffffffffffffffffffffffffffffffffffffffff1916827bffffffffffffffffffffffffffffffffffffffffffffffffffffffff1916149050919050565b612848838383612a54565b6128fc57600073ffffffffffffffffffffffffffffffffffffffff168373ffffffffffffffffffffffffffffffffffffffff16036128bd57806040517f7e2732890000000000000000000000000000000000000000000000000000000081526004016128b49190612dd0565b60405180910390fd5b81816040517f177e802f0000000000000000000000000000000000000000000000000000000081526004016128f392919061331e565b60405180910390fd5b505050565b600080600090507a184f03e93ff9f4daa797ed6e38ed64bf6a1f010000000000000000831061295f577a184f03e93ff9f4daa797ed6e38ed64bf6a1f010000000000000000838161295557612954613867565b5b0492506040810190505b6d04ee2d6d415b85acef8100000000831061299c576d04ee2d6d415b85acef8100000000838161299257612991613867565b5b0492506020810190505b662386f26fc1000083106129cb57662386f26fc1000083816129c1576129c0613867565b5b0492506010810190505b6305f5e10083106129f4576305f5e10083816129ea576129e9613867565b5b0492506008810190505b6127108310612a19576127108381612a0f57612a0e613867565b5b0492506004810190505b60648310612a3c5760648381612a3257612a31613867565b5b0492506002810190505b600a8310612a4b576001810190505b80915050919050565b60008073ffffffffffffffffffffffffffffffffffffffff168373ffffffffffffffffffffffffffffffffffffffff1614158015612b0c57508273ffffffffffffffffffffffffffffffffffffffff168473ffffffffffffffffffffffffffffffffffffffff161480612acd5750612acc8484610d18565b5b80612b0b57508273ffffffffffffffffffffffffffffffffffffffff16612af383610f6a565b73ffffffffffffffffffffffffffffffffffffffff16145b5b90509392505050565b6000604051905090565b600080fd5b600080fd5b60007fffffffff0000000000000000000000000000000000000000000000000000000082169050919050565b612b5e81612b29565b8114612b6957600080fd5b50565b600081359050612b7b81612b55565b92915050565b600060208284031215612b9757612b96612b1f565b5b6000612ba584828501612b6c565b91505092915050565b60008115159050919050565b612bc381612bae565b82525050565b6000602082019050612bde6000830184612bba565b92915050565b600081519050919050565b600082825260208201905092915050565b60005b83811015612c1e578082015181840152602081019050612c03565b60008484015250505050565b6000601f19601f8301169050919050565b6000612c4682612be4565b612c508185612bef565b9350612c60818560208601612c00565b612c6981612c2a565b840191505092915050565b60006020820190508181036000830152612c8e8184612c3b565b905092915050565b6000819050919050565b612ca981612c96565b8114612cb457600080fd5b50565b600081359050612cc681612ca0565b92915050565b600060208284031215612ce257612ce1612b1f565b5b6000612cf084828501612cb7565b91505092915050565b600073ffffffffffffffffffffffffffffffffffffffff82169050919050565b6000612d2482612cf9565b9050919050565b612d3481612d19565b82525050565b6000602082019050612d4f6000830184612d2b565b92915050565b612d5e81612d19565b8114612d6957600080fd5b50565b600081359050612d7b81612d55565b92915050565b60008060408385031215612d9857612d97612b1f565b5b6000612da685828601612d6c565b9250506020612db785828601612cb7565b9150509250929050565b612dca81612c96565b82525050565b6000602082019050612de56000830184612dc1565b92915050565b600080600060608486031215612e0457612e03612b1f565b5b6000612e1286828701612d6c565b9350506020612e2386828701612d6c565b9250506040612e3486828701612cb7565b9150509250925092565b600080fd5b600080fd5b7f4e487b7100000000000000000000000000000000000000000000000000000000600052604160045260246000fd5b612e8082612c2a565b810181811067ffffffffffffffff82111715612e9f57612e9e612e48565b5b80604052505050565b6000612eb2612b15565b9050612ebe8282612e77565b919050565b600067ffffffffffffffff821115612ede57612edd612e48565b5b612ee782612c2a565b9050602081019050919050565b82818337600083830152505050565b6000612f16612f1184612ec3565b612ea8565b905082815260208101848484011115612f3257612f31612e43565b5b612f3d848285612ef4565b509392505050565b600082601f830112612f5a57612f59612e3e565b5b8135612f6a848260208601612f03565b91505092915050565b60008060008060808587031215612f8d57612f8c612b1f565b5b6000612f9b87828801612d6c565b945050602085013567ffffffffffffffff811115612fbc57612fbb612b24565b5b612fc887828801612f45565b935050604085013567ffffffffffffffff811115612fe957612fe8612b24565b5b612ff587828801612f45565b925050606085013567ffffffffffffffff81111561301657613015612b24565b5b61302287828801612f45565b91505092959194509250565b60006020828403121561304457613043612b1f565b5b600061305284828501612d6c565b91505092915050565b61306481612bae565b811461306f57600080fd5b50565b6000813590506130818161305b565b92915050565b6000806040838503121561309e5761309d612b1f565b5b60006130ac85828601612d6c565b92505060206130bd85828601613072565b9150509250929050565b600067ffffffffffffffff8211156130e2576130e1612e48565b5b6130eb82612c2a565b9050602081019050919050565b600061310b613106846130c7565b612ea8565b90508281526020810184848401111561312757613126612e43565b5b613132848285612ef4565b509392505050565b600082601f83011261314f5761314e612e3e565b5b813561315f8482602086016130f8565b91505092915050565b6000806000806080858703121561318257613181612b1f565b5b600061319087828801612d6c565b94505060206131a187828801612d6c565b93505060406131b287828801612cb7565b925050606085013567ffffffffffffffff8111156131d3576131d2612b24565b5b6131df8782880161313a565b91505092959194509250565b6000806040838503121561320257613201612b1f565b5b600061321085828601612d6c565b925050602083013567ffffffffffffffff81111561323157613230612b24565b5b61323d85828601612f45565b9150509250929050565b6000806040838503121561325e5761325d612b1f565b5b600061326c85828601612d6c565b925050602061327d85828601612d6c565b9150509250929050565b7f4e487b7100000000000000000000000000000000000000000000000000000000600052602260045260246000fd5b600060028204905060018216806132ce57607f821691505b6020821081036132e1576132e0613287565b5b50919050565b60006060820190506132fc6000830186612d2b565b6133096020830185612dc1565b6133166040830184612d2b565b949350505050565b60006040820190506133336000830185612d2b565b6133406020830184612dc1565b9392505050565b7f4e487b7100000000000000000000000000000000000000000000000000000000600052603260045260246000fd5b60008190508160005260206000209050919050565b60006020601f8301049050919050565b600082821b905092915050565b6000600883026133d87fffffffffffffffffffffffffffffffffffffffffffffffffffffffffffffffff8261339b565b6133e2868361339b565b95508019841693508086168417925050509392505050565b6000819050919050565b600061341f61341a61341584612c96565b6133fa565b612c96565b9050919050565b6000819050919050565b61343983613404565b61344d61344582613426565b8484546133a8565b825550505050565b600090565b613462613455565b61346d818484613430565b505050565b5b818110156134915761348660008261345a565b600181019050613473565b5050565b601f8211156134d6576134a781613376565b6134b08461338b565b810160208510156134bf578190505b6134d36134cb8561338b565b830182613472565b50505b505050565b600082821c905092915050565b60006134f9600019846008026134db565b1980831691505092915050565b600061351283836134e8565b9150826002028217905092915050565b61352b82612be4565b67ffffffffffffffff81111561354457613543612e48565b5b61354e82546132b6565b613559828285613495565b600060209050601f83116001811461358c576000841561357a578287015190505b6135848582613506565b8655506135ec565b601f19841661359a86613376565b60005b828110156135c25784890151825560018201915060208501945060208101905061359d565b868310156135df57848901516135db601f8916826134e8565b8355505b6001600288020188555050505b505050505050565b6000819050919050565b600067ffffffffffffffff82169050919050565b600061362d613628613623846135f4565b6133fa565b6135fe565b9050919050565b61363d81613612565b82525050565b60006020820190506136586000830184613634565b92915050565b7f4e487b7100000000000000000000000000000000000000000000000000000000600052601160045260246000fd5b600061369882612c96565b91506136a383612c96565b92508282019050808211156136bb576136ba61365e565b5b92915050565b60006136cc82612c96565b91506136d783612c96565b92508282039050818111156136ef576136ee61365e565b5b92915050565b600081519050919050565b600082825260208201905092915050565b600061371c826136f5565b6137268185613700565b9350613736818560208601612c00565b61373f81612c2a565b840191505092915050565b600060808201905061375f6000830187612d2b565b61376c6020830186612d2b565b6137796040830185612dc1565b818103606083015261378b8184613711565b905095945050505050565b6000815190506137a581612b55565b92915050565b6000602082840312156137c1576137c0612b1f565b5b60006137cf84828501613796565b91505092915050565b600081905092915050565b60006137ee82612be4565b6137f881856137d8565b9350613808818560208601612c00565b80840191505092915050565b600061382082856137e3565b915061382c82846137e3565b91508190509392505050565b7f4e487b7100000000000000000000000000000000000000000000000000000000600052603160045260246000fd5b7f4e487b7100000000000000000000000000000000000000000000000000000000600052601260045260246000fdfea26469706673582212204c46f0e3ee1fcb0de2653f940f5ddb6dc6e7a99c9a0c4eee4b3b7a30cb5d36c564736f6c63430008180033",
  "linkReferences": {},
  "deployedLinkReferences": {}
}