{
  "_format": "hh-sol-artifact-1",
  "contractName": "GameNftFactory",
  "sourceName": "contracts/GameNftFactory.sol",
  "abi": [
    {
      "inputs": [],
      "stateMutability": "nonpayable",
      "type": "constructor"
    },
    {
      "inputs": [],
      "name": "ERC1167FailedCreateClone",
      "type": "error"
    },
    {
      "inputs": [],
      "name": "InvalidInitialization",
      "type": "error"
    },
    {
      "inputs": [],
      "name": "NotInitializing",
      "type": "error"
    },
    {
      "inputs": [
        {
          "internalType": "address",
          "name": "owner",
          "type": "address"
        }
      ],
      "name": "OwnableInvalidOwner",
      "type": "error"
    },
    {
      "inputs": [
        {
          "internalType": "address",
          "name": "account",
          "type": "address"
        }
      ],
      "name": "OwnableUnauthorizedAccount",
      "type": "error"
    },
    {
      "anonymous": false,
      "inputs": [
        {
          "indexed": false,
          "internalType": "uint64",
          "name": "version",
          "type": "uint64"
        }
      ],
      "name": "Initialized",
      "type": "event"
    },
    {
      "anonymous": false,
      "inputs": [
        {
          "indexed": true,
          "internalType": "address",
          "name": "nft",
          "type": "address"
        },
        {
          "indexed": false,
          "internalType": "string",
          "name": "gameId",
          "type": "string"
        },
        {
          "indexed": false,
          "internalType": "string",
          "name": "name",
          "type": "string"
        },
        {
          "indexed": false,
          "internalType": "string",
          "name": "symbol",
          "type": "string"
        }
      ],
      "name": "NftCreated",
      "type": "event"
    },
    {
      "anonymous": false,
      "inputs": [
        {
          "indexed": true,
          "internalType": "address",
          "name": "previousOwner",
          "type": "address"
        },
        {
          "indexed": true,
          "internalType": "address",
          "name": "newOwner",
          "type": "address"
        }
      ],
      "name": "OwnershipTransferred",
      "type": "event"
    },
    {
      "inputs": [
        {
          "internalType": "address[]",
          "name": "_nft",
          "type": "address[]"
        },
        {
          "internalType": "uint256[]",
          "name": "_tokenId",
          "type": "uint256[]"
        }
      ],
      "name": "batchBurn",
      "outputs": [],
      "stateMutability": "nonpayable",
      "type": "function"
    },
    {
      "inputs": [
        {
          "internalType": "address[]",
          "name": "_nft",
          "type": "address[]"
        },
        {
          "internalType": "uint256[]",
          "name": "_tokenId",
          "type": "uint256[]"
        }
      ],
      "name": "batchBurnRemote",
      "outputs": [],
      "stateMutability": "nonpayable",
      "type": "function"
    },
    {
      "inputs": [
        {
          "internalType": "address[]",
          "name": "_nft",
          "type": "address[]"
        },
        {
          "internalType": "address[]",
          "name": "_from",
          "type": "address[]"
        },
        {
          "internalType": "address[]",
          "name": "_to",
          "type": "address[]"
        },
        {
          "internalType": "uint256[]",
          "name": "_tokenId",
          "type": "uint256[]"
        }
      ],
      "name": "batchGameTransfer",
      "outputs": [],
      "stateMutability": "nonpayable",
      "type": "function"
    },
    {
      "inputs": [
        {
          "internalType": "address[]",
          "name": "_nft",
          "type": "address[]"
        },
        {
          "internalType": "address[]",
          "name": "_from",
          "type": "address[]"
        },
        {
          "internalType": "address[]",
          "name": "_to",
          "type": "address[]"
        },
        {
          "internalType": "uint256[]",
          "name": "_tokenId",
          "type": "uint256[]"
        }
      ],
      "name": "batchGameTransferRemote",
      "outputs": [],
      "stateMutability": "nonpayable",
      "type": "function"
    },
    {
      "inputs": [
        {
          "internalType": "address[]",
          "name": "_nft",
          "type": "address[]"
        },
        {
          "internalType": "address[]",
          "name": "_to",
          "type": "address[]"
        },
        {
          "internalType": "string[]",
          "name": "_tokenURI",
          "type": "string[]"
        }
      ],
      "name": "batchMint",
      "outputs": [],
      "stateMutability": "nonpayable",
      "type": "function"
    },
    {
      "inputs": [
        {
          "internalType": "address[]",
          "name": "_nft",
          "type": "address[]"
        },
        {
          "internalType": "address[]",
          "name": "_to",
          "type": "address[]"
        },
        {
          "internalType": "string[]",
          "name": "_tokenURI",
          "type": "string[]"
        }
      ],
      "name": "batchMintRemote",
      "outputs": [],
      "stateMutability": "nonpayable",
      "type": "function"
    },
    {
      "inputs": [
        {
          "internalType": "address",
          "name": "_nft",
          "type": "address"
        },
        {
          "internalType": "uint256",
          "name": "_tokenId",
          "type": "uint256"
        }
      ],
      "name": "burn",
      "outputs": [],
      "stateMutability": "nonpayable",
      "type": "function"
    },
    {
      "inputs": [
        {
          "internalType": "address",
          "name": "_implementation",
          "type": "address"
        }
      ],
      "name": "configNftImplementation",
      "outputs": [],
      "stateMutability": "nonpayable",
      "type": "function"
    },
    {
      "inputs": [
        {
          "internalType": "address",
          "name": "_operator",
          "type": "address"
        }
      ],
      "name": "configOperator",
      "outputs": [],
      "stateMutability": "nonpayable",
      "type": "function"
    },
    {
      "inputs": [
        {
          "internalType": "address",
          "name": "_relayer",
          "type": "address"
        }
      ],
      "name": "configRelayer",
      "outputs": [],
      "stateMutability": "nonpayable",
      "type": "function"
    },
    {
      "inputs": [
        {
          "internalType": "bytes32",
          "name": "_remoteBlockchainId",
          "type": "bytes32"
        }
      ],
      "name": "configRemoteBlockchainId",
      "outputs": [],
      "stateMutability": "nonpayable",
      "type": "function"
    },
    {
      "inputs": [
        {
          "internalType": "address",
          "name": "_remoteFactory",
          "type": "address"
        }
      ],
      "name": "configRemoteFactory",
      "outputs": [],
      "stateMutability": "nonpayable",
      "type": "function"
    },
    {
      "inputs": [
        {
          "internalType": "uint256",
          "name": "_remoteGasLimit",
          "type": "uint256"
        }
      ],
      "name": "configRemoteGasLimit",
      "outputs": [],
      "stateMutability": "nonpayable",
      "type": "function"
    },
    {
      "inputs": [
        {
          "internalType": "address",
          "name": "_teleporterMessenger",
          "type": "address"
        }
      ],
      "name": "configTeleporterMessenger",
      "outputs": [],
      "stateMutability": "nonpayable",
      "type": "function"
    },
    {
      "inputs": [
        {
          "internalType": "string",
          "name": "_gameId",
          "type": "string"
        },
        {
          "internalType": "string",
          "name": "_name",
          "type": "string"
        },
        {
          "internalType": "string",
          "name": "_symbol",
          "type": "string"
        }
      ],
      "name": "createNft",
      "outputs": [],
      "stateMutability": "nonpayable",
      "type": "function"
    },
    {
      "inputs": [
        {
          "internalType": "string",
          "name": "_gameId",
          "type": "string"
        },
        {
          "internalType": "string",
          "name": "_name",
          "type": "string"
        },
        {
          "internalType": "string",
          "name": "_symbol",
          "type": "string"
        }
      ],
      "name": "createNftRemote",
      "outputs": [],
      "stateMutability": "nonpayable",
      "type": "function"
    },
    {
      "inputs": [
        {
          "internalType": "address",
          "name": "_nft",
          "type": "address"
        },
        {
          "internalType": "address",
          "name": "_from",
          "type": "address"
        },
        {
          "internalType": "address",
          "name": "_to",
          "type": "address"
        },
        {
          "internalType": "uint256",
          "name": "_tokenId",
          "type": "uint256"
        }
      ],
      "name": "gameTransfer",
      "outputs": [],
      "stateMutability": "nonpayable",
      "type": "function"
    },
    {
      "inputs": [
        {
          "internalType": "address",
          "name": "_implementation",
          "type": "address"
        },
        {
          "internalType": "address",
          "name": "_owner",
          "type": "address"
        },
        {
          "internalType": "address",
          "name": "_operator",
          "type": "address"
        }
      ],
      "name": "initialize",
      "outputs": [],
      "stateMutability": "nonpayable",
      "type": "function"
    },
    {
      "inputs": [
        {
          "internalType": "address",
          "name": "_nft",
          "type": "address"
        },
        {
          "internalType": "address",
          "name": "_to",
          "type": "address"
        },
        {
          "internalType": "string",
          "name": "_tokenURI",
          "type": "string"
        }
      ],
      "name": "mint",
      "outputs": [],
      "stateMutability": "nonpayable",
      "type": "function"
    },
    {
      "inputs": [
        {
          "internalType": "address",
          "name": "",
          "type": "address"
        }
      ],
      "name": "nftGameId",
      "outputs": [
        {
          "internalType": "string",
          "name": "",
          "type": "string"
        }
      ],
      "stateMutability": "view",
      "type": "function"
    },
    {
      "inputs": [
        {
          "internalType": "address",
          "name": "_nft",
          "type": "address"
        }
      ],
      "name": "nftHolderCount",
      "outputs": [
        {
          "internalType": "uint256",
          "name": "",
          "type": "uint256"
        }
      ],
      "stateMutability": "view",
      "type": "function"
    },
    {
      "inputs": [],
      "name": "nftImplementation",
      "outputs": [
        {
          "internalType": "address",
          "name": "",
          "type": "address"
        }
      ],
      "stateMutability": "view",
      "type": "function"
    },
    {
      "inputs": [
        {
          "internalType": "address",
          "name": "_nft",
          "type": "address"
        }
      ],
      "name": "nftInfo",
      "outputs": [
        {
          "internalType": "address",
          "name": "tokenAddress",
          "type": "address"
        },
        {
          "internalType": "string",
          "name": "gameId",
          "type": "string"
        },
        {
          "internalType": "string",
          "name": "name",
          "type": "string"
        },
        {
          "internalType": "string",
          "name": "symbol",
          "type": "string"
        },
        {
          "internalType": "uint256",
          "name": "totalSupply",
          "type": "uint256"
        },
        {
          "internalType": "uint256",
          "name": "holderCount",
          "type": "uint256"
        }
      ],
      "stateMutability": "view",
      "type": "function"
    },
    {
      "inputs": [
        {
          "internalType": "uint256",
          "name": "",
          "type": "uint256"
        }
      ],
      "name": "nfts",
      "outputs": [
        {
          "internalType": "address",
          "name": "",
          "type": "address"
        }
      ],
      "stateMutability": "view",
      "type": "function"
    },
    {
      "inputs": [],
      "name": "operator",
      "outputs": [
        {
          "internalType": "address",
          "name": "",
          "type": "address"
        }
      ],
      "stateMutability": "view",
      "type": "function"
    },
    {
      "inputs": [],
      "name": "owner",
      "outputs": [
        {
          "internalType": "address",
          "name": "",
          "type": "address"
        }
      ],
      "stateMutability": "view",
      "type": "function"
    },
    {
      "inputs": [
        {
          "internalType": "bytes32",
          "name": "sourceBlockchainID",
          "type": "bytes32"
        },
        {
          "internalType": "address",
          "name": "originSenderAddress",
          "type": "address"
        },
        {
          "internalType": "bytes",
          "name": "message",
          "type": "bytes"
        }
      ],
      "name": "receiveTeleporterMessage",
      "outputs": [],
      "stateMutability": "nonpayable",
      "type": "function"
    },
    {
      "inputs": [],
      "name": "relayer",
      "outputs": [
        {
          "internalType": "address",
          "name": "",
          "type": "address"
        }
      ],
      "stateMutability": "view",
      "type": "function"
    },
    {
      "inputs": [],
      "name": "remoteBlockchainId",
      "outputs": [
        {
          "internalType": "bytes32",
          "name": "",
          "type": "bytes32"
        }
      ],
      "stateMutability": "view",
      "type": "function"
    },
    {
      "inputs": [],
      "name": "remoteFactory",
      "outputs": [
        {
          "internalType": "address",
          "name": "",
          "type": "address"
        }
      ],
      "stateMutability": "view",
      "type": "function"
    },
    {
      "inputs": [],
      "name": "remoteGasLimit",
      "outputs": [
        {
          "internalType": "uint256",
          "name": "",
          "type": "uint256"
        }
      ],
      "stateMutability": "view",
      "type": "function"
    },
    {
      "inputs": [],
      "name": "renounceOwnership",
      "outputs": [],
      "stateMutability": "nonpayable",
      "type": "function"
    },
    {
      "inputs": [],
      "name": "teleporterMessenger",
      "outputs": [
        {
          "internalType": "contract ITeleporterMessenger",
          "name": "",
          "type": "address"
        }
      ],
      "stateMutability": "view",
      "type": "function"
    },
    {
      "inputs": [],
      "name": "totalNftCount",
      "outputs": [
        {
          "internalType": "uint256",
          "name": "",
          "type": "uint256"
        }
      ],
      "stateMutability": "view",
      "type": "function"
    },
    {
      "inputs": [
        {
          "internalType": "address",
          "name": "newOwner",
          "type": "address"
        }
      ],
      "name": "transferOwnership",
      "outputs": [],
      "stateMutability": "nonpayable",
      "type": "function"
    }
  ],
  "bytecode": "0x60806040523480156200001157600080fd5b50620000226200002860201b60201c565b6200019c565b60006200003a6200013260201b60201c565b90508060000160089054906101000a900460ff161562000086576040517ff92ee8a900000000000000000000000000000000000000000000000000000000815260040160405180910390fd5b67ffffffffffffffff80168160000160009054906101000a900467ffffffffffffffff1667ffffffffffffffff16146200012f5767ffffffffffffffff8160000160006101000a81548167ffffffffffffffff021916908367ffffffffffffffff1602179055507fc7f505b2f371ae2175ee4913f4499e1f2633a7b5936321eed1cdaeb6115181d267ffffffffffffffff6040516200012691906200017f565b60405180910390a15b50565b60007ff0c57e16840df040f15088dc2f81fe391c3923bec73e23a9662efc9c229c6a00905090565b600067ffffffffffffffff82169050919050565b62000179816200015a565b82525050565b60006020820190506200019660008301846200016e565b92915050565b614b7480620001ac6000396000f3fe608060405234801561001057600080fd5b50600436106102115760003560e01c80637b4d9c2b11610125578063c0aa7128116100ad578063ea8ebd9e1161007c578063ea8ebd9e1461059b578063eaba0d51146105cb578063f2fde38b146105e7578063f61ac58b14610603578063fb78a1a91461062157610211565b8063c0aa712814610512578063c0c53b8b1461052e578063c868efaa1461054a578063e9545b921461056657610211565b80638ee65a94116100f45780638ee65a941461048257806393c85fea146104a05780639b3e5803146104bc5780639dc29fac146104da578063b983ab00146104f657610211565b80637b4d9c2b146103fa5780638406c079146104165780638b0cb500146104345780638da5cb5b1461046457610211565b8063376deb36116101a85780634ccd8cad116101775780634ccd8cad1461037e578063570ca7351461039a5780635cb3fd3b146103b85780636c6360a7146103d4578063715018a6146103f057610211565b8063376deb361461030c578063399733f314610328578063497a9850146103465780634a6cc6771461036257610211565b8063221375a6116101e4578063221375a614610286578063265aa621146102a2578063272ff9c0146102d2578063306e4b17146102f057610211565b80630fffc9731461021657806311aa1b911461023257806315ae1ee21461024e57806317db146e1461026a575b600080fd5b610230600480360381019061022b9190612e40565b61063f565b005b61024c60048036038101906102479190612e40565b61091e565b005b61026860048036038101906102639190612fe0565b6109be565b005b610284600480360381019061027f91906130ed565b610a60565b005b6102a0600480360381019061029b919061311a565b610a72565b005b6102bc60048036038101906102b79190613189565b610b86565b6040516102c991906131c5565b60405180910390f35b6102da610bb9565b6040516102e791906131ef565b60405180910390f35b61030a60048036038101906103059190612fe0565b610bbf565b005b6103266004803603810190610321919061320a565b610ea1565b005b610330610eed565b60405161033d9190613246565b60405180910390f35b610360600480360381019061035b9190613261565b610ef3565b005b61037c60048036038101906103779190613308565b610f93565b005b6103986004803603810190610393919061320a565b611031565b005b6103a261107c565b6040516103af91906131c5565b60405180910390f35b6103d260048036038101906103cd9190613189565b6110a2565b005b6103ee60048036038101906103e99190613261565b6110b4565b005b6103f8611392565b005b610414600480360381019061040f919061320a565b6113a6565b005b61041e6113f2565b60405161042b91906131c5565b60405180910390f35b61044e6004803603810190610449919061320a565b611418565b60405161045b91906133ff565b60405180910390f35b61046c6114b8565b60405161047991906131c5565b60405180910390f35b61048a6114f0565b60405161049791906131ef565b60405180910390f35b6104ba60048036038101906104b59190613421565b6114f6565b005b6104c46115fb565b6040516104d191906134e7565b60405180910390f35b6104f460048036038101906104ef9190613502565b611621565b005b610510600480360381019061050b9190613308565b611720565b005b61052c6004803603810190610527919061320a565b6119fc565b005b61054860048036038101906105439190613542565b611a48565b005b610564600480360381019061055f91906135f0565b611c5a565b005b610580600480360381019061057b919061320a565b611f51565b60405161059296959493929190613664565b60405180910390f35b6105b560048036038101906105b0919061320a565b61219c565b6040516105c291906131ef565b60405180910390f35b6105e560048036038101906105e0919061320a565b612214565b005b61060160048036038101906105fc919061320a565b612260565b005b61060b6122e6565b60405161061891906131c5565b60405180910390f35b61062961230a565b60405161063691906131c5565b60405180910390f35b600160009054906101000a900473ffffffffffffffffffffffffffffffffffffffff1673ffffffffffffffffffffffffffffffffffffffff163373ffffffffffffffffffffffffffffffffffffffff16146106cf576040517f08c379a00000000000000000000000000000000000000000000000000000000081526004016106c69061374c565b60405180910390fd5b60008383836040516020016106e693929190613936565b6040516020818303038152906040529050600060018260405160200161070d929190613a4e565b60405160208183030381529060405290506000600167ffffffffffffffff81111561073b5761073a612b09565b5b6040519080825280602002602001820160405280156107695781602001602082028036833780820191505090505b509050600660009054906101000a900473ffffffffffffffffffffffffffffffffffffffff16816000815181106107a3576107a2613a7e565b5b602002602001019073ffffffffffffffffffffffffffffffffffffffff16908173ffffffffffffffffffffffffffffffffffffffff168152505060006040518060c001604052806008548152602001600760009054906101000a900473ffffffffffffffffffffffffffffffffffffffff1673ffffffffffffffffffffffffffffffffffffffff1681526020016040518060400160405280600073ffffffffffffffffffffffffffffffffffffffff168152602001600081525081526020016009548152602001838152602001848152509050600560009054906101000a900473ffffffffffffffffffffffffffffffffffffffff1673ffffffffffffffffffffffffffffffffffffffff166362448850826040518263ffffffff1660e01b81526004016108d19190613c43565b6020604051808303816000875af11580156108f0573d6000803e3d6000fd5b505050506040513d601f19601f820116820180604052508101906109149190613c7a565b5050505050505050565b600160009054906101000a900473ffffffffffffffffffffffffffffffffffffffff1673ffffffffffffffffffffffffffffffffffffffff163373ffffffffffffffffffffffffffffffffffffffff16146109ae576040517f08c379a00000000000000000000000000000000000000000000000000000000081526004016109a59061374c565b60405180910390fd5b6109b9838383612330565b505050565b600160009054906101000a900473ffffffffffffffffffffffffffffffffffffffff1673ffffffffffffffffffffffffffffffffffffffff163373ffffffffffffffffffffffffffffffffffffffff1614610a4e576040517f08c379a0000000000000000000000000000000000000000000000000000000008152600401610a459061374c565b60405180910390fd5b610a5a8484848461241c565b50505050565b610a68612513565b8060088190555050565b600160009054906101000a900473ffffffffffffffffffffffffffffffffffffffff1673ffffffffffffffffffffffffffffffffffffffff163373ffffffffffffffffffffffffffffffffffffffff1614610b02576040517f08c379a0000000000000000000000000000000000000000000000000000000008152600401610af99061374c565b60405180910390fd5b8273ffffffffffffffffffffffffffffffffffffffff1663d0def52183836040518363ffffffff1660e01b8152600401610b3d929190613ca7565b6020604051808303816000875af1158015610b5c573d6000803e3d6000fd5b505050506040513d601f19601f82011682018060405250810190610b809190613cec565b50505050565b60046020528060005260406000206000915054906101000a900473ffffffffffffffffffffffffffffffffffffffff1681565b60025481565b600160009054906101000a900473ffffffffffffffffffffffffffffffffffffffff1673ffffffffffffffffffffffffffffffffffffffff163373ffffffffffffffffffffffffffffffffffffffff1614610c4f576040517f08c379a0000000000000000000000000000000000000000000000000000000008152600401610c469061374c565b60405180910390fd5b600084848484604051602001610c689493929190613dc8565b60405160208183030381529060405290506000600382604051602001610c8f929190613a4e565b60405160208183030381529060405290506000600167ffffffffffffffff811115610cbd57610cbc612b09565b5b604051908082528060200260200182016040528015610ceb5781602001602082028036833780820191505090505b509050600660009054906101000a900473ffffffffffffffffffffffffffffffffffffffff1681600081518110610d2557610d24613a7e565b5b602002602001019073ffffffffffffffffffffffffffffffffffffffff16908173ffffffffffffffffffffffffffffffffffffffff168152505060006040518060c001604052806008548152602001600760009054906101000a900473ffffffffffffffffffffffffffffffffffffffff1673ffffffffffffffffffffffffffffffffffffffff1681526020016040518060400160405280600073ffffffffffffffffffffffffffffffffffffffff168152602001600081525081526020016009548152602001838152602001848152509050600560009054906101000a900473ffffffffffffffffffffffffffffffffffffffff1673ffffffffffffffffffffffffffffffffffffffff166362448850826040518263ffffffff1660e01b8152600401610e539190613c43565b6020604051808303816000875af1158015610e72573d6000803e3d6000fd5b505050506040513d601f19601f82011682018060405250810190610e969190613c7a565b505050505050505050565b610ea9612513565b80600760006101000a81548173ffffffffffffffffffffffffffffffffffffffff021916908373ffffffffffffffffffffffffffffffffffffffff16021790555050565b60085481565b600160009054906101000a900473ffffffffffffffffffffffffffffffffffffffff1673ffffffffffffffffffffffffffffffffffffffff163373ffffffffffffffffffffffffffffffffffffffff1614610f83576040517f08c379a0000000000000000000000000000000000000000000000000000000008152600401610f7a9061374c565b60405180910390fd5b610f8e83838361259a565b505050565b600160009054906101000a900473ffffffffffffffffffffffffffffffffffffffff1673ffffffffffffffffffffffffffffffffffffffff163373ffffffffffffffffffffffffffffffffffffffff1614611023576040517f08c379a000000000000000000000000000000000000000000000000000000000815260040161101a9061374c565b60405180910390fd5b61102d8282612748565b5050565b611039612513565b806000806101000a81548173ffffffffffffffffffffffffffffffffffffffff021916908373ffffffffffffffffffffffffffffffffffffffff16021790555050565b600160009054906101000a900473ffffffffffffffffffffffffffffffffffffffff1681565b6110aa612513565b8060098190555050565b600160009054906101000a900473ffffffffffffffffffffffffffffffffffffffff1673ffffffffffffffffffffffffffffffffffffffff163373ffffffffffffffffffffffffffffffffffffffff1614611144576040517f08c379a000000000000000000000000000000000000000000000000000000000815260040161113b9061374c565b60405180910390fd5b600083838360405160200161115b93929190613e29565b604051602081830303815290604052905060008082604051602001611181929190613a4e565b60405160208183030381529060405290506000600167ffffffffffffffff8111156111af576111ae612b09565b5b6040519080825280602002602001820160405280156111dd5781602001602082028036833780820191505090505b509050600660009054906101000a900473ffffffffffffffffffffffffffffffffffffffff168160008151811061121757611216613a7e565b5b602002602001019073ffffffffffffffffffffffffffffffffffffffff16908173ffffffffffffffffffffffffffffffffffffffff168152505060006040518060c001604052806008548152602001600760009054906101000a900473ffffffffffffffffffffffffffffffffffffffff1673ffffffffffffffffffffffffffffffffffffffff1681526020016040518060400160405280600073ffffffffffffffffffffffffffffffffffffffff168152602001600081525081526020016009548152602001838152602001848152509050600560009054906101000a900473ffffffffffffffffffffffffffffffffffffffff1673ffffffffffffffffffffffffffffffffffffffff166362448850826040518263ffffffff1660e01b81526004016113459190613c43565b6020604051808303816000875af1158015611364573d6000803e3d6000fd5b505050506040513d601f19601f820116820180604052508101906113889190613c7a565b5050505050505050565b61139a612513565b6113a46000612805565b565b6113ae612513565b80600560006101000a81548173ffffffffffffffffffffffffffffffffffffffff021916908373ffffffffffffffffffffffffffffffffffffffff16021790555050565b600660009054906101000a900473ffffffffffffffffffffffffffffffffffffffff1681565b6003602052806000526040600020600091509050805461143790613ea4565b80601f016020809104026020016040519081016040528092919081815260200182805461146390613ea4565b80156114b05780601f10611485576101008083540402835291602001916114b0565b820191906000526020600020905b81548152906001019060200180831161149357829003601f168201915b505050505081565b6000806114c36128dc565b90508060000160009054906101000a900473ffffffffffffffffffffffffffffffffffffffff1691505090565b60095481565b600160009054906101000a900473ffffffffffffffffffffffffffffffffffffffff1673ffffffffffffffffffffffffffffffffffffffff163373ffffffffffffffffffffffffffffffffffffffff1614611586576040517f08c379a000000000000000000000000000000000000000000000000000000000815260040161157d9061374c565b60405180910390fd5b8373ffffffffffffffffffffffffffffffffffffffff166362252bc38484846040518463ffffffff1660e01b81526004016115c393929190613ed5565b600060405180830381600087803b1580156115dd57600080fd5b505af11580156115f1573d6000803e3d6000fd5b5050505050505050565b600560009054906101000a900473ffffffffffffffffffffffffffffffffffffffff1681565b600160009054906101000a900473ffffffffffffffffffffffffffffffffffffffff1673ffffffffffffffffffffffffffffffffffffffff163373ffffffffffffffffffffffffffffffffffffffff16146116b1576040517f08c379a00000000000000000000000000000000000000000000000000000000081526004016116a89061374c565b60405180910390fd5b8173ffffffffffffffffffffffffffffffffffffffff166342966c68826040518263ffffffff1660e01b81526004016116ea91906131ef565b600060405180830381600087803b15801561170457600080fd5b505af1158015611718573d6000803e3d6000fd5b505050505050565b600160009054906101000a900473ffffffffffffffffffffffffffffffffffffffff1673ffffffffffffffffffffffffffffffffffffffff163373ffffffffffffffffffffffffffffffffffffffff16146117b0576040517f08c379a00000000000000000000000000000000000000000000000000000000081526004016117a79061374c565b60405180910390fd5b600082826040516020016117c5929190613f0c565b604051602081830303815290604052905060006002826040516020016117ec929190613a4e565b60405160208183030381529060405290506000600167ffffffffffffffff81111561181a57611819612b09565b5b6040519080825280602002602001820160405280156118485781602001602082028036833780820191505090505b509050600660009054906101000a900473ffffffffffffffffffffffffffffffffffffffff168160008151811061188257611881613a7e565b5b602002602001019073ffffffffffffffffffffffffffffffffffffffff16908173ffffffffffffffffffffffffffffffffffffffff168152505060006040518060c001604052806008548152602001600760009054906101000a900473ffffffffffffffffffffffffffffffffffffffff1673ffffffffffffffffffffffffffffffffffffffff1681526020016040518060400160405280600073ffffffffffffffffffffffffffffffffffffffff168152602001600081525081526020016009548152602001838152602001848152509050600560009054906101000a900473ffffffffffffffffffffffffffffffffffffffff1673ffffffffffffffffffffffffffffffffffffffff166362448850826040518263ffffffff1660e01b81526004016119b09190613c43565b6020604051808303816000875af11580156119cf573d6000803e3d6000fd5b505050506040513d601f19601f820116820180604052508101906119f39190613c7a565b50505050505050565b611a04612513565b80600160006101000a81548173ffffffffffffffffffffffffffffffffffffffff021916908373ffffffffffffffffffffffffffffffffffffffff16021790555050565b6000611a52612904565b905060008160000160089054906101000a900460ff1615905060008260000160009054906101000a900467ffffffffffffffff1690506000808267ffffffffffffffff16148015611aa05750825b9050600060018367ffffffffffffffff16148015611ad5575060003073ffffffffffffffffffffffffffffffffffffffff163b145b905081158015611ae3575080155b15611b1a576040517ff92ee8a900000000000000000000000000000000000000000000000000000000815260040160405180910390fd5b60018560000160006101000a81548167ffffffffffffffff021916908367ffffffffffffffff1602179055508315611b6a5760018560000160086101000a81548160ff0219169083151502179055505b611b738761292c565b876000806101000a81548173ffffffffffffffffffffffffffffffffffffffff021916908373ffffffffffffffffffffffffffffffffffffffff16021790555085600160006101000a81548173ffffffffffffffffffffffffffffffffffffffff021916908373ffffffffffffffffffffffffffffffffffffffff1602179055508315611c505760008560000160086101000a81548160ff0219169083151502179055507fc7f505b2f371ae2175ee4913f4499e1f2633a7b5936321eed1cdaeb6115181d26001604051611c479190613f92565b60405180910390a15b5050505050505050565b600560009054906101000a900473ffffffffffffffffffffffffffffffffffffffff1673ffffffffffffffffffffffffffffffffffffffff163373ffffffffffffffffffffffffffffffffffffffff1614611cea576040517f08c379a0000000000000000000000000000000000000000000000000000000008152600401611ce19061401f565b60405180910390fd5b600760009054906101000a900473ffffffffffffffffffffffffffffffffffffffff1673ffffffffffffffffffffffffffffffffffffffff168373ffffffffffffffffffffffffffffffffffffffff1614611d7a576040517f08c379a0000000000000000000000000000000000000000000000000000000008152600401611d71906140b1565b60405180910390fd5b6008548414611dbe576040517f08c379a0000000000000000000000000000000000000000000000000000000008152600401611db590614169565b60405180910390fd5b6000808383810190611dd0919061424f565b9150915060006003811115611de857611de7613982565b5b826003811115611dfb57611dfa613982565b5b03611e3257600080600083806020019051810190611e19919061431b565b925092509250611e2a83838361259a565b505050611f49565b60016003811115611e4657611e45613982565b5b826003811115611e5957611e58613982565b5b03611e9057600080600083806020019051810190611e779190614523565b925092509250611e88838383612330565b505050611f48565b60026003811115611ea457611ea3613982565b5b826003811115611eb757611eb6613982565b5b03611ee85760008082806020019051810190611ed39190614661565b91509150611ee18282612748565b5050611f47565b600380811115611efb57611efa613982565b5b826003811115611f0e57611f0d613982565b5b03611f465760008060008084806020019051810190611f2d91906146d9565b9350935093509350611f418484848461241c565b505050505b5b5b5b505050505050565b6000606080606060008086600360008973ffffffffffffffffffffffffffffffffffffffff1673ffffffffffffffffffffffffffffffffffffffff1681526020019081526020016000208873ffffffffffffffffffffffffffffffffffffffff166306fdde036040518163ffffffff1660e01b8152600401600060405180830381865afa158015611fe6573d6000803e3d6000fd5b505050506040513d6000823e3d601f19601f8201168201806040525081019061200f91906147b0565b8973ffffffffffffffffffffffffffffffffffffffff166395d89b416040518163ffffffff1660e01b8152600401600060405180830381865afa15801561205a573d6000803e3d6000fd5b505050506040513d6000823e3d601f19601f8201168201806040525081019061208391906147b0565b8a73ffffffffffffffffffffffffffffffffffffffff166318160ddd6040518163ffffffff1660e01b8152600401602060405180830381865afa1580156120ce573d6000803e3d6000fd5b505050506040513d601f19601f820116820180604052508101906120f29190613cec565b6120fb8c61219c565b84805461210790613ea4565b80601f016020809104026020016040519081016040528092919081815260200182805461213390613ea4565b80156121805780601f1061215557610100808354040283529160200191612180565b820191906000526020600020905b81548152906001019060200180831161216357829003601f168201915b5050505050945095509550955095509550955091939550919395565b60008173ffffffffffffffffffffffffffffffffffffffff16631aab9a9f6040518163ffffffff1660e01b8152600401602060405180830381865afa1580156121e9573d6000803e3d6000fd5b505050506040513d601f19601f8201168201806040525081019061220d9190613cec565b9050919050565b61221c612513565b80600660006101000a81548173ffffffffffffffffffffffffffffffffffffffff021916908373ffffffffffffffffffffffffffffffffffffffff16021790555050565b612268612513565b600073ffffffffffffffffffffffffffffffffffffffff168173ffffffffffffffffffffffffffffffffffffffff16036122da5760006040517f1e4fbdf70000000000000000000000000000000000000000000000000000000081526004016122d191906131c5565b60405180910390fd5b6122e381612805565b50565b60008054906101000a900473ffffffffffffffffffffffffffffffffffffffff1681565b600760009054906101000a900473ffffffffffffffffffffffffffffffffffffffff1681565b60005b82518110156124165783818151811061234f5761234e613a7e565b5b602002602001015173ffffffffffffffffffffffffffffffffffffffff1663d0def52184838151811061238557612384613a7e565b5b60200260200101518484815181106123a05761239f613a7e565b5b60200260200101516040518363ffffffff1660e01b81526004016123c5929190613ca7565b6020604051808303816000875af11580156123e4573d6000803e3d6000fd5b505050506040513d601f19601f820116820180604052508101906124089190613cec565b508080600101915050612333565b50505050565b60005b835181101561250c5784818151811061243b5761243a613a7e565b5b602002602001015173ffffffffffffffffffffffffffffffffffffffff166362252bc385838151811061247157612470613a7e565b5b602002602001015185848151811061248c5761248b613a7e565b5b60200260200101518585815181106124a7576124a6613a7e565b5b60200260200101516040518463ffffffff1660e01b81526004016124cd93929190613ed5565b600060405180830381600087803b1580156124e757600080fd5b505af11580156124fb573d6000803e3d6000fd5b50505050808060010191505061241f565b5050505050565b61251b612940565b73ffffffffffffffffffffffffffffffffffffffff166125396114b8565b73ffffffffffffffffffffffffffffffffffffffff16146125985761255c612940565b6040517f118cdaa700000000000000000000000000000000000000000000000000000000815260040161258f91906131c5565b60405180910390fd5b565b60006125c560008054906101000a900473ffffffffffffffffffffffffffffffffffffffff16612948565b90508073ffffffffffffffffffffffffffffffffffffffff16635f1e6f6d308686866040518563ffffffff1660e01b815260040161260694939291906147f9565b600060405180830381600087803b15801561262057600080fd5b505af1158015612634573d6000803e3d6000fd5b5050505083600360008373ffffffffffffffffffffffffffffffffffffffff1673ffffffffffffffffffffffffffffffffffffffff168152602001908152602001600020908161268491906149f5565b508060046000600254815260200190815260200160002060006101000a81548173ffffffffffffffffffffffffffffffffffffffff021916908373ffffffffffffffffffffffffffffffffffffffff160217905550600260008154809291906126ec90614af6565b91905055508073ffffffffffffffffffffffffffffffffffffffff167e5ad40373f668511e6848a118f38257396030432f57785a69a98403f1ece64085858560405161273a93929190613e29565b60405180910390a250505050565b60005b82518110156128005782818151811061276757612766613a7e565b5b602002602001015173ffffffffffffffffffffffffffffffffffffffff166342966c6883838151811061279d5761279c613a7e565b5b60200260200101516040518263ffffffff1660e01b81526004016127c191906131ef565b600060405180830381600087803b1580156127db57600080fd5b505af11580156127ef573d6000803e3d6000fd5b50505050808060010191505061274b565b505050565b600061280f6128dc565b905060008160000160009054906101000a900473ffffffffffffffffffffffffffffffffffffffff169050828260000160006101000a81548173ffffffffffffffffffffffffffffffffffffffff021916908373ffffffffffffffffffffffffffffffffffffffff1602179055508273ffffffffffffffffffffffffffffffffffffffff168173ffffffffffffffffffffffffffffffffffffffff167f8be0079c531659141344cd1fd0a4f28419497f9722a3daafe3b4186f6b6457e060405160405180910390a3505050565b60007f9016d09d72d40fdae2fd8ceac6b6234c7706214fd39c1cd1e609a0528c199300905090565b60007ff0c57e16840df040f15088dc2f81fe391c3923bec73e23a9662efc9c229c6a00905090565b6129346129f9565b61293d81612a39565b50565b600033905090565b6000763d602d80600a3d3981f3363d3d373d3d3d363d730000008260601b60e81c176000526e5af43d82803e903d91602b57fd5bf38260781b17602052603760096000f09050600073ffffffffffffffffffffffffffffffffffffffff168173ffffffffffffffffffffffffffffffffffffffff16036129f4576040517fc2f868f400000000000000000000000000000000000000000000000000000000815260040160405180910390fd5b919050565b612a01612abf565b612a37576040517fd7e6bcf800000000000000000000000000000000000000000000000000000000815260040160405180910390fd5b565b612a416129f9565b600073ffffffffffffffffffffffffffffffffffffffff168173ffffffffffffffffffffffffffffffffffffffff1603612ab35760006040517f1e4fbdf7000000000000000000000000000000000000000000000000000000008152600401612aaa91906131c5565b60405180910390fd5b612abc81612805565b50565b6000612ac9612904565b60000160089054906101000a900460ff16905090565b6000604051905090565b600080fd5b600080fd5b600080fd5b6000601f19601f8301169050919050565b7f4e487b7100000000000000000000000000000000000000000000000000000000600052604160045260246000fd5b612b4182612af8565b810181811067ffffffffffffffff82111715612b6057612b5f612b09565b5b80604052505050565b6000612b73612adf565b9050612b7f8282612b38565b919050565b600067ffffffffffffffff821115612b9f57612b9e612b09565b5b602082029050602081019050919050565b600080fd5b600073ffffffffffffffffffffffffffffffffffffffff82169050919050565b6000612be082612bb5565b9050919050565b612bf081612bd5565b8114612bfb57600080fd5b50565b600081359050612c0d81612be7565b92915050565b6000612c26612c2184612b84565b612b69565b90508083825260208201905060208402830185811115612c4957612c48612bb0565b5b835b81811015612c725780612c5e8882612bfe565b845260208401935050602081019050612c4b565b5050509392505050565b600082601f830112612c9157612c90612af3565b5b8135612ca1848260208601612c13565b91505092915050565b600067ffffffffffffffff821115612cc557612cc4612b09565b5b602082029050602081019050919050565b600080fd5b600067ffffffffffffffff821115612cf657612cf5612b09565b5b612cff82612af8565b9050602081019050919050565b82818337600083830152505050565b6000612d2e612d2984612cdb565b612b69565b905082815260208101848484011115612d4a57612d49612cd6565b5b612d55848285612d0c565b509392505050565b600082601f830112612d7257612d71612af3565b5b8135612d82848260208601612d1b565b91505092915050565b6000612d9e612d9984612caa565b612b69565b90508083825260208201905060208402830185811115612dc157612dc0612bb0565b5b835b81811015612e0857803567ffffffffffffffff811115612de657612de5612af3565b5b808601612df38982612d5d565b85526020850194505050602081019050612dc3565b5050509392505050565b600082601f830112612e2757612e26612af3565b5b8135612e37848260208601612d8b565b91505092915050565b600080600060608486031215612e5957612e58612ae9565b5b600084013567ffffffffffffffff811115612e7757612e76612aee565b5b612e8386828701612c7c565b935050602084013567ffffffffffffffff811115612ea457612ea3612aee565b5b612eb086828701612c7c565b925050604084013567ffffffffffffffff811115612ed157612ed0612aee565b5b612edd86828701612e12565b9150509250925092565b600067ffffffffffffffff821115612f0257612f01612b09565b5b602082029050602081019050919050565b6000819050919050565b612f2681612f13565b8114612f3157600080fd5b50565b600081359050612f4381612f1d565b92915050565b6000612f5c612f5784612ee7565b612b69565b90508083825260208201905060208402830185811115612f7f57612f7e612bb0565b5b835b81811015612fa85780612f948882612f34565b845260208401935050602081019050612f81565b5050509392505050565b600082601f830112612fc757612fc6612af3565b5b8135612fd7848260208601612f49565b91505092915050565b60008060008060808587031215612ffa57612ff9612ae9565b5b600085013567ffffffffffffffff81111561301857613017612aee565b5b61302487828801612c7c565b945050602085013567ffffffffffffffff81111561304557613044612aee565b5b61305187828801612c7c565b935050604085013567ffffffffffffffff81111561307257613071612aee565b5b61307e87828801612c7c565b925050606085013567ffffffffffffffff81111561309f5761309e612aee565b5b6130ab87828801612fb2565b91505092959194509250565b6000819050919050565b6130ca816130b7565b81146130d557600080fd5b50565b6000813590506130e7816130c1565b92915050565b60006020828403121561310357613102612ae9565b5b6000613111848285016130d8565b91505092915050565b60008060006060848603121561313357613132612ae9565b5b600061314186828701612bfe565b935050602061315286828701612bfe565b925050604084013567ffffffffffffffff81111561317357613172612aee565b5b61317f86828701612d5d565b9150509250925092565b60006020828403121561319f5761319e612ae9565b5b60006131ad84828501612f34565b91505092915050565b6131bf81612bd5565b82525050565b60006020820190506131da60008301846131b6565b92915050565b6131e981612f13565b82525050565b600060208201905061320460008301846131e0565b92915050565b6000602082840312156132205761321f612ae9565b5b600061322e84828501612bfe565b91505092915050565b613240816130b7565b82525050565b600060208201905061325b6000830184613237565b92915050565b60008060006060848603121561327a57613279612ae9565b5b600084013567ffffffffffffffff81111561329857613297612aee565b5b6132a486828701612d5d565b935050602084013567ffffffffffffffff8111156132c5576132c4612aee565b5b6132d186828701612d5d565b925050604084013567ffffffffffffffff8111156132f2576132f1612aee565b5b6132fe86828701612d5d565b9150509250925092565b6000806040838503121561331f5761331e612ae9565b5b600083013567ffffffffffffffff81111561333d5761333c612aee565b5b61334985828601612c7c565b925050602083013567ffffffffffffffff81111561336a57613369612aee565b5b61337685828601612fb2565b9150509250929050565b600081519050919050565b600082825260208201905092915050565b60005b838110156133ba57808201518184015260208101905061339f565b60008484015250505050565b60006133d182613380565b6133db818561338b565b93506133eb81856020860161339c565b6133f481612af8565b840191505092915050565b6000602082019050818103600083015261341981846133c6565b905092915050565b6000806000806080858703121561343b5761343a612ae9565b5b600061344987828801612bfe565b945050602061345a87828801612bfe565b935050604061346b87828801612bfe565b925050606061347c87828801612f34565b91505092959194509250565b6000819050919050565b60006134ad6134a86134a384612bb5565b613488565b612bb5565b9050919050565b60006134bf82613492565b9050919050565b60006134d1826134b4565b9050919050565b6134e1816134c6565b82525050565b60006020820190506134fc60008301846134d8565b92915050565b6000806040838503121561351957613518612ae9565b5b600061352785828601612bfe565b925050602061353885828601612f34565b9150509250929050565b60008060006060848603121561355b5761355a612ae9565b5b600061356986828701612bfe565b935050602061357a86828701612bfe565b925050604061358b86828701612bfe565b9150509250925092565b600080fd5b60008083601f8401126135b0576135af612af3565b5b8235905067ffffffffffffffff8111156135cd576135cc613595565b5b6020830191508360018202830111156135e9576135e8612bb0565b5b9250929050565b6000806000806060858703121561360a57613609612ae9565b5b6000613618878288016130d8565b945050602061362987828801612bfe565b935050604085013567ffffffffffffffff81111561364a57613649612aee565b5b6136568782880161359a565b925092505092959194509250565b600060c08201905061367960008301896131b6565b818103602083015261368b81886133c6565b9050818103604083015261369f81876133c6565b905081810360608301526136b381866133c6565b90506136c260808301856131e0565b6136cf60a08301846131e0565b979650505050505050565b7f47616d654e6674466163746f72793a2063616c6c6572206973206e6f7420746860008201527f652067616d6520726f7574657200000000000000000000000000000000000000602082015250565b6000613736602d8361338b565b9150613741826136da565b604082019050919050565b6000602082019050818103600083015261376581613729565b9050919050565b600081519050919050565b600082825260208201905092915050565b6000819050602082019050919050565b6137a181612bd5565b82525050565b60006137b38383613798565b60208301905092915050565b6000602082019050919050565b60006137d78261376c565b6137e18185613777565b93506137ec83613788565b8060005b8381101561381d57815161380488826137a7565b975061380f836137bf565b9250506001810190506137f0565b5085935050505092915050565b600081519050919050565b600082825260208201905092915050565b6000819050602082019050919050565b600082825260208201905092915050565b600061387282613380565b61387c8185613856565b935061388c81856020860161339c565b61389581612af8565b840191505092915050565b60006138ac8383613867565b905092915050565b6000602082019050919050565b60006138cc8261382a565b6138d68185613835565b9350836020820285016138e885613846565b8060005b85811015613924578484038952815161390585826138a0565b9450613910836138b4565b925060208a019950506001810190506138ec565b50829750879550505050505092915050565b6000606082019050818103600083015261395081866137cc565b9050818103602083015261396481856137cc565b9050818103604083015261397881846138c1565b9050949350505050565b7f4e487b7100000000000000000000000000000000000000000000000000000000600052602160045260246000fd5b600481106139c2576139c1613982565b5b50565b60008190506139d3826139b1565b919050565b60006139e3826139c5565b9050919050565b6139f3816139d8565b82525050565b600081519050919050565b600082825260208201905092915050565b6000613a20826139f9565b613a2a8185613a04565b9350613a3a81856020860161339c565b613a4381612af8565b840191505092915050565b6000604082019050613a6360008301856139ea565b8181036020830152613a758184613a15565b90509392505050565b7f4e487b7100000000000000000000000000000000000000000000000000000000600052603260045260246000fd5b613ab6816130b7565b82525050565b613ac581612f13565b82525050565b604082016000820151613ae16000850182613798565b506020820151613af46020850182613abc565b50505050565b600082825260208201905092915050565b6000613b168261376c565b613b208185613afa565b9350613b2b83613788565b8060005b83811015613b5c578151613b4388826137a7565b9750613b4e836137bf565b925050600181019050613b2f565b5085935050505092915050565b600082825260208201905092915050565b6000613b85826139f9565b613b8f8185613b69565b9350613b9f81856020860161339c565b613ba881612af8565b840191505092915050565b600060e083016000830151613bcb6000860182613aad565b506020830151613bde6020860182613798565b506040830151613bf16040860182613acb565b506060830151613c046080860182613abc565b50608083015184820360a0860152613c1c8282613b0b565b91505060a083015184820360c0860152613c368282613b7a565b9150508091505092915050565b60006020820190508181036000830152613c5d8184613bb3565b905092915050565b600081519050613c74816130c1565b92915050565b600060208284031215613c9057613c8f612ae9565b5b6000613c9e84828501613c65565b91505092915050565b6000604082019050613cbc60008301856131b6565b8181036020830152613cce81846133c6565b90509392505050565b600081519050613ce681612f1d565b92915050565b600060208284031215613d0257613d01612ae9565b5b6000613d1084828501613cd7565b91505092915050565b600081519050919050565b600082825260208201905092915050565b6000819050602082019050919050565b6000613d518383613abc565b60208301905092915050565b6000602082019050919050565b6000613d7582613d19565b613d7f8185613d24565b9350613d8a83613d35565b8060005b83811015613dbb578151613da28882613d45565b9750613dad83613d5d565b925050600181019050613d8e565b5085935050505092915050565b60006080820190508181036000830152613de281876137cc565b90508181036020830152613df681866137cc565b90508181036040830152613e0a81856137cc565b90508181036060830152613e1e8184613d6a565b905095945050505050565b60006060820190508181036000830152613e4381866133c6565b90508181036020830152613e5781856133c6565b90508181036040830152613e6b81846133c6565b9050949350505050565b7f4e487b7100000000000000000000000000000000000000000000000000000000600052602260045260246000fd5b60006002820490506001821680613ebc57607f821691505b602082108103613ecf57613ece613e75565b5b50919050565b6000606082019050613eea60008301866131b6565b613ef760208301856131b6565b613f0460408301846131e0565b949350505050565b60006040820190508181036000830152613f2681856137cc565b90508181036020830152613f3a8184613d6a565b90509392505050565b6000819050919050565b600067ffffffffffffffff82169050919050565b6000613f7c613f77613f7284613f43565b613488565b613f4d565b9050919050565b613f8c81613f61565b82525050565b6000602082019050613fa76000830184613f83565b92915050565b7f47616d654e6674466163746f72793a2063616c6c6572206973206e6f7420746860008201527f652074656c65706f72746572206d657373656e67657200000000000000000000602082015250565b600061400960368361338b565b915061401482613fad565b604082019050919050565b6000602082019050818103600083015261403881613ffc565b9050919050565b7f47616d654e6674466163746f72793a206f726967696e2073656e64657220697360008201527f206e6f74207468652072656d6f746520666163746f7279000000000000000000602082015250565b600061409b60378361338b565b91506140a68261403f565b604082019050919050565b600060208201905081810360008301526140ca8161408e565b9050919050565b7f47616d654e6674466163746f72793a20736f7572636520626c6f636b6368616960008201527f6e204944206973206e6f74207468652072656d6f746520626c6f636b6368616960208201527f6e20494400000000000000000000000000000000000000000000000000000000604082015250565b600061415360448361338b565b915061415e826140d1565b606082019050919050565b6000602082019050818103600083015261418281614146565b9050919050565b6004811061419657600080fd5b50565b6000813590506141a881614189565b92915050565b600067ffffffffffffffff8211156141c9576141c8612b09565b5b6141d282612af8565b9050602081019050919050565b60006141f26141ed846141ae565b612b69565b90508281526020810184848401111561420e5761420d612cd6565b5b614219848285612d0c565b509392505050565b600082601f83011261423657614235612af3565b5b81356142468482602086016141df565b91505092915050565b6000806040838503121561426657614265612ae9565b5b600061427485828601614199565b925050602083013567ffffffffffffffff81111561429557614294612aee565b5b6142a185828601614221565b9150509250929050565b60006142be6142b984612cdb565b612b69565b9050828152602081018484840111156142da576142d9612cd6565b5b6142e584828561339c565b509392505050565b600082601f83011261430257614301612af3565b5b81516143128482602086016142ab565b91505092915050565b60008060006060848603121561433457614333612ae9565b5b600084015167ffffffffffffffff81111561435257614351612aee565b5b61435e868287016142ed565b935050602084015167ffffffffffffffff81111561437f5761437e612aee565b5b61438b868287016142ed565b925050604084015167ffffffffffffffff8111156143ac576143ab612aee565b5b6143b8868287016142ed565b9150509250925092565b6000815190506143d181612be7565b92915050565b60006143ea6143e584612b84565b612b69565b9050808382526020820190506020840283018581111561440d5761440c612bb0565b5b835b81811015614436578061442288826143c2565b84526020840193505060208101905061440f565b5050509392505050565b600082601f83011261445557614454612af3565b5b81516144658482602086016143d7565b91505092915050565b600061448161447c84612caa565b612b69565b905080838252602082019050602084028301858111156144a4576144a3612bb0565b5b835b818110156144eb57805167ffffffffffffffff8111156144c9576144c8612af3565b5b8086016144d689826142ed565b855260208501945050506020810190506144a6565b5050509392505050565b600082601f83011261450a57614509612af3565b5b815161451a84826020860161446e565b91505092915050565b60008060006060848603121561453c5761453b612ae9565b5b600084015167ffffffffffffffff81111561455a57614559612aee565b5b61456686828701614440565b935050602084015167ffffffffffffffff81111561458757614586612aee565b5b61459386828701614440565b925050604084015167ffffffffffffffff8111156145b4576145b3612aee565b5b6145c0868287016144f5565b9150509250925092565b60006145dd6145d884612ee7565b612b69565b90508083825260208201905060208402830185811115614600576145ff612bb0565b5b835b8181101561462957806146158882613cd7565b845260208401935050602081019050614602565b5050509392505050565b600082601f83011261464857614647612af3565b5b81516146588482602086016145ca565b91505092915050565b6000806040838503121561467857614677612ae9565b5b600083015167ffffffffffffffff81111561469657614695612aee565b5b6146a285828601614440565b925050602083015167ffffffffffffffff8111156146c3576146c2612aee565b5b6146cf85828601614633565b9150509250929050565b600080600080608085870312156146f3576146f2612ae9565b5b600085015167ffffffffffffffff81111561471157614710612aee565b5b61471d87828801614440565b945050602085015167ffffffffffffffff81111561473e5761473d612aee565b5b61474a87828801614440565b935050604085015167ffffffffffffffff81111561476b5761476a612aee565b5b61477787828801614440565b925050606085015167ffffffffffffffff81111561479857614797612aee565b5b6147a487828801614633565b91505092959194509250565b6000602082840312156147c6576147c5612ae9565b5b600082015167ffffffffffffffff8111156147e4576147e3612aee565b5b6147f0848285016142ed565b91505092915050565b600060808201905061480e60008301876131b6565b818103602083015261482081866133c6565b9050818103604083015261483481856133c6565b9050818103606083015261484881846133c6565b905095945050505050565b60008190508160005260206000209050919050565b60006020601f8301049050919050565b600082821b905092915050565b6000600883026148b57fffffffffffffffffffffffffffffffffffffffffffffffffffffffffffffffff82614878565b6148bf8683614878565b95508019841693508086168417925050509392505050565b60006148f26148ed6148e884612f13565b613488565b612f13565b9050919050565b6000819050919050565b61490c836148d7565b614920614918826148f9565b848454614885565b825550505050565b600090565b614935614928565b614940818484614903565b505050565b5b818110156149645761495960008261492d565b600181019050614946565b5050565b601f8211156149a95761497a81614853565b61498384614868565b81016020851015614992578190505b6149a661499e85614868565b830182614945565b50505b505050565b600082821c905092915050565b60006149cc600019846008026149ae565b1980831691505092915050565b60006149e583836149bb565b9150826002028217905092915050565b6149fe82613380565b67ffffffffffffffff811115614a1757614a16612b09565b5b614a218254613ea4565b614a2c828285614968565b600060209050601f831160018114614a5f5760008415614a4d578287015190505b614a5785826149d9565b865550614abf565b601f198416614a6d86614853565b60005b82811015614a9557848901518255600182019150602085019450602081019050614a70565b86831015614ab25784890151614aae601f8916826149bb565b8355505b6001600288020188555050505b505050505050565b7f4e487b7100000000000000000000000000000000000000000000000000000000600052601160045260246000fd5b6000614b0182612f13565b91507fffffffffffffffffffffffffffffffffffffffffffffffffffffffffffffffff8203614b3357614b32614ac7565b5b60018201905091905056fea26469706673582212208fdcddcb68a20b9358ff002bffe507a7e97a489f30d5bc1d562bfc7060097c7c64736f6c63430008180033",
  "linkReferences": {},
  "deployedLinkReferences": {}
}