{
  "_format": "hh-sol-artifact-1",
  "contractName": "GameNft",
  "sourceName": "contracts/GameNft.sol",
  "abi": [
    {
      "inputs": [],
      "stateMutability": "nonpayable",
      "type": "constructor"
    },
    {
      "inputs": [],
      "name": "ERC721EnumerableForbiddenBatchMint",
      "type": "error"
    },
    {
      "inputs": [
        {
          "internalType": "address",
          "name": "sender",
          "type": "address"
        },
        {
          "internalType": "uint256",
          "name": "tokenId",
          "type": "uint256"
        },
        {
          "internalType": "address",
          "name": "owner",
          "type": "address"
        }
      ],
      "name": "ERC721IncorrectOwner",
      "type": "error"
    },
    {
      "inputs": [
        {
          "internalType": "address",
          "name": "operator",
          "type": "address"
        },
        {
          "internalType": "uint256",
          "name": "tokenId",
          "type": "uint256"
        }
      ],
      "name": "ERC721InsufficientApproval",
      "type": "error"
    },
    {
      "inputs": [
        {
          "internalType": "address",
          "name": "approver",
          "type": "address"
        }
      ],
      "name": "ERC721InvalidApprover",
      "type": "error"
    },
    {
      "inputs": [
        {
          "internalType": "address",
          "name": "operator",
          "type": "address"
        }
      ],
      "name": "ERC721InvalidOperator",
      "type": "error"
    },
    {
      "inputs": [
        {
          "internalType": "address",
          "name": "owner",
          "type": "address"
        }
      ],
      "name": "ERC721InvalidOwner",
      "type": "error"
    },
    {
      "inputs": [
        {
          "internalType": "address",
          "name": "receiver",
          "type": "address"
        }
      ],
      "name": "ERC721InvalidReceiver",
      "type": "error"
    },
    {
      "inputs": [
        {
          "internalType": "address",
          "name": "sender",
          "type": "address"
        }
      ],
      "name": "ERC721InvalidSender",
      "type": "error"
    },
    {
      "inputs": [
        {
          "internalType": "uint256",
          "name": "tokenId",
          "type": "uint256"
        }
      ],
      "name": "ERC721NonexistentToken",
      "type": "error"
    },
    {
      "inputs": [
        {
          "internalType": "address",
          "name": "owner",
          "type": "address"
        },
        {
          "internalType": "uint256",
          "name": "index",
          "type": "uint256"
        }
      ],
      "name": "ERC721OutOfBoundsIndex",
      "type": "error"
    },
    {
      "inputs": [],
      "name": "InvalidInitialization",
      "type": "error"
    },
    {
      "inputs": [],
      "name": "NotInitializing",
      "type": "error"
    },
    {
      "inputs": [
        {
          "internalType": "address",
          "name": "owner",
          "type": "address"
        }
      ],
      "name": "OwnableInvalidOwner",
      "type": "error"
    },
    {
      "inputs": [
        {
          "internalType": "address",
          "name": "account",
          "type": "address"
        }
      ],
      "name": "OwnableUnauthorizedAccount",
      "type": "error"
    },
    {
      "anonymous": false,
      "inputs": [
        {
          "indexed": true,
          "internalType": "address",
          "name": "owner",
          "type": "address"
        },
        {
          "indexed": true,
          "internalType": "address",
          "name": "approved",
          "type": "address"
        },
        {
          "indexed": true,
          "internalType": "uint256",
          "name": "tokenId",
          "type": "uint256"
        }
      ],
      "name": "Approval",
      "type": "event"
    },
    {
      "anonymous": false,
      "inputs": [
        {
          "indexed": true,
          "internalType": "address",
          "name": "owner",
          "type": "address"
        },
        {
          "indexed": true,
          "internalType": "address",
          "name": "operator",
          "type": "address"
        },
        {
          "indexed": false,
          "internalType": "bool",
          "name": "approved",
          "type": "bool"
        }
      ],
      "name": "ApprovalForAll",
      "type": "event"
    },
    {
      "anonymous": false,
      "inputs": [
        {
          "indexed": false,
          "internalType": "uint256",
          "name": "_fromTokenId",
          "type": "uint256"
        },
        {
          "indexed": false,
          "internalType": "uint256",
          "name": "_toTokenId",
          "type": "uint256"
        }
      ],
      "name": "BatchMetadataUpdate",
      "type": "event"
    },
    {
      "anonymous": false,
      "inputs": [
        {
          "indexed": false,
          "internalType": "uint64",
          "name": "version",
          "type": "uint64"
        }
      ],
      "name": "Initialized",
      "type": "event"
    },
    {
      "anonymous": false,
      "inputs": [
        {
          "indexed": false,
          "internalType": "uint256",
          "name": "_tokenId",
          "type": "uint256"
        }
      ],
      "name": "MetadataUpdate",
      "type": "event"
    },
    {
      "anonymous": false,
      "inputs": [
        {
          "indexed": true,
          "internalType": "address",
          "name": "previousOwner",
          "type": "address"
        },
        {
          "indexed": true,
          "internalType": "address",
          "name": "newOwner",
          "type": "address"
        }
      ],
      "name": "OwnershipTransferred",
      "type": "event"
    },
    {
      "anonymous": false,
      "inputs": [
        {
          "indexed": true,
          "internalType": "address",
          "name": "from",
          "type": "address"
        },
        {
          "indexed": true,
          "internalType": "address",
          "name": "to",
          "type": "address"
        },
        {
          "indexed": true,
          "internalType": "uint256",
          "name": "tokenId",
          "type": "uint256"
        }
      ],
      "name": "Transfer",
      "type": "event"
    },
    {
      "inputs": [
        {
          "internalType": "address",
          "name": "to",
          "type": "address"
        },
        {
          "internalType": "uint256",
          "name": "tokenId",
          "type": "uint256"
        }
      ],
      "name": "approve",
      "outputs": [],
      "stateMutability": "nonpayable",
      "type": "function"
    },
    {
      "inputs": [
        {
          "internalType": "address",
          "name": "owner",
          "type": "address"
        }
      ],
      "name": "balanceOf",
      "outputs": [
        {
          "internalType": "uint256",
          "name": "",
          "type": "uint256"
        }
      ],
      "stateMutability": "view",
      "type": "function"
    },
    {
      "inputs": [
        {
          "internalType": "uint256",
          "name": "_tokenId",
          "type": "uint256"
        }
      ],
      "name": "burn",
      "outputs": [],
      "stateMutability": "nonpayable",
      "type": "function"
    },
    {
      "inputs": [],
      "name": "gameId",
      "outputs": [
        {
          "internalType": "string",
          "name": "",
          "type": "string"
        }
      ],
      "stateMutability": "view",
      "type": "function"
    },
    {
      "inputs": [
        {
          "internalType": "address",
          "name": "_from",
          "type": "address"
        },
        {
          "internalType": "address",
          "name": "_to",
          "type": "address"
        },
        {
          "internalType": "uint256",
          "name": "_tokenId",
          "type": "uint256"
        }
      ],
      "name": "gameTransfer",
      "outputs": [],
      "stateMutability": "nonpayable",
      "type": "function"
    },
    {
      "inputs": [
        {
          "internalType": "uint256",
          "name": "tokenId",
          "type": "uint256"
        }
      ],
      "name": "getApproved",
      "outputs": [
        {
          "internalType": "address",
          "name": "",
          "type": "address"
        }
      ],
      "stateMutability": "view",
      "type": "function"
    },
    {
      "inputs": [],
      "name": "holderCount",
      "outputs": [
        {
          "internalType": "uint256",
          "name": "",
          "type": "uint256"
        }
      ],
      "stateMutability": "view",
      "type": "function"
    },
    {
      "inputs": [
        {
          "internalType": "address",
          "name": "_owner",
          "type": "address"
        },
        {
          "internalType": "string",
          "name": "_gameId",
          "type": "string"
        },
        {
          "internalType": "string",
          "name": "_name",
          "type": "string"
        },
        {
          "internalType": "string",
          "name": "_symbol",
          "type": "string"
        },
        {
          "internalType": "bool",
          "name": "_isSoulBind",
          "type": "bool"
        }
      ],
      "name": "initialize",
      "outputs": [],
      "stateMutability": "nonpayable",
      "type": "function"
    },
    {
      "inputs": [
        {
          "internalType": "address",
          "name": "owner",
          "type": "address"
        },
        {
          "internalType": "address",
          "name": "operator",
          "type": "address"
        }
      ],
      "name": "isApprovedForAll",
      "outputs": [
        {
          "internalType": "bool",
          "name": "",
          "type": "bool"
        }
      ],
      "stateMutability": "view",
      "type": "function"
    },
    {
      "inputs": [],
      "name": "isSoulBind",
      "outputs": [
        {
          "internalType": "bool",
          "name": "",
          "type": "bool"
        }
      ],
      "stateMutability": "view",
      "type": "function"
    },
    {
      "inputs": [
        {
          "internalType": "address",
          "name": "_to",
          "type": "address"
        },
        {
          "internalType": "string",
          "name": "_tokenURI",
          "type": "string"
        }
      ],
      "name": "mint",
      "outputs": [
        {
          "internalType": "uint256",
          "name": "",
          "type": "uint256"
        }
      ],
      "stateMutability": "nonpayable",
      "type": "function"
    },
    {
      "inputs": [],
      "name": "mintCount",
      "outputs": [
        {
          "internalType": "uint256",
          "name": "",
          "type": "uint256"
        }
      ],
      "stateMutability": "view",
      "type": "function"
    },
    {
      "inputs": [],
      "name": "name",
      "outputs": [
        {
          "internalType": "string",
          "name": "",
          "type": "string"
        }
      ],
      "stateMutability": "view",
      "type": "function"
    },
    {
      "inputs": [],
      "name": "owner",
      "outputs": [
        {
          "internalType": "address",
          "name": "",
          "type": "address"
        }
      ],
      "stateMutability": "view",
      "type": "function"
    },
    {
      "inputs": [
        {
          "internalType": "uint256",
          "name": "tokenId",
          "type": "uint256"
        }
      ],
      "name": "ownerOf",
      "outputs": [
        {
          "internalType": "address",
          "name": "",
          "type": "address"
        }
      ],
      "stateMutability": "view",
      "type": "function"
    },
    {
      "inputs": [],
      "name": "renounceOwnership",
      "outputs": [],
      "stateMutability": "nonpayable",
      "type": "function"
    },
    {
      "inputs": [
        {
          "internalType": "address",
          "name": "from",
          "type": "address"
        },
        {
          "internalType": "address",
          "name": "to",
          "type": "address"
        },
        {
          "internalType": "uint256",
          "name": "tokenId",
          "type": "uint256"
        }
      ],
      "name": "safeTransferFrom",
      "outputs": [],
      "stateMutability": "nonpayable",
      "type": "function"
    },
    {
      "inputs": [
        {
          "internalType": "address",
          "name": "from",
          "type": "address"
        },
        {
          "internalType": "address",
          "name": "to",
          "type": "address"
        },
        {
          "internalType": "uint256",
          "name": "tokenId",
          "type": "uint256"
        },
        {
          "internalType": "bytes",
          "name": "data",
          "type": "bytes"
        }
      ],
      "name": "safeTransferFrom",
      "outputs": [],
      "stateMutability": "nonpayable",
      "type": "function"
    },
    {
      "inputs": [
        {
          "internalType": "address",
          "name": "operator",
          "type": "address"
        },
        {
          "internalType": "bool",
          "name": "approved",
          "type": "bool"
        }
      ],
      "name": "setApprovalForAll",
      "outputs": [],
      "stateMutability": "nonpayable",
      "type": "function"
    },
    {
      "inputs": [
        {
          "internalType": "bytes4",
          "name": "interfaceId",
          "type": "bytes4"
        }
      ],
      "name": "supportsInterface",
      "outputs": [
        {
          "internalType": "bool",
          "name": "",
          "type": "bool"
        }
      ],
      "stateMutability": "view",
      "type": "function"
    },
    {
      "inputs": [],
      "name": "symbol",
      "outputs": [
        {
          "internalType": "string",
          "name": "",
          "type": "string"
        }
      ],
      "stateMutability": "view",
      "type": "function"
    },
    {
      "inputs": [
        {
          "internalType": "uint256",
          "name": "index",
          "type": "uint256"
        }
      ],
      "name": "tokenByIndex",
      "outputs": [
        {
          "internalType": "uint256",
          "name": "",
          "type": "uint256"
        }
      ],
      "stateMutability": "view",
      "type": "function"
    },
    {
      "inputs": [
        {
          "internalType": "address",
          "name": "owner",
          "type": "address"
        },
        {
          "internalType": "uint256",
          "name": "index",
          "type": "uint256"
        }
      ],
      "name": "tokenOfOwnerByIndex",
      "outputs": [
        {
          "internalType": "uint256",
          "name": "",
          "type": "uint256"
        }
      ],
      "stateMutability": "view",
      "type": "function"
    },
    {
      "inputs": [
        {
          "internalType": "uint256",
          "name": "tokenId",
          "type": "uint256"
        }
      ],
      "name": "tokenURI",
      "outputs": [
        {
          "internalType": "string",
          "name": "",
          "type": "string"
        }
      ],
      "stateMutability": "view",
      "type": "function"
    },
    {
      "inputs": [],
      "name": "totalSupply",
      "outputs": [
        {
          "internalType": "uint256",
          "name": "",
          "type": "uint256"
        }
      ],
      "stateMutability": "view",
      "type": "function"
    },
    {
      "inputs": [
        {
          "internalType": "address",
          "name": "from",
          "type": "address"
        },
        {
          "internalType": "address",
          "name": "to",
          "type": "address"
        },
        {
          "internalType": "uint256",
          "name": "tokenId",
          "type": "uint256"
        }
      ],
      "name": "transferFrom",
      "outputs": [],
      "stateMutability": "nonpayable",
      "type": "function"
    },
    {
      "inputs": [
        {
          "internalType": "address",
          "name": "newOwner",
          "type": "address"
        }
      ],
      "name": "transferOwnership",
      "outputs": [],
      "stateMutability": "nonpayable",
      "type": "function"
    }
  ],
  "bytecode": "0x60806040523480156200001157600080fd5b50620000226200002860201b60201c565b6200019c565b60006200003a6200013260201b60201c565b90508060000160089054906101000a900460ff161562000086576040517ff92ee8a900000000000000000000000000000000000000000000000000000000815260040160405180910390fd5b67ffffffffffffffff80168160000160009054906101000a900467ffffffffffffffff1667ffffffffffffffff16146200012f5767ffffffffffffffff8160000160006101000a81548167ffffffffffffffff021916908367ffffffffffffffff1602179055507fc7f505b2f371ae2175ee4913f4499e1f2633a7b5936321eed1cdaeb6115181d267ffffffffffffffff6040516200012691906200017f565b60405180910390a15b50565b60007ff0c57e16840df040f15088dc2f81fe391c3923bec73e23a9662efc9c229c6a00905090565b600067ffffffffffffffff82169050919050565b62000179816200015a565b82525050565b60006020820190506200019660008301846200016e565b92915050565b613a1b80620001ac6000396000f3fe608060405234801561001057600080fd5b50600436106101a95760003560e01c806370a08231116100f9578063b88d4fde11610097578063d7c81b5511610071578063d7c81b55146104cc578063dd9c9ecd146104ea578063e985e9c514610508578063f2fde38b14610538576101a9565b8063b88d4fde14610450578063c87b56dd1461046c578063d0def5211461049c576101a9565b806395d89b41116100d357806395d89b41146103dc5780639659867e146103fa5780639ae2869514610418578063a22cb46514610434576101a9565b806370a0823114610384578063715018a6146103b45780638da5cb5b146103be576101a9565b806323b872dd1161016657806342966c681161014057806342966c68146102ec5780634f6ccce71461030857806362252bc3146103385780636352211e14610354576101a9565b806323b872dd146102845780632f745c59146102a057806342842e0e146102d0576101a9565b806301ffc9a7146101ae57806306fdde03146101de578063081812fc146101fc578063095ea7b31461022c57806318160ddd146102485780631aab9a9f14610266575b600080fd5b6101c860048036038101906101c39190612c2a565b610554565b6040516101d59190612c72565b60405180910390f35b6101e6610566565b6040516101f39190612d1d565b60405180910390f35b61021660048036038101906102119190612d75565b610607565b6040516102239190612de3565b60405180910390f35b61024660048036038101906102419190612e2a565b610623565b005b610250610639565b60405161025d9190612e79565b60405180910390f35b61026e610654565b60405161027b9190612e79565b60405180910390f35b61029e60048036038101906102999190612e94565b61065a565b005b6102ba60048036038101906102b59190612e2a565b61075c565b6040516102c79190612e79565b60405180910390f35b6102ea60048036038101906102e59190612e94565b610813565b005b61030660048036038101906103019190612d75565b610833565b005b610322600480360381019061031d9190612d75565b610847565b60405161032f9190612e79565b60405180910390f35b610352600480360381019061034d9190612e94565b6108cb565b005b61036e60048036038101906103699190612d75565b6108f3565b60405161037b9190612de3565b60405180910390f35b61039e60048036038101906103999190612ee7565b610905565b6040516103ab9190612e79565b60405180910390f35b6103bc6109ce565b005b6103c66109e2565b6040516103d39190612de3565b60405180910390f35b6103e4610a1a565b6040516103f19190612d1d565b60405180910390f35b610402610abb565b60405161040f9190612e79565b60405180910390f35b610432600480360381019061042d9190613075565b610ac1565b005b61044e60048036038101906104499190613144565b610c98565b005b61046a60048036038101906104659190613225565b610cae565b005b61048660048036038101906104819190612d75565b610ccb565b6040516104939190612d1d565b60405180910390f35b6104b660048036038101906104b191906132a8565b610cdd565b6040516104c39190612e79565b60405180910390f35b6104d4610d32565b6040516104e19190612d1d565b60405180910390f35b6104f2610dc0565b6040516104ff9190612c72565b60405180910390f35b610522600480360381019061051d9190613304565b610dd3565b60405161052f9190612c72565b60405180910390f35b610552600480360381019061054d9190612ee7565b610e75565b005b600061055f82610efb565b9050919050565b60606000610572610f75565b905080600001805461058390613373565b80601f01602080910402602001604051908101604052809291908181526020018280546105af90613373565b80156105fc5780601f106105d1576101008083540402835291602001916105fc565b820191906000526020600020905b8154815290600101906020018083116105df57829003601f168201915b505050505091505090565b600061061282610f9d565b5061061c82611025565b9050919050565b6106358282610630611070565b611078565b5050565b60008061064461108a565b9050806002018054905091505090565b60015481565b600073ffffffffffffffffffffffffffffffffffffffff168273ffffffffffffffffffffffffffffffffffffffff16036106cc5760006040517f64a0ae920000000000000000000000000000000000000000000000000000000081526004016106c39190612de3565b60405180910390fd5b60006106e083836106db611070565b6110b2565b90508373ffffffffffffffffffffffffffffffffffffffff168173ffffffffffffffffffffffffffffffffffffffff1614610756578382826040517f64283d7b00000000000000000000000000000000000000000000000000000000815260040161074d939291906133a4565b60405180910390fd5b50505050565b60008061076761108a565b905061077284610905565b83106107b75783836040517fa57d13dc0000000000000000000000000000000000000000000000000000000081526004016107ae9291906133db565b60405180910390fd5b8060000160008573ffffffffffffffffffffffffffffffffffffffff1673ffffffffffffffffffffffffffffffffffffffff16815260200190815260200160002060008481526020019081526020016000205491505092915050565b61082e83838360405180602001604052806000815250610cae565b505050565b61083b6111e6565b6108448161126d565b50565b60008061085261108a565b905061085c610639565b83106108a2576000836040517fa57d13dc0000000000000000000000000000000000000000000000000000000081526004016108999291906133db565b60405180910390fd5b8060020183815481106108b8576108b7613404565b5b9060005260206000200154915050919050565b6108d36111e6565b6108ee838383604051806020016040528060008152506112f3565b505050565b60006108fe82610f9d565b9050919050565b600080610910610f75565b9050600073ffffffffffffffffffffffffffffffffffffffff168373ffffffffffffffffffffffffffffffffffffffff16036109845760006040517f89c62b6400000000000000000000000000000000000000000000000000000000815260040161097b9190612de3565b60405180910390fd5b8060030160008473ffffffffffffffffffffffffffffffffffffffff1673ffffffffffffffffffffffffffffffffffffffff16815260200190815260200160002054915050919050565b6109d66111e6565b6109e06000611310565b565b6000806109ed6113e7565b90508060000160009054906101000a900473ffffffffffffffffffffffffffffffffffffffff1691505090565b60606000610a26610f75565b9050806001018054610a3790613373565b80601f0160208091040260200160405190810160405280929190818152602001828054610a6390613373565b8015610ab05780601f10610a8557610100808354040283529160200191610ab0565b820191906000526020600020905b815481529060010190602001808311610a9357829003601f168201915b505050505091505090565b60025481565b6000610acb61140f565b905060008160000160089054906101000a900460ff1615905060008260000160009054906101000a900467ffffffffffffffff1690506000808267ffffffffffffffff16148015610b195750825b9050600060018367ffffffffffffffff16148015610b4e575060003073ffffffffffffffffffffffffffffffffffffffff163b145b905081158015610b5c575080155b15610b93576040517ff92ee8a900000000000000000000000000000000000000000000000000000000815260040160405180910390fd5b60018560000160006101000a81548167ffffffffffffffff021916908367ffffffffffffffff1602179055508315610be35760018560000160086101000a81548160ff0219169083151502179055505b610bec8a611437565b610bf6888861144b565b610bfe611461565b610c0661146b565b8860009081610c1591906135df565b5085600360006101000a81548160ff0219169083151502179055508315610c8c5760008560000160086101000a81548160ff0219169083151502179055507fc7f505b2f371ae2175ee4913f4499e1f2633a7b5936321eed1cdaeb6115181d26001604051610c839190613700565b60405180910390a15b50505050505050505050565b610caa610ca3611070565b8383611475565b5050565b610cb984848461065a565b610cc5848484846115f3565b50505050565b6060610cd6826117aa565b9050919050565b6000610ce76111e6565b60006001600254610cf8919061374a565b9050610d0484826118ce565b610d0e81846118ec565b600160026000828254610d21919061374a565b925050819055508091505092915050565b60008054610d3f90613373565b80601f0160208091040260200160405190810160405280929190818152602001828054610d6b90613373565b8015610db85780601f10610d8d57610100808354040283529160200191610db8565b820191906000526020600020905b815481529060010190602001808311610d9b57829003601f168201915b505050505081565b600360009054906101000a900460ff1681565b600080610dde610f75565b90508060050160008573ffffffffffffffffffffffffffffffffffffffff1673ffffffffffffffffffffffffffffffffffffffff16815260200190815260200160002060008473ffffffffffffffffffffffffffffffffffffffff1673ffffffffffffffffffffffffffffffffffffffff16815260200190815260200160002060009054906101000a900460ff1691505092915050565b610e7d6111e6565b600073ffffffffffffffffffffffffffffffffffffffff168173ffffffffffffffffffffffffffffffffffffffff1603610eef5760006040517f1e4fbdf7000000000000000000000000000000000000000000000000000000008152600401610ee69190612de3565b60405180910390fd5b610ef881611310565b50565b60007f780e9d63000000000000000000000000000000000000000000000000000000007bffffffffffffffffffffffffffffffffffffffffffffffffffffffff1916827bffffffffffffffffffffffffffffffffffffffffffffffffffffffff19161480610f6e5750610f6d82611957565b5b9050919050565b60007f80bb2b638cc20bc4d0a60d66940f3ab4a00c1d7b313497ca82fb0b4ab0079300905090565b600080610fa9836119b8565b9050600073ffffffffffffffffffffffffffffffffffffffff168173ffffffffffffffffffffffffffffffffffffffff160361101c57826040517f7e2732890000000000000000000000000000000000000000000000000000000081526004016110139190612e79565b60405180910390fd5b80915050919050565b600080611030610f75565b905080600401600084815260200190815260200160002060009054906101000a900473ffffffffffffffffffffffffffffffffffffffff16915050919050565b600033905090565b6110858383836001611a03565b505050565b60007f645e039705490088daad89bae25049a34f4a9072d398537b1ab2425f24cbed00905090565b6000600360009054906101000a900460ff1615611104576040517f08c379a00000000000000000000000000000000000000000000000000000000081526004016110fb906137f0565b60405180910390fd5b600073ffffffffffffffffffffffffffffffffffffffff168473ffffffffffffffffffffffffffffffffffffffff16141580156111495750600061114785610905565b145b15611168576001806000828254611160919061374a565b925050819055505b6000611175858585611bd7565b9050600073ffffffffffffffffffffffffffffffffffffffff168173ffffffffffffffffffffffffffffffffffffffff16141580156111bc575060006111ba82610905565b145b156111db5760018060008282546111d39190613810565b925050819055505b809150509392505050565b6111ee611070565b73ffffffffffffffffffffffffffffffffffffffff1661120c6109e2565b73ffffffffffffffffffffffffffffffffffffffff161461126b5761122f611070565b6040517f118cdaa70000000000000000000000000000000000000000000000000000000081526004016112629190612de3565b60405180910390fd5b565b600061127c60008360006110b2565b9050600073ffffffffffffffffffffffffffffffffffffffff168173ffffffffffffffffffffffffffffffffffffffff16036112ef57816040517f7e2732890000000000000000000000000000000000000000000000000000000081526004016112e69190612e79565b60405180910390fd5b5050565b6112fe848484611cf4565b61130a848484846115f3565b50505050565b600061131a6113e7565b905060008160000160009054906101000a900473ffffffffffffffffffffffffffffffffffffffff169050828260000160006101000a81548173ffffffffffffffffffffffffffffffffffffffff021916908373ffffffffffffffffffffffffffffffffffffffff1602179055508273ffffffffffffffffffffffffffffffffffffffff168173ffffffffffffffffffffffffffffffffffffffff167f8be0079c531659141344cd1fd0a4f28419497f9722a3daafe3b4186f6b6457e060405160405180910390a3505050565b60007f9016d09d72d40fdae2fd8ceac6b6234c7706214fd39c1cd1e609a0528c199300905090565b60007ff0c57e16840df040f15088dc2f81fe391c3923bec73e23a9662efc9c229c6a00905090565b61143f611e61565b61144881611ea1565b50565b611453611e61565b61145d8282611f27565b5050565b611469611e61565b565b611473611e61565b565b600061147f610f75565b9050600073ffffffffffffffffffffffffffffffffffffffff168373ffffffffffffffffffffffffffffffffffffffff16036114f257826040517f5b08ba180000000000000000000000000000000000000000000000000000000081526004016114e99190612de3565b60405180910390fd5b818160050160008673ffffffffffffffffffffffffffffffffffffffff1673ffffffffffffffffffffffffffffffffffffffff16815260200190815260200160002060008573ffffffffffffffffffffffffffffffffffffffff1673ffffffffffffffffffffffffffffffffffffffff16815260200190815260200160002060006101000a81548160ff0219169083151502179055508273ffffffffffffffffffffffffffffffffffffffff168473ffffffffffffffffffffffffffffffffffffffff167f17307eab39ab6107e8899845ad3d59bd9653f200f220920489ca2b5937696c31846040516115e59190612c72565b60405180910390a350505050565b60008373ffffffffffffffffffffffffffffffffffffffff163b11156117a4578273ffffffffffffffffffffffffffffffffffffffff1663150b7a02611637611070565b8685856040518563ffffffff1660e01b81526004016116599493929190613899565b6020604051808303816000875af192505050801561169557506040513d601f19601f8201168201806040525081019061169291906138fa565b60015b611719573d80600081146116c5576040519150601f19603f3d011682016040523d82523d6000602084013e6116ca565b606091505b50600081510361171157836040517f64a0ae920000000000000000000000000000000000000000000000000000000081526004016117089190612de3565b60405180910390fd5b805181602001fd5b63150b7a0260e01b7bffffffffffffffffffffffffffffffffffffffffffffffffffffffff1916817bffffffffffffffffffffffffffffffffffffffffffffffffffffffff1916146117a257836040517f64a0ae920000000000000000000000000000000000000000000000000000000081526004016117999190612de3565b60405180910390fd5b505b50505050565b606060006117b6611f64565b90506117c183610f9d565b50600081600001600085815260200190815260200160002080546117e490613373565b80601f016020809104026020016040519081016040528092919081815260200182805461181090613373565b801561185d5780601f106118325761010080835404028352916020019161185d565b820191906000526020600020905b81548152906001019060200180831161184057829003601f168201915b50505050509050600061186e611f8c565b90506000815103611884578193505050506118c9565b6000825111156118ba5780826040516020016118a1929190613963565b60405160208183030381529060405293505050506118c9565b6118c385611fa3565b93505050505b919050565b6118e882826040518060200160405280600081525061200c565b5050565b60006118f6611f64565b905081816000016000858152602001908152602001600020908161191a91906135df565b507ff8e1a15aba9398e019f0b49df1a4fde98ee17ae345cb5f6b5e2c27f5033e8ce78360405161194a9190612e79565b60405180910390a1505050565b6000634906490660e01b7bffffffffffffffffffffffffffffffffffffffffffffffffffffffff1916827bffffffffffffffffffffffffffffffffffffffffffffffffffffffff191614806119b157506119b082612028565b5b9050919050565b6000806119c3610f75565b905080600201600084815260200190815260200160002060009054906101000a900473ffffffffffffffffffffffffffffffffffffffff16915050919050565b6000611a0d610f75565b90508180611a485750600073ffffffffffffffffffffffffffffffffffffffff168373ffffffffffffffffffffffffffffffffffffffff1614155b15611b7c576000611a5885610f9d565b9050600073ffffffffffffffffffffffffffffffffffffffff168473ffffffffffffffffffffffffffffffffffffffff1614158015611ac357508373ffffffffffffffffffffffffffffffffffffffff168173ffffffffffffffffffffffffffffffffffffffff1614155b8015611ad65750611ad48185610dd3565b155b15611b1857836040517fa9fbf51f000000000000000000000000000000000000000000000000000000008152600401611b0f9190612de3565b60405180910390fd5b8215611b7a57848673ffffffffffffffffffffffffffffffffffffffff168273ffffffffffffffffffffffffffffffffffffffff167f8c5be1e5ebec7d5bd14f71427d1e84f3dd0314c0f7b2291e5b200ac8c7c3b92560405160405180910390a45b505b8481600401600086815260200190815260200160002060006101000a81548173ffffffffffffffffffffffffffffffffffffffff021916908373ffffffffffffffffffffffffffffffffffffffff1602179055505050505050565b600080611be585858561210a565b9050600073ffffffffffffffffffffffffffffffffffffffff168173ffffffffffffffffffffffffffffffffffffffff1603611c2957611c2484612337565b611c68565b8473ffffffffffffffffffffffffffffffffffffffff168173ffffffffffffffffffffffffffffffffffffffff1614611c6757611c668185612393565b5b5b600073ffffffffffffffffffffffffffffffffffffffff168573ffffffffffffffffffffffffffffffffffffffff1603611caa57611ca58461250d565b611ce9565b8473ffffffffffffffffffffffffffffffffffffffff168173ffffffffffffffffffffffffffffffffffffffff1614611ce857611ce785856125f9565b5b5b809150509392505050565b600073ffffffffffffffffffffffffffffffffffffffff168273ffffffffffffffffffffffffffffffffffffffff1603611d665760006040517f64a0ae92000000000000000000000000000000000000000000000000000000008152600401611d5d9190612de3565b60405180910390fd5b6000611d74838360006110b2565b9050600073ffffffffffffffffffffffffffffffffffffffff168173ffffffffffffffffffffffffffffffffffffffff1603611de757816040517f7e273289000000000000000000000000000000000000000000000000000000008152600401611dde9190612e79565b60405180910390fd5b8373ffffffffffffffffffffffffffffffffffffffff168173ffffffffffffffffffffffffffffffffffffffff1614611e5b578382826040517f64283d7b000000000000000000000000000000000000000000000000000000008152600401611e52939291906133a4565b60405180910390fd5b50505050565b611e69612695565b611e9f576040517fd7e6bcf800000000000000000000000000000000000000000000000000000000815260040160405180910390fd5b565b611ea9611e61565b600073ffffffffffffffffffffffffffffffffffffffff168173ffffffffffffffffffffffffffffffffffffffff1603611f1b5760006040517f1e4fbdf7000000000000000000000000000000000000000000000000000000008152600401611f129190612de3565b60405180910390fd5b611f2481611310565b50565b611f2f611e61565b6000611f39610f75565b905082816000019081611f4c91906135df565b5081816001019081611f5e91906135df565b50505050565b60007f0542a41881ee128a365a727b282c86fa859579490b9bb45aab8503648c8e7900905090565b606060405180602001604052806000815250905090565b6060611fae82610f9d565b506000611fb9611f8c565b90506000815111611fd95760405180602001604052806000815250612004565b80611fe3846126b5565b604051602001611ff4929190613963565b6040516020818303038152906040525b915050919050565b6120168383612783565b61202360008484846115f3565b505050565b60007f80ac58cd000000000000000000000000000000000000000000000000000000007bffffffffffffffffffffffffffffffffffffffffffffffffffffffff1916827bffffffffffffffffffffffffffffffffffffffffffffffffffffffff191614806120f357507f5b5e139f000000000000000000000000000000000000000000000000000000007bffffffffffffffffffffffffffffffffffffffffffffffffffffffff1916827bffffffffffffffffffffffffffffffffffffffffffffffffffffffff1916145b8061210357506121028261287c565b5b9050919050565b600080612115610f75565b90506000612122856119b8565b9050600073ffffffffffffffffffffffffffffffffffffffff168473ffffffffffffffffffffffffffffffffffffffff1614612164576121638185876128e6565b5b600073ffffffffffffffffffffffffffffffffffffffff168173ffffffffffffffffffffffffffffffffffffffff16146121f7576121a6600086600080611a03565b60018260030160008373ffffffffffffffffffffffffffffffffffffffff1673ffffffffffffffffffffffffffffffffffffffff168152602001908152602001600020600082825403925050819055505b600073ffffffffffffffffffffffffffffffffffffffff168673ffffffffffffffffffffffffffffffffffffffff161461227c5760018260030160008873ffffffffffffffffffffffffffffffffffffffff1673ffffffffffffffffffffffffffffffffffffffff168152602001908152602001600020600082825401925050819055505b8582600201600087815260200190815260200160002060006101000a81548173ffffffffffffffffffffffffffffffffffffffff021916908373ffffffffffffffffffffffffffffffffffffffff160217905550848673ffffffffffffffffffffffffffffffffffffffff168273ffffffffffffffffffffffffffffffffffffffff167fddf252ad1be2c89b69c2b068fc378daa952ba7f163c4a11628f55a4df523b3ef60405160405180910390a480925050509392505050565b600061234161108a565b9050806002018054905081600301600084815260200190815260200160002081905550806002018290806001815401808255809150506001900390600052602060002001600090919091909150555050565b600061239d61108a565b905060006123aa84610905565b905060008260010160008581526020019081526020016000205490508181146124975760008360000160008773ffffffffffffffffffffffffffffffffffffffff1673ffffffffffffffffffffffffffffffffffffffff1681526020019081526020016000206000848152602001908152602001600020549050808460000160008873ffffffffffffffffffffffffffffffffffffffff1673ffffffffffffffffffffffffffffffffffffffff1681526020019081526020016000206000848152602001908152602001600020819055508184600101600083815260200190815260200160002081905550505b826001016000858152602001908152602001600020600090558260000160008673ffffffffffffffffffffffffffffffffffffffff1673ffffffffffffffffffffffffffffffffffffffff1681526020019081526020016000206000838152602001908152602001600020600090555050505050565b600061251761108a565b905060006001826002018054905061252f9190613810565b90506000826003016000858152602001908152602001600020549050600083600201838154811061256357612562613404565b5b906000526020600020015490508084600201838154811061258757612586613404565b5b9060005260206000200181905550818460030160008381526020019081526020016000208190555083600301600086815260200190815260200160002060009055836002018054806125dc576125db613987565b5b600190038181906000526020600020016000905590555050505050565b600061260361108a565b90506000600161261285610905565b61261c9190613810565b9050828260000160008673ffffffffffffffffffffffffffffffffffffffff1673ffffffffffffffffffffffffffffffffffffffff168152602001908152602001600020600083815260200190815260200160002081905550808260010160008581526020019081526020016000208190555050505050565b600061269f61140f565b60000160089054906101000a900460ff16905090565b6060600060016126c4846129aa565b01905060008167ffffffffffffffff8111156126e3576126e2612f1e565b5b6040519080825280601f01601f1916602001820160405280156127155781602001600182028036833780820191505090505b509050600082602001820190505b600115612778578080600190039150507f3031323334353637383961626364656600000000000000000000000000000000600a86061a8153600a858161276c5761276b6139b6565b5b04945060008503612723575b819350505050919050565b600073ffffffffffffffffffffffffffffffffffffffff168273ffffffffffffffffffffffffffffffffffffffff16036127f55760006040517f64a0ae920000000000000000000000000000000000000000000000000000000081526004016127ec9190612de3565b60405180910390fd5b6000612803838360006110b2565b9050600073ffffffffffffffffffffffffffffffffffffffff168173ffffffffffffffffffffffffffffffffffffffff16146128775760006040517f73c6ac6e00000000000000000000000000000000000000000000000000000000815260040161286e9190612de3565b60405180910390fd5b505050565b60007f01ffc9a7000000000000000000000000000000000000000000000000000000007bffffffffffffffffffffffffffffffffffffffffffffffffffffffff1916827bffffffffffffffffffffffffffffffffffffffffffffffffffffffff1916149050919050565b6128f1838383612afd565b6129a557600073ffffffffffffffffffffffffffffffffffffffff168373ffffffffffffffffffffffffffffffffffffffff160361296657806040517f7e27328900000000000000000000000000000000000000000000000000000000815260040161295d9190612e79565b60405180910390fd5b81816040517f177e802f00000000000000000000000000000000000000000000000000000000815260040161299c9291906133db565b60405180910390fd5b505050565b600080600090507a184f03e93ff9f4daa797ed6e38ed64bf6a1f0100000000000000008310612a08577a184f03e93ff9f4daa797ed6e38ed64bf6a1f01000000000000000083816129fe576129fd6139b6565b5b0492506040810190505b6d04ee2d6d415b85acef81000000008310612a45576d04ee2d6d415b85acef81000000008381612a3b57612a3a6139b6565b5b0492506020810190505b662386f26fc100008310612a7457662386f26fc100008381612a6a57612a696139b6565b5b0492506010810190505b6305f5e1008310612a9d576305f5e1008381612a9357612a926139b6565b5b0492506008810190505b6127108310612ac2576127108381612ab857612ab76139b6565b5b0492506004810190505b60648310612ae55760648381612adb57612ada6139b6565b5b0492506002810190505b600a8310612af4576001810190505b80915050919050565b60008073ffffffffffffffffffffffffffffffffffffffff168373ffffffffffffffffffffffffffffffffffffffff1614158015612bb557508273ffffffffffffffffffffffffffffffffffffffff168473ffffffffffffffffffffffffffffffffffffffff161480612b765750612b758484610dd3565b5b80612bb457508273ffffffffffffffffffffffffffffffffffffffff16612b9c83611025565b73ffffffffffffffffffffffffffffffffffffffff16145b5b90509392505050565b6000604051905090565b600080fd5b600080fd5b60007fffffffff0000000000000000000000000000000000000000000000000000000082169050919050565b612c0781612bd2565b8114612c1257600080fd5b50565b600081359050612c2481612bfe565b92915050565b600060208284031215612c4057612c3f612bc8565b5b6000612c4e84828501612c15565b91505092915050565b60008115159050919050565b612c6c81612c57565b82525050565b6000602082019050612c876000830184612c63565b92915050565b600081519050919050565b600082825260208201905092915050565b60005b83811015612cc7578082015181840152602081019050612cac565b60008484015250505050565b6000601f19601f8301169050919050565b6000612cef82612c8d565b612cf98185612c98565b9350612d09818560208601612ca9565b612d1281612cd3565b840191505092915050565b60006020820190508181036000830152612d378184612ce4565b905092915050565b6000819050919050565b612d5281612d3f565b8114612d5d57600080fd5b50565b600081359050612d6f81612d49565b92915050565b600060208284031215612d8b57612d8a612bc8565b5b6000612d9984828501612d60565b91505092915050565b600073ffffffffffffffffffffffffffffffffffffffff82169050919050565b6000612dcd82612da2565b9050919050565b612ddd81612dc2565b82525050565b6000602082019050612df86000830184612dd4565b92915050565b612e0781612dc2565b8114612e1257600080fd5b50565b600081359050612e2481612dfe565b92915050565b60008060408385031215612e4157612e40612bc8565b5b6000612e4f85828601612e15565b9250506020612e6085828601612d60565b9150509250929050565b612e7381612d3f565b82525050565b6000602082019050612e8e6000830184612e6a565b92915050565b600080600060608486031215612ead57612eac612bc8565b5b6000612ebb86828701612e15565b9350506020612ecc86828701612e15565b9250506040612edd86828701612d60565b9150509250925092565b600060208284031215612efd57612efc612bc8565b5b6000612f0b84828501612e15565b91505092915050565b600080fd5b600080fd5b7f4e487b7100000000000000000000000000000000000000000000000000000000600052604160045260246000fd5b612f5682612cd3565b810181811067ffffffffffffffff82111715612f7557612f74612f1e565b5b80604052505050565b6000612f88612bbe565b9050612f948282612f4d565b919050565b600067ffffffffffffffff821115612fb457612fb3612f1e565b5b612fbd82612cd3565b9050602081019050919050565b82818337600083830152505050565b6000612fec612fe784612f99565b612f7e565b90508281526020810184848401111561300857613007612f19565b5b613013848285612fca565b509392505050565b600082601f8301126130305761302f612f14565b5b8135613040848260208601612fd9565b91505092915050565b61305281612c57565b811461305d57600080fd5b50565b60008135905061306f81613049565b92915050565b600080600080600060a0868803121561309157613090612bc8565b5b600061309f88828901612e15565b955050602086013567ffffffffffffffff8111156130c0576130bf612bcd565b5b6130cc8882890161301b565b945050604086013567ffffffffffffffff8111156130ed576130ec612bcd565b5b6130f98882890161301b565b935050606086013567ffffffffffffffff81111561311a57613119612bcd565b5b6131268882890161301b565b925050608061313788828901613060565b9150509295509295909350565b6000806040838503121561315b5761315a612bc8565b5b600061316985828601612e15565b925050602061317a85828601613060565b9150509250929050565b600067ffffffffffffffff82111561319f5761319e612f1e565b5b6131a882612cd3565b9050602081019050919050565b60006131c86131c384613184565b612f7e565b9050828152602081018484840111156131e4576131e3612f19565b5b6131ef848285612fca565b509392505050565b600082601f83011261320c5761320b612f14565b5b813561321c8482602086016131b5565b91505092915050565b6000806000806080858703121561323f5761323e612bc8565b5b600061324d87828801612e15565b945050602061325e87828801612e15565b935050604061326f87828801612d60565b925050606085013567ffffffffffffffff8111156132905761328f612bcd565b5b61329c878288016131f7565b91505092959194509250565b600080604083850312156132bf576132be612bc8565b5b60006132cd85828601612e15565b925050602083013567ffffffffffffffff8111156132ee576132ed612bcd565b5b6132fa8582860161301b565b9150509250929050565b6000806040838503121561331b5761331a612bc8565b5b600061332985828601612e15565b925050602061333a85828601612e15565b9150509250929050565b7f4e487b7100000000000000000000000000000000000000000000000000000000600052602260045260246000fd5b6000600282049050600182168061338b57607f821691505b60208210810361339e5761339d613344565b5b50919050565b60006060820190506133b96000830186612dd4565b6133c66020830185612e6a565b6133d36040830184612dd4565b949350505050565b60006040820190506133f06000830185612dd4565b6133fd6020830184612e6a565b9392505050565b7f4e487b7100000000000000000000000000000000000000000000000000000000600052603260045260246000fd5b60008190508160005260206000209050919050565b60006020601f8301049050919050565b600082821b905092915050565b6000600883026134957fffffffffffffffffffffffffffffffffffffffffffffffffffffffffffffffff82613458565b61349f8683613458565b95508019841693508086168417925050509392505050565b6000819050919050565b60006134dc6134d76134d284612d3f565b6134b7565b612d3f565b9050919050565b6000819050919050565b6134f6836134c1565b61350a613502826134e3565b848454613465565b825550505050565b600090565b61351f613512565b61352a8184846134ed565b505050565b5b8181101561354e57613543600082613517565b600181019050613530565b5050565b601f8211156135935761356481613433565b61356d84613448565b8101602085101561357c578190505b61359061358885613448565b83018261352f565b50505b505050565b600082821c905092915050565b60006135b660001984600802613598565b1980831691505092915050565b60006135cf83836135a5565b9150826002028217905092915050565b6135e882612c8d565b67ffffffffffffffff81111561360157613600612f1e565b5b61360b8254613373565b613616828285613552565b600060209050601f8311600181146136495760008415613637578287015190505b61364185826135c3565b8655506136a9565b601f19841661365786613433565b60005b8281101561367f5784890151825560018201915060208501945060208101905061365a565b8683101561369c5784890151613698601f8916826135a5565b8355505b6001600288020188555050505b505050505050565b6000819050919050565b600067ffffffffffffffff82169050919050565b60006136ea6136e56136e0846136b1565b6134b7565b6136bb565b9050919050565b6136fa816136cf565b82525050565b600060208201905061371560008301846136f1565b92915050565b7f4e487b7100000000000000000000000000000000000000000000000000000000600052601160045260246000fd5b600061375582612d3f565b915061376083612d3f565b92508282019050808211156137785761377761371b565b5b92915050565b7f47616d654e66743a20536f756c2062696e64206e6674206e6f7420616c6c6f7760008201527f656420746f207472616e73666572000000000000000000000000000000000000602082015250565b60006137da602e83612c98565b91506137e58261377e565b604082019050919050565b60006020820190508181036000830152613809816137cd565b9050919050565b600061381b82612d3f565b915061382683612d3f565b925082820390508181111561383e5761383d61371b565b5b92915050565b600081519050919050565b600082825260208201905092915050565b600061386b82613844565b613875818561384f565b9350613885818560208601612ca9565b61388e81612cd3565b840191505092915050565b60006080820190506138ae6000830187612dd4565b6138bb6020830186612dd4565b6138c86040830185612e6a565b81810360608301526138da8184613860565b905095945050505050565b6000815190506138f481612bfe565b92915050565b6000602082840312156139105761390f612bc8565b5b600061391e848285016138e5565b91505092915050565b600081905092915050565b600061393d82612c8d565b6139478185613927565b9350613957818560208601612ca9565b80840191505092915050565b600061396f8285613932565b915061397b8284613932565b91508190509392505050565b7f4e487b7100000000000000000000000000000000000000000000000000000000600052603160045260246000fd5b7f4e487b7100000000000000000000000000000000000000000000000000000000600052601260045260246000fdfea2646970667358221220c9d4cdf99af0db2288fac6fd11a1adfdaea508780f8ac5a064ca15f964f0311764736f6c63430008180033",
  "linkReferences": {},
  "deployedLinkReferences": {}
}