{
  "_format": "hh-sol-artifact-1",
  "contractName": "Mirror",
  "sourceName": "contracts/Mirror.sol",
  "abi": [
    {
      "inputs": [],
      "name": "AccessControlBadConfirmation",
      "type": "error"
    },
    {
      "inputs": [
        {
          "internalType": "address",
          "name": "account",
          "type": "address"
        },
        {
          "internalType": "bytes32",
          "name": "neededRole",
          "type": "bytes32"
        }
      ],
      "name": "AccessControlUnauthorizedAccount",
      "type": "error"
    },
    {
      "inputs": [
        {
          "internalType": "address",
          "name": "target",
          "type": "address"
        }
      ],
      "name": "AddressEmptyCode",
      "type": "error"
    },
    {
      "inputs": [
        {
          "internalType": "address",
          "name": "account",
          "type": "address"
        }
      ],
      "name": "AddressInsufficientBalance",
      "type": "error"
    },
    {
      "inputs": [],
      "name": "FailedInnerCall",
      "type": "error"
    },
    {
      "inputs": [],
      "name": "InvalidInitialization",
      "type": "error"
    },
    {
      "inputs": [],
      "name": "NotInitializing",
      "type": "error"
    },
    {
      "inputs": [
        {
          "internalType": "address",
          "name": "token",
          "type": "address"
        }
      ],
      "name": "SafeERC20FailedOperation",
      "type": "error"
    },
    {
      "anonymous": false,
      "inputs": [
        {
          "indexed": false,
          "internalType": "uint64",
          "name": "version",
          "type": "uint64"
        }
      ],
      "name": "Initialized",
      "type": "event"
    },
    {
      "anonymous": false,
      "inputs": [
        {
          "indexed": false,
          "internalType": "address",
          "name": "_token",
          "type": "address"
        },
        {
          "indexed": false,
          "internalType": "address",
          "name": "_spender",
          "type": "address"
        },
        {
          "indexed": false,
          "internalType": "uint256",
          "name": "_amount",
          "type": "uint256"
        }
      ],
      "name": "MirrorApprove",
      "type": "event"
    },
    {
      "anonymous": false,
      "inputs": [
        {
          "indexed": false,
          "internalType": "address",
          "name": "_to",
          "type": "address"
        },
        {
          "indexed": false,
          "internalType": "uint256",
          "name": "_amount",
          "type": "uint256"
        }
      ],
      "name": "MirrorNativeTransfer",
      "type": "event"
    },
    {
      "anonymous": false,
      "inputs": [
        {
          "indexed": false,
          "internalType": "address",
          "name": "_token",
          "type": "address"
        },
        {
          "indexed": false,
          "internalType": "address",
          "name": "_from",
          "type": "address"
        },
        {
          "indexed": false,
          "internalType": "address",
          "name": "_to",
          "type": "address"
        },
        {
          "indexed": false,
          "internalType": "uint256",
          "name": "_tokenId",
          "type": "uint256"
        },
        {
          "indexed": false,
          "internalType": "uint256",
          "name": "_amount",
          "type": "uint256"
        },
        {
          "indexed": false,
          "internalType": "bytes",
          "name": "data",
          "type": "bytes"
        }
      ],
      "name": "MirrorTransferERC1155",
      "type": "event"
    },
    {
      "anonymous": false,
      "inputs": [
        {
          "indexed": false,
          "internalType": "address",
          "name": "_token",
          "type": "address"
        },
        {
          "indexed": false,
          "internalType": "address",
          "name": "_to",
          "type": "address"
        },
        {
          "indexed": false,
          "internalType": "uint256",
          "name": "_amount",
          "type": "uint256"
        }
      ],
      "name": "MirrorTransferERC20",
      "type": "event"
    },
    {
      "anonymous": false,
      "inputs": [
        {
          "indexed": false,
          "internalType": "address",
          "name": "_token",
          "type": "address"
        },
        {
          "indexed": false,
          "internalType": "address",
          "name": "_from",
          "type": "address"
        },
        {
          "indexed": false,
          "internalType": "address",
          "name": "_to",
          "type": "address"
        },
        {
          "indexed": false,
          "internalType": "uint256",
          "name": "_tokenId",
          "type": "uint256"
        },
        {
          "indexed": false,
          "internalType": "bytes",
          "name": "data",
          "type": "bytes"
        }
      ],
      "name": "MirrorTransferERC721",
      "type": "event"
    },
    {
      "anonymous": false,
      "inputs": [
        {
          "indexed": true,
          "internalType": "bytes32",
          "name": "role",
          "type": "bytes32"
        },
        {
          "indexed": true,
          "internalType": "bytes32",
          "name": "previousAdminRole",
          "type": "bytes32"
        },
        {
          "indexed": true,
          "internalType": "bytes32",
          "name": "newAdminRole",
          "type": "bytes32"
        }
      ],
      "name": "RoleAdminChanged",
      "type": "event"
    },
    {
      "anonymous": false,
      "inputs": [
        {
          "indexed": true,
          "internalType": "bytes32",
          "name": "role",
          "type": "bytes32"
        },
        {
          "indexed": true,
          "internalType": "address",
          "name": "account",
          "type": "address"
        },
        {
          "indexed": true,
          "internalType": "address",
          "name": "sender",
          "type": "address"
        }
      ],
      "name": "RoleGranted",
      "type": "event"
    },
    {
      "anonymous": false,
      "inputs": [
        {
          "indexed": true,
          "internalType": "bytes32",
          "name": "role",
          "type": "bytes32"
        },
        {
          "indexed": true,
          "internalType": "address",
          "name": "account",
          "type": "address"
        },
        {
          "indexed": true,
          "internalType": "address",
          "name": "sender",
          "type": "address"
        }
      ],
      "name": "RoleRevoked",
      "type": "event"
    },
    {
      "inputs": [],
      "name": "DEFAULT_ADMIN_ROLE",
      "outputs": [
        {
          "internalType": "bytes32",
          "name": "",
          "type": "bytes32"
        }
      ],
      "stateMutability": "view",
      "type": "function"
    },
    {
      "inputs": [],
      "name": "OPERATOR_ROLE",
      "outputs": [
        {
          "internalType": "bytes32",
          "name": "",
          "type": "bytes32"
        }
      ],
      "stateMutability": "view",
      "type": "function"
    },
    {
      "inputs": [],
      "name": "VERSION",
      "outputs": [
        {
          "internalType": "uint256",
          "name": "",
          "type": "uint256"
        }
      ],
      "stateMutability": "view",
      "type": "function"
    },
    {
      "inputs": [
        {
          "internalType": "address",
          "name": "_token",
          "type": "address"
        },
        {
          "internalType": "address",
          "name": "_spender",
          "type": "address"
        },
        {
          "internalType": "uint256",
          "name": "_amount",
          "type": "uint256"
        }
      ],
      "name": "approve",
      "outputs": [],
      "stateMutability": "nonpayable",
      "type": "function"
    },
    {
      "inputs": [
        {
          "internalType": "bytes32",
          "name": "role",
          "type": "bytes32"
        }
      ],
      "name": "getRoleAdmin",
      "outputs": [
        {
          "internalType": "bytes32",
          "name": "",
          "type": "bytes32"
        }
      ],
      "stateMutability": "view",
      "type": "function"
    },
    {
      "inputs": [
        {
          "internalType": "bytes32",
          "name": "role",
          "type": "bytes32"
        },
        {
          "internalType": "address",
          "name": "account",
          "type": "address"
        }
      ],
      "name": "grantRole",
      "outputs": [],
      "stateMutability": "nonpayable",
      "type": "function"
    },
    {
      "inputs": [
        {
          "internalType": "bytes32",
          "name": "role",
          "type": "bytes32"
        },
        {
          "internalType": "address",
          "name": "account",
          "type": "address"
        }
      ],
      "name": "hasRole",
      "outputs": [
        {
          "internalType": "bool",
          "name": "",
          "type": "bool"
        }
      ],
      "stateMutability": "view",
      "type": "function"
    },
    {
      "inputs": [
        {
          "internalType": "address",
          "name": "_admin",
          "type": "address"
        },
        {
          "internalType": "address",
          "name": "_operator",
          "type": "address"
        },
        {
          "internalType": "address",
          "name": "_primary",
          "type": "address"
        }
      ],
      "name": "initialize",
      "outputs": [],
      "stateMutability": "nonpayable",
      "type": "function"
    },
    {
      "inputs": [
        {
          "internalType": "address payable",
          "name": "_to",
          "type": "address"
        },
        {
          "internalType": "uint256",
          "name": "_amount",
          "type": "uint256"
        }
      ],
      "name": "nativeTransfer",
      "outputs": [],
      "stateMutability": "nonpayable",
      "type": "function"
    },
    {
      "inputs": [
        {
          "internalType": "address",
          "name": "",
          "type": "address"
        },
        {
          "internalType": "address",
          "name": "",
          "type": "address"
        },
        {
          "internalType": "uint256[]",
          "name": "",
          "type": "uint256[]"
        },
        {
          "internalType": "uint256[]",
          "name": "",
          "type": "uint256[]"
        },
        {
          "internalType": "bytes",
          "name": "",
          "type": "bytes"
        }
      ],
      "name": "onERC1155BatchReceived",
      "outputs": [
        {
          "internalType": "bytes4",
          "name": "",
          "type": "bytes4"
        }
      ],
      "stateMutability": "nonpayable",
      "type": "function"
    },
    {
      "inputs": [
        {
          "internalType": "address",
          "name": "",
          "type": "address"
        },
        {
          "internalType": "address",
          "name": "",
          "type": "address"
        },
        {
          "internalType": "uint256",
          "name": "",
          "type": "uint256"
        },
        {
          "internalType": "uint256",
          "name": "",
          "type": "uint256"
        },
        {
          "internalType": "bytes",
          "name": "",
          "type": "bytes"
        }
      ],
      "name": "onERC1155Received",
      "outputs": [
        {
          "internalType": "bytes4",
          "name": "",
          "type": "bytes4"
        }
      ],
      "stateMutability": "nonpayable",
      "type": "function"
    },
    {
      "inputs": [
        {
          "internalType": "address",
          "name": "",
          "type": "address"
        },
        {
          "internalType": "address",
          "name": "",
          "type": "address"
        },
        {
          "internalType": "uint256",
          "name": "",
          "type": "uint256"
        },
        {
          "internalType": "bytes",
          "name": "",
          "type": "bytes"
        }
      ],
      "name": "onERC721Received",
      "outputs": [
        {
          "internalType": "bytes4",
          "name": "",
          "type": "bytes4"
        }
      ],
      "stateMutability": "nonpayable",
      "type": "function"
    },
    {
      "inputs": [
        {
          "internalType": "bool",
          "name": "_paused",
          "type": "bool"
        }
      ],
      "name": "pause",
      "outputs": [],
      "stateMutability": "nonpayable",
      "type": "function"
    },
    {
      "inputs": [],
      "name": "paused",
      "outputs": [
        {
          "internalType": "bool",
          "name": "",
          "type": "bool"
        }
      ],
      "stateMutability": "view",
      "type": "function"
    },
    {
      "inputs": [],
      "name": "primary",
      "outputs": [
        {
          "internalType": "address",
          "name": "",
          "type": "address"
        }
      ],
      "stateMutability": "view",
      "type": "function"
    },
    {
      "inputs": [
        {
          "internalType": "bytes32",
          "name": "role",
          "type": "bytes32"
        },
        {
          "internalType": "address",
          "name": "callerConfirmation",
          "type": "address"
        }
      ],
      "name": "renounceRole",
      "outputs": [],
      "stateMutability": "nonpayable",
      "type": "function"
    },
    {
      "inputs": [
        {
          "internalType": "bytes32",
          "name": "role",
          "type": "bytes32"
        },
        {
          "internalType": "address",
          "name": "account",
          "type": "address"
        }
      ],
      "name": "revokeRole",
      "outputs": [],
      "stateMutability": "nonpayable",
      "type": "function"
    },
    {
      "inputs": [
        {
          "internalType": "bytes4",
          "name": "interfaceId",
          "type": "bytes4"
        }
      ],
      "name": "supportsInterface",
      "outputs": [
        {
          "internalType": "bool",
          "name": "",
          "type": "bool"
        }
      ],
      "stateMutability": "view",
      "type": "function"
    },
    {
      "inputs": [
        {
          "internalType": "address",
          "name": "_token",
          "type": "address"
        },
        {
          "internalType": "address",
          "name": "_to",
          "type": "address"
        },
        {
          "internalType": "uint256",
          "name": "_amount",
          "type": "uint256"
        }
      ],
      "name": "transfer",
      "outputs": [],
      "stateMutability": "nonpayable",
      "type": "function"
    },
    {
      "inputs": [
        {
          "internalType": "address",
          "name": "_token",
          "type": "address"
        },
        {
          "internalType": "address",
          "name": "_from",
          "type": "address"
        },
        {
          "internalType": "address",
          "name": "_to",
          "type": "address"
        },
        {
          "internalType": "uint256",
          "name": "_tokenId",
          "type": "uint256"
        },
        {
          "internalType": "bytes",
          "name": "data",
          "type": "bytes"
        }
      ],
      "name": "transferFrom",
      "outputs": [],
      "stateMutability": "nonpayable",
      "type": "function"
    },
    {
      "inputs": [
        {
          "internalType": "address",
          "name": "_token",
          "type": "address"
        },
        {
          "internalType": "address",
          "name": "_from",
          "type": "address"
        },
        {
          "internalType": "address",
          "name": "_to",
          "type": "address"
        },
        {
          "internalType": "uint256",
          "name": "_tokenId",
          "type": "uint256"
        },
        {
          "internalType": "uint256",
          "name": "_amount",
          "type": "uint256"
        },
        {
          "internalType": "bytes",
          "name": "data",
          "type": "bytes"
        }
      ],
      "name": "transferFrom",
      "outputs": [],
      "stateMutability": "nonpayable",
      "type": "function"
    },
    {
      "stateMutability": "payable",
      "type": "receive"
    }
  ],
  "bytecode": "0x608060405234801561001057600080fd5b5061287e806100206000396000f3fe60806040526004361061012e5760003560e01c8063b7c0d4ef116100ab578063d547741f1161006f578063d547741f1461040b578063e1f21c6714610434578063f23a6e611461045d578063f2522bcd1461049a578063f5b541a6146104c3578063ffa1ad74146104ee57610135565b8063b7c0d4ef14610328578063bc197c8114610351578063beabacc81461038e578063c0c53b8b146103b7578063c6dbdf61146103e057610135565b806336568abe116100f257806336568abe146102435780634a280a551461026c5780635c975abb1461029557806391d14854146102c0578063a217fddf146102fd57610135565b806301ffc9a71461013a57806302329a2914610177578063150b7a02146101a0578063248a9ca3146101dd5780632f2ff15d1461021a57610135565b3661013557005b600080fd5b34801561014657600080fd5b50610161600480360381019061015c9190611911565b610519565b60405161016e9190611959565b60405180910390f35b34801561018357600080fd5b5061019e600480360381019061019991906119a0565b61052b565b005b3480156101ac57600080fd5b506101c760048036038101906101c29190611ba7565b610556565b6040516101d49190611c39565b60405180910390f35b3480156101e957600080fd5b5061020460048036038101906101ff9190611c8a565b61056a565b6040516102119190611cc6565b60405180910390f35b34801561022657600080fd5b50610241600480360381019061023c9190611ce1565b610598565b005b34801561024f57600080fd5b5061026a60048036038101906102659190611ce1565b6105ba565b005b34801561027857600080fd5b50610293600480360381019061028e9190611d81565b610635565b005b3480156102a157600080fd5b506102aa61076c565b6040516102b79190611959565b60405180910390f35b3480156102cc57600080fd5b506102e760048036038101906102e29190611ce1565b61077f565b6040516102f49190611959565b60405180910390f35b34801561030957600080fd5b506103126107f8565b60405161031f9190611cc6565b60405180910390f35b34801561033457600080fd5b5061034f600480360381019061034a9190611e1b565b6107ff565b005b34801561035d57600080fd5b5061037860048036038101906103739190611f8d565b61093b565b6040516103859190611c39565b60405180910390f35b34801561039a57600080fd5b506103b560048036038101906103b0919061205c565b610950565b005b3480156103c357600080fd5b506103de60048036038101906103d991906120af565b610a36565b005b3480156103ec57600080fd5b506103f5610c3f565b6040516104029190612111565b60405180910390f35b34801561041757600080fd5b50610432600480360381019061042d9190611ce1565b610c63565b005b34801561044057600080fd5b5061045b6004803603810190610456919061205c565b610c85565b005b34801561046957600080fd5b50610484600480360381019061047f919061212c565b610d6b565b6040516104919190611c39565b60405180910390f35b3480156104a657600080fd5b506104c160048036038101906104bc9190612201565b610d80565b005b3480156104cf57600080fd5b506104d8610e42565b6040516104e59190611cc6565b60405180910390f35b3480156104fa57600080fd5b50610503610e66565b6040516105109190612250565b60405180910390f35b600061052482610e6b565b9050919050565b6000801b61053881610ee5565b81600060146101000a81548160ff0219169083151502179055505050565b600063150b7a0260e01b9050949350505050565b600080610575610ef9565b905080600001600084815260200190815260200160002060010154915050919050565b6105a18261056a565b6105aa81610ee5565b6105b48383610f21565b50505050565b6105c2611022565b73ffffffffffffffffffffffffffffffffffffffff168173ffffffffffffffffffffffffffffffffffffffff1614610626576040517f6697b23200000000000000000000000000000000000000000000000000000000815260040160405180910390fd5b610630828261102a565b505050565b600060149054906101000a900460ff1615610685576040517f08c379a000000000000000000000000000000000000000000000000000000000815260040161067c906122c8565b60405180910390fd5b7f97667070c54ef182b0f5858b034beac1b6f3089aa2d3188bb1e8929f4fa9b9296106af81610ee5565b8673ffffffffffffffffffffffffffffffffffffffff1663b88d4fde87878787876040518663ffffffff1660e01b81526004016106f0959493929190612326565b600060405180830381600087803b15801561070a57600080fd5b505af115801561071e573d6000803e3d6000fd5b505050507f39ddb13f2636a4e4b209493ed224441ff626b65bc2de30a124d8e3e75ad5350487878787878760405161075b96959493929190612374565b60405180910390a150505050505050565b600060149054906101000a900460ff1681565b60008061078a610ef9565b905080600001600085815260200190815260200160002060000160008473ffffffffffffffffffffffffffffffffffffffff1673ffffffffffffffffffffffffffffffffffffffff16815260200190815260200160002060009054906101000a900460ff1691505092915050565b6000801b81565b600060149054906101000a900460ff161561084f576040517f08c379a0000000000000000000000000000000000000000000000000000000008152600401610846906122c8565b60405180910390fd5b7f97667070c54ef182b0f5858b034beac1b6f3089aa2d3188bb1e8929f4fa9b92961087981610ee5565b8773ffffffffffffffffffffffffffffffffffffffff1663f242432a8888888888886040518763ffffffff1660e01b81526004016108bc969594939291906123d0565b600060405180830381600087803b1580156108d657600080fd5b505af11580156108ea573d6000803e3d6000fd5b505050507f3d48b22d74029225f572836f13fa1d9987165246f40229f4205b7e5617edc71f88888888888888604051610929979695949392919061242c565b60405180910390a15050505050505050565b600063bc197c8160e01b905095945050505050565b600060149054906101000a900460ff16156109a0576040517f08c379a0000000000000000000000000000000000000000000000000000000008152600401610997906122c8565b60405180910390fd5b7f97667070c54ef182b0f5858b034beac1b6f3089aa2d3188bb1e8929f4fa9b9296109ca81610ee5565b6109f583838673ffffffffffffffffffffffffffffffffffffffff1661112c9092919063ffffffff16565b7f6b5f9ad4a632b939cb0f753be352c9fdf89ddc173714f2982b1e4c3e81d04d69848484604051610a2893929190612496565b60405180910390a150505050565b6000610a406111ab565b905060008160000160089054906101000a900460ff1615905060008260000160009054906101000a900467ffffffffffffffff1690506000808267ffffffffffffffff16148015610a8e5750825b9050600060018367ffffffffffffffff16148015610ac3575060003073ffffffffffffffffffffffffffffffffffffffff163b145b905081158015610ad1575080155b15610b08576040517ff92ee8a900000000000000000000000000000000000000000000000000000000815260040160405180910390fd5b60018560000160006101000a81548167ffffffffffffffff021916908367ffffffffffffffff1602179055508315610b585760018560000160086101000a81548160ff0219169083151502179055505b610b656000801b89610f21565b50610b907f97667070c54ef182b0f5858b034beac1b6f3089aa2d3188bb1e8929f4fa9b92988610f21565b50856000806101000a81548173ffffffffffffffffffffffffffffffffffffffff021916908373ffffffffffffffffffffffffffffffffffffffff160217905550610bd96111d3565b8315610c355760008560000160086101000a81548160ff0219169083151502179055507fc7f505b2f371ae2175ee4913f4499e1f2633a7b5936321eed1cdaeb6115181d26001604051610c2c9190612526565b60405180910390a15b5050505050505050565b60008054906101000a900473ffffffffffffffffffffffffffffffffffffffff1681565b610c6c8261056a565b610c7581610ee5565b610c7f838361102a565b50505050565b600060149054906101000a900460ff1615610cd5576040517f08c379a0000000000000000000000000000000000000000000000000000000008152600401610ccc906122c8565b60405180910390fd5b7f97667070c54ef182b0f5858b034beac1b6f3089aa2d3188bb1e8929f4fa9b929610cff81610ee5565b610d2a83838673ffffffffffffffffffffffffffffffffffffffff166111dd9092919063ffffffff16565b7f43429cd49fdf83fff68b66ad27bc43e1fb9e01eb6c2ef33f5dccc63fe0ab380d848484604051610d5d93929190612496565b60405180910390a150505050565b600063f23a6e6160e01b905095945050505050565b600060149054906101000a900460ff1615610dd0576040517f08c379a0000000000000000000000000000000000000000000000000000000008152600401610dc7906122c8565b60405180910390fd5b7f97667070c54ef182b0f5858b034beac1b6f3089aa2d3188bb1e8929f4fa9b929610dfa81610ee5565b610e048383611279565b7f23d5d91128e489a28322e6eaad42c22652c24558e01bcbf70bfc2bcc1ca5c5648383604051610e35929190612596565b60405180910390a1505050565b7f97667070c54ef182b0f5858b034beac1b6f3089aa2d3188bb1e8929f4fa9b92981565b600181565b60007f4e2312e0000000000000000000000000000000000000000000000000000000007bffffffffffffffffffffffffffffffffffffffffffffffffffffffff1916827bffffffffffffffffffffffffffffffffffffffffffffffffffffffff19161480610ede5750610edd82611366565b5b9050919050565b610ef681610ef1611022565b6113d0565b50565b60007f02dd7bc7dec4dceedda775e58dd541e08a116c6c53815c0bd028192f7b626800905090565b600080610f2c610ef9565b9050610f38848461077f565b61101657600181600001600086815260200190815260200160002060000160008573ffffffffffffffffffffffffffffffffffffffff1673ffffffffffffffffffffffffffffffffffffffff16815260200190815260200160002060006101000a81548160ff021916908315150217905550610fb2611022565b73ffffffffffffffffffffffffffffffffffffffff168373ffffffffffffffffffffffffffffffffffffffff16857f2f8788117e7eff1d82e926ec794901d17c78024a50270940304540a733656f0d60405160405180910390a4600191505061101c565b60009150505b92915050565b600033905090565b600080611035610ef9565b9050611041848461077f565b1561112057600081600001600086815260200190815260200160002060000160008573ffffffffffffffffffffffffffffffffffffffff1673ffffffffffffffffffffffffffffffffffffffff16815260200190815260200160002060006101000a81548160ff0219169083151502179055506110bc611022565b73ffffffffffffffffffffffffffffffffffffffff168373ffffffffffffffffffffffffffffffffffffffff16857ff6391f5c32d9c69d2a47ea670b442974b53935d1edc7fd64eb21e047a839171b60405160405180910390a46001915050611126565b60009150505b92915050565b6111a6838473ffffffffffffffffffffffffffffffffffffffff1663a9059cbb858560405160240161115f9291906125bf565b604051602081830303815290604052915060e01b6020820180517bffffffffffffffffffffffffffffffffffffffffffffffffffffffff8381831617835250505050611421565b505050565b60007ff0c57e16840df040f15088dc2f81fe391c3923bec73e23a9662efc9c229c6a00905090565b6111db6114b8565b565b60008373ffffffffffffffffffffffffffffffffffffffff1663dd62ed3e30856040518363ffffffff1660e01b815260040161121a9291906125e8565b602060405180830381865afa158015611237573d6000803e3d6000fd5b505050506040513d601f19601f8201168201806040525081019061125b9190612626565b90506112738484848461126e9190612682565b6114f8565b50505050565b804710156112be57306040517fcd7860590000000000000000000000000000000000000000000000000000000081526004016112b59190612111565b60405180910390fd5b60008273ffffffffffffffffffffffffffffffffffffffff16826040516112e4906126e7565b60006040518083038185875af1925050503d8060008114611321576040519150601f19603f3d011682016040523d82523d6000602084013e611326565b606091505b5050905080611361576040517f1425ea4200000000000000000000000000000000000000000000000000000000815260040160405180910390fd5b505050565b60007f01ffc9a7000000000000000000000000000000000000000000000000000000007bffffffffffffffffffffffffffffffffffffffffffffffffffffffff1916827bffffffffffffffffffffffffffffffffffffffffffffffffffffffff1916149050919050565b6113da828261077f565b61141d5780826040517fe2517d3f0000000000000000000000000000000000000000000000000000000081526004016114149291906126fc565b60405180910390fd5b5050565b600061144c828473ffffffffffffffffffffffffffffffffffffffff1661160790919063ffffffff16565b9050600081511415801561147157508080602001905181019061146f919061273a565b155b156114b357826040517f5274afe70000000000000000000000000000000000000000000000000000000081526004016114aa9190612111565b60405180910390fd5b505050565b6114c061161d565b6114f6576040517fd7e6bcf800000000000000000000000000000000000000000000000000000000815260040160405180910390fd5b565b60008373ffffffffffffffffffffffffffffffffffffffff1663095ea7b384846040516024016115299291906125bf565b604051602081830303815290604052915060e01b6020820180517bffffffffffffffffffffffffffffffffffffffffffffffffffffffff83818316178352505050509050611577848261163d565b611601576115f6848573ffffffffffffffffffffffffffffffffffffffff1663095ea7b38660006040516024016115af9291906127a2565b604051602081830303815290604052915060e01b6020820180517bffffffffffffffffffffffffffffffffffffffffffffffffffffffff8381831617835250505050611421565b6116008482611421565b5b50505050565b606061161583836000611704565b905092915050565b60006116276111ab565b60000160089054906101000a900460ff16905090565b60008060008473ffffffffffffffffffffffffffffffffffffffff16846040516116679190612831565b6000604051808303816000865af19150503d80600081146116a4576040519150601f19603f3d011682016040523d82523d6000602084013e6116a9565b606091505b50915091508180156116d757506000815114806116d65750808060200190518101906116d5919061273a565b5b5b80156116fa575060008573ffffffffffffffffffffffffffffffffffffffff163b115b9250505092915050565b60608147101561174b57306040517fcd7860590000000000000000000000000000000000000000000000000000000081526004016117429190612111565b60405180910390fd5b6000808573ffffffffffffffffffffffffffffffffffffffff1684866040516117749190612831565b60006040518083038185875af1925050503d80600081146117b1576040519150601f19603f3d011682016040523d82523d6000602084013e6117b6565b606091505b50915091506117c68683836117d1565b925050509392505050565b6060826117e6576117e182611860565b611858565b6000825114801561180e575060008473ffffffffffffffffffffffffffffffffffffffff163b145b1561185057836040517f9996b3150000000000000000000000000000000000000000000000000000000081526004016118479190612111565b60405180910390fd5b819050611859565b5b9392505050565b6000815111156118735780518082602001fd5b6040517f1425ea4200000000000000000000000000000000000000000000000000000000815260040160405180910390fd5b6000604051905090565b600080fd5b600080fd5b60007fffffffff0000000000000000000000000000000000000000000000000000000082169050919050565b6118ee816118b9565b81146118f957600080fd5b50565b60008135905061190b816118e5565b92915050565b600060208284031215611927576119266118af565b5b6000611935848285016118fc565b91505092915050565b60008115159050919050565b6119538161193e565b82525050565b600060208201905061196e600083018461194a565b92915050565b61197d8161193e565b811461198857600080fd5b50565b60008135905061199a81611974565b92915050565b6000602082840312156119b6576119b56118af565b5b60006119c48482850161198b565b91505092915050565b600073ffffffffffffffffffffffffffffffffffffffff82169050919050565b60006119f8826119cd565b9050919050565b611a08816119ed565b8114611a1357600080fd5b50565b600081359050611a25816119ff565b92915050565b6000819050919050565b611a3e81611a2b565b8114611a4957600080fd5b50565b600081359050611a5b81611a35565b92915050565b600080fd5b600080fd5b6000601f19601f8301169050919050565b7f4e487b7100000000000000000000000000000000000000000000000000000000600052604160045260246000fd5b611ab482611a6b565b810181811067ffffffffffffffff82111715611ad357611ad2611a7c565b5b80604052505050565b6000611ae66118a5565b9050611af28282611aab565b919050565b600067ffffffffffffffff821115611b1257611b11611a7c565b5b611b1b82611a6b565b9050602081019050919050565b82818337600083830152505050565b6000611b4a611b4584611af7565b611adc565b905082815260208101848484011115611b6657611b65611a66565b5b611b71848285611b28565b509392505050565b600082601f830112611b8e57611b8d611a61565b5b8135611b9e848260208601611b37565b91505092915050565b60008060008060808587031215611bc157611bc06118af565b5b6000611bcf87828801611a16565b9450506020611be087828801611a16565b9350506040611bf187828801611a4c565b925050606085013567ffffffffffffffff811115611c1257611c116118b4565b5b611c1e87828801611b79565b91505092959194509250565b611c33816118b9565b82525050565b6000602082019050611c4e6000830184611c2a565b92915050565b6000819050919050565b611c6781611c54565b8114611c7257600080fd5b50565b600081359050611c8481611c5e565b92915050565b600060208284031215611ca057611c9f6118af565b5b6000611cae84828501611c75565b91505092915050565b611cc081611c54565b82525050565b6000602082019050611cdb6000830184611cb7565b92915050565b60008060408385031215611cf857611cf76118af565b5b6000611d0685828601611c75565b9250506020611d1785828601611a16565b9150509250929050565b600080fd5b600080fd5b60008083601f840112611d4157611d40611a61565b5b8235905067ffffffffffffffff811115611d5e57611d5d611d21565b5b602083019150836001820283011115611d7a57611d79611d26565b5b9250929050565b60008060008060008060a08789031215611d9e57611d9d6118af565b5b6000611dac89828a01611a16565b9650506020611dbd89828a01611a16565b9550506040611dce89828a01611a16565b9450506060611ddf89828a01611a4c565b935050608087013567ffffffffffffffff811115611e0057611dff6118b4565b5b611e0c89828a01611d2b565b92509250509295509295509295565b600080600080600080600060c0888a031215611e3a57611e396118af565b5b6000611e488a828b01611a16565b9750506020611e598a828b01611a16565b9650506040611e6a8a828b01611a16565b9550506060611e7b8a828b01611a4c565b9450506080611e8c8a828b01611a4c565b93505060a088013567ffffffffffffffff811115611ead57611eac6118b4565b5b611eb98a828b01611d2b565b925092505092959891949750929550565b600067ffffffffffffffff821115611ee557611ee4611a7c565b5b602082029050602081019050919050565b6000611f09611f0484611eca565b611adc565b90508083825260208201905060208402830185811115611f2c57611f2b611d26565b5b835b81811015611f555780611f418882611a4c565b845260208401935050602081019050611f2e565b5050509392505050565b600082601f830112611f7457611f73611a61565b5b8135611f84848260208601611ef6565b91505092915050565b600080600080600060a08688031215611fa957611fa86118af565b5b6000611fb788828901611a16565b9550506020611fc888828901611a16565b945050604086013567ffffffffffffffff811115611fe957611fe86118b4565b5b611ff588828901611f5f565b935050606086013567ffffffffffffffff811115612016576120156118b4565b5b61202288828901611f5f565b925050608086013567ffffffffffffffff811115612043576120426118b4565b5b61204f88828901611b79565b9150509295509295909350565b600080600060608486031215612075576120746118af565b5b600061208386828701611a16565b935050602061209486828701611a16565b92505060406120a586828701611a4c565b9150509250925092565b6000806000606084860312156120c8576120c76118af565b5b60006120d686828701611a16565b93505060206120e786828701611a16565b92505060406120f886828701611a16565b9150509250925092565b61210b816119ed565b82525050565b60006020820190506121266000830184612102565b92915050565b600080600080600060a08688031215612148576121476118af565b5b600061215688828901611a16565b955050602061216788828901611a16565b945050604061217888828901611a4c565b935050606061218988828901611a4c565b925050608086013567ffffffffffffffff8111156121aa576121a96118b4565b5b6121b688828901611b79565b9150509295509295909350565b60006121ce826119cd565b9050919050565b6121de816121c3565b81146121e957600080fd5b50565b6000813590506121fb816121d5565b92915050565b60008060408385031215612218576122176118af565b5b6000612226858286016121ec565b925050602061223785828601611a4c565b9150509250929050565b61224a81611a2b565b82525050565b60006020820190506122656000830184612241565b92915050565b600082825260208201905092915050565b7f4d6972726f723a20706175736564000000000000000000000000000000000000600082015250565b60006122b2600e8361226b565b91506122bd8261227c565b602082019050919050565b600060208201905081810360008301526122e1816122a5565b9050919050565b600082825260208201905092915050565b600061230583856122e8565b9350612312838584611b28565b61231b83611a6b565b840190509392505050565b600060808201905061233b6000830188612102565b6123486020830187612102565b6123556040830186612241565b81810360608301526123688184866122f9565b90509695505050505050565b600060a0820190506123896000830189612102565b6123966020830188612102565b6123a36040830187612102565b6123b06060830186612241565b81810360808301526123c38184866122f9565b9050979650505050505050565b600060a0820190506123e56000830189612102565b6123f26020830188612102565b6123ff6040830187612241565b61240c6060830186612241565b818103608083015261241f8184866122f9565b9050979650505050505050565b600060c082019050612441600083018a612102565b61244e6020830189612102565b61245b6040830188612102565b6124686060830187612241565b6124756080830186612241565b81810360a08301526124888184866122f9565b905098975050505050505050565b60006060820190506124ab6000830186612102565b6124b86020830185612102565b6124c56040830184612241565b949350505050565b6000819050919050565b600067ffffffffffffffff82169050919050565b6000819050919050565b600061251061250b612506846124cd565b6124eb565b6124d7565b9050919050565b612520816124f5565b82525050565b600060208201905061253b6000830184612517565b92915050565b600061255c612557612552846119cd565b6124eb565b6119cd565b9050919050565b600061256e82612541565b9050919050565b600061258082612563565b9050919050565b61259081612575565b82525050565b60006040820190506125ab6000830185612587565b6125b86020830184612241565b9392505050565b60006040820190506125d46000830185612102565b6125e16020830184612241565b9392505050565b60006040820190506125fd6000830185612102565b61260a6020830184612102565b9392505050565b60008151905061262081611a35565b92915050565b60006020828403121561263c5761263b6118af565b5b600061264a84828501612611565b91505092915050565b7f4e487b7100000000000000000000000000000000000000000000000000000000600052601160045260246000fd5b600061268d82611a2b565b915061269883611a2b565b92508282019050808211156126b0576126af612653565b5b92915050565b600081905092915050565b50565b60006126d16000836126b6565b91506126dc826126c1565b600082019050919050565b60006126f2826126c4565b9150819050919050565b60006040820190506127116000830185612102565b61271e6020830184611cb7565b9392505050565b60008151905061273481611974565b92915050565b6000602082840312156127505761274f6118af565b5b600061275e84828501612725565b91505092915050565b6000819050919050565b600061278c61278761278284612767565b6124eb565b611a2b565b9050919050565b61279c81612771565b82525050565b60006040820190506127b76000830185612102565b6127c46020830184612793565b9392505050565b600081519050919050565b60005b838110156127f45780820151818401526020810190506127d9565b60008484015250505050565b600061280b826127cb565b61281581856126b6565b93506128258185602086016127d6565b80840191505092915050565b600061283d8284612800565b91508190509291505056fea2646970667358221220812e3821244dec1a9f0dbb21cdbedd73b5eeae5c65b0d244908aa0c374a7f7f464736f6c63430008180033",
  "linkReferences": {},
  "deployedLinkReferences": {}
}