{
  "_format": "hh-sol-artifact-1",
  "contractName": "Register",
  "sourceName": "contracts/Register.sol",
  "abi": [
    {
      "inputs": [],
      "stateMutability": "nonpayable",
      "type": "constructor"
    },
    {
      "inputs": [],
      "name": "Create2EmptyBytecode",
      "type": "error"
    },
    {
      "inputs": [],
      "name": "Create2FailedDeployment",
      "type": "error"
    },
    {
      "inputs": [
        {
          "internalType": "uint256",
          "name": "balance",
          "type": "uint256"
        },
        {
          "internalType": "uint256",
          "name": "needed",
          "type": "uint256"
        }
      ],
      "name": "Create2InsufficientBalance",
      "type": "error"
    },
    {
      "inputs": [],
      "name": "InvalidInitialization",
      "type": "error"
    },
    {
      "inputs": [],
      "name": "NotInitializing",
      "type": "error"
    },
    {
      "inputs": [
        {
          "internalType": "address",
          "name": "owner",
          "type": "address"
        }
      ],
      "name": "OwnableInvalidOwner",
      "type": "error"
    },
    {
      "inputs": [
        {
          "internalType": "address",
          "name": "account",
          "type": "address"
        }
      ],
      "name": "OwnableUnauthorizedAccount",
      "type": "error"
    },
    {
      "inputs": [],
      "name": "ReentrancyGuardReentrantCall",
      "type": "error"
    },
    {
      "anonymous": false,
      "inputs": [
        {
          "indexed": false,
          "internalType": "address",
          "name": "_primary",
          "type": "address"
        },
        {
          "indexed": false,
          "internalType": "string",
          "name": "_username",
          "type": "string"
        },
        {
          "indexed": false,
          "internalType": "address",
          "name": "_mirror",
          "type": "address"
        },
        {
          "indexed": false,
          "internalType": "uint64",
          "name": "chainId",
          "type": "uint64"
        }
      ],
      "name": "CreateUser",
      "type": "event"
    },
    {
      "anonymous": false,
      "inputs": [
        {
          "indexed": false,
          "internalType": "address",
          "name": "_primary",
          "type": "address"
        }
      ],
      "name": "DeleteUser",
      "type": "event"
    },
    {
      "anonymous": false,
      "inputs": [
        {
          "indexed": false,
          "internalType": "uint64",
          "name": "version",
          "type": "uint64"
        }
      ],
      "name": "Initialized",
      "type": "event"
    },
    {
      "anonymous": false,
      "inputs": [
        {
          "indexed": true,
          "internalType": "address",
          "name": "primary",
          "type": "address"
        },
        {
          "indexed": true,
          "internalType": "address",
          "name": "mirror",
          "type": "address"
        }
      ],
      "name": "MirrorDeployed",
      "type": "event"
    },
    {
      "anonymous": false,
      "inputs": [
        {
          "indexed": true,
          "internalType": "address",
          "name": "previousOwner",
          "type": "address"
        },
        {
          "indexed": true,
          "internalType": "address",
          "name": "newOwner",
          "type": "address"
        }
      ],
      "name": "OwnershipTransferred",
      "type": "event"
    },
    {
      "inputs": [
        {
          "internalType": "address",
          "name": "_primary",
          "type": "address"
        }
      ],
      "name": "computeMirrorAddress",
      "outputs": [
        {
          "internalType": "address",
          "name": "",
          "type": "address"
        }
      ],
      "stateMutability": "view",
      "type": "function"
    },
    {
      "inputs": [
        {
          "internalType": "address",
          "name": "_primary",
          "type": "address"
        },
        {
          "internalType": "string",
          "name": "_username",
          "type": "string"
        },
        {
          "internalType": "uint64",
          "name": "_chainId",
          "type": "uint64"
        }
      ],
      "name": "createUser",
      "outputs": [],
      "stateMutability": "nonpayable",
      "type": "function"
    },
    {
      "inputs": [
        {
          "internalType": "address",
          "name": "_primary",
          "type": "address"
        },
        {
          "internalType": "address",
          "name": "_mirror",
          "type": "address"
        },
        {
          "internalType": "string",
          "name": "_username",
          "type": "string"
        },
        {
          "internalType": "uint64",
          "name": "_chainId",
          "type": "uint64"
        }
      ],
      "name": "createUserWithMirror",
      "outputs": [],
      "stateMutability": "nonpayable",
      "type": "function"
    },
    {
      "inputs": [
        {
          "internalType": "address",
          "name": "_primary",
          "type": "address"
        }
      ],
      "name": "deleteUser",
      "outputs": [],
      "stateMutability": "nonpayable",
      "type": "function"
    },
    {
      "inputs": [
        {
          "internalType": "address",
          "name": "",
          "type": "address"
        }
      ],
      "name": "ensNames",
      "outputs": [
        {
          "internalType": "string",
          "name": "",
          "type": "string"
        }
      ],
      "stateMutability": "view",
      "type": "function"
    },
    {
      "inputs": [
        {
          "internalType": "string",
          "name": "",
          "type": "string"
        }
      ],
      "name": "ensRecords",
      "outputs": [
        {
          "internalType": "address",
          "name": "",
          "type": "address"
        }
      ],
      "stateMutability": "view",
      "type": "function"
    },
    {
      "inputs": [
        {
          "internalType": "string",
          "name": "_ensName",
          "type": "string"
        }
      ],
      "name": "getENSAddress",
      "outputs": [
        {
          "internalType": "address",
          "name": "",
          "type": "address"
        }
      ],
      "stateMutability": "view",
      "type": "function"
    },
    {
      "inputs": [
        {
          "internalType": "address",
          "name": "_primary",
          "type": "address"
        }
      ],
      "name": "getENSName",
      "outputs": [
        {
          "internalType": "string",
          "name": "",
          "type": "string"
        }
      ],
      "stateMutability": "view",
      "type": "function"
    },
    {
      "inputs": [
        {
          "internalType": "address",
          "name": "_primary",
          "type": "address"
        }
      ],
      "name": "getUserInfo",
      "outputs": [
        {
          "internalType": "address",
          "name": "mirror",
          "type": "address"
        },
        {
          "internalType": "string",
          "name": "username",
          "type": "string"
        },
        {
          "internalType": "uint64",
          "name": "chainId",
          "type": "uint64"
        }
      ],
      "stateMutability": "view",
      "type": "function"
    },
    {
      "inputs": [
        {
          "internalType": "address",
          "name": "_owner",
          "type": "address"
        },
        {
          "internalType": "address",
          "name": "_router",
          "type": "address"
        }
      ],
      "name": "initialize",
      "outputs": [],
      "stateMutability": "nonpayable",
      "type": "function"
    },
    {
      "inputs": [],
      "name": "owner",
      "outputs": [
        {
          "internalType": "address",
          "name": "",
          "type": "address"
        }
      ],
      "stateMutability": "view",
      "type": "function"
    },
    {
      "inputs": [],
      "name": "renounceOwnership",
      "outputs": [],
      "stateMutability": "nonpayable",
      "type": "function"
    },
    {
      "inputs": [],
      "name": "router",
      "outputs": [
        {
          "internalType": "address",
          "name": "",
          "type": "address"
        }
      ],
      "stateMutability": "view",
      "type": "function"
    },
    {
      "inputs": [
        {
          "internalType": "address",
          "name": "newOwner",
          "type": "address"
        }
      ],
      "name": "transferOwnership",
      "outputs": [],
      "stateMutability": "nonpayable",
      "type": "function"
    },
    {
      "inputs": [
        {
          "internalType": "address",
          "name": "",
          "type": "address"
        }
      ],
      "name": "userInfo",
      "outputs": [
        {
          "internalType": "address",
          "name": "mirror",
          "type": "address"
        },
        {
          "internalType": "string",
          "name": "username",
          "type": "string"
        },
        {
          "internalType": "uint64",
          "name": "chainId",
          "type": "uint64"
        }
      ],
      "stateMutability": "view",
      "type": "function"
    }
  ],
  "bytecode": "0x608060405234801561001057600080fd5b50615240806100206000396000f3fe608060405234801561001057600080fd5b50600436106100f55760003560e01c8063715018a611610097578063d986b77c11610066578063d986b77c14610286578063f2fde38b146102b6578063f887ea40146102d2578063f93b04c2146102f0576100f5565b8063715018a61461021257806387918e151461021c5780638da5cb5b146102385780639cbc342714610256576100f5565b8063485cc955116100d3578063485cc955146101785780635c60f2261461019457806360bf080a146101b05780636386c1c7146101e0576100f5565b80631959a002146100fa5780632c08d0791461012c5780632fafd2e214610148575b600080fd5b610114600480360381019061010f9190611cc0565b610320565b60405161012393929190611daf565b60405180910390f35b61014660048036038101906101419190611e7e565b610406565b005b610162600480360381019061015d9190611cc0565b610804565b60405161016f9190611ef2565b60405180910390f35b610192600480360381019061018d9190611f14565b6108a4565b005b6101ae60048036038101906101a99190611cc0565b610a7c565b005b6101ca60048036038101906101c59190611f54565b610c8f565b6040516101d79190611fa1565b60405180910390f35b6101fa60048036038101906101f59190611cc0565b610cda565b60405161020993929190611daf565b60405180910390f35b61021a610e75565b005b61023660048036038101906102319190611fbc565b610e89565b005b610240611280565b60405161024d9190611fa1565b60405180910390f35b610270600480360381019061026b9190611cc0565b6112b8565b60405161027d9190611ef2565b60405180910390f35b6102a0600480360381019061029b9190611cc0565b611389565b6040516102ad9190611fa1565b60405180910390f35b6102d060048036038101906102cb9190611cc0565b6113f7565b005b6102da61147d565b6040516102e79190611fa1565b60405180910390f35b61030a60048036038101906103059190612174565b6114a1565b6040516103179190611fa1565b60405180910390f35b60016020528060005260406000206000915090508060000160009054906101000a900473ffffffffffffffffffffffffffffffffffffffff1690806001018054610369906121ec565b80601f0160208091040260200160405190810160405280929190818152602001828054610395906121ec565b80156103e25780601f106103b7576101008083540402835291602001916103e2565b820191906000526020600020905b8154815290600101906020018083116103c557829003601f168201915b5050505050908060020160009054906101000a900467ffffffffffffffff16905083565b60008054906101000a900473ffffffffffffffffffffffffffffffffffffffff1673ffffffffffffffffffffffffffffffffffffffff163373ffffffffffffffffffffffffffffffffffffffff1614610494576040517f08c379a000000000000000000000000000000000000000000000000000000000815260040161048b9061228f565b60405180910390fd5b600073ffffffffffffffffffffffffffffffffffffffff16600160008673ffffffffffffffffffffffffffffffffffffffff1673ffffffffffffffffffffffffffffffffffffffff16815260200190815260200160002060000160009054906101000a900473ffffffffffffffffffffffffffffffffffffffff1673ffffffffffffffffffffffffffffffffffffffff1614610565576040517f08c379a000000000000000000000000000000000000000000000000000000000815260040161055c906122fb565b60405180910390fd5b600083839050116105ab576040517f08c379a00000000000000000000000000000000000000000000000000000000081526004016105a290612367565b60405180910390fd5b6105b4846114ea565b600160008673ffffffffffffffffffffffffffffffffffffffff1673ffffffffffffffffffffffffffffffffffffffff16815260200190815260200160002060000160006101000a81548173ffffffffffffffffffffffffffffffffffffffff021916908373ffffffffffffffffffffffffffffffffffffffff1602179055508282600160008773ffffffffffffffffffffffffffffffffffffffff1673ffffffffffffffffffffffffffffffffffffffff1681526020019081526020016000206001019182610685929190612548565b5080600160008673ffffffffffffffffffffffffffffffffffffffff1673ffffffffffffffffffffffffffffffffffffffff16815260200190815260200160002060020160006101000a81548167ffffffffffffffff021916908367ffffffffffffffff16021790555061075d838386600160008973ffffffffffffffffffffffffffffffffffffffff1673ffffffffffffffffffffffffffffffffffffffff16815260200190815260200160002060000160009054906101000a900473ffffffffffffffffffffffffffffffffffffffff16611597565b7f8b59ba57e929f6dc47b73efdfede3db41c44348a987abf8e72ade1fa683786a5848484600160008973ffffffffffffffffffffffffffffffffffffffff1673ffffffffffffffffffffffffffffffffffffffff16815260200190815260200160002060000160009054906101000a900473ffffffffffffffffffffffffffffffffffffffff16856040516107f6959493929190612645565b60405180910390a150505050565b60036020528060005260406000206000915090508054610823906121ec565b80601f016020809104026020016040519081016040528092919081815260200182805461084f906121ec565b801561089c5780601f106108715761010080835404028352916020019161089c565b820191906000526020600020905b81548152906001019060200180831161087f57829003601f168201915b505050505081565b60006108ae611737565b905060008160000160089054906101000a900460ff1615905060008260000160009054906101000a900467ffffffffffffffff1690506000808267ffffffffffffffff161480156108fc5750825b9050600060018367ffffffffffffffff16148015610931575060003073ffffffffffffffffffffffffffffffffffffffff163b145b90508115801561093f575080155b15610976576040517ff92ee8a900000000000000000000000000000000000000000000000000000000815260040160405180910390fd5b60018560000160006101000a81548167ffffffffffffffff021916908367ffffffffffffffff16021790555083156109c65760018560000160086101000a81548160ff0219169083151502179055505b856000806101000a81548173ffffffffffffffffffffffffffffffffffffffff021916908373ffffffffffffffffffffffffffffffffffffffff160217905550610a0f8761175f565b610a17611773565b8315610a735760008560000160086101000a81548160ff0219169083151502179055507fc7f505b2f371ae2175ee4913f4499e1f2633a7b5936321eed1cdaeb6115181d26001604051610a6a91906126ce565b60405180910390a15b50505050505050565b60008054906101000a900473ffffffffffffffffffffffffffffffffffffffff1673ffffffffffffffffffffffffffffffffffffffff163373ffffffffffffffffffffffffffffffffffffffff1614610b0a576040517f08c379a0000000000000000000000000000000000000000000000000000000008152600401610b019061228f565b60405180910390fd5b6000600160008373ffffffffffffffffffffffffffffffffffffffff1673ffffffffffffffffffffffffffffffffffffffff16815260200190815260200160002060000160006101000a81548173ffffffffffffffffffffffffffffffffffffffff021916908373ffffffffffffffffffffffffffffffffffffffff16021790555060405180602001604052806000815250600160008373ffffffffffffffffffffffffffffffffffffffff1673ffffffffffffffffffffffffffffffffffffffff1681526020019081526020016000206001019081610bea91906126e9565b506000600160008373ffffffffffffffffffffffffffffffffffffffff1673ffffffffffffffffffffffffffffffffffffffff16815260200190815260200160002060020160006101000a81548167ffffffffffffffff021916908367ffffffffffffffff1602179055507fa590e9c1b5854cc60d3ea7ecf49814ae8688f092b38adda95a86ad98c424401781604051610c849190611fa1565b60405180910390a150565b600060028383604051610ca39291906127eb565b908152602001604051809103902060009054906101000a900473ffffffffffffffffffffffffffffffffffffffff16905092915050565b600060606000600160008573ffffffffffffffffffffffffffffffffffffffff1673ffffffffffffffffffffffffffffffffffffffff16815260200190815260200160002060000160009054906101000a900473ffffffffffffffffffffffffffffffffffffffff16600160008673ffffffffffffffffffffffffffffffffffffffff1673ffffffffffffffffffffffffffffffffffffffff168152602001908152602001600020600101600160008773ffffffffffffffffffffffffffffffffffffffff1673ffffffffffffffffffffffffffffffffffffffff16815260200190815260200160002060020160009054906101000a900467ffffffffffffffff16818054610de8906121ec565b80601f0160208091040260200160405190810160405280929190818152602001828054610e14906121ec565b8015610e615780601f10610e3657610100808354040283529160200191610e61565b820191906000526020600020905b815481529060010190602001808311610e4457829003601f168201915b505050505091509250925092509193909250565b610e7d611785565b610e87600061180c565b565b60008054906101000a900473ffffffffffffffffffffffffffffffffffffffff1673ffffffffffffffffffffffffffffffffffffffff163373ffffffffffffffffffffffffffffffffffffffff1614610f17576040517f08c379a0000000000000000000000000000000000000000000000000000000008152600401610f0e9061228f565b60405180910390fd5b600073ffffffffffffffffffffffffffffffffffffffff16600160008773ffffffffffffffffffffffffffffffffffffffff1673ffffffffffffffffffffffffffffffffffffffff16815260200190815260200160002060000160009054906101000a900473ffffffffffffffffffffffffffffffffffffffff1673ffffffffffffffffffffffffffffffffffffffff1614610fe8576040517f08c379a0000000000000000000000000000000000000000000000000000000008152600401610fdf906122fb565b60405180910390fd5b6000838390501161102e576040517f08c379a000000000000000000000000000000000000000000000000000000000815260040161102590612367565b60405180910390fd5b83600160008773ffffffffffffffffffffffffffffffffffffffff1673ffffffffffffffffffffffffffffffffffffffff16815260200190815260200160002060000160006101000a81548173ffffffffffffffffffffffffffffffffffffffff021916908373ffffffffffffffffffffffffffffffffffffffff1602179055508282600160008873ffffffffffffffffffffffffffffffffffffffff1673ffffffffffffffffffffffffffffffffffffffff1681526020019081526020016000206001019182611100929190612548565b5080600160008773ffffffffffffffffffffffffffffffffffffffff1673ffffffffffffffffffffffffffffffffffffffff16815260200190815260200160002060020160006101000a81548167ffffffffffffffff021916908367ffffffffffffffff1602179055506111d8838387600160008a73ffffffffffffffffffffffffffffffffffffffff1673ffffffffffffffffffffffffffffffffffffffff16815260200190815260200160002060000160009054906101000a900473ffffffffffffffffffffffffffffffffffffffff16611597565b7f8b59ba57e929f6dc47b73efdfede3db41c44348a987abf8e72ade1fa683786a5858484600160008a73ffffffffffffffffffffffffffffffffffffffff1673ffffffffffffffffffffffffffffffffffffffff16815260200190815260200160002060000160009054906101000a900473ffffffffffffffffffffffffffffffffffffffff1685604051611271959493929190612645565b60405180910390a15050505050565b60008061128b6118e3565b90508060000160009054906101000a900473ffffffffffffffffffffffffffffffffffffffff1691505090565b6060600360008373ffffffffffffffffffffffffffffffffffffffff1673ffffffffffffffffffffffffffffffffffffffff1681526020019081526020016000208054611304906121ec565b80601f0160208091040260200160405190810160405280929190818152602001828054611330906121ec565b801561137d5780601f106113525761010080835404028352916020019161137d565b820191906000526020600020905b81548152906001019060200180831161136057829003601f168201915b50505050509050919050565b6000808260405160200161139d919061284c565b6040516020818303038152906040528051906020012090506000604051806020016113c790611c41565b6020820181038252601f19601f8201166040525090506113ee82828051906020012061190b565b92505050919050565b6113ff611785565b600073ffffffffffffffffffffffffffffffffffffffff168173ffffffffffffffffffffffffffffffffffffffff16036114715760006040517f1e4fbdf70000000000000000000000000000000000000000000000000000000081526004016114689190611fa1565b60405180910390fd5b61147a8161180c565b50565b60008054906101000a900473ffffffffffffffffffffffffffffffffffffffff1681565b6002818051602081018201805184825260208301602085012081835280955050505050506000915054906101000a900473ffffffffffffffffffffffffffffffffffffffff1681565b6000806114f683611920565b90508073ffffffffffffffffffffffffffffffffffffffff1663c0c53b8b61151c611280565b60008054906101000a900473ffffffffffffffffffffffffffffffffffffffff16866040518463ffffffff1660e01b815260040161155c93929190612867565b600060405180830381600087803b15801561157657600080fd5b505af115801561158a573d6000803e3d6000fd5b5050505080915050919050565b81600285856040516115aa9291906127eb565b908152602001604051809103902060006101000a81548173ffffffffffffffffffffffffffffffffffffffff021916908373ffffffffffffffffffffffffffffffffffffffff160217905550806002858560405160200161160c9291906128c4565b604051602081830303815290604052604051611628919061291d565b908152602001604051809103902060006101000a81548173ffffffffffffffffffffffffffffffffffffffff021916908373ffffffffffffffffffffffffffffffffffffffff1602179055508383600360008573ffffffffffffffffffffffffffffffffffffffff1673ffffffffffffffffffffffffffffffffffffffff16815260200190815260200160002091826116c2929190612548565b5083836040516020016116d69291906128c4565b604051602081830303815290604052600360008373ffffffffffffffffffffffffffffffffffffffff1673ffffffffffffffffffffffffffffffffffffffff168152602001908152602001600020908161173091906126e9565b5050505050565b60007ff0c57e16840df040f15088dc2f81fe391c3923bec73e23a9662efc9c229c6a00905090565b6117676119e3565b61177081611a23565b50565b61177b6119e3565b611783611aa9565b565b61178d611aca565b73ffffffffffffffffffffffffffffffffffffffff166117ab611280565b73ffffffffffffffffffffffffffffffffffffffff161461180a576117ce611aca565b6040517f118cdaa70000000000000000000000000000000000000000000000000000000081526004016118019190611fa1565b60405180910390fd5b565b60006118166118e3565b905060008160000160009054906101000a900473ffffffffffffffffffffffffffffffffffffffff169050828260000160006101000a81548173ffffffffffffffffffffffffffffffffffffffff021916908373ffffffffffffffffffffffffffffffffffffffff1602179055508273ffffffffffffffffffffffffffffffffffffffff168173ffffffffffffffffffffffffffffffffffffffff167f8be0079c531659141344cd1fd0a4f28419497f9722a3daafe3b4186f6b6457e060405160405180910390a3505050565b60007f9016d09d72d40fdae2fd8ceac6b6234c7706214fd39c1cd1e609a0528c199300905090565b6000611918838330611ad2565b905092915050565b60008082604051602001611934919061284c565b60405160208183030381529060405280519060200120905060006040518060200161195e90611c41565b6020820181038252601f19601f82011660405250905061198060008383611afd565b92508273ffffffffffffffffffffffffffffffffffffffff168473ffffffffffffffffffffffffffffffffffffffff167fca3c958960c45ca1bdd4a1169f84f2f50781bedc0e6993bdff47287a5fca1e1b60405160405180910390a35050919050565b6119eb611bf9565b611a21576040517fd7e6bcf800000000000000000000000000000000000000000000000000000000815260040160405180910390fd5b565b611a2b6119e3565b600073ffffffffffffffffffffffffffffffffffffffff168173ffffffffffffffffffffffffffffffffffffffff1603611a9d5760006040517f1e4fbdf7000000000000000000000000000000000000000000000000000000008152600401611a949190611fa1565b60405180910390fd5b611aa68161180c565b50565b611ab16119e3565b6000611abb611c19565b90506001816000018190555050565b600033905090565b6000604051836040820152846020820152828152600b810160ff815360558120925050509392505050565b600083471015611b465747846040517fe4bbecac000000000000000000000000000000000000000000000000000000008152600401611b3d929190612943565b60405180910390fd5b6000825103611b81576040517f4ca249dc00000000000000000000000000000000000000000000000000000000815260040160405180910390fd5b8282516020840186f59050600073ffffffffffffffffffffffffffffffffffffffff168173ffffffffffffffffffffffffffffffffffffffff1603611bf2576040517f741752c200000000000000000000000000000000000000000000000000000000815260040160405180910390fd5b9392505050565b6000611c03611737565b60000160089054906101000a900460ff16905090565b60007f9b779b17422d0df92223018b32b4d1fa46e071723d6817e2486d003becc55f00905090565b61289e8061296d83390190565b6000604051905090565b600080fd5b600080fd5b600073ffffffffffffffffffffffffffffffffffffffff82169050919050565b6000611c8d82611c62565b9050919050565b611c9d81611c82565b8114611ca857600080fd5b50565b600081359050611cba81611c94565b92915050565b600060208284031215611cd657611cd5611c58565b5b6000611ce484828501611cab565b91505092915050565b611cf681611c82565b82525050565b600081519050919050565b600082825260208201905092915050565b60005b83811015611d36578082015181840152602081019050611d1b565b60008484015250505050565b6000601f19601f8301169050919050565b6000611d5e82611cfc565b611d688185611d07565b9350611d78818560208601611d18565b611d8181611d42565b840191505092915050565b600067ffffffffffffffff82169050919050565b611da981611d8c565b82525050565b6000606082019050611dc46000830186611ced565b8181036020830152611dd68185611d53565b9050611de56040830184611da0565b949350505050565b600080fd5b600080fd5b600080fd5b60008083601f840112611e1257611e11611ded565b5b8235905067ffffffffffffffff811115611e2f57611e2e611df2565b5b602083019150836001820283011115611e4b57611e4a611df7565b5b9250929050565b611e5b81611d8c565b8114611e6657600080fd5b50565b600081359050611e7881611e52565b92915050565b60008060008060608587031215611e9857611e97611c58565b5b6000611ea687828801611cab565b945050602085013567ffffffffffffffff811115611ec757611ec6611c5d565b5b611ed387828801611dfc565b93509350506040611ee687828801611e69565b91505092959194509250565b60006020820190508181036000830152611f0c8184611d53565b905092915050565b60008060408385031215611f2b57611f2a611c58565b5b6000611f3985828601611cab565b9250506020611f4a85828601611cab565b9150509250929050565b60008060208385031215611f6b57611f6a611c58565b5b600083013567ffffffffffffffff811115611f8957611f88611c5d565b5b611f9585828601611dfc565b92509250509250929050565b6000602082019050611fb66000830184611ced565b92915050565b600080600080600060808688031215611fd857611fd7611c58565b5b6000611fe688828901611cab565b9550506020611ff788828901611cab565b945050604086013567ffffffffffffffff81111561201857612017611c5d565b5b61202488828901611dfc565b9350935050606061203788828901611e69565b9150509295509295909350565b600080fd5b7f4e487b7100000000000000000000000000000000000000000000000000000000600052604160045260246000fd5b61208182611d42565b810181811067ffffffffffffffff821117156120a05761209f612049565b5b80604052505050565b60006120b3611c4e565b90506120bf8282612078565b919050565b600067ffffffffffffffff8211156120df576120de612049565b5b6120e882611d42565b9050602081019050919050565b82818337600083830152505050565b6000612117612112846120c4565b6120a9565b90508281526020810184848401111561213357612132612044565b5b61213e8482856120f5565b509392505050565b600082601f83011261215b5761215a611ded565b5b813561216b848260208601612104565b91505092915050565b60006020828403121561218a57612189611c58565b5b600082013567ffffffffffffffff8111156121a8576121a7611c5d565b5b6121b484828501612146565b91505092915050565b7f4e487b7100000000000000000000000000000000000000000000000000000000600052602260045260246000fd5b6000600282049050600182168061220457607f821691505b602082108103612217576122166121bd565b5b50919050565b7f506c7972436c75737465723a2063616c6c6572206973206e6f7420746865206f60008201527f70657261746f7200000000000000000000000000000000000000000000000000602082015250565b6000612279602783611d07565b91506122848261221d565b604082019050919050565b600060208201905081810360008301526122a88161226c565b9050919050565b7f5573657245786973746564000000000000000000000000000000000000000000600082015250565b60006122e5600b83611d07565b91506122f0826122af565b602082019050919050565b60006020820190508181036000830152612314816122d8565b9050919050565b7f557365724e616d65456d70747900000000000000000000000000000000000000600082015250565b6000612351600d83611d07565b915061235c8261231b565b602082019050919050565b6000602082019050818103600083015261238081612344565b9050919050565b600082905092915050565b60008190508160005260206000209050919050565b60006020601f8301049050919050565b600082821b905092915050565b6000600883026123f47fffffffffffffffffffffffffffffffffffffffffffffffffffffffffffffffff826123b7565b6123fe86836123b7565b95508019841693508086168417925050509392505050565b6000819050919050565b6000819050919050565b600061244561244061243b84612416565b612420565b612416565b9050919050565b6000819050919050565b61245f8361242a565b61247361246b8261244c565b8484546123c4565b825550505050565b600090565b61248861247b565b612493818484612456565b505050565b5b818110156124b7576124ac600082612480565b600181019050612499565b5050565b601f8211156124fc576124cd81612392565b6124d6846123a7565b810160208510156124e5578190505b6124f96124f1856123a7565b830182612498565b50505b505050565b600082821c905092915050565b600061251f60001984600802612501565b1980831691505092915050565b6000612538838361250e565b9150826002028217905092915050565b6125528383612387565b67ffffffffffffffff81111561256b5761256a612049565b5b61257582546121ec565b6125808282856124bb565b6000601f8311600181146125af576000841561259d578287013590505b6125a7858261252c565b86555061260f565b601f1984166125bd86612392565b60005b828110156125e5578489013582556001820191506020850194506020810190506125c0565b8683101561260257848901356125fe601f89168261250e565b8355505b6001600288020188555050505b50505050505050565b60006126248385611d07565b93506126318385846120f5565b61263a83611d42565b840190509392505050565b600060808201905061265a6000830188611ced565b818103602083015261266d818688612618565b905061267c6040830185611ced565b6126896060830184611da0565b9695505050505050565b6000819050919050565b60006126b86126b36126ae84612693565b612420565b611d8c565b9050919050565b6126c88161269d565b82525050565b60006020820190506126e360008301846126bf565b92915050565b6126f282611cfc565b67ffffffffffffffff81111561270b5761270a612049565b5b61271582546121ec565b6127208282856124bb565b600060209050601f8311600181146127535760008415612741578287015190505b61274b858261252c565b8655506127b3565b601f19841661276186612392565b60005b8281101561278957848901518255600182019150602085019450602081019050612764565b868310156127a657848901516127a2601f89168261250e565b8355505b6001600288020188555050505b505050505050565b600081905092915050565b60006127d283856127bb565b93506127df8385846120f5565b82840190509392505050565b60006127f88284866127c6565b91508190509392505050565b60008160601b9050919050565b600061281c82612804565b9050919050565b600061282e82612811565b9050919050565b61284661284182611c82565b612823565b82525050565b60006128588284612835565b60148201915081905092915050565b600060608201905061287c6000830186611ced565b6128896020830185611ced565b6128966040830184611ced565b949350505050565b7f2e706c7972000000000000000000000000000000000000000000000000000000815250565b60006128d18284866127c6565b91506128dc8261289e565b6005820191508190509392505050565b60006128f782611cfc565b61290181856127bb565b9350612911818560208601611d18565b80840191505092915050565b600061292982846128ec565b915081905092915050565b61293d81612416565b82525050565b60006040820190506129586000830185612934565b6129656020830184612934565b939250505056fe608060405234801561001057600080fd5b5061287e806100206000396000f3fe60806040526004361061012e5760003560e01c8063b7c0d4ef116100ab578063d547741f1161006f578063d547741f1461040b578063e1f21c6714610434578063f23a6e611461045d578063f2522bcd1461049a578063f5b541a6146104c3578063ffa1ad74146104ee57610135565b8063b7c0d4ef14610328578063bc197c8114610351578063beabacc81461038e578063c0c53b8b146103b7578063c6dbdf61146103e057610135565b806336568abe116100f257806336568abe146102435780634a280a551461026c5780635c975abb1461029557806391d14854146102c0578063a217fddf146102fd57610135565b806301ffc9a71461013a57806302329a2914610177578063150b7a02146101a0578063248a9ca3146101dd5780632f2ff15d1461021a57610135565b3661013557005b600080fd5b34801561014657600080fd5b50610161600480360381019061015c9190611911565b610519565b60405161016e9190611959565b60405180910390f35b34801561018357600080fd5b5061019e600480360381019061019991906119a0565b61052b565b005b3480156101ac57600080fd5b506101c760048036038101906101c29190611ba7565b610556565b6040516101d49190611c39565b60405180910390f35b3480156101e957600080fd5b5061020460048036038101906101ff9190611c8a565b61056a565b6040516102119190611cc6565b60405180910390f35b34801561022657600080fd5b50610241600480360381019061023c9190611ce1565b610598565b005b34801561024f57600080fd5b5061026a60048036038101906102659190611ce1565b6105ba565b005b34801561027857600080fd5b50610293600480360381019061028e9190611d81565b610635565b005b3480156102a157600080fd5b506102aa61076c565b6040516102b79190611959565b60405180910390f35b3480156102cc57600080fd5b506102e760048036038101906102e29190611ce1565b61077f565b6040516102f49190611959565b60405180910390f35b34801561030957600080fd5b506103126107f8565b60405161031f9190611cc6565b60405180910390f35b34801561033457600080fd5b5061034f600480360381019061034a9190611e1b565b6107ff565b005b34801561035d57600080fd5b5061037860048036038101906103739190611f8d565b61093b565b6040516103859190611c39565b60405180910390f35b34801561039a57600080fd5b506103b560048036038101906103b0919061205c565b610950565b005b3480156103c357600080fd5b506103de60048036038101906103d991906120af565b610a36565b005b3480156103ec57600080fd5b506103f5610c3f565b6040516104029190612111565b60405180910390f35b34801561041757600080fd5b50610432600480360381019061042d9190611ce1565b610c63565b005b34801561044057600080fd5b5061045b6004803603810190610456919061205c565b610c85565b005b34801561046957600080fd5b50610484600480360381019061047f919061212c565b610d6b565b6040516104919190611c39565b60405180910390f35b3480156104a657600080fd5b506104c160048036038101906104bc9190612201565b610d80565b005b3480156104cf57600080fd5b506104d8610e42565b6040516104e59190611cc6565b60405180910390f35b3480156104fa57600080fd5b50610503610e66565b6040516105109190612250565b60405180910390f35b600061052482610e6b565b9050919050565b6000801b61053881610ee5565b81600060146101000a81548160ff0219169083151502179055505050565b600063150b7a0260e01b9050949350505050565b600080610575610ef9565b905080600001600084815260200190815260200160002060010154915050919050565b6105a18261056a565b6105aa81610ee5565b6105b48383610f21565b50505050565b6105c2611022565b73ffffffffffffffffffffffffffffffffffffffff168173ffffffffffffffffffffffffffffffffffffffff1614610626576040517f6697b23200000000000000000000000000000000000000000000000000000000815260040160405180910390fd5b610630828261102a565b505050565b600060149054906101000a900460ff1615610685576040517f08c379a000000000000000000000000000000000000000000000000000000000815260040161067c906122c8565b60405180910390fd5b7f97667070c54ef182b0f5858b034beac1b6f3089aa2d3188bb1e8929f4fa9b9296106af81610ee5565b8673ffffffffffffffffffffffffffffffffffffffff1663b88d4fde87878787876040518663ffffffff1660e01b81526004016106f0959493929190612326565b600060405180830381600087803b15801561070a57600080fd5b505af115801561071e573d6000803e3d6000fd5b505050507f39ddb13f2636a4e4b209493ed224441ff626b65bc2de30a124d8e3e75ad5350487878787878760405161075b96959493929190612374565b60405180910390a150505050505050565b600060149054906101000a900460ff1681565b60008061078a610ef9565b905080600001600085815260200190815260200160002060000160008473ffffffffffffffffffffffffffffffffffffffff1673ffffffffffffffffffffffffffffffffffffffff16815260200190815260200160002060009054906101000a900460ff1691505092915050565b6000801b81565b600060149054906101000a900460ff161561084f576040517f08c379a0000000000000000000000000000000000000000000000000000000008152600401610846906122c8565b60405180910390fd5b7f97667070c54ef182b0f5858b034beac1b6f3089aa2d3188bb1e8929f4fa9b92961087981610ee5565b8773ffffffffffffffffffffffffffffffffffffffff1663f242432a8888888888886040518763ffffffff1660e01b81526004016108bc969594939291906123d0565b600060405180830381600087803b1580156108d657600080fd5b505af11580156108ea573d6000803e3d6000fd5b505050507f3d48b22d74029225f572836f13fa1d9987165246f40229f4205b7e5617edc71f88888888888888604051610929979695949392919061242c565b60405180910390a15050505050505050565b600063bc197c8160e01b905095945050505050565b600060149054906101000a900460ff16156109a0576040517f08c379a0000000000000000000000000000000000000000000000000000000008152600401610997906122c8565b60405180910390fd5b7f97667070c54ef182b0f5858b034beac1b6f3089aa2d3188bb1e8929f4fa9b9296109ca81610ee5565b6109f583838673ffffffffffffffffffffffffffffffffffffffff1661112c9092919063ffffffff16565b7f6b5f9ad4a632b939cb0f753be352c9fdf89ddc173714f2982b1e4c3e81d04d69848484604051610a2893929190612496565b60405180910390a150505050565b6000610a406111ab565b905060008160000160089054906101000a900460ff1615905060008260000160009054906101000a900467ffffffffffffffff1690506000808267ffffffffffffffff16148015610a8e5750825b9050600060018367ffffffffffffffff16148015610ac3575060003073ffffffffffffffffffffffffffffffffffffffff163b145b905081158015610ad1575080155b15610b08576040517ff92ee8a900000000000000000000000000000000000000000000000000000000815260040160405180910390fd5b60018560000160006101000a81548167ffffffffffffffff021916908367ffffffffffffffff1602179055508315610b585760018560000160086101000a81548160ff0219169083151502179055505b610b656000801b89610f21565b50610b907f97667070c54ef182b0f5858b034beac1b6f3089aa2d3188bb1e8929f4fa9b92988610f21565b50856000806101000a81548173ffffffffffffffffffffffffffffffffffffffff021916908373ffffffffffffffffffffffffffffffffffffffff160217905550610bd96111d3565b8315610c355760008560000160086101000a81548160ff0219169083151502179055507fc7f505b2f371ae2175ee4913f4499e1f2633a7b5936321eed1cdaeb6115181d26001604051610c2c9190612526565b60405180910390a15b5050505050505050565b60008054906101000a900473ffffffffffffffffffffffffffffffffffffffff1681565b610c6c8261056a565b610c7581610ee5565b610c7f838361102a565b50505050565b600060149054906101000a900460ff1615610cd5576040517f08c379a0000000000000000000000000000000000000000000000000000000008152600401610ccc906122c8565b60405180910390fd5b7f97667070c54ef182b0f5858b034beac1b6f3089aa2d3188bb1e8929f4fa9b929610cff81610ee5565b610d2a83838673ffffffffffffffffffffffffffffffffffffffff166111dd9092919063ffffffff16565b7f43429cd49fdf83fff68b66ad27bc43e1fb9e01eb6c2ef33f5dccc63fe0ab380d848484604051610d5d93929190612496565b60405180910390a150505050565b600063f23a6e6160e01b905095945050505050565b600060149054906101000a900460ff1615610dd0576040517f08c379a0000000000000000000000000000000000000000000000000000000008152600401610dc7906122c8565b60405180910390fd5b7f97667070c54ef182b0f5858b034beac1b6f3089aa2d3188bb1e8929f4fa9b929610dfa81610ee5565b610e048383611279565b7f23d5d91128e489a28322e6eaad42c22652c24558e01bcbf70bfc2bcc1ca5c5648383604051610e35929190612596565b60405180910390a1505050565b7f97667070c54ef182b0f5858b034beac1b6f3089aa2d3188bb1e8929f4fa9b92981565b600181565b60007f4e2312e0000000000000000000000000000000000000000000000000000000007bffffffffffffffffffffffffffffffffffffffffffffffffffffffff1916827bffffffffffffffffffffffffffffffffffffffffffffffffffffffff19161480610ede5750610edd82611366565b5b9050919050565b610ef681610ef1611022565b6113d0565b50565b60007f02dd7bc7dec4dceedda775e58dd541e08a116c6c53815c0bd028192f7b626800905090565b600080610f2c610ef9565b9050610f38848461077f565b61101657600181600001600086815260200190815260200160002060000160008573ffffffffffffffffffffffffffffffffffffffff1673ffffffffffffffffffffffffffffffffffffffff16815260200190815260200160002060006101000a81548160ff021916908315150217905550610fb2611022565b73ffffffffffffffffffffffffffffffffffffffff168373ffffffffffffffffffffffffffffffffffffffff16857f2f8788117e7eff1d82e926ec794901d17c78024a50270940304540a733656f0d60405160405180910390a4600191505061101c565b60009150505b92915050565b600033905090565b600080611035610ef9565b9050611041848461077f565b1561112057600081600001600086815260200190815260200160002060000160008573ffffffffffffffffffffffffffffffffffffffff1673ffffffffffffffffffffffffffffffffffffffff16815260200190815260200160002060006101000a81548160ff0219169083151502179055506110bc611022565b73ffffffffffffffffffffffffffffffffffffffff168373ffffffffffffffffffffffffffffffffffffffff16857ff6391f5c32d9c69d2a47ea670b442974b53935d1edc7fd64eb21e047a839171b60405160405180910390a46001915050611126565b60009150505b92915050565b6111a6838473ffffffffffffffffffffffffffffffffffffffff1663a9059cbb858560405160240161115f9291906125bf565b604051602081830303815290604052915060e01b6020820180517bffffffffffffffffffffffffffffffffffffffffffffffffffffffff8381831617835250505050611421565b505050565b60007ff0c57e16840df040f15088dc2f81fe391c3923bec73e23a9662efc9c229c6a00905090565b6111db6114b8565b565b60008373ffffffffffffffffffffffffffffffffffffffff1663dd62ed3e30856040518363ffffffff1660e01b815260040161121a9291906125e8565b602060405180830381865afa158015611237573d6000803e3d6000fd5b505050506040513d601f19601f8201168201806040525081019061125b9190612626565b90506112738484848461126e9190612682565b6114f8565b50505050565b804710156112be57306040517fcd7860590000000000000000000000000000000000000000000000000000000081526004016112b59190612111565b60405180910390fd5b60008273ffffffffffffffffffffffffffffffffffffffff16826040516112e4906126e7565b60006040518083038185875af1925050503d8060008114611321576040519150601f19603f3d011682016040523d82523d6000602084013e611326565b606091505b5050905080611361576040517f1425ea4200000000000000000000000000000000000000000000000000000000815260040160405180910390fd5b505050565b60007f01ffc9a7000000000000000000000000000000000000000000000000000000007bffffffffffffffffffffffffffffffffffffffffffffffffffffffff1916827bffffffffffffffffffffffffffffffffffffffffffffffffffffffff1916149050919050565b6113da828261077f565b61141d5780826040517fe2517d3f0000000000000000000000000000000000000000000000000000000081526004016114149291906126fc565b60405180910390fd5b5050565b600061144c828473ffffffffffffffffffffffffffffffffffffffff1661160790919063ffffffff16565b9050600081511415801561147157508080602001905181019061146f919061273a565b155b156114b357826040517f5274afe70000000000000000000000000000000000000000000000000000000081526004016114aa9190612111565b60405180910390fd5b505050565b6114c061161d565b6114f6576040517fd7e6bcf800000000000000000000000000000000000000000000000000000000815260040160405180910390fd5b565b60008373ffffffffffffffffffffffffffffffffffffffff1663095ea7b384846040516024016115299291906125bf565b604051602081830303815290604052915060e01b6020820180517bffffffffffffffffffffffffffffffffffffffffffffffffffffffff83818316178352505050509050611577848261163d565b611601576115f6848573ffffffffffffffffffffffffffffffffffffffff1663095ea7b38660006040516024016115af9291906127a2565b604051602081830303815290604052915060e01b6020820180517bffffffffffffffffffffffffffffffffffffffffffffffffffffffff8381831617835250505050611421565b6116008482611421565b5b50505050565b606061161583836000611704565b905092915050565b60006116276111ab565b60000160089054906101000a900460ff16905090565b60008060008473ffffffffffffffffffffffffffffffffffffffff16846040516116679190612831565b6000604051808303816000865af19150503d80600081146116a4576040519150601f19603f3d011682016040523d82523d6000602084013e6116a9565b606091505b50915091508180156116d757506000815114806116d65750808060200190518101906116d5919061273a565b5b5b80156116fa575060008573ffffffffffffffffffffffffffffffffffffffff163b115b9250505092915050565b60608147101561174b57306040517fcd7860590000000000000000000000000000000000000000000000000000000081526004016117429190612111565b60405180910390fd5b6000808573ffffffffffffffffffffffffffffffffffffffff1684866040516117749190612831565b60006040518083038185875af1925050503d80600081146117b1576040519150601f19603f3d011682016040523d82523d6000602084013e6117b6565b606091505b50915091506117c68683836117d1565b925050509392505050565b6060826117e6576117e182611860565b611858565b6000825114801561180e575060008473ffffffffffffffffffffffffffffffffffffffff163b145b1561185057836040517f9996b3150000000000000000000000000000000000000000000000000000000081526004016118479190612111565b60405180910390fd5b819050611859565b5b9392505050565b6000815111156118735780518082602001fd5b6040517f1425ea4200000000000000000000000000000000000000000000000000000000815260040160405180910390fd5b6000604051905090565b600080fd5b600080fd5b60007fffffffff0000000000000000000000000000000000000000000000000000000082169050919050565b6118ee816118b9565b81146118f957600080fd5b50565b60008135905061190b816118e5565b92915050565b600060208284031215611927576119266118af565b5b6000611935848285016118fc565b91505092915050565b60008115159050919050565b6119538161193e565b82525050565b600060208201905061196e600083018461194a565b92915050565b61197d8161193e565b811461198857600080fd5b50565b60008135905061199a81611974565b92915050565b6000602082840312156119b6576119b56118af565b5b60006119c48482850161198b565b91505092915050565b600073ffffffffffffffffffffffffffffffffffffffff82169050919050565b60006119f8826119cd565b9050919050565b611a08816119ed565b8114611a1357600080fd5b50565b600081359050611a25816119ff565b92915050565b6000819050919050565b611a3e81611a2b565b8114611a4957600080fd5b50565b600081359050611a5b81611a35565b92915050565b600080fd5b600080fd5b6000601f19601f8301169050919050565b7f4e487b7100000000000000000000000000000000000000000000000000000000600052604160045260246000fd5b611ab482611a6b565b810181811067ffffffffffffffff82111715611ad357611ad2611a7c565b5b80604052505050565b6000611ae66118a5565b9050611af28282611aab565b919050565b600067ffffffffffffffff821115611b1257611b11611a7c565b5b611b1b82611a6b565b9050602081019050919050565b82818337600083830152505050565b6000611b4a611b4584611af7565b611adc565b905082815260208101848484011115611b6657611b65611a66565b5b611b71848285611b28565b509392505050565b600082601f830112611b8e57611b8d611a61565b5b8135611b9e848260208601611b37565b91505092915050565b60008060008060808587031215611bc157611bc06118af565b5b6000611bcf87828801611a16565b9450506020611be087828801611a16565b9350506040611bf187828801611a4c565b925050606085013567ffffffffffffffff811115611c1257611c116118b4565b5b611c1e87828801611b79565b91505092959194509250565b611c33816118b9565b82525050565b6000602082019050611c4e6000830184611c2a565b92915050565b6000819050919050565b611c6781611c54565b8114611c7257600080fd5b50565b600081359050611c8481611c5e565b92915050565b600060208284031215611ca057611c9f6118af565b5b6000611cae84828501611c75565b91505092915050565b611cc081611c54565b82525050565b6000602082019050611cdb6000830184611cb7565b92915050565b60008060408385031215611cf857611cf76118af565b5b6000611d0685828601611c75565b9250506020611d1785828601611a16565b9150509250929050565b600080fd5b600080fd5b60008083601f840112611d4157611d40611a61565b5b8235905067ffffffffffffffff811115611d5e57611d5d611d21565b5b602083019150836001820283011115611d7a57611d79611d26565b5b9250929050565b60008060008060008060a08789031215611d9e57611d9d6118af565b5b6000611dac89828a01611a16565b9650506020611dbd89828a01611a16565b9550506040611dce89828a01611a16565b9450506060611ddf89828a01611a4c565b935050608087013567ffffffffffffffff811115611e0057611dff6118b4565b5b611e0c89828a01611d2b565b92509250509295509295509295565b600080600080600080600060c0888a031215611e3a57611e396118af565b5b6000611e488a828b01611a16565b9750506020611e598a828b01611a16565b9650506040611e6a8a828b01611a16565b9550506060611e7b8a828b01611a4c565b9450506080611e8c8a828b01611a4c565b93505060a088013567ffffffffffffffff811115611ead57611eac6118b4565b5b611eb98a828b01611d2b565b925092505092959891949750929550565b600067ffffffffffffffff821115611ee557611ee4611a7c565b5b602082029050602081019050919050565b6000611f09611f0484611eca565b611adc565b90508083825260208201905060208402830185811115611f2c57611f2b611d26565b5b835b81811015611f555780611f418882611a4c565b845260208401935050602081019050611f2e565b5050509392505050565b600082601f830112611f7457611f73611a61565b5b8135611f84848260208601611ef6565b91505092915050565b600080600080600060a08688031215611fa957611fa86118af565b5b6000611fb788828901611a16565b9550506020611fc888828901611a16565b945050604086013567ffffffffffffffff811115611fe957611fe86118b4565b5b611ff588828901611f5f565b935050606086013567ffffffffffffffff811115612016576120156118b4565b5b61202288828901611f5f565b925050608086013567ffffffffffffffff811115612043576120426118b4565b5b61204f88828901611b79565b9150509295509295909350565b600080600060608486031215612075576120746118af565b5b600061208386828701611a16565b935050602061209486828701611a16565b92505060406120a586828701611a4c565b9150509250925092565b6000806000606084860312156120c8576120c76118af565b5b60006120d686828701611a16565b93505060206120e786828701611a16565b92505060406120f886828701611a16565b9150509250925092565b61210b816119ed565b82525050565b60006020820190506121266000830184612102565b92915050565b600080600080600060a08688031215612148576121476118af565b5b600061215688828901611a16565b955050602061216788828901611a16565b945050604061217888828901611a4c565b935050606061218988828901611a4c565b925050608086013567ffffffffffffffff8111156121aa576121a96118b4565b5b6121b688828901611b79565b9150509295509295909350565b60006121ce826119cd565b9050919050565b6121de816121c3565b81146121e957600080fd5b50565b6000813590506121fb816121d5565b92915050565b60008060408385031215612218576122176118af565b5b6000612226858286016121ec565b925050602061223785828601611a4c565b9150509250929050565b61224a81611a2b565b82525050565b60006020820190506122656000830184612241565b92915050565b600082825260208201905092915050565b7f4d6972726f723a20706175736564000000000000000000000000000000000000600082015250565b60006122b2600e8361226b565b91506122bd8261227c565b602082019050919050565b600060208201905081810360008301526122e1816122a5565b9050919050565b600082825260208201905092915050565b600061230583856122e8565b9350612312838584611b28565b61231b83611a6b565b840190509392505050565b600060808201905061233b6000830188612102565b6123486020830187612102565b6123556040830186612241565b81810360608301526123688184866122f9565b90509695505050505050565b600060a0820190506123896000830189612102565b6123966020830188612102565b6123a36040830187612102565b6123b06060830186612241565b81810360808301526123c38184866122f9565b9050979650505050505050565b600060a0820190506123e56000830189612102565b6123f26020830188612102565b6123ff6040830187612241565b61240c6060830186612241565b818103608083015261241f8184866122f9565b9050979650505050505050565b600060c082019050612441600083018a612102565b61244e6020830189612102565b61245b6040830188612102565b6124686060830187612241565b6124756080830186612241565b81810360a08301526124888184866122f9565b905098975050505050505050565b60006060820190506124ab6000830186612102565b6124b86020830185612102565b6124c56040830184612241565b949350505050565b6000819050919050565b600067ffffffffffffffff82169050919050565b6000819050919050565b600061251061250b612506846124cd565b6124eb565b6124d7565b9050919050565b612520816124f5565b82525050565b600060208201905061253b6000830184612517565b92915050565b600061255c612557612552846119cd565b6124eb565b6119cd565b9050919050565b600061256e82612541565b9050919050565b600061258082612563565b9050919050565b61259081612575565b82525050565b60006040820190506125ab6000830185612587565b6125b86020830184612241565b9392505050565b60006040820190506125d46000830185612102565b6125e16020830184612241565b9392505050565b60006040820190506125fd6000830185612102565b61260a6020830184612102565b9392505050565b60008151905061262081611a35565b92915050565b60006020828403121561263c5761263b6118af565b5b600061264a84828501612611565b91505092915050565b7f4e487b7100000000000000000000000000000000000000000000000000000000600052601160045260246000fd5b600061268d82611a2b565b915061269883611a2b565b92508282019050808211156126b0576126af612653565b5b92915050565b600081905092915050565b50565b60006126d16000836126b6565b91506126dc826126c1565b600082019050919050565b60006126f2826126c4565b9150819050919050565b60006040820190506127116000830185612102565b61271e6020830184611cb7565b9392505050565b60008151905061273481611974565b92915050565b6000602082840312156127505761274f6118af565b5b600061275e84828501612725565b91505092915050565b6000819050919050565b600061278c61278761278284612767565b6124eb565b611a2b565b9050919050565b61279c81612771565b82525050565b60006040820190506127b76000830185612102565b6127c46020830184612793565b9392505050565b600081519050919050565b60005b838110156127f45780820151818401526020810190506127d9565b60008484015250505050565b600061280b826127cb565b61281581856126b6565b93506128258185602086016127d6565b80840191505092915050565b600061283d8284612800565b91508190509291505056fea2646970667358221220812e3821244dec1a9f0dbb21cdbedd73b5eeae5c65b0d244908aa0c374a7f7f464736f6c63430008180033a2646970667358221220079f7b5299514abd29f0f90d83ee60e541b6a63188899a1e3a9abbf137bf4aa564736f6c63430008180033",
  "linkReferences": {},
  "deployedLinkReferences": {}
}