{
  "_format": "hh-sol-artifact-1",
  "contractName": "Router",
  "sourceName": "contracts/Router.sol",
  "abi": [
    {
      "inputs": [],
      "stateMutability": "nonpayable",
      "type": "constructor"
    },
    {
      "inputs": [],
      "name": "AccessControlBadConfirmation",
      "type": "error"
    },
    {
      "inputs": [
        {
          "internalType": "address",
          "name": "account",
          "type": "address"
        },
        {
          "internalType": "bytes32",
          "name": "neededRole",
          "type": "bytes32"
        }
      ],
      "name": "AccessControlUnauthorizedAccount",
      "type": "error"
    },
    {
      "inputs": [],
      "name": "InvalidInitialization",
      "type": "error"
    },
    {
      "inputs": [],
      "name": "NotInitializing",
      "type": "error"
    },
    {
      "inputs": [
        {
          "internalType": "address",
          "name": "owner",
          "type": "address"
        }
      ],
      "name": "OwnableInvalidOwner",
      "type": "error"
    },
    {
      "inputs": [
        {
          "internalType": "address",
          "name": "account",
          "type": "address"
        }
      ],
      "name": "OwnableUnauthorizedAccount",
      "type": "error"
    },
    {
      "inputs": [],
      "name": "ReentrancyGuardReentrantCall",
      "type": "error"
    },
    {
      "anonymous": false,
      "inputs": [
        {
          "indexed": false,
          "internalType": "address",
          "name": "_game",
          "type": "address"
        },
        {
          "indexed": false,
          "internalType": "bool",
          "name": "_allowed",
          "type": "bool"
        }
      ],
      "name": "GameConfigured",
      "type": "event"
    },
    {
      "anonymous": false,
      "inputs": [
        {
          "indexed": false,
          "internalType": "uint64",
          "name": "version",
          "type": "uint64"
        }
      ],
      "name": "Initialized",
      "type": "event"
    },
    {
      "anonymous": false,
      "inputs": [
        {
          "indexed": true,
          "internalType": "address",
          "name": "previousOwner",
          "type": "address"
        },
        {
          "indexed": true,
          "internalType": "address",
          "name": "newOwner",
          "type": "address"
        }
      ],
      "name": "OwnershipTransferred",
      "type": "event"
    },
    {
      "anonymous": false,
      "inputs": [
        {
          "indexed": true,
          "internalType": "bytes32",
          "name": "role",
          "type": "bytes32"
        },
        {
          "indexed": true,
          "internalType": "bytes32",
          "name": "previousAdminRole",
          "type": "bytes32"
        },
        {
          "indexed": true,
          "internalType": "bytes32",
          "name": "newAdminRole",
          "type": "bytes32"
        }
      ],
      "name": "RoleAdminChanged",
      "type": "event"
    },
    {
      "anonymous": false,
      "inputs": [
        {
          "indexed": true,
          "internalType": "bytes32",
          "name": "role",
          "type": "bytes32"
        },
        {
          "indexed": true,
          "internalType": "address",
          "name": "account",
          "type": "address"
        },
        {
          "indexed": true,
          "internalType": "address",
          "name": "sender",
          "type": "address"
        }
      ],
      "name": "RoleGranted",
      "type": "event"
    },
    {
      "anonymous": false,
      "inputs": [
        {
          "indexed": true,
          "internalType": "bytes32",
          "name": "role",
          "type": "bytes32"
        },
        {
          "indexed": true,
          "internalType": "address",
          "name": "account",
          "type": "address"
        },
        {
          "indexed": true,
          "internalType": "address",
          "name": "sender",
          "type": "address"
        }
      ],
      "name": "RoleRevoked",
      "type": "event"
    },
    {
      "inputs": [],
      "name": "DEFAULT_ADMIN_ROLE",
      "outputs": [
        {
          "internalType": "bytes32",
          "name": "",
          "type": "bytes32"
        }
      ],
      "stateMutability": "view",
      "type": "function"
    },
    {
      "inputs": [],
      "name": "OPERATOR_ROLE",
      "outputs": [
        {
          "internalType": "bytes32",
          "name": "",
          "type": "bytes32"
        }
      ],
      "stateMutability": "view",
      "type": "function"
    },
    {
      "inputs": [
        {
          "internalType": "address",
          "name": "",
          "type": "address"
        }
      ],
      "name": "allowedGameRules",
      "outputs": [
        {
          "internalType": "bool",
          "name": "",
          "type": "bool"
        }
      ],
      "stateMutability": "view",
      "type": "function"
    },
    {
      "inputs": [
        {
          "internalType": "address",
          "name": "_token",
          "type": "address"
        },
        {
          "internalType": "address",
          "name": "_from",
          "type": "address"
        },
        {
          "internalType": "address",
          "name": "_spender",
          "type": "address"
        },
        {
          "internalType": "uint256",
          "name": "_amount",
          "type": "uint256"
        }
      ],
      "name": "approve",
      "outputs": [],
      "stateMutability": "nonpayable",
      "type": "function"
    },
    {
      "inputs": [
        {
          "internalType": "address",
          "name": "_primary",
          "type": "address"
        }
      ],
      "name": "computeMirrorAddress",
      "outputs": [
        {
          "internalType": "address",
          "name": "",
          "type": "address"
        }
      ],
      "stateMutability": "view",
      "type": "function"
    },
    {
      "inputs": [
        {
          "internalType": "address",
          "name": "_gameRule",
          "type": "address"
        },
        {
          "internalType": "bool",
          "name": "_allowed",
          "type": "bool"
        }
      ],
      "name": "configGameRule",
      "outputs": [],
      "stateMutability": "nonpayable",
      "type": "function"
    },
    {
      "inputs": [
        {
          "internalType": "address",
          "name": "_primary",
          "type": "address"
        },
        {
          "internalType": "string",
          "name": "_username",
          "type": "string"
        },
        {
          "internalType": "uint64",
          "name": "_chainId",
          "type": "uint64"
        }
      ],
      "name": "createUser",
      "outputs": [],
      "stateMutability": "nonpayable",
      "type": "function"
    },
    {
      "inputs": [
        {
          "internalType": "address",
          "name": "_primary",
          "type": "address"
        },
        {
          "internalType": "address",
          "name": "_mirror",
          "type": "address"
        },
        {
          "internalType": "string",
          "name": "_username",
          "type": "string"
        },
        {
          "internalType": "uint64",
          "name": "_chainId",
          "type": "uint64"
        }
      ],
      "name": "createUserWithMirror",
      "outputs": [],
      "stateMutability": "nonpayable",
      "type": "function"
    },
    {
      "inputs": [
        {
          "internalType": "address",
          "name": "_primary",
          "type": "address"
        }
      ],
      "name": "deleteUser",
      "outputs": [],
      "stateMutability": "nonpayable",
      "type": "function"
    },
    {
      "inputs": [
        {
          "internalType": "uint256",
          "name": "",
          "type": "uint256"
        }
      ],
      "name": "gameRules",
      "outputs": [
        {
          "internalType": "address",
          "name": "",
          "type": "address"
        }
      ],
      "stateMutability": "view",
      "type": "function"
    },
    {
      "inputs": [
        {
          "internalType": "bytes32",
          "name": "role",
          "type": "bytes32"
        }
      ],
      "name": "getRoleAdmin",
      "outputs": [
        {
          "internalType": "bytes32",
          "name": "",
          "type": "bytes32"
        }
      ],
      "stateMutability": "view",
      "type": "function"
    },
    {
      "inputs": [
        {
          "internalType": "bytes32",
          "name": "role",
          "type": "bytes32"
        },
        {
          "internalType": "address",
          "name": "account",
          "type": "address"
        }
      ],
      "name": "grantRole",
      "outputs": [],
      "stateMutability": "nonpayable",
      "type": "function"
    },
    {
      "inputs": [
        {
          "internalType": "bytes32",
          "name": "role",
          "type": "bytes32"
        },
        {
          "internalType": "address",
          "name": "account",
          "type": "address"
        }
      ],
      "name": "hasRole",
      "outputs": [
        {
          "internalType": "bool",
          "name": "",
          "type": "bool"
        }
      ],
      "stateMutability": "view",
      "type": "function"
    },
    {
      "inputs": [
        {
          "internalType": "address",
          "name": "_owner",
          "type": "address"
        },
        {
          "internalType": "address",
          "name": "_operator",
          "type": "address"
        },
        {
          "internalType": "address",
          "name": "_registerSC",
          "type": "address"
        }
      ],
      "name": "initialize",
      "outputs": [],
      "stateMutability": "nonpayable",
      "type": "function"
    },
    {
      "inputs": [
        {
          "internalType": "address",
          "name": "_from",
          "type": "address"
        },
        {
          "internalType": "address payable",
          "name": "_to",
          "type": "address"
        },
        {
          "internalType": "uint256",
          "name": "_amount",
          "type": "uint256"
        }
      ],
      "name": "nativeTransfer",
      "outputs": [],
      "stateMutability": "nonpayable",
      "type": "function"
    },
    {
      "inputs": [],
      "name": "owner",
      "outputs": [
        {
          "internalType": "address",
          "name": "",
          "type": "address"
        }
      ],
      "stateMutability": "view",
      "type": "function"
    },
    {
      "inputs": [],
      "name": "registerSC",
      "outputs": [
        {
          "internalType": "address",
          "name": "",
          "type": "address"
        }
      ],
      "stateMutability": "view",
      "type": "function"
    },
    {
      "inputs": [],
      "name": "renounceOwnership",
      "outputs": [],
      "stateMutability": "nonpayable",
      "type": "function"
    },
    {
      "inputs": [
        {
          "internalType": "bytes32",
          "name": "role",
          "type": "bytes32"
        },
        {
          "internalType": "address",
          "name": "callerConfirmation",
          "type": "address"
        }
      ],
      "name": "renounceRole",
      "outputs": [],
      "stateMutability": "nonpayable",
      "type": "function"
    },
    {
      "inputs": [
        {
          "internalType": "bytes32",
          "name": "role",
          "type": "bytes32"
        },
        {
          "internalType": "address",
          "name": "account",
          "type": "address"
        }
      ],
      "name": "revokeRole",
      "outputs": [],
      "stateMutability": "nonpayable",
      "type": "function"
    },
    {
      "inputs": [
        {
          "internalType": "bytes4",
          "name": "interfaceId",
          "type": "bytes4"
        }
      ],
      "name": "supportsInterface",
      "outputs": [
        {
          "internalType": "bool",
          "name": "",
          "type": "bool"
        }
      ],
      "stateMutability": "view",
      "type": "function"
    },
    {
      "inputs": [
        {
          "internalType": "address",
          "name": "_token",
          "type": "address"
        },
        {
          "internalType": "address",
          "name": "_from",
          "type": "address"
        },
        {
          "internalType": "address",
          "name": "_to",
          "type": "address"
        },
        {
          "internalType": "uint256",
          "name": "_amount",
          "type": "uint256"
        }
      ],
      "name": "transfer",
      "outputs": [],
      "stateMutability": "nonpayable",
      "type": "function"
    },
    {
      "inputs": [
        {
          "internalType": "address",
          "name": "_token",
          "type": "address"
        },
        {
          "internalType": "address",
          "name": "_from",
          "type": "address"
        },
        {
          "internalType": "address",
          "name": "_to",
          "type": "address"
        },
        {
          "internalType": "uint256",
          "name": "_tokenId",
          "type": "uint256"
        },
        {
          "internalType": "bytes",
          "name": "data",
          "type": "bytes"
        }
      ],
      "name": "transferFrom",
      "outputs": [],
      "stateMutability": "nonpayable",
      "type": "function"
    },
    {
      "inputs": [
        {
          "internalType": "address",
          "name": "_token",
          "type": "address"
        },
        {
          "internalType": "address",
          "name": "_from",
          "type": "address"
        },
        {
          "internalType": "address",
          "name": "_to",
          "type": "address"
        },
        {
          "internalType": "uint256",
          "name": "_tokenId",
          "type": "uint256"
        },
        {
          "internalType": "uint256",
          "name": "_amount",
          "type": "uint256"
        },
        {
          "internalType": "bytes",
          "name": "data",
          "type": "bytes"
        }
      ],
      "name": "transferFrom",
      "outputs": [],
      "stateMutability": "nonpayable",
      "type": "function"
    },
    {
      "inputs": [
        {
          "internalType": "address",
          "name": "newOwner",
          "type": "address"
        }
      ],
      "name": "transferOwnership",
      "outputs": [],
      "stateMutability": "nonpayable",
      "type": "function"
    }
  ],
  "bytecode": "0x608060405234801561001057600080fd5b50612ed6806100206000396000f3fe608060405234801561001057600080fd5b50600436106101735760003560e01c8063715018a6116100de578063c0c53b8b11610097578063daeed04b11610071578063daeed04b1461041c578063f18d03cc1461044c578063f2fde38b14610468578063f5b541a61461048457610173565b8063c0c53b8b146103b4578063d547741f146103d0578063d986b77c146103ec57610173565b8063715018a61461030657806387918e15146103105780638da5cb5b1461032c57806391d148541461034a578063a217fddf1461037a578063b7c0d4ef1461039857610173565b806336568abe1161013057806336568abe1461025c5780634a280a55146102785780634d2577951461029457806359eba454146102b05780635c60f226146102cc5780636574405a146102e857610173565b806301ffc9a7146101785780631ab933f5146101a8578063248a9ca3146101c457806324d64883146101f45780632c08d079146102245780632f2ff15d14610240575b600080fd5b610192600480360381019061018d9190611fff565b6104a2565b60405161019f9190612047565b60405180910390f35b6101c260048036038101906101bd91906120ec565b61051c565b005b6101de60048036038101906101d99190612162565b610717565b6040516101eb919061219e565b60405180910390f35b61020e600480360381019061020991906121b9565b610745565b60405161021b9190612047565b60405180910390f35b61023e6004803603810190610239919061228b565b610765565b005b61025a600480360381019061025591906122ff565b6108a2565b005b610276600480360381019061027191906122ff565b6108c4565b005b610292600480360381019061028d91906123cb565b61093f565b005b6102ae60048036038101906102a991906124a3565b610aff565b005b6102ca60048036038101906102c591906124f6565b610cb4565b005b6102e660048036038101906102e191906121b9565b610e6c565b005b6102f0610fa0565b6040516102fd919061256c565b60405180910390f35b61030e610fc4565b005b61032a60048036038101906103259190612587565b610fd8565b005b610334611118565b604051610341919061256c565b60405180910390f35b610364600480360381019061035f91906122ff565b611150565b6040516103719190612047565b60405180910390f35b6103826111c9565b60405161038f919061219e565b60405180910390f35b6103b260048036038101906103ad919061260f565b6111d0565b005b6103ce60048036038101906103c991906126be565b611393565b005b6103ea60048036038101906103e591906122ff565b6115ad565b005b610406600480360381019061040191906121b9565b6115cf565b604051610413919061256c565b60405180910390f35b61043660048036038101906104319190612711565b611673565b604051610443919061256c565b60405180910390f35b610466600480360381019061046191906124f6565b6116b2565b005b610482600480360381019061047d91906121b9565b61186a565b005b61048c6118f0565b604051610499919061219e565b60405180910390f35b60007f7965db0b000000000000000000000000000000000000000000000000000000007bffffffffffffffffffffffffffffffffffffffffffffffffffffffff1916827bffffffffffffffffffffffffffffffffffffffffffffffffffffffff19161480610515575061051482611914565b5b9050919050565b61052461197e565b600073ffffffffffffffffffffffffffffffffffffffff168273ffffffffffffffffffffffffffffffffffffffff1603610593576040517f08c379a000000000000000000000000000000000000000000000000000000000815260040161058a906127c1565b60405180910390fd5b600260008373ffffffffffffffffffffffffffffffffffffffff1673ffffffffffffffffffffffffffffffffffffffff16815260200190815260200160002060009054906101000a900460ff1615610620576040517f08c379a000000000000000000000000000000000000000000000000000000000815260040161061790612853565b60405180910390fd5b6001829080600181540180825580915050600190039060005260206000200160009091909190916101000a81548173ffffffffffffffffffffffffffffffffffffffff021916908373ffffffffffffffffffffffffffffffffffffffff16021790555080600260008473ffffffffffffffffffffffffffffffffffffffff1673ffffffffffffffffffffffffffffffffffffffff16815260200190815260200160002060006101000a81548160ff0219169083151502179055507f6a4f05361503f76546c19e6e8bd8af8c15f64ad5eb827e4ae920035ce02e52cd828260405161070b929190612873565b60405180910390a15050565b600080610722611a05565b905080600001600084815260200190815260200160002060010154915050919050565b60026020528060005260406000206000915054906101000a900460ff1681565b61078f7f97667070c54ef182b0f5858b034beac1b6f3089aa2d3188bb1e8929f4fa9b92933611150565b806107cc575061079d611118565b73ffffffffffffffffffffffffffffffffffffffff163373ffffffffffffffffffffffffffffffffffffffff16145b61080b576040517f08c379a00000000000000000000000000000000000000000000000000000000081526004016108029061290e565b60405180910390fd5b60008054906101000a900473ffffffffffffffffffffffffffffffffffffffff1673ffffffffffffffffffffffffffffffffffffffff16632c08d079858585856040518563ffffffff1660e01b815260040161086a949392919061298a565b600060405180830381600087803b15801561088457600080fd5b505af1158015610898573d6000803e3d6000fd5b5050505050505050565b6108ab82610717565b6108b481611a2d565b6108be8383611a41565b50505050565b6108cc611b42565b73ffffffffffffffffffffffffffffffffffffffff168173ffffffffffffffffffffffffffffffffffffffff1614610930576040517f6697b23200000000000000000000000000000000000000000000000000000000815260040160405180910390fd5b61093a8282611b4a565b505050565b610947611c4c565b600260003373ffffffffffffffffffffffffffffffffffffffff1673ffffffffffffffffffffffffffffffffffffffff16815260200190815260200160002060009054906101000a900460ff166109d3576040517f08c379a00000000000000000000000000000000000000000000000000000000081526004016109ca90612a16565b60405180910390fd5b60008060009054906101000a900473ffffffffffffffffffffffffffffffffffffffff1673ffffffffffffffffffffffffffffffffffffffff16636386c1c7876040518263ffffffff1660e01b8152600401610a2f919061256c565b600060405180830381865afa158015610a4c573d6000803e3d6000fd5b505050506040513d6000823e3d601f19601f82011682018060405250810190610a759190612bab565b505090508073ffffffffffffffffffffffffffffffffffffffff16634a280a558888888888886040518763ffffffff1660e01b8152600401610abc96959493929190612c67565b600060405180830381600087803b158015610ad657600080fd5b505af1158015610aea573d6000803e3d6000fd5b5050505050610af7611ca3565b505050505050565b610b07611c4c565b600260003373ffffffffffffffffffffffffffffffffffffffff1673ffffffffffffffffffffffffffffffffffffffff16815260200190815260200160002060009054906101000a900460ff16610b93576040517f08c379a0000000000000000000000000000000000000000000000000000000008152600401610b8a90612a16565b60405180910390fd5b60008060009054906101000a900473ffffffffffffffffffffffffffffffffffffffff1673ffffffffffffffffffffffffffffffffffffffff16636386c1c7856040518263ffffffff1660e01b8152600401610bef919061256c565b600060405180830381865afa158015610c0c573d6000803e3d6000fd5b505050506040513d6000823e3d601f19601f82011682018060405250810190610c359190612bab565b505090508073ffffffffffffffffffffffffffffffffffffffff1663f2522bcd84846040518363ffffffff1660e01b8152600401610c74929190612cd2565b600060405180830381600087803b158015610c8e57600080fd5b505af1158015610ca2573d6000803e3d6000fd5b5050505050610caf611ca3565b505050565b610cbc611c4c565b600260003373ffffffffffffffffffffffffffffffffffffffff1673ffffffffffffffffffffffffffffffffffffffff16815260200190815260200160002060009054906101000a900460ff16610d48576040517f08c379a0000000000000000000000000000000000000000000000000000000008152600401610d3f90612a16565b60405180910390fd5b60008060009054906101000a900473ffffffffffffffffffffffffffffffffffffffff1673ffffffffffffffffffffffffffffffffffffffff16636386c1c7856040518263ffffffff1660e01b8152600401610da4919061256c565b600060405180830381865afa158015610dc1573d6000803e3d6000fd5b505050506040513d6000823e3d601f19601f82011682018060405250810190610dea9190612bab565b505090508073ffffffffffffffffffffffffffffffffffffffff1663e1f21c678685856040518463ffffffff1660e01b8152600401610e2b93929190612cfb565b600060405180830381600087803b158015610e4557600080fd5b505af1158015610e59573d6000803e3d6000fd5b5050505050610e66611ca3565b50505050565b610e967f97667070c54ef182b0f5858b034beac1b6f3089aa2d3188bb1e8929f4fa9b92933611150565b80610ed35750610ea4611118565b73ffffffffffffffffffffffffffffffffffffffff163373ffffffffffffffffffffffffffffffffffffffff16145b610f12576040517f08c379a0000000000000000000000000000000000000000000000000000000008152600401610f099061290e565b60405180910390fd5b60008054906101000a900473ffffffffffffffffffffffffffffffffffffffff1673ffffffffffffffffffffffffffffffffffffffff16635c60f226826040518263ffffffff1660e01b8152600401610f6b919061256c565b600060405180830381600087803b158015610f8557600080fd5b505af1158015610f99573d6000803e3d6000fd5b5050505050565b60008054906101000a900473ffffffffffffffffffffffffffffffffffffffff1681565b610fcc61197e565b610fd66000611cbc565b565b6110027f97667070c54ef182b0f5858b034beac1b6f3089aa2d3188bb1e8929f4fa9b92933611150565b8061103f5750611010611118565b73ffffffffffffffffffffffffffffffffffffffff163373ffffffffffffffffffffffffffffffffffffffff16145b61107e576040517f08c379a00000000000000000000000000000000000000000000000000000000081526004016110759061290e565b60405180910390fd5b60008054906101000a900473ffffffffffffffffffffffffffffffffffffffff1673ffffffffffffffffffffffffffffffffffffffff166387918e1586868686866040518663ffffffff1660e01b81526004016110df959493929190612d32565b600060405180830381600087803b1580156110f957600080fd5b505af115801561110d573d6000803e3d6000fd5b505050505050505050565b600080611123611d93565b90508060000160009054906101000a900473ffffffffffffffffffffffffffffffffffffffff1691505090565b60008061115b611a05565b905080600001600085815260200190815260200160002060000160008473ffffffffffffffffffffffffffffffffffffffff1673ffffffffffffffffffffffffffffffffffffffff16815260200190815260200160002060009054906101000a900460ff1691505092915050565b6000801b81565b6111d8611c4c565b600260003373ffffffffffffffffffffffffffffffffffffffff1673ffffffffffffffffffffffffffffffffffffffff16815260200190815260200160002060009054906101000a900460ff16611264576040517f08c379a000000000000000000000000000000000000000000000000000000000815260040161125b90612a16565b60405180910390fd5b60008060009054906101000a900473ffffffffffffffffffffffffffffffffffffffff1673ffffffffffffffffffffffffffffffffffffffff16636386c1c7886040518263ffffffff1660e01b81526004016112c0919061256c565b600060405180830381865afa1580156112dd573d6000803e3d6000fd5b505050506040513d6000823e3d601f19601f820116820180604052508101906113069190612bab565b505090508073ffffffffffffffffffffffffffffffffffffffff1663b7c0d4ef898989898989896040518863ffffffff1660e01b815260040161134f9796959493929190612d80565b600060405180830381600087803b15801561136957600080fd5b505af115801561137d573d6000803e3d6000fd5b505050505061138a611ca3565b50505050505050565b600061139d611dbb565b905060008160000160089054906101000a900460ff1615905060008260000160009054906101000a900467ffffffffffffffff1690506000808267ffffffffffffffff161480156113eb5750825b9050600060018367ffffffffffffffff16148015611420575060003073ffffffffffffffffffffffffffffffffffffffff163b145b90508115801561142e575080155b15611465576040517ff92ee8a900000000000000000000000000000000000000000000000000000000815260040160405180910390fd5b60018560000160006101000a81548167ffffffffffffffff021916908367ffffffffffffffff16021790555083156114b55760018560000160086101000a81548160ff0219169083151502179055505b6114c26000801b89611a41565b506114ed7f97667070c54ef182b0f5858b034beac1b6f3089aa2d3188bb1e8929f4fa9b92988611a41565b50856000806101000a81548173ffffffffffffffffffffffffffffffffffffffff021916908373ffffffffffffffffffffffffffffffffffffffff16021790555061153788611de3565b61153f611df7565b611547611e09565b83156115a35760008560000160086101000a81548160ff0219169083151502179055507fc7f505b2f371ae2175ee4913f4499e1f2633a7b5936321eed1cdaeb6115181d2600160405161159a9190612e2f565b60405180910390a15b5050505050505050565b6115b682610717565b6115bf81611a2d565b6115c98383611b4a565b50505050565b60008060009054906101000a900473ffffffffffffffffffffffffffffffffffffffff1673ffffffffffffffffffffffffffffffffffffffff1663d986b77c836040518263ffffffff1660e01b815260040161162b919061256c565b602060405180830381865afa158015611648573d6000803e3d6000fd5b505050506040513d601f19601f8201168201806040525081019061166c9190612e4a565b9050919050565b6001818154811061168357600080fd5b906000526020600020016000915054906101000a900473ffffffffffffffffffffffffffffffffffffffff1681565b6116ba611c4c565b600260003373ffffffffffffffffffffffffffffffffffffffff1673ffffffffffffffffffffffffffffffffffffffff16815260200190815260200160002060009054906101000a900460ff16611746576040517f08c379a000000000000000000000000000000000000000000000000000000000815260040161173d90612a16565b60405180910390fd5b60008060009054906101000a900473ffffffffffffffffffffffffffffffffffffffff1673ffffffffffffffffffffffffffffffffffffffff16636386c1c7856040518263ffffffff1660e01b81526004016117a2919061256c565b600060405180830381865afa1580156117bf573d6000803e3d6000fd5b505050506040513d6000823e3d601f19601f820116820180604052508101906117e89190612bab565b505090508073ffffffffffffffffffffffffffffffffffffffff1663beabacc88685856040518463ffffffff1660e01b815260040161182993929190612cfb565b600060405180830381600087803b15801561184357600080fd5b505af1158015611857573d6000803e3d6000fd5b5050505050611864611ca3565b50505050565b61187261197e565b600073ffffffffffffffffffffffffffffffffffffffff168173ffffffffffffffffffffffffffffffffffffffff16036118e45760006040517f1e4fbdf70000000000000000000000000000000000000000000000000000000081526004016118db919061256c565b60405180910390fd5b6118ed81611cbc565b50565b7f97667070c54ef182b0f5858b034beac1b6f3089aa2d3188bb1e8929f4fa9b92981565b60007f01ffc9a7000000000000000000000000000000000000000000000000000000007bffffffffffffffffffffffffffffffffffffffffffffffffffffffff1916827bffffffffffffffffffffffffffffffffffffffffffffffffffffffff1916149050919050565b611986611b42565b73ffffffffffffffffffffffffffffffffffffffff166119a4611118565b73ffffffffffffffffffffffffffffffffffffffff1614611a03576119c7611b42565b6040517f118cdaa70000000000000000000000000000000000000000000000000000000081526004016119fa919061256c565b60405180910390fd5b565b60007f02dd7bc7dec4dceedda775e58dd541e08a116c6c53815c0bd028192f7b626800905090565b611a3e81611a39611b42565b611e13565b50565b600080611a4c611a05565b9050611a588484611150565b611b3657600181600001600086815260200190815260200160002060000160008573ffffffffffffffffffffffffffffffffffffffff1673ffffffffffffffffffffffffffffffffffffffff16815260200190815260200160002060006101000a81548160ff021916908315150217905550611ad2611b42565b73ffffffffffffffffffffffffffffffffffffffff168373ffffffffffffffffffffffffffffffffffffffff16857f2f8788117e7eff1d82e926ec794901d17c78024a50270940304540a733656f0d60405160405180910390a46001915050611b3c565b60009150505b92915050565b600033905090565b600080611b55611a05565b9050611b618484611150565b15611c4057600081600001600086815260200190815260200160002060000160008573ffffffffffffffffffffffffffffffffffffffff1673ffffffffffffffffffffffffffffffffffffffff16815260200190815260200160002060006101000a81548160ff021916908315150217905550611bdc611b42565b73ffffffffffffffffffffffffffffffffffffffff168373ffffffffffffffffffffffffffffffffffffffff16857ff6391f5c32d9c69d2a47ea670b442974b53935d1edc7fd64eb21e047a839171b60405160405180910390a46001915050611c46565b60009150505b92915050565b6000611c56611e64565b90506002816000015403611c96576040517f3ee5aeb500000000000000000000000000000000000000000000000000000000815260040160405180910390fd5b6002816000018190555050565b6000611cad611e64565b90506001816000018190555050565b6000611cc6611d93565b905060008160000160009054906101000a900473ffffffffffffffffffffffffffffffffffffffff169050828260000160006101000a81548173ffffffffffffffffffffffffffffffffffffffff021916908373ffffffffffffffffffffffffffffffffffffffff1602179055508273ffffffffffffffffffffffffffffffffffffffff168173ffffffffffffffffffffffffffffffffffffffff167f8be0079c531659141344cd1fd0a4f28419497f9722a3daafe3b4186f6b6457e060405160405180910390a3505050565b60007f9016d09d72d40fdae2fd8ceac6b6234c7706214fd39c1cd1e609a0528c199300905090565b60007ff0c57e16840df040f15088dc2f81fe391c3923bec73e23a9662efc9c229c6a00905090565b611deb611e8c565b611df481611ecc565b50565b611dff611e8c565b611e07611f52565b565b611e11611e8c565b565b611e1d8282611150565b611e605780826040517fe2517d3f000000000000000000000000000000000000000000000000000000008152600401611e57929190612e77565b60405180910390fd5b5050565b60007f9b779b17422d0df92223018b32b4d1fa46e071723d6817e2486d003becc55f00905090565b611e94611f73565b611eca576040517fd7e6bcf800000000000000000000000000000000000000000000000000000000815260040160405180910390fd5b565b611ed4611e8c565b600073ffffffffffffffffffffffffffffffffffffffff168173ffffffffffffffffffffffffffffffffffffffff1603611f465760006040517f1e4fbdf7000000000000000000000000000000000000000000000000000000008152600401611f3d919061256c565b60405180910390fd5b611f4f81611cbc565b50565b611f5a611e8c565b6000611f64611e64565b90506001816000018190555050565b6000611f7d611dbb565b60000160089054906101000a900460ff16905090565b6000604051905090565b600080fd5b600080fd5b60007fffffffff0000000000000000000000000000000000000000000000000000000082169050919050565b611fdc81611fa7565b8114611fe757600080fd5b50565b600081359050611ff981611fd3565b92915050565b60006020828403121561201557612014611f9d565b5b600061202384828501611fea565b91505092915050565b60008115159050919050565b6120418161202c565b82525050565b600060208201905061205c6000830184612038565b92915050565b600073ffffffffffffffffffffffffffffffffffffffff82169050919050565b600061208d82612062565b9050919050565b61209d81612082565b81146120a857600080fd5b50565b6000813590506120ba81612094565b92915050565b6120c98161202c565b81146120d457600080fd5b50565b6000813590506120e6816120c0565b92915050565b6000806040838503121561210357612102611f9d565b5b6000612111858286016120ab565b9250506020612122858286016120d7565b9150509250929050565b6000819050919050565b61213f8161212c565b811461214a57600080fd5b50565b60008135905061215c81612136565b92915050565b60006020828403121561217857612177611f9d565b5b60006121868482850161214d565b91505092915050565b6121988161212c565b82525050565b60006020820190506121b3600083018461218f565b92915050565b6000602082840312156121cf576121ce611f9d565b5b60006121dd848285016120ab565b91505092915050565b600080fd5b600080fd5b600080fd5b60008083601f84011261220b5761220a6121e6565b5b8235905067ffffffffffffffff811115612228576122276121eb565b5b602083019150836001820283011115612244576122436121f0565b5b9250929050565b600067ffffffffffffffff82169050919050565b6122688161224b565b811461227357600080fd5b50565b6000813590506122858161225f565b92915050565b600080600080606085870312156122a5576122a4611f9d565b5b60006122b3878288016120ab565b945050602085013567ffffffffffffffff8111156122d4576122d3611fa2565b5b6122e0878288016121f5565b935093505060406122f387828801612276565b91505092959194509250565b6000806040838503121561231657612315611f9d565b5b60006123248582860161214d565b9250506020612335858286016120ab565b9150509250929050565b6000819050919050565b6123528161233f565b811461235d57600080fd5b50565b60008135905061236f81612349565b92915050565b60008083601f84011261238b5761238a6121e6565b5b8235905067ffffffffffffffff8111156123a8576123a76121eb565b5b6020830191508360018202830111156123c4576123c36121f0565b5b9250929050565b60008060008060008060a087890312156123e8576123e7611f9d565b5b60006123f689828a016120ab565b965050602061240789828a016120ab565b955050604061241889828a016120ab565b945050606061242989828a01612360565b935050608087013567ffffffffffffffff81111561244a57612449611fa2565b5b61245689828a01612375565b92509250509295509295509295565b600061247082612062565b9050919050565b61248081612465565b811461248b57600080fd5b50565b60008135905061249d81612477565b92915050565b6000806000606084860312156124bc576124bb611f9d565b5b60006124ca868287016120ab565b93505060206124db8682870161248e565b92505060406124ec86828701612360565b9150509250925092565b600080600080608085870312156125105761250f611f9d565b5b600061251e878288016120ab565b945050602061252f878288016120ab565b9350506040612540878288016120ab565b925050606061255187828801612360565b91505092959194509250565b61256681612082565b82525050565b6000602082019050612581600083018461255d565b92915050565b6000806000806000608086880312156125a3576125a2611f9d565b5b60006125b1888289016120ab565b95505060206125c2888289016120ab565b945050604086013567ffffffffffffffff8111156125e3576125e2611fa2565b5b6125ef888289016121f5565b9350935050606061260288828901612276565b9150509295509295909350565b600080600080600080600060c0888a03121561262e5761262d611f9d565b5b600061263c8a828b016120ab565b975050602061264d8a828b016120ab565b965050604061265e8a828b016120ab565b955050606061266f8a828b01612360565b94505060806126808a828b01612360565b93505060a088013567ffffffffffffffff8111156126a1576126a0611fa2565b5b6126ad8a828b01612375565b925092505092959891949750929550565b6000806000606084860312156126d7576126d6611f9d565b5b60006126e5868287016120ab565b93505060206126f6868287016120ab565b9250506040612707868287016120ab565b9150509250925092565b60006020828403121561272757612726611f9d565b5b600061273584828501612360565b91505092915050565b600082825260208201905092915050565b7f526f757465723a2067616d652072756c6520697320746865207a65726f20616460008201527f6472657373000000000000000000000000000000000000000000000000000000602082015250565b60006127ab60258361273e565b91506127b68261274f565b604082019050919050565b600060208201905081810360008301526127da8161279e565b9050919050565b7f526f757465723a2067616d652072756c6520697320616c726561647920636f6e60008201527f6669677572656400000000000000000000000000000000000000000000000000602082015250565b600061283d60278361273e565b9150612848826127e1565b604082019050919050565b6000602082019050818103600083015261286c81612830565b9050919050565b6000604082019050612888600083018561255d565b6128956020830184612038565b9392505050565b7f526f757465723a2063616c6c6572206973206e6f7420746865206f706572617460008201527f6f72000000000000000000000000000000000000000000000000000000000000602082015250565b60006128f860228361273e565b91506129038261289c565b604082019050919050565b60006020820190508181036000830152612927816128eb565b9050919050565b82818337600083830152505050565b6000601f19601f8301169050919050565b600061295a838561273e565b935061296783858461292e565b6129708361293d565b840190509392505050565b6129848161224b565b82525050565b600060608201905061299f600083018761255d565b81810360208301526129b281858761294e565b90506129c1604083018461297b565b95945050505050565b7f526f757465723a2063616c6c6572206973206e6f74207468652067616d650000600082015250565b6000612a00601e8361273e565b9150612a0b826129ca565b602082019050919050565b60006020820190508181036000830152612a2f816129f3565b9050919050565b600081519050612a4581612094565b92915050565b600080fd5b7f4e487b7100000000000000000000000000000000000000000000000000000000600052604160045260246000fd5b612a888261293d565b810181811067ffffffffffffffff82111715612aa757612aa6612a50565b5b80604052505050565b6000612aba611f93565b9050612ac68282612a7f565b919050565b600067ffffffffffffffff821115612ae657612ae5612a50565b5b612aef8261293d565b9050602081019050919050565b60005b83811015612b1a578082015181840152602081019050612aff565b60008484015250505050565b6000612b39612b3484612acb565b612ab0565b905082815260208101848484011115612b5557612b54612a4b565b5b612b60848285612afc565b509392505050565b600082601f830112612b7d57612b7c6121e6565b5b8151612b8d848260208601612b26565b91505092915050565b600081519050612ba58161225f565b92915050565b600080600060608486031215612bc457612bc3611f9d565b5b6000612bd286828701612a36565b935050602084015167ffffffffffffffff811115612bf357612bf2611fa2565b5b612bff86828701612b68565b9250506040612c1086828701612b96565b9150509250925092565b612c238161233f565b82525050565b600082825260208201905092915050565b6000612c468385612c29565b9350612c5383858461292e565b612c5c8361293d565b840190509392505050565b600060a082019050612c7c600083018961255d565b612c89602083018861255d565b612c96604083018761255d565b612ca36060830186612c1a565b8181036080830152612cb6818486612c3a565b9050979650505050505050565b612ccc81612465565b82525050565b6000604082019050612ce76000830185612cc3565b612cf46020830184612c1a565b9392505050565b6000606082019050612d10600083018661255d565b612d1d602083018561255d565b612d2a6040830184612c1a565b949350505050565b6000608082019050612d47600083018861255d565b612d54602083018761255d565b8181036040830152612d6781858761294e565b9050612d76606083018461297b565b9695505050505050565b600060c082019050612d95600083018a61255d565b612da2602083018961255d565b612daf604083018861255d565b612dbc6060830187612c1a565b612dc96080830186612c1a565b81810360a0830152612ddc818486612c3a565b905098975050505050505050565b6000819050919050565b6000819050919050565b6000612e19612e14612e0f84612dea565b612df4565b61224b565b9050919050565b612e2981612dfe565b82525050565b6000602082019050612e446000830184612e20565b92915050565b600060208284031215612e6057612e5f611f9d565b5b6000612e6e84828501612a36565b91505092915050565b6000604082019050612e8c600083018561255d565b612e99602083018461218f565b939250505056fea2646970667358221220bc04824c8325e6869e38cd45f7d1f69262ad99d90fc296c7f5e2ce93e138d15d64736f6c63430008180033",
  "linkReferences": {},
  "deployedLinkReferences": {}
}