{
  "_format": "hh-sol-artifact-1",
  "contractName": "Router",
  "sourceName": "contracts/Router.sol",
  "abi": [
    {
      "inputs": [],
      "stateMutability": "nonpayable",
      "type": "constructor"
    },
    {
      "inputs": [],
      "name": "AccessControlBadConfirmation",
      "type": "error"
    },
    {
      "inputs": [
        {
          "internalType": "address",
          "name": "account",
          "type": "address"
        },
        {
          "internalType": "bytes32",
          "name": "neededRole",
          "type": "bytes32"
        }
      ],
      "name": "AccessControlUnauthorizedAccount",
      "type": "error"
    },
    {
      "inputs": [],
      "name": "InvalidInitialization",
      "type": "error"
    },
    {
      "inputs": [],
      "name": "NotInitializing",
      "type": "error"
    },
    {
      "inputs": [
        {
          "internalType": "address",
          "name": "owner",
          "type": "address"
        }
      ],
      "name": "OwnableInvalidOwner",
      "type": "error"
    },
    {
      "inputs": [
        {
          "internalType": "address",
          "name": "account",
          "type": "address"
        }
      ],
      "name": "OwnableUnauthorizedAccount",
      "type": "error"
    },
    {
      "inputs": [],
      "name": "ReentrancyGuardReentrantCall",
      "type": "error"
    },
    {
      "anonymous": false,
      "inputs": [
        {
          "indexed": false,
          "internalType": "address",
          "name": "_game",
          "type": "address"
        },
        {
          "indexed": false,
          "internalType": "bool",
          "name": "_allowed",
          "type": "bool"
        }
      ],
      "name": "GameConfigured",
      "type": "event"
    },
    {
      "anonymous": false,
      "inputs": [
        {
          "indexed": false,
          "internalType": "uint64",
          "name": "version",
          "type": "uint64"
        }
      ],
      "name": "Initialized",
      "type": "event"
    },
    {
      "anonymous": false,
      "inputs": [
        {
          "indexed": true,
          "internalType": "address",
          "name": "previousOwner",
          "type": "address"
        },
        {
          "indexed": true,
          "internalType": "address",
          "name": "newOwner",
          "type": "address"
        }
      ],
      "name": "OwnershipTransferred",
      "type": "event"
    },
    {
      "anonymous": false,
      "inputs": [
        {
          "indexed": true,
          "internalType": "bytes32",
          "name": "role",
          "type": "bytes32"
        },
        {
          "indexed": true,
          "internalType": "bytes32",
          "name": "previousAdminRole",
          "type": "bytes32"
        },
        {
          "indexed": true,
          "internalType": "bytes32",
          "name": "newAdminRole",
          "type": "bytes32"
        }
      ],
      "name": "RoleAdminChanged",
      "type": "event"
    },
    {
      "anonymous": false,
      "inputs": [
        {
          "indexed": true,
          "internalType": "bytes32",
          "name": "role",
          "type": "bytes32"
        },
        {
          "indexed": true,
          "internalType": "address",
          "name": "account",
          "type": "address"
        },
        {
          "indexed": true,
          "internalType": "address",
          "name": "sender",
          "type": "address"
        }
      ],
      "name": "RoleGranted",
      "type": "event"
    },
    {
      "anonymous": false,
      "inputs": [
        {
          "indexed": true,
          "internalType": "bytes32",
          "name": "role",
          "type": "bytes32"
        },
        {
          "indexed": true,
          "internalType": "address",
          "name": "account",
          "type": "address"
        },
        {
          "indexed": true,
          "internalType": "address",
          "name": "sender",
          "type": "address"
        }
      ],
      "name": "RoleRevoked",
      "type": "event"
    },
    {
      "inputs": [],
      "name": "DEFAULT_ADMIN_ROLE",
      "outputs": [
        {
          "internalType": "bytes32",
          "name": "",
          "type": "bytes32"
        }
      ],
      "stateMutability": "view",
      "type": "function"
    },
    {
      "inputs": [],
      "name": "OPERATOR_ROLE",
      "outputs": [
        {
          "internalType": "bytes32",
          "name": "",
          "type": "bytes32"
        }
      ],
      "stateMutability": "view",
      "type": "function"
    },
    {
      "inputs": [
        {
          "internalType": "address",
          "name": "",
          "type": "address"
        }
      ],
      "name": "allowedGameRules",
      "outputs": [
        {
          "internalType": "bool",
          "name": "",
          "type": "bool"
        }
      ],
      "stateMutability": "view",
      "type": "function"
    },
    {
      "inputs": [
        {
          "internalType": "address[]",
          "name": "_chips",
          "type": "address[]"
        },
        {
          "internalType": "string[]",
          "name": "_plyrIds",
          "type": "string[]"
        },
        {
          "internalType": "uint256[]",
          "name": "_amounts",
          "type": "uint256[]"
        }
      ],
      "name": "burnGameChips",
      "outputs": [],
      "stateMutability": "nonpayable",
      "type": "function"
    },
    {
      "inputs": [
        {
          "internalType": "address",
          "name": "_chip",
          "type": "address"
        }
      ],
      "name": "chipInfo",
      "outputs": [
        {
          "internalType": "address",
          "name": "tokenAddress",
          "type": "address"
        },
        {
          "internalType": "string",
          "name": "gameId",
          "type": "string"
        },
        {
          "internalType": "string",
          "name": "name",
          "type": "string"
        },
        {
          "internalType": "string",
          "name": "symbol",
          "type": "string"
        },
        {
          "internalType": "uint256",
          "name": "totalSupply",
          "type": "uint256"
        },
        {
          "internalType": "uint256",
          "name": "holderCount",
          "type": "uint256"
        }
      ],
      "stateMutability": "view",
      "type": "function"
    },
    {
      "inputs": [
        {
          "internalType": "address",
          "name": "_primary",
          "type": "address"
        }
      ],
      "name": "computeMirrorAddress",
      "outputs": [
        {
          "internalType": "address",
          "name": "",
          "type": "address"
        }
      ],
      "stateMutability": "view",
      "type": "function"
    },
    {
      "inputs": [
        {
          "internalType": "address",
          "name": "_gameRule",
          "type": "address"
        },
        {
          "internalType": "bool",
          "name": "_allowed",
          "type": "bool"
        }
      ],
      "name": "configGameRule",
      "outputs": [],
      "stateMutability": "nonpayable",
      "type": "function"
    },
    {
      "inputs": [
        {
          "internalType": "string",
          "name": "_gameId",
          "type": "string"
        },
        {
          "internalType": "string",
          "name": "_name",
          "type": "string"
        },
        {
          "internalType": "string",
          "name": "_symbol",
          "type": "string"
        }
      ],
      "name": "createGameChip",
      "outputs": [],
      "stateMutability": "nonpayable",
      "type": "function"
    },
    {
      "inputs": [
        {
          "internalType": "address",
          "name": "_primary",
          "type": "address"
        },
        {
          "internalType": "string",
          "name": "_username",
          "type": "string"
        },
        {
          "internalType": "uint64",
          "name": "_chainId",
          "type": "uint64"
        }
      ],
      "name": "createUser",
      "outputs": [],
      "stateMutability": "nonpayable",
      "type": "function"
    },
    {
      "inputs": [
        {
          "internalType": "address",
          "name": "_primary",
          "type": "address"
        },
        {
          "internalType": "address",
          "name": "_mirror",
          "type": "address"
        },
        {
          "internalType": "string",
          "name": "_username",
          "type": "string"
        },
        {
          "internalType": "uint64",
          "name": "_chainId",
          "type": "uint64"
        }
      ],
      "name": "createUserWithMirror",
      "outputs": [],
      "stateMutability": "nonpayable",
      "type": "function"
    },
    {
      "inputs": [
        {
          "internalType": "address",
          "name": "_primary",
          "type": "address"
        }
      ],
      "name": "deleteUser",
      "outputs": [],
      "stateMutability": "nonpayable",
      "type": "function"
    },
    {
      "inputs": [],
      "name": "gameChipFactory",
      "outputs": [
        {
          "internalType": "address",
          "name": "",
          "type": "address"
        }
      ],
      "stateMutability": "view",
      "type": "function"
    },
    {
      "inputs": [
        {
          "internalType": "uint256",
          "name": "",
          "type": "uint256"
        }
      ],
      "name": "gameRules",
      "outputs": [
        {
          "internalType": "address",
          "name": "",
          "type": "address"
        }
      ],
      "stateMutability": "view",
      "type": "function"
    },
    {
      "inputs": [
        {
          "internalType": "address[]",
          "name": "_chips",
          "type": "address[]"
        },
        {
          "internalType": "string[]",
          "name": "_fromPlyrIds",
          "type": "string[]"
        },
        {
          "internalType": "string[]",
          "name": "_toPlyrIds",
          "type": "string[]"
        },
        {
          "internalType": "uint256[]",
          "name": "_amounts",
          "type": "uint256[]"
        }
      ],
      "name": "gameTransferGameChips",
      "outputs": [],
      "stateMutability": "nonpayable",
      "type": "function"
    },
    {
      "inputs": [
        {
          "internalType": "bytes32",
          "name": "role",
          "type": "bytes32"
        }
      ],
      "name": "getRoleAdmin",
      "outputs": [
        {
          "internalType": "bytes32",
          "name": "",
          "type": "bytes32"
        }
      ],
      "stateMutability": "view",
      "type": "function"
    },
    {
      "inputs": [
        {
          "internalType": "bytes32",
          "name": "role",
          "type": "bytes32"
        },
        {
          "internalType": "address",
          "name": "account",
          "type": "address"
        }
      ],
      "name": "grantRole",
      "outputs": [],
      "stateMutability": "nonpayable",
      "type": "function"
    },
    {
      "inputs": [
        {
          "internalType": "bytes32",
          "name": "role",
          "type": "bytes32"
        },
        {
          "internalType": "address",
          "name": "account",
          "type": "address"
        }
      ],
      "name": "hasRole",
      "outputs": [
        {
          "internalType": "bool",
          "name": "",
          "type": "bool"
        }
      ],
      "stateMutability": "view",
      "type": "function"
    },
    {
      "inputs": [
        {
          "internalType": "address",
          "name": "_owner",
          "type": "address"
        },
        {
          "internalType": "address",
          "name": "_operator",
          "type": "address"
        },
        {
          "internalType": "address",
          "name": "_registerSC",
          "type": "address"
        }
      ],
      "name": "initialize",
      "outputs": [],
      "stateMutability": "nonpayable",
      "type": "function"
    },
    {
      "inputs": [
        {
          "internalType": "address[]",
          "name": "_chips",
          "type": "address[]"
        },
        {
          "internalType": "string[]",
          "name": "_plyrIds",
          "type": "string[]"
        },
        {
          "internalType": "uint256[]",
          "name": "_amounts",
          "type": "uint256[]"
        }
      ],
      "name": "mintGameChips",
      "outputs": [],
      "stateMutability": "nonpayable",
      "type": "function"
    },
    {
      "inputs": [
        {
          "internalType": "address",
          "name": "_token",
          "type": "address"
        },
        {
          "internalType": "address",
          "name": "_from",
          "type": "address"
        },
        {
          "internalType": "address",
          "name": "_spender",
          "type": "address"
        },
        {
          "internalType": "uint256",
          "name": "_amount",
          "type": "uint256"
        }
      ],
      "name": "mirrorApprove",
      "outputs": [],
      "stateMutability": "nonpayable",
      "type": "function"
    },
    {
      "inputs": [
        {
          "internalType": "address",
          "name": "_token",
          "type": "address"
        },
        {
          "internalType": "address",
          "name": "_from",
          "type": "address"
        },
        {
          "internalType": "address",
          "name": "_to",
          "type": "address"
        },
        {
          "internalType": "uint256",
          "name": "_tokenId",
          "type": "uint256"
        },
        {
          "internalType": "uint256",
          "name": "_amount",
          "type": "uint256"
        },
        {
          "internalType": "bytes",
          "name": "data",
          "type": "bytes"
        }
      ],
      "name": "mirrorErc1155TransferFrom",
      "outputs": [],
      "stateMutability": "nonpayable",
      "type": "function"
    },
    {
      "inputs": [
        {
          "internalType": "address",
          "name": "_token",
          "type": "address"
        },
        {
          "internalType": "address",
          "name": "_from",
          "type": "address"
        },
        {
          "internalType": "address",
          "name": "_to",
          "type": "address"
        },
        {
          "internalType": "uint256",
          "name": "_tokenId",
          "type": "uint256"
        },
        {
          "internalType": "bytes",
          "name": "data",
          "type": "bytes"
        }
      ],
      "name": "mirrorErc721TransferFrom",
      "outputs": [],
      "stateMutability": "nonpayable",
      "type": "function"
    },
    {
      "inputs": [
        {
          "internalType": "address",
          "name": "_from",
          "type": "address"
        },
        {
          "internalType": "address payable",
          "name": "_to",
          "type": "address"
        },
        {
          "internalType": "uint256",
          "name": "_amount",
          "type": "uint256"
        }
      ],
      "name": "mirrorNativeTransfer",
      "outputs": [],
      "stateMutability": "nonpayable",
      "type": "function"
    },
    {
      "inputs": [
        {
          "internalType": "address",
          "name": "_token",
          "type": "address"
        },
        {
          "internalType": "address",
          "name": "_from",
          "type": "address"
        },
        {
          "internalType": "address",
          "name": "_to",
          "type": "address"
        },
        {
          "internalType": "uint256",
          "name": "_amount",
          "type": "uint256"
        }
      ],
      "name": "mirrorTokenTransfer",
      "outputs": [],
      "stateMutability": "nonpayable",
      "type": "function"
    },
    {
      "inputs": [
        {
          "internalType": "bytes[]",
          "name": "data",
          "type": "bytes[]"
        }
      ],
      "name": "multicall",
      "outputs": [
        {
          "internalType": "bytes[]",
          "name": "results",
          "type": "bytes[]"
        }
      ],
      "stateMutability": "payable",
      "type": "function"
    },
    {
      "inputs": [],
      "name": "owner",
      "outputs": [
        {
          "internalType": "address",
          "name": "",
          "type": "address"
        }
      ],
      "stateMutability": "view",
      "type": "function"
    },
    {
      "inputs": [],
      "name": "registerSC",
      "outputs": [
        {
          "internalType": "address",
          "name": "",
          "type": "address"
        }
      ],
      "stateMutability": "view",
      "type": "function"
    },
    {
      "inputs": [],
      "name": "renounceOwnership",
      "outputs": [],
      "stateMutability": "nonpayable",
      "type": "function"
    },
    {
      "inputs": [
        {
          "internalType": "bytes32",
          "name": "role",
          "type": "bytes32"
        },
        {
          "internalType": "address",
          "name": "callerConfirmation",
          "type": "address"
        }
      ],
      "name": "renounceRole",
      "outputs": [],
      "stateMutability": "nonpayable",
      "type": "function"
    },
    {
      "inputs": [
        {
          "internalType": "bytes32",
          "name": "role",
          "type": "bytes32"
        },
        {
          "internalType": "address",
          "name": "account",
          "type": "address"
        }
      ],
      "name": "revokeRole",
      "outputs": [],
      "stateMutability": "nonpayable",
      "type": "function"
    },
    {
      "inputs": [
        {
          "internalType": "address",
          "name": "_gameChipFactory",
          "type": "address"
        }
      ],
      "name": "setGameChipFactory",
      "outputs": [],
      "stateMutability": "nonpayable",
      "type": "function"
    },
    {
      "inputs": [
        {
          "internalType": "bytes4",
          "name": "interfaceId",
          "type": "bytes4"
        }
      ],
      "name": "supportsInterface",
      "outputs": [
        {
          "internalType": "bool",
          "name": "",
          "type": "bool"
        }
      ],
      "stateMutability": "view",
      "type": "function"
    },
    {
      "inputs": [
        {
          "internalType": "address",
          "name": "newOwner",
          "type": "address"
        }
      ],
      "name": "transferOwnership",
      "outputs": [],
      "stateMutability": "nonpayable",
      "type": "function"
    }
  ],
  "bytecode": "0x608060405234801561001057600080fd5b506147f9806100206000396000f3fe6080604052600436106101ee5760003560e01c806387918e151161010d578063d2027c00116100a0578063daeed04b1161006f578063daeed04b146106ce578063ef350a5d1461070b578063f2cb319c14610736578063f2fde38b14610778578063f5b541a6146107a1576101ee565b8063d2027c0014610616578063d3a2ca821461063f578063d547741f14610668578063d986b77c14610691576101ee565b80639cab493b116100dc5780639cab493b14610569578063a217fddf14610592578063ac9650d8146105bd578063c0c53b8b146105ed576101ee565b806387918e15146104af5780638c8fd59f146104d85780638da5cb5b1461050157806391d148541461052c576101ee565b806342d789e1116101855780636574405a116101545780636574405a1461041b578063680dc8d714610446578063715018a61461046f5780638075f39b14610486576101ee565b806342d789e1146103775780635405c10a146103a05780635b716e1c146103c95780635c60f226146103f2576101ee565b806328df71f7116101c157806328df71f7146102d35780632c08d079146102fc5780632f2ff15d1461032557806336568abe1461034e576101ee565b806301ffc9a7146101f35780631ab933f514610230578063248a9ca31461025957806324d6488314610296575b600080fd5b3480156101ff57600080fd5b5061021a60048036038101906102159190612eb4565b6107cc565b6040516102279190612efc565b60405180910390f35b34801561023c57600080fd5b5061025760048036038101906102529190612fa1565b610846565b005b34801561026557600080fd5b50610280600480360381019061027b9190613017565b610a41565b60405161028d9190613053565b60405180910390f35b3480156102a257600080fd5b506102bd60048036038101906102b8919061306e565b610a6f565b6040516102ca9190612efc565b60405180910390f35b3480156102df57600080fd5b506102fa60048036038101906102f59190613483565b610a8f565b005b34801561030857600080fd5b50610323600480360381019061031e91906135f5565b610d90565b005b34801561033157600080fd5b5061034c60048036038101906103479190613669565b610ecd565b005b34801561035a57600080fd5b5061037560048036038101906103709190613669565b610eef565b005b34801561038357600080fd5b5061039e600480360381019061039991906136ff565b610f6a565b005b3480156103ac57600080fd5b506103c760048036038101906103c291906137ae565b61112d565b005b3480156103d557600080fd5b506103f060048036038101906103eb9190613815565b6112e5565b005b3480156103fe57600080fd5b506104196004803603810190610414919061306e565b611529565b005b34801561042757600080fd5b5061043061165d565b60405161043d91906138cb565b60405180910390f35b34801561045257600080fd5b5061046d60048036038101906104689190613815565b611681565b005b34801561047b57600080fd5b506104846118c5565b005b34801561049257600080fd5b506104ad60048036038101906104a891906138e6565b6118d9565b005b3480156104bb57600080fd5b506104d660048036038101906104d19190613980565b611a99565b005b3480156104e457600080fd5b506104ff60048036038101906104fa9190613a08565b611bd9565b005b34801561050d57600080fd5b50610516611d15565b60405161052391906138cb565b60405180910390f35b34801561053857600080fd5b50610553600480360381019061054e9190613669565b611d4d565b6040516105609190612efc565b60405180910390f35b34801561057557600080fd5b50610590600480360381019061058b91906137ae565b611dc6565b005b34801561059e57600080fd5b506105a7611f7e565b6040516105b49190613053565b60405180910390f35b6105d760048036038101906105d29190613b05565b611f85565b6040516105e49190613c93565b60405180910390f35b3480156105f957600080fd5b50610614600480360381019061060f9190613cb5565b612119565b005b34801561062257600080fd5b5061063d6004803603810190610638919061306e565b612333565b005b34801561064b57600080fd5b5061066660048036038101906106619190613d46565b61237f565b005b34801561067457600080fd5b5061068f600480360381019061068a9190613669565b612534565b005b34801561069d57600080fd5b506106b860048036038101906106b3919061306e565b612556565b6040516106c591906138cb565b60405180910390f35b3480156106da57600080fd5b506106f560048036038101906106f09190613d99565b6125fa565b60405161070291906138cb565b60405180910390f35b34801561071757600080fd5b50610720612639565b60405161072d91906138cb565b60405180910390f35b34801561074257600080fd5b5061075d6004803603810190610758919061306e565b61265f565b60405161076f96959493929190613e2a565b60405180910390f35b34801561078457600080fd5b5061079f600480360381019061079a919061306e565b61271f565b005b3480156107ad57600080fd5b506107b66127a5565b6040516107c39190613053565b60405180910390f35b60007f7965db0b000000000000000000000000000000000000000000000000000000007bffffffffffffffffffffffffffffffffffffffffffffffffffffffff1916827bffffffffffffffffffffffffffffffffffffffffffffffffffffffff1916148061083f575061083e826127c9565b5b9050919050565b61084e612833565b600073ffffffffffffffffffffffffffffffffffffffff168273ffffffffffffffffffffffffffffffffffffffff16036108bd576040517f08c379a00000000000000000000000000000000000000000000000000000000081526004016108b490613f12565b60405180910390fd5b600260008373ffffffffffffffffffffffffffffffffffffffff1673ffffffffffffffffffffffffffffffffffffffff16815260200190815260200160002060009054906101000a900460ff161561094a576040517f08c379a000000000000000000000000000000000000000000000000000000000815260040161094190613fa4565b60405180910390fd5b6001829080600181540180825580915050600190039060005260206000200160009091909190916101000a81548173ffffffffffffffffffffffffffffffffffffffff021916908373ffffffffffffffffffffffffffffffffffffffff16021790555080600260008473ffffffffffffffffffffffffffffffffffffffff1673ffffffffffffffffffffffffffffffffffffffff16815260200190815260200160002060006101000a81548160ff0219169083151502179055507f6a4f05361503f76546c19e6e8bd8af8c15f64ad5eb827e4ae920035ce02e52cd8282604051610a35929190613fc4565b60405180910390a15050565b600080610a4c6128ba565b905080600001600084815260200190815260200160002060010154915050919050565b60026020528060005260406000206000915054906101000a900460ff1681565b610ab97f97667070c54ef182b0f5858b034beac1b6f3089aa2d3188bb1e8929f4fa9b92933611d4d565b80610af65750610ac7611d15565b73ffffffffffffffffffffffffffffffffffffffff163373ffffffffffffffffffffffffffffffffffffffff16145b610b35576040517f08c379a0000000000000000000000000000000000000000000000000000000008152600401610b2c9061405f565b60405180910390fd5b60005b8451811015610d895760008060009054906101000a900473ffffffffffffffffffffffffffffffffffffffff1673ffffffffffffffffffffffffffffffffffffffff166360bf080a868481518110610b9357610b9261407f565b5b60200260200101516040518263ffffffff1660e01b8152600401610bb791906140ae565b602060405180830381865afa158015610bd4573d6000803e3d6000fd5b505050506040513d601f19601f82011682018060405250810190610bf891906140e5565b905060008060009054906101000a900473ffffffffffffffffffffffffffffffffffffffff1673ffffffffffffffffffffffffffffffffffffffff166360bf080a868581518110610c4c57610c4b61407f565b5b60200260200101516040518263ffffffff1660e01b8152600401610c7091906140ae565b602060405180830381865afa158015610c8d573d6000803e3d6000fd5b505050506040513d601f19601f82011682018060405250810190610cb191906140e5565b9050600360009054906101000a900473ffffffffffffffffffffffffffffffffffffffff1673ffffffffffffffffffffffffffffffffffffffff166393c85fea888581518110610d0457610d0361407f565b5b60200260200101518484888881518110610d2157610d2061407f565b5b60200260200101516040518563ffffffff1660e01b8152600401610d489493929190614112565b600060405180830381600087803b158015610d6257600080fd5b505af1158015610d76573d6000803e3d6000fd5b5050505050508080600101915050610b38565b5050505050565b610dba7f97667070c54ef182b0f5858b034beac1b6f3089aa2d3188bb1e8929f4fa9b92933611d4d565b80610df75750610dc8611d15565b73ffffffffffffffffffffffffffffffffffffffff163373ffffffffffffffffffffffffffffffffffffffff16145b610e36576040517f08c379a0000000000000000000000000000000000000000000000000000000008152600401610e2d9061405f565b60405180910390fd5b60008054906101000a900473ffffffffffffffffffffffffffffffffffffffff1673ffffffffffffffffffffffffffffffffffffffff16632c08d079858585856040518563ffffffff1660e01b8152600401610e959493929190614193565b600060405180830381600087803b158015610eaf57600080fd5b505af1158015610ec3573d6000803e3d6000fd5b5050505050505050565b610ed682610a41565b610edf816128e2565b610ee983836128f6565b50505050565b610ef76129f7565b73ffffffffffffffffffffffffffffffffffffffff168173ffffffffffffffffffffffffffffffffffffffff1614610f5b576040517f6697b23200000000000000000000000000000000000000000000000000000000815260040160405180910390fd5b610f6582826129ff565b505050565b610f72612b01565b600260003373ffffffffffffffffffffffffffffffffffffffff1673ffffffffffffffffffffffffffffffffffffffff16815260200190815260200160002060009054906101000a900460ff16610ffe576040517f08c379a0000000000000000000000000000000000000000000000000000000008152600401610ff59061421f565b60405180910390fd5b60008060009054906101000a900473ffffffffffffffffffffffffffffffffffffffff1673ffffffffffffffffffffffffffffffffffffffff16636386c1c7886040518263ffffffff1660e01b815260040161105a91906138cb565b600060405180830381865afa158015611077573d6000803e3d6000fd5b505050506040513d6000823e3d601f19601f820116820180604052508101906110a091906142c4565b505090508073ffffffffffffffffffffffffffffffffffffffff1663b7c0d4ef898989898989896040518863ffffffff1660e01b81526004016110e99796959493929190614371565b600060405180830381600087803b15801561110357600080fd5b505af1158015611117573d6000803e3d6000fd5b5050505050611124612b58565b50505050505050565b611135612b01565b600260003373ffffffffffffffffffffffffffffffffffffffff1673ffffffffffffffffffffffffffffffffffffffff16815260200190815260200160002060009054906101000a900460ff166111c1576040517f08c379a00000000000000000000000000000000000000000000000000000000081526004016111b89061421f565b60405180910390fd5b60008060009054906101000a900473ffffffffffffffffffffffffffffffffffffffff1673ffffffffffffffffffffffffffffffffffffffff16636386c1c7856040518263ffffffff1660e01b815260040161121d91906138cb565b600060405180830381865afa15801561123a573d6000803e3d6000fd5b505050506040513d6000823e3d601f19601f8201168201806040525081019061126391906142c4565b505090508073ffffffffffffffffffffffffffffffffffffffff1663beabacc88685856040518463ffffffff1660e01b81526004016112a4939291906143db565b600060405180830381600087803b1580156112be57600080fd5b505af11580156112d2573d6000803e3d6000fd5b50505050506112df612b58565b50505050565b61130f7f97667070c54ef182b0f5858b034beac1b6f3089aa2d3188bb1e8929f4fa9b92933611d4d565b8061134c575061131d611d15565b73ffffffffffffffffffffffffffffffffffffffff163373ffffffffffffffffffffffffffffffffffffffff16145b61138b576040517f08c379a00000000000000000000000000000000000000000000000000000000081526004016113829061405f565b60405180910390fd5b60005b83518110156115235760008060009054906101000a900473ffffffffffffffffffffffffffffffffffffffff1673ffffffffffffffffffffffffffffffffffffffff166360bf080a8584815181106113e9576113e861407f565b5b60200260200101516040518263ffffffff1660e01b815260040161140d91906140ae565b602060405180830381865afa15801561142a573d6000803e3d6000fd5b505050506040513d601f19601f8201168201806040525081019061144e91906140e5565b9050600360009054906101000a900473ffffffffffffffffffffffffffffffffffffffff1673ffffffffffffffffffffffffffffffffffffffff1663c6c3bbe68684815181106114a1576114a061407f565b5b6020026020010151838686815181106114bd576114bc61407f565b5b60200260200101516040518463ffffffff1660e01b81526004016114e3939291906143db565b600060405180830381600087803b1580156114fd57600080fd5b505af1158015611511573d6000803e3d6000fd5b5050505050808060010191505061138e565b50505050565b6115537f97667070c54ef182b0f5858b034beac1b6f3089aa2d3188bb1e8929f4fa9b92933611d4d565b806115905750611561611d15565b73ffffffffffffffffffffffffffffffffffffffff163373ffffffffffffffffffffffffffffffffffffffff16145b6115cf576040517f08c379a00000000000000000000000000000000000000000000000000000000081526004016115c69061405f565b60405180910390fd5b60008054906101000a900473ffffffffffffffffffffffffffffffffffffffff1673ffffffffffffffffffffffffffffffffffffffff16635c60f226826040518263ffffffff1660e01b815260040161162891906138cb565b600060405180830381600087803b15801561164257600080fd5b505af1158015611656573d6000803e3d6000fd5b5050505050565b60008054906101000a900473ffffffffffffffffffffffffffffffffffffffff1681565b6116ab7f97667070c54ef182b0f5858b034beac1b6f3089aa2d3188bb1e8929f4fa9b92933611d4d565b806116e857506116b9611d15565b73ffffffffffffffffffffffffffffffffffffffff163373ffffffffffffffffffffffffffffffffffffffff16145b611727576040517f08c379a000000000000000000000000000000000000000000000000000000000815260040161171e9061405f565b60405180910390fd5b60005b83518110156118bf5760008060009054906101000a900473ffffffffffffffffffffffffffffffffffffffff1673ffffffffffffffffffffffffffffffffffffffff166360bf080a8584815181106117855761178461407f565b5b60200260200101516040518263ffffffff1660e01b81526004016117a991906140ae565b602060405180830381865afa1580156117c6573d6000803e3d6000fd5b505050506040513d601f19601f820116820180604052508101906117ea91906140e5565b9050600360009054906101000a900473ffffffffffffffffffffffffffffffffffffffff1673ffffffffffffffffffffffffffffffffffffffff1663f6b911bc86848151811061183d5761183c61407f565b5b6020026020010151838686815181106118595761185861407f565b5b60200260200101516040518463ffffffff1660e01b815260040161187f939291906143db565b600060405180830381600087803b15801561189957600080fd5b505af11580156118ad573d6000803e3d6000fd5b5050505050808060010191505061172a565b50505050565b6118cd612833565b6118d76000612b71565b565b6118e1612b01565b600260003373ffffffffffffffffffffffffffffffffffffffff1673ffffffffffffffffffffffffffffffffffffffff16815260200190815260200160002060009054906101000a900460ff1661196d576040517f08c379a00000000000000000000000000000000000000000000000000000000081526004016119649061421f565b60405180910390fd5b60008060009054906101000a900473ffffffffffffffffffffffffffffffffffffffff1673ffffffffffffffffffffffffffffffffffffffff16636386c1c7876040518263ffffffff1660e01b81526004016119c991906138cb565b600060405180830381865afa1580156119e6573d6000803e3d6000fd5b505050506040513d6000823e3d601f19601f82011682018060405250810190611a0f91906142c4565b505090508073ffffffffffffffffffffffffffffffffffffffff16634a280a558888888888886040518763ffffffff1660e01b8152600401611a5696959493929190614412565b600060405180830381600087803b158015611a7057600080fd5b505af1158015611a84573d6000803e3d6000fd5b5050505050611a91612b58565b505050505050565b611ac37f97667070c54ef182b0f5858b034beac1b6f3089aa2d3188bb1e8929f4fa9b92933611d4d565b80611b005750611ad1611d15565b73ffffffffffffffffffffffffffffffffffffffff163373ffffffffffffffffffffffffffffffffffffffff16145b611b3f576040517f08c379a0000000000000000000000000000000000000000000000000000000008152600401611b369061405f565b60405180910390fd5b60008054906101000a900473ffffffffffffffffffffffffffffffffffffffff1673ffffffffffffffffffffffffffffffffffffffff166387918e1586868686866040518663ffffffff1660e01b8152600401611ba095949392919061446e565b600060405180830381600087803b158015611bba57600080fd5b505af1158015611bce573d6000803e3d6000fd5b505050505050505050565b611c037f97667070c54ef182b0f5858b034beac1b6f3089aa2d3188bb1e8929f4fa9b92933611d4d565b80611c405750611c11611d15565b73ffffffffffffffffffffffffffffffffffffffff163373ffffffffffffffffffffffffffffffffffffffff16145b611c7f576040517f08c379a0000000000000000000000000000000000000000000000000000000008152600401611c769061405f565b60405180910390fd5b600360009054906101000a900473ffffffffffffffffffffffffffffffffffffffff1673ffffffffffffffffffffffffffffffffffffffff1663cb2985f28484846040518463ffffffff1660e01b8152600401611cde939291906144bc565b600060405180830381600087803b158015611cf857600080fd5b505af1158015611d0c573d6000803e3d6000fd5b50505050505050565b600080611d20612c48565b90508060000160009054906101000a900473ffffffffffffffffffffffffffffffffffffffff1691505090565b600080611d586128ba565b905080600001600085815260200190815260200160002060000160008473ffffffffffffffffffffffffffffffffffffffff1673ffffffffffffffffffffffffffffffffffffffff16815260200190815260200160002060009054906101000a900460ff1691505092915050565b611dce612b01565b600260003373ffffffffffffffffffffffffffffffffffffffff1673ffffffffffffffffffffffffffffffffffffffff16815260200190815260200160002060009054906101000a900460ff16611e5a576040517f08c379a0000000000000000000000000000000000000000000000000000000008152600401611e519061421f565b60405180910390fd5b60008060009054906101000a900473ffffffffffffffffffffffffffffffffffffffff1673ffffffffffffffffffffffffffffffffffffffff16636386c1c7856040518263ffffffff1660e01b8152600401611eb691906138cb565b600060405180830381865afa158015611ed3573d6000803e3d6000fd5b505050506040513d6000823e3d601f19601f82011682018060405250810190611efc91906142c4565b505090508073ffffffffffffffffffffffffffffffffffffffff1663e1f21c678685856040518463ffffffff1660e01b8152600401611f3d939291906143db565b600060405180830381600087803b158015611f5757600080fd5b505af1158015611f6b573d6000803e3d6000fd5b5050505050611f78612b58565b50505050565b6000801b81565b60608282905067ffffffffffffffff811115611fa457611fa36130b1565b5b604051908082528060200260200182016040528015611fd757816020015b6060815260200190600190039081611fc25790505b50905060005b83839050811015612112576000803073ffffffffffffffffffffffffffffffffffffffff168686858181106120155761201461407f565b5b90506020028101906120279190614517565b6040516120359291906145aa565b600060405180830381855af49150503d8060008114612070576040519150601f19603f3d011682016040523d82523d6000602084013e612075565b606091505b5091509150816120e45760448151101561208e57600080fd5b600481019050808060200190518101906120a891906145c3565b6040517f08c379a00000000000000000000000000000000000000000000000000000000081526004016120db91906140ae565b60405180910390fd5b808484815181106120f8576120f761407f565b5b602002602001018190525050508080600101915050611fdd565b5092915050565b6000612123612c70565b905060008160000160089054906101000a900460ff1615905060008260000160009054906101000a900467ffffffffffffffff1690506000808267ffffffffffffffff161480156121715750825b9050600060018367ffffffffffffffff161480156121a6575060003073ffffffffffffffffffffffffffffffffffffffff163b145b9050811580156121b4575080155b156121eb576040517ff92ee8a900000000000000000000000000000000000000000000000000000000815260040160405180910390fd5b60018560000160006101000a81548167ffffffffffffffff021916908367ffffffffffffffff160217905550831561223b5760018560000160086101000a81548160ff0219169083151502179055505b6122486000801b896128f6565b506122737f97667070c54ef182b0f5858b034beac1b6f3089aa2d3188bb1e8929f4fa9b929886128f6565b50856000806101000a81548173ffffffffffffffffffffffffffffffffffffffff021916908373ffffffffffffffffffffffffffffffffffffffff1602179055506122bd88612c98565b6122c5612cac565b6122cd612cbe565b83156123295760008560000160086101000a81548160ff0219169083151502179055507fc7f505b2f371ae2175ee4913f4499e1f2633a7b5936321eed1cdaeb6115181d260016040516123209190614651565b60405180910390a15b5050505050505050565b61233b612833565b80600360006101000a81548173ffffffffffffffffffffffffffffffffffffffff021916908373ffffffffffffffffffffffffffffffffffffffff16021790555050565b612387612b01565b600260003373ffffffffffffffffffffffffffffffffffffffff1673ffffffffffffffffffffffffffffffffffffffff16815260200190815260200160002060009054906101000a900460ff16612413576040517f08c379a000000000000000000000000000000000000000000000000000000000815260040161240a9061421f565b60405180910390fd5b60008060009054906101000a900473ffffffffffffffffffffffffffffffffffffffff1673ffffffffffffffffffffffffffffffffffffffff16636386c1c7856040518263ffffffff1660e01b815260040161246f91906138cb565b600060405180830381865afa15801561248c573d6000803e3d6000fd5b505050506040513d6000823e3d601f19601f820116820180604052508101906124b591906142c4565b505090508073ffffffffffffffffffffffffffffffffffffffff1663f2522bcd84846040518363ffffffff1660e01b81526004016124f492919061467b565b600060405180830381600087803b15801561250e57600080fd5b505af1158015612522573d6000803e3d6000fd5b505050505061252f612b58565b505050565b61253d82610a41565b612546816128e2565b61255083836129ff565b50505050565b60008060009054906101000a900473ffffffffffffffffffffffffffffffffffffffff1673ffffffffffffffffffffffffffffffffffffffff1663d986b77c836040518263ffffffff1660e01b81526004016125b291906138cb565b602060405180830381865afa1580156125cf573d6000803e3d6000fd5b505050506040513d601f19601f820116820180604052508101906125f391906140e5565b9050919050565b6001818154811061260a57600080fd5b906000526020600020016000915054906101000a900473ffffffffffffffffffffffffffffffffffffffff1681565b600360009054906101000a900473ffffffffffffffffffffffffffffffffffffffff1681565b60006060806060600080600360009054906101000a900473ffffffffffffffffffffffffffffffffffffffff1673ffffffffffffffffffffffffffffffffffffffff1663f2cb319c886040518263ffffffff1660e01b81526004016126c491906138cb565b600060405180830381865afa1580156126e1573d6000803e3d6000fd5b505050506040513d6000823e3d601f19601f8201168201806040525081019061270a91906146b9565b95509550955095509550955091939550919395565b612727612833565b600073ffffffffffffffffffffffffffffffffffffffff168173ffffffffffffffffffffffffffffffffffffffff16036127995760006040517f1e4fbdf700000000000000000000000000000000000000000000000000000000815260040161279091906138cb565b60405180910390fd5b6127a281612b71565b50565b7f97667070c54ef182b0f5858b034beac1b6f3089aa2d3188bb1e8929f4fa9b92981565b60007f01ffc9a7000000000000000000000000000000000000000000000000000000007bffffffffffffffffffffffffffffffffffffffffffffffffffffffff1916827bffffffffffffffffffffffffffffffffffffffffffffffffffffffff1916149050919050565b61283b6129f7565b73ffffffffffffffffffffffffffffffffffffffff16612859611d15565b73ffffffffffffffffffffffffffffffffffffffff16146128b85761287c6129f7565b6040517f118cdaa70000000000000000000000000000000000000000000000000000000081526004016128af91906138cb565b60405180910390fd5b565b60007f02dd7bc7dec4dceedda775e58dd541e08a116c6c53815c0bd028192f7b626800905090565b6128f3816128ee6129f7565b612cc8565b50565b6000806129016128ba565b905061290d8484611d4d565b6129eb57600181600001600086815260200190815260200160002060000160008573ffffffffffffffffffffffffffffffffffffffff1673ffffffffffffffffffffffffffffffffffffffff16815260200190815260200160002060006101000a81548160ff0219169083151502179055506129876129f7565b73ffffffffffffffffffffffffffffffffffffffff168373ffffffffffffffffffffffffffffffffffffffff16857f2f8788117e7eff1d82e926ec794901d17c78024a50270940304540a733656f0d60405160405180910390a460019150506129f1565b60009150505b92915050565b600033905090565b600080612a0a6128ba565b9050612a168484611d4d565b15612af557600081600001600086815260200190815260200160002060000160008573ffffffffffffffffffffffffffffffffffffffff1673ffffffffffffffffffffffffffffffffffffffff16815260200190815260200160002060006101000a81548160ff021916908315150217905550612a916129f7565b73ffffffffffffffffffffffffffffffffffffffff168373ffffffffffffffffffffffffffffffffffffffff16857ff6391f5c32d9c69d2a47ea670b442974b53935d1edc7fd64eb21e047a839171b60405160405180910390a46001915050612afb565b60009150505b92915050565b6000612b0b612d19565b90506002816000015403612b4b576040517f3ee5aeb500000000000000000000000000000000000000000000000000000000815260040160405180910390fd5b6002816000018190555050565b6000612b62612d19565b90506001816000018190555050565b6000612b7b612c48565b905060008160000160009054906101000a900473ffffffffffffffffffffffffffffffffffffffff169050828260000160006101000a81548173ffffffffffffffffffffffffffffffffffffffff021916908373ffffffffffffffffffffffffffffffffffffffff1602179055508273ffffffffffffffffffffffffffffffffffffffff168173ffffffffffffffffffffffffffffffffffffffff167f8be0079c531659141344cd1fd0a4f28419497f9722a3daafe3b4186f6b6457e060405160405180910390a3505050565b60007f9016d09d72d40fdae2fd8ceac6b6234c7706214fd39c1cd1e609a0528c199300905090565b60007ff0c57e16840df040f15088dc2f81fe391c3923bec73e23a9662efc9c229c6a00905090565b612ca0612d41565b612ca981612d81565b50565b612cb4612d41565b612cbc612e07565b565b612cc6612d41565b565b612cd28282611d4d565b612d155780826040517fe2517d3f000000000000000000000000000000000000000000000000000000008152600401612d0c92919061479a565b60405180910390fd5b5050565b60007f9b779b17422d0df92223018b32b4d1fa46e071723d6817e2486d003becc55f00905090565b612d49612e28565b612d7f576040517fd7e6bcf800000000000000000000000000000000000000000000000000000000815260040160405180910390fd5b565b612d89612d41565b600073ffffffffffffffffffffffffffffffffffffffff168173ffffffffffffffffffffffffffffffffffffffff1603612dfb5760006040517f1e4fbdf7000000000000000000000000000000000000000000000000000000008152600401612df291906138cb565b60405180910390fd5b612e0481612b71565b50565b612e0f612d41565b6000612e19612d19565b90506001816000018190555050565b6000612e32612c70565b60000160089054906101000a900460ff16905090565b6000604051905090565b600080fd5b600080fd5b60007fffffffff0000000000000000000000000000000000000000000000000000000082169050919050565b612e9181612e5c565b8114612e9c57600080fd5b50565b600081359050612eae81612e88565b92915050565b600060208284031215612eca57612ec9612e52565b5b6000612ed884828501612e9f565b91505092915050565b60008115159050919050565b612ef681612ee1565b82525050565b6000602082019050612f116000830184612eed565b92915050565b600073ffffffffffffffffffffffffffffffffffffffff82169050919050565b6000612f4282612f17565b9050919050565b612f5281612f37565b8114612f5d57600080fd5b50565b600081359050612f6f81612f49565b92915050565b612f7e81612ee1565b8114612f8957600080fd5b50565b600081359050612f9b81612f75565b92915050565b60008060408385031215612fb857612fb7612e52565b5b6000612fc685828601612f60565b9250506020612fd785828601612f8c565b9150509250929050565b6000819050919050565b612ff481612fe1565b8114612fff57600080fd5b50565b60008135905061301181612feb565b92915050565b60006020828403121561302d5761302c612e52565b5b600061303b84828501613002565b91505092915050565b61304d81612fe1565b82525050565b60006020820190506130686000830184613044565b92915050565b60006020828403121561308457613083612e52565b5b600061309284828501612f60565b91505092915050565b600080fd5b6000601f19601f8301169050919050565b7f4e487b7100000000000000000000000000000000000000000000000000000000600052604160045260246000fd5b6130e9826130a0565b810181811067ffffffffffffffff82111715613108576131076130b1565b5b80604052505050565b600061311b612e48565b905061312782826130e0565b919050565b600067ffffffffffffffff821115613147576131466130b1565b5b602082029050602081019050919050565b600080fd5b600061317061316b8461312c565b613111565b9050808382526020820190506020840283018581111561319357613192613158565b5b835b818110156131bc57806131a88882612f60565b845260208401935050602081019050613195565b5050509392505050565b600082601f8301126131db576131da61309b565b5b81356131eb84826020860161315d565b91505092915050565b600067ffffffffffffffff82111561320f5761320e6130b1565b5b602082029050602081019050919050565b600080fd5b600067ffffffffffffffff8211156132405761323f6130b1565b5b613249826130a0565b9050602081019050919050565b82818337600083830152505050565b600061327861327384613225565b613111565b90508281526020810184848401111561329457613293613220565b5b61329f848285613256565b509392505050565b600082601f8301126132bc576132bb61309b565b5b81356132cc848260208601613265565b91505092915050565b60006132e86132e3846131f4565b613111565b9050808382526020820190506020840283018581111561330b5761330a613158565b5b835b8181101561335257803567ffffffffffffffff8111156133305761332f61309b565b5b80860161333d89826132a7565b8552602085019450505060208101905061330d565b5050509392505050565b600082601f8301126133715761337061309b565b5b81356133818482602086016132d5565b91505092915050565b600067ffffffffffffffff8211156133a5576133a46130b1565b5b602082029050602081019050919050565b6000819050919050565b6133c9816133b6565b81146133d457600080fd5b50565b6000813590506133e6816133c0565b92915050565b60006133ff6133fa8461338a565b613111565b9050808382526020820190506020840283018581111561342257613421613158565b5b835b8181101561344b578061343788826133d7565b845260208401935050602081019050613424565b5050509392505050565b600082601f83011261346a5761346961309b565b5b813561347a8482602086016133ec565b91505092915050565b6000806000806080858703121561349d5761349c612e52565b5b600085013567ffffffffffffffff8111156134bb576134ba612e57565b5b6134c7878288016131c6565b945050602085013567ffffffffffffffff8111156134e8576134e7612e57565b5b6134f48782880161335c565b935050604085013567ffffffffffffffff81111561351557613514612e57565b5b6135218782880161335c565b925050606085013567ffffffffffffffff81111561354257613541612e57565b5b61354e87828801613455565b91505092959194509250565b600080fd5b60008083601f8401126135755761357461309b565b5b8235905067ffffffffffffffff8111156135925761359161355a565b5b6020830191508360018202830111156135ae576135ad613158565b5b9250929050565b600067ffffffffffffffff82169050919050565b6135d2816135b5565b81146135dd57600080fd5b50565b6000813590506135ef816135c9565b92915050565b6000806000806060858703121561360f5761360e612e52565b5b600061361d87828801612f60565b945050602085013567ffffffffffffffff81111561363e5761363d612e57565b5b61364a8782880161355f565b9350935050604061365d878288016135e0565b91505092959194509250565b600080604083850312156136805761367f612e52565b5b600061368e85828601613002565b925050602061369f85828601612f60565b9150509250929050565b60008083601f8401126136bf576136be61309b565b5b8235905067ffffffffffffffff8111156136dc576136db61355a565b5b6020830191508360018202830111156136f8576136f7613158565b5b9250929050565b600080600080600080600060c0888a03121561371e5761371d612e52565b5b600061372c8a828b01612f60565b975050602061373d8a828b01612f60565b965050604061374e8a828b01612f60565b955050606061375f8a828b016133d7565b94505060806137708a828b016133d7565b93505060a088013567ffffffffffffffff81111561379157613790612e57565b5b61379d8a828b016136a9565b925092505092959891949750929550565b600080600080608085870312156137c8576137c7612e52565b5b60006137d687828801612f60565b94505060206137e787828801612f60565b93505060406137f887828801612f60565b9250506060613809878288016133d7565b91505092959194509250565b60008060006060848603121561382e5761382d612e52565b5b600084013567ffffffffffffffff81111561384c5761384b612e57565b5b613858868287016131c6565b935050602084013567ffffffffffffffff81111561387957613878612e57565b5b6138858682870161335c565b925050604084013567ffffffffffffffff8111156138a6576138a5612e57565b5b6138b286828701613455565b9150509250925092565b6138c581612f37565b82525050565b60006020820190506138e060008301846138bc565b92915050565b60008060008060008060a0878903121561390357613902612e52565b5b600061391189828a01612f60565b965050602061392289828a01612f60565b955050604061393389828a01612f60565b945050606061394489828a016133d7565b935050608087013567ffffffffffffffff81111561396557613964612e57565b5b61397189828a016136a9565b92509250509295509295509295565b60008060008060006080868803121561399c5761399b612e52565b5b60006139aa88828901612f60565b95505060206139bb88828901612f60565b945050604086013567ffffffffffffffff8111156139dc576139db612e57565b5b6139e88882890161355f565b935093505060606139fb888289016135e0565b9150509295509295909350565b600080600060608486031215613a2157613a20612e52565b5b600084013567ffffffffffffffff811115613a3f57613a3e612e57565b5b613a4b868287016132a7565b935050602084013567ffffffffffffffff811115613a6c57613a6b612e57565b5b613a78868287016132a7565b925050604084013567ffffffffffffffff811115613a9957613a98612e57565b5b613aa5868287016132a7565b9150509250925092565b60008083601f840112613ac557613ac461309b565b5b8235905067ffffffffffffffff811115613ae257613ae161355a565b5b602083019150836020820283011115613afe57613afd613158565b5b9250929050565b60008060208385031215613b1c57613b1b612e52565b5b600083013567ffffffffffffffff811115613b3a57613b39612e57565b5b613b4685828601613aaf565b92509250509250929050565b600081519050919050565b600082825260208201905092915050565b6000819050602082019050919050565b600081519050919050565b600082825260208201905092915050565b60005b83811015613bb8578082015181840152602081019050613b9d565b60008484015250505050565b6000613bcf82613b7e565b613bd98185613b89565b9350613be9818560208601613b9a565b613bf2816130a0565b840191505092915050565b6000613c098383613bc4565b905092915050565b6000602082019050919050565b6000613c2982613b52565b613c338185613b5d565b935083602082028501613c4585613b6e565b8060005b85811015613c815784840389528151613c628582613bfd565b9450613c6d83613c11565b925060208a01995050600181019050613c49565b50829750879550505050505092915050565b60006020820190508181036000830152613cad8184613c1e565b905092915050565b600080600060608486031215613cce57613ccd612e52565b5b6000613cdc86828701612f60565b9350506020613ced86828701612f60565b9250506040613cfe86828701612f60565b9150509250925092565b6000613d1382612f17565b9050919050565b613d2381613d08565b8114613d2e57600080fd5b50565b600081359050613d4081613d1a565b92915050565b600080600060608486031215613d5f57613d5e612e52565b5b6000613d6d86828701612f60565b9350506020613d7e86828701613d31565b9250506040613d8f868287016133d7565b9150509250925092565b600060208284031215613daf57613dae612e52565b5b6000613dbd848285016133d7565b91505092915050565b600081519050919050565b600082825260208201905092915050565b6000613ded82613dc6565b613df78185613dd1565b9350613e07818560208601613b9a565b613e10816130a0565b840191505092915050565b613e24816133b6565b82525050565b600060c082019050613e3f60008301896138bc565b8181036020830152613e518188613de2565b90508181036040830152613e658187613de2565b90508181036060830152613e798186613de2565b9050613e886080830185613e1b565b613e9560a0830184613e1b565b979650505050505050565b7f526f757465723a2067616d652072756c6520697320746865207a65726f20616460008201527f6472657373000000000000000000000000000000000000000000000000000000602082015250565b6000613efc602583613dd1565b9150613f0782613ea0565b604082019050919050565b60006020820190508181036000830152613f2b81613eef565b9050919050565b7f526f757465723a2067616d652072756c6520697320616c726561647920636f6e60008201527f6669677572656400000000000000000000000000000000000000000000000000602082015250565b6000613f8e602783613dd1565b9150613f9982613f32565b604082019050919050565b60006020820190508181036000830152613fbd81613f81565b9050919050565b6000604082019050613fd960008301856138bc565b613fe66020830184612eed565b9392505050565b7f526f757465723a2063616c6c6572206973206e6f7420746865206f706572617460008201527f6f72000000000000000000000000000000000000000000000000000000000000602082015250565b6000614049602283613dd1565b915061405482613fed565b604082019050919050565b600060208201905081810360008301526140788161403c565b9050919050565b7f4e487b7100000000000000000000000000000000000000000000000000000000600052603260045260246000fd5b600060208201905081810360008301526140c88184613de2565b905092915050565b6000815190506140df81612f49565b92915050565b6000602082840312156140fb576140fa612e52565b5b6000614109848285016140d0565b91505092915050565b600060808201905061412760008301876138bc565b61413460208301866138bc565b61414160408301856138bc565b61414e6060830184613e1b565b95945050505050565b60006141638385613dd1565b9350614170838584613256565b614179836130a0565b840190509392505050565b61418d816135b5565b82525050565b60006060820190506141a860008301876138bc565b81810360208301526141bb818587614157565b90506141ca6040830184614184565b95945050505050565b7f526f757465723a2067616d652072756c65206e6f7420616c6c6f776564000000600082015250565b6000614209601d83613dd1565b9150614214826141d3565b602082019050919050565b60006020820190508181036000830152614238816141fc565b9050919050565b600061425261424d84613225565b613111565b90508281526020810184848401111561426e5761426d613220565b5b614279848285613b9a565b509392505050565b600082601f8301126142965761429561309b565b5b81516142a684826020860161423f565b91505092915050565b6000815190506142be816135c9565b92915050565b6000806000606084860312156142dd576142dc612e52565b5b60006142eb868287016140d0565b935050602084015167ffffffffffffffff81111561430c5761430b612e57565b5b61431886828701614281565b9250506040614329868287016142af565b9150509250925092565b600082825260208201905092915050565b60006143508385614333565b935061435d838584613256565b614366836130a0565b840190509392505050565b600060c082019050614386600083018a6138bc565b61439360208301896138bc565b6143a060408301886138bc565b6143ad6060830187613e1b565b6143ba6080830186613e1b565b81810360a08301526143cd818486614344565b905098975050505050505050565b60006060820190506143f060008301866138bc565b6143fd60208301856138bc565b61440a6040830184613e1b565b949350505050565b600060a08201905061442760008301896138bc565b61443460208301886138bc565b61444160408301876138bc565b61444e6060830186613e1b565b8181036080830152614461818486614344565b9050979650505050505050565b600060808201905061448360008301886138bc565b61449060208301876138bc565b81810360408301526144a3818587614157565b90506144b26060830184614184565b9695505050505050565b600060608201905081810360008301526144d68186613de2565b905081810360208301526144ea8185613de2565b905081810360408301526144fe8184613de2565b9050949350505050565b600080fd5b600080fd5b600080fd5b6000808335600160200384360303811261453457614533614508565b5b80840192508235915067ffffffffffffffff8211156145565761455561450d565b5b60208301925060018202360383131561457257614571614512565b5b509250929050565b600081905092915050565b6000614591838561457a565b935061459e838584613256565b82840190509392505050565b60006145b7828486614585565b91508190509392505050565b6000602082840312156145d9576145d8612e52565b5b600082015167ffffffffffffffff8111156145f7576145f6612e57565b5b61460384828501614281565b91505092915050565b6000819050919050565b6000819050919050565b600061463b6146366146318461460c565b614616565b6135b5565b9050919050565b61464b81614620565b82525050565b60006020820190506146666000830184614642565b92915050565b61467581613d08565b82525050565b6000604082019050614690600083018561466c565b61469d6020830184613e1b565b9392505050565b6000815190506146b3816133c0565b92915050565b60008060008060008060c087890312156146d6576146d5612e52565b5b60006146e489828a016140d0565b965050602087015167ffffffffffffffff81111561470557614704612e57565b5b61471189828a01614281565b955050604087015167ffffffffffffffff81111561473257614731612e57565b5b61473e89828a01614281565b945050606087015167ffffffffffffffff81111561475f5761475e612e57565b5b61476b89828a01614281565b935050608061477c89828a016146a4565b92505060a061478d89828a016146a4565b9150509295509295509295565b60006040820190506147af60008301856138bc565b6147bc6020830184613044565b939250505056fea2646970667358221220934f8291a2da4d6826ed7174beccb70e2de05f4a9fb796f341dc102decbc436464736f6c63430008180033",
  "linkReferences": {},
  "deployedLinkReferences": {}
}