{
  "_format": "hh-sol-artifact-1",
  "contractName": "Router",
  "sourceName": "contracts/Router.sol",
  "abi": [
    {
      "inputs": [],
      "stateMutability": "nonpayable",
      "type": "constructor"
    },
    {
      "inputs": [],
      "name": "AccessControlBadConfirmation",
      "type": "error"
    },
    {
      "inputs": [
        {
          "internalType": "address",
          "name": "account",
          "type": "address"
        },
        {
          "internalType": "bytes32",
          "name": "neededRole",
          "type": "bytes32"
        }
      ],
      "name": "AccessControlUnauthorizedAccount",
      "type": "error"
    },
    {
      "inputs": [],
      "name": "InvalidInitialization",
      "type": "error"
    },
    {
      "inputs": [],
      "name": "NotInitializing",
      "type": "error"
    },
    {
      "inputs": [
        {
          "internalType": "address",
          "name": "owner",
          "type": "address"
        }
      ],
      "name": "OwnableInvalidOwner",
      "type": "error"
    },
    {
      "inputs": [
        {
          "internalType": "address",
          "name": "account",
          "type": "address"
        }
      ],
      "name": "OwnableUnauthorizedAccount",
      "type": "error"
    },
    {
      "inputs": [],
      "name": "ReentrancyGuardReentrantCall",
      "type": "error"
    },
    {
      "anonymous": false,
      "inputs": [
        {
          "indexed": false,
          "internalType": "address",
          "name": "_game",
          "type": "address"
        },
        {
          "indexed": false,
          "internalType": "bool",
          "name": "_allowed",
          "type": "bool"
        }
      ],
      "name": "GameConfigured",
      "type": "event"
    },
    {
      "anonymous": false,
      "inputs": [
        {
          "indexed": false,
          "internalType": "uint64",
          "name": "version",
          "type": "uint64"
        }
      ],
      "name": "Initialized",
      "type": "event"
    },
    {
      "anonymous": false,
      "inputs": [
        {
          "indexed": true,
          "internalType": "address",
          "name": "previousOwner",
          "type": "address"
        },
        {
          "indexed": true,
          "internalType": "address",
          "name": "newOwner",
          "type": "address"
        }
      ],
      "name": "OwnershipTransferred",
      "type": "event"
    },
    {
      "anonymous": false,
      "inputs": [
        {
          "indexed": true,
          "internalType": "bytes32",
          "name": "role",
          "type": "bytes32"
        },
        {
          "indexed": true,
          "internalType": "bytes32",
          "name": "previousAdminRole",
          "type": "bytes32"
        },
        {
          "indexed": true,
          "internalType": "bytes32",
          "name": "newAdminRole",
          "type": "bytes32"
        }
      ],
      "name": "RoleAdminChanged",
      "type": "event"
    },
    {
      "anonymous": false,
      "inputs": [
        {
          "indexed": true,
          "internalType": "bytes32",
          "name": "role",
          "type": "bytes32"
        },
        {
          "indexed": true,
          "internalType": "address",
          "name": "account",
          "type": "address"
        },
        {
          "indexed": true,
          "internalType": "address",
          "name": "sender",
          "type": "address"
        }
      ],
      "name": "RoleGranted",
      "type": "event"
    },
    {
      "anonymous": false,
      "inputs": [
        {
          "indexed": true,
          "internalType": "bytes32",
          "name": "role",
          "type": "bytes32"
        },
        {
          "indexed": true,
          "internalType": "address",
          "name": "account",
          "type": "address"
        },
        {
          "indexed": true,
          "internalType": "address",
          "name": "sender",
          "type": "address"
        }
      ],
      "name": "RoleRevoked",
      "type": "event"
    },
    {
      "inputs": [],
      "name": "DEFAULT_ADMIN_ROLE",
      "outputs": [
        {
          "internalType": "bytes32",
          "name": "",
          "type": "bytes32"
        }
      ],
      "stateMutability": "view",
      "type": "function"
    },
    {
      "inputs": [],
      "name": "OPERATOR_ROLE",
      "outputs": [
        {
          "internalType": "bytes32",
          "name": "",
          "type": "bytes32"
        }
      ],
      "stateMutability": "view",
      "type": "function"
    },
    {
      "inputs": [
        {
          "internalType": "address",
          "name": "",
          "type": "address"
        }
      ],
      "name": "allowedGameRules",
      "outputs": [
        {
          "internalType": "bool",
          "name": "",
          "type": "bool"
        }
      ],
      "stateMutability": "view",
      "type": "function"
    },
    {
      "inputs": [
        {
          "internalType": "address",
          "name": "_primary",
          "type": "address"
        }
      ],
      "name": "computeMirrorAddress",
      "outputs": [
        {
          "internalType": "address",
          "name": "",
          "type": "address"
        }
      ],
      "stateMutability": "view",
      "type": "function"
    },
    {
      "inputs": [
        {
          "internalType": "address",
          "name": "_gameRule",
          "type": "address"
        },
        {
          "internalType": "bool",
          "name": "_allowed",
          "type": "bool"
        }
      ],
      "name": "configGameRule",
      "outputs": [],
      "stateMutability": "nonpayable",
      "type": "function"
    },
    {
      "inputs": [
        {
          "internalType": "address",
          "name": "_primary",
          "type": "address"
        },
        {
          "internalType": "string",
          "name": "_username",
          "type": "string"
        },
        {
          "internalType": "uint64",
          "name": "_chainId",
          "type": "uint64"
        }
      ],
      "name": "createUser",
      "outputs": [],
      "stateMutability": "nonpayable",
      "type": "function"
    },
    {
      "inputs": [
        {
          "internalType": "address",
          "name": "_primary",
          "type": "address"
        },
        {
          "internalType": "address",
          "name": "_mirror",
          "type": "address"
        },
        {
          "internalType": "string",
          "name": "_username",
          "type": "string"
        },
        {
          "internalType": "uint64",
          "name": "_chainId",
          "type": "uint64"
        }
      ],
      "name": "createUserWithMirror",
      "outputs": [],
      "stateMutability": "nonpayable",
      "type": "function"
    },
    {
      "inputs": [
        {
          "internalType": "address",
          "name": "_primary",
          "type": "address"
        }
      ],
      "name": "deleteUser",
      "outputs": [],
      "stateMutability": "nonpayable",
      "type": "function"
    },
    {
      "inputs": [
        {
          "internalType": "uint256",
          "name": "",
          "type": "uint256"
        }
      ],
      "name": "gameRules",
      "outputs": [
        {
          "internalType": "address",
          "name": "",
          "type": "address"
        }
      ],
      "stateMutability": "view",
      "type": "function"
    },
    {
      "inputs": [
        {
          "internalType": "bytes32",
          "name": "role",
          "type": "bytes32"
        }
      ],
      "name": "getRoleAdmin",
      "outputs": [
        {
          "internalType": "bytes32",
          "name": "",
          "type": "bytes32"
        }
      ],
      "stateMutability": "view",
      "type": "function"
    },
    {
      "inputs": [
        {
          "internalType": "bytes32",
          "name": "role",
          "type": "bytes32"
        },
        {
          "internalType": "address",
          "name": "account",
          "type": "address"
        }
      ],
      "name": "grantRole",
      "outputs": [],
      "stateMutability": "nonpayable",
      "type": "function"
    },
    {
      "inputs": [
        {
          "internalType": "bytes32",
          "name": "role",
          "type": "bytes32"
        },
        {
          "internalType": "address",
          "name": "account",
          "type": "address"
        }
      ],
      "name": "hasRole",
      "outputs": [
        {
          "internalType": "bool",
          "name": "",
          "type": "bool"
        }
      ],
      "stateMutability": "view",
      "type": "function"
    },
    {
      "inputs": [
        {
          "internalType": "address",
          "name": "_owner",
          "type": "address"
        },
        {
          "internalType": "address",
          "name": "_operator",
          "type": "address"
        },
        {
          "internalType": "address",
          "name": "_registerSC",
          "type": "address"
        }
      ],
      "name": "initialize",
      "outputs": [],
      "stateMutability": "nonpayable",
      "type": "function"
    },
    {
      "inputs": [
        {
          "internalType": "address",
          "name": "_token",
          "type": "address"
        },
        {
          "internalType": "address",
          "name": "_from",
          "type": "address"
        },
        {
          "internalType": "address",
          "name": "_spender",
          "type": "address"
        },
        {
          "internalType": "uint256",
          "name": "_amount",
          "type": "uint256"
        }
      ],
      "name": "mirrorApprove",
      "outputs": [],
      "stateMutability": "nonpayable",
      "type": "function"
    },
    {
      "inputs": [
        {
          "internalType": "address",
          "name": "_token",
          "type": "address"
        },
        {
          "internalType": "address",
          "name": "_from",
          "type": "address"
        },
        {
          "internalType": "address",
          "name": "_to",
          "type": "address"
        },
        {
          "internalType": "uint256",
          "name": "_tokenId",
          "type": "uint256"
        },
        {
          "internalType": "uint256",
          "name": "_amount",
          "type": "uint256"
        },
        {
          "internalType": "bytes",
          "name": "data",
          "type": "bytes"
        }
      ],
      "name": "mirrorErc1155TransferFrom",
      "outputs": [],
      "stateMutability": "nonpayable",
      "type": "function"
    },
    {
      "inputs": [
        {
          "internalType": "address",
          "name": "_token",
          "type": "address"
        },
        {
          "internalType": "address",
          "name": "_from",
          "type": "address"
        },
        {
          "internalType": "address",
          "name": "_to",
          "type": "address"
        },
        {
          "internalType": "uint256",
          "name": "_tokenId",
          "type": "uint256"
        },
        {
          "internalType": "bytes",
          "name": "data",
          "type": "bytes"
        }
      ],
      "name": "mirrorErc721TransferFrom",
      "outputs": [],
      "stateMutability": "nonpayable",
      "type": "function"
    },
    {
      "inputs": [
        {
          "internalType": "address",
          "name": "_from",
          "type": "address"
        },
        {
          "internalType": "address payable",
          "name": "_to",
          "type": "address"
        },
        {
          "internalType": "uint256",
          "name": "_amount",
          "type": "uint256"
        }
      ],
      "name": "mirrorNativeTransfer",
      "outputs": [],
      "stateMutability": "nonpayable",
      "type": "function"
    },
    {
      "inputs": [
        {
          "internalType": "address",
          "name": "_token",
          "type": "address"
        },
        {
          "internalType": "address",
          "name": "_from",
          "type": "address"
        },
        {
          "internalType": "address",
          "name": "_to",
          "type": "address"
        },
        {
          "internalType": "uint256",
          "name": "_amount",
          "type": "uint256"
        }
      ],
      "name": "mirrorTokenTransfer",
      "outputs": [],
      "stateMutability": "nonpayable",
      "type": "function"
    },
    {
      "inputs": [
        {
          "internalType": "bytes[]",
          "name": "data",
          "type": "bytes[]"
        }
      ],
      "name": "multicall",
      "outputs": [
        {
          "internalType": "bytes[]",
          "name": "results",
          "type": "bytes[]"
        }
      ],
      "stateMutability": "payable",
      "type": "function"
    },
    {
      "inputs": [],
      "name": "owner",
      "outputs": [
        {
          "internalType": "address",
          "name": "",
          "type": "address"
        }
      ],
      "stateMutability": "view",
      "type": "function"
    },
    {
      "inputs": [],
      "name": "registerSC",
      "outputs": [
        {
          "internalType": "address",
          "name": "",
          "type": "address"
        }
      ],
      "stateMutability": "view",
      "type": "function"
    },
    {
      "inputs": [],
      "name": "renounceOwnership",
      "outputs": [],
      "stateMutability": "nonpayable",
      "type": "function"
    },
    {
      "inputs": [
        {
          "internalType": "bytes32",
          "name": "role",
          "type": "bytes32"
        },
        {
          "internalType": "address",
          "name": "callerConfirmation",
          "type": "address"
        }
      ],
      "name": "renounceRole",
      "outputs": [],
      "stateMutability": "nonpayable",
      "type": "function"
    },
    {
      "inputs": [
        {
          "internalType": "bytes32",
          "name": "role",
          "type": "bytes32"
        },
        {
          "internalType": "address",
          "name": "account",
          "type": "address"
        }
      ],
      "name": "revokeRole",
      "outputs": [],
      "stateMutability": "nonpayable",
      "type": "function"
    },
    {
      "inputs": [
        {
          "internalType": "bytes4",
          "name": "interfaceId",
          "type": "bytes4"
        }
      ],
      "name": "supportsInterface",
      "outputs": [
        {
          "internalType": "bool",
          "name": "",
          "type": "bool"
        }
      ],
      "stateMutability": "view",
      "type": "function"
    },
    {
      "inputs": [
        {
          "internalType": "address",
          "name": "newOwner",
          "type": "address"
        }
      ],
      "name": "transferOwnership",
      "outputs": [],
      "stateMutability": "nonpayable",
      "type": "function"
    }
  ],
  "bytecode": "0x608060405234801561001057600080fd5b50613562806100206000396000f3fe6080604052600436106101815760003560e01c806387918e15116100d1578063c0c53b8b1161008a578063d986b77c11610064578063d986b77c14610557578063daeed04b14610594578063f2fde38b146105d1578063f5b541a6146105fa57610181565b8063c0c53b8b146104dc578063d3a2ca8214610505578063d547741f1461052e57610181565b806387918e15146103c75780638da5cb5b146103f057806391d148541461041b5780639cab493b14610458578063a217fddf14610481578063ac9650d8146104ac57610181565b806336568abe1161013e5780635c60f226116101185780635c60f226146103335780636574405a1461035c578063715018a6146103875780638075f39b1461039e57610181565b806336568abe146102b857806342d789e1146102e15780635405c10a1461030a57610181565b806301ffc9a7146101865780631ab933f5146101c3578063248a9ca3146101ec57806324d64883146102295780632c08d079146102665780632f2ff15d1461028f575b600080fd5b34801561019257600080fd5b506101ad60048036038101906101a89190612316565b610625565b6040516101ba919061235e565b60405180910390f35b3480156101cf57600080fd5b506101ea60048036038101906101e59190612403565b61069f565b005b3480156101f857600080fd5b50610213600480360381019061020e9190612479565b61089a565b60405161022091906124b5565b60405180910390f35b34801561023557600080fd5b50610250600480360381019061024b91906124d0565b6108c8565b60405161025d919061235e565b60405180910390f35b34801561027257600080fd5b5061028d600480360381019061028891906125a2565b6108e8565b005b34801561029b57600080fd5b506102b660048036038101906102b19190612616565b610a25565b005b3480156102c457600080fd5b506102df60048036038101906102da9190612616565b610a47565b005b3480156102ed57600080fd5b50610308600480360381019061030391906126e2565b610ac2565b005b34801561031657600080fd5b50610331600480360381019061032c9190612791565b610c85565b005b34801561033f57600080fd5b5061035a600480360381019061035591906124d0565b610e3d565b005b34801561036857600080fd5b50610371610f71565b60405161037e9190612807565b60405180910390f35b34801561039357600080fd5b5061039c610f95565b005b3480156103aa57600080fd5b506103c560048036038101906103c09190612822565b610fa9565b005b3480156103d357600080fd5b506103ee60048036038101906103e991906128bc565b611169565b005b3480156103fc57600080fd5b506104056112a9565b6040516104129190612807565b60405180910390f35b34801561042757600080fd5b50610442600480360381019061043d9190612616565b6112e1565b60405161044f919061235e565b60405180910390f35b34801561046457600080fd5b5061047f600480360381019061047a9190612791565b61135a565b005b34801561048d57600080fd5b50610496611512565b6040516104a391906124b5565b60405180910390f35b6104c660048036038101906104c1919061299a565b611519565b6040516104d39190612b39565b60405180910390f35b3480156104e857600080fd5b5061050360048036038101906104fe9190612b5b565b6116ad565b005b34801561051157600080fd5b5061052c60048036038101906105279190612bec565b6118c7565b005b34801561053a57600080fd5b5061055560048036038101906105509190612616565b611a7c565b005b34801561056357600080fd5b5061057e600480360381019061057991906124d0565b611a9e565b60405161058b9190612807565b60405180910390f35b3480156105a057600080fd5b506105bb60048036038101906105b69190612c3f565b611b42565b6040516105c89190612807565b60405180910390f35b3480156105dd57600080fd5b506105f860048036038101906105f391906124d0565b611b81565b005b34801561060657600080fd5b5061060f611c07565b60405161061c91906124b5565b60405180910390f35b60007f7965db0b000000000000000000000000000000000000000000000000000000007bffffffffffffffffffffffffffffffffffffffffffffffffffffffff1916827bffffffffffffffffffffffffffffffffffffffffffffffffffffffff19161480610698575061069782611c2b565b5b9050919050565b6106a7611c95565b600073ffffffffffffffffffffffffffffffffffffffff168273ffffffffffffffffffffffffffffffffffffffff1603610716576040517f08c379a000000000000000000000000000000000000000000000000000000000815260040161070d90612cef565b60405180910390fd5b600260008373ffffffffffffffffffffffffffffffffffffffff1673ffffffffffffffffffffffffffffffffffffffff16815260200190815260200160002060009054906101000a900460ff16156107a3576040517f08c379a000000000000000000000000000000000000000000000000000000000815260040161079a90612d81565b60405180910390fd5b6001829080600181540180825580915050600190039060005260206000200160009091909190916101000a81548173ffffffffffffffffffffffffffffffffffffffff021916908373ffffffffffffffffffffffffffffffffffffffff16021790555080600260008473ffffffffffffffffffffffffffffffffffffffff1673ffffffffffffffffffffffffffffffffffffffff16815260200190815260200160002060006101000a81548160ff0219169083151502179055507f6a4f05361503f76546c19e6e8bd8af8c15f64ad5eb827e4ae920035ce02e52cd828260405161088e929190612da1565b60405180910390a15050565b6000806108a5611d1c565b905080600001600084815260200190815260200160002060010154915050919050565b60026020528060005260406000206000915054906101000a900460ff1681565b6109127f97667070c54ef182b0f5858b034beac1b6f3089aa2d3188bb1e8929f4fa9b929336112e1565b8061094f57506109206112a9565b73ffffffffffffffffffffffffffffffffffffffff163373ffffffffffffffffffffffffffffffffffffffff16145b61098e576040517f08c379a000000000000000000000000000000000000000000000000000000000815260040161098590612e3c565b60405180910390fd5b60008054906101000a900473ffffffffffffffffffffffffffffffffffffffff1673ffffffffffffffffffffffffffffffffffffffff16632c08d079858585856040518563ffffffff1660e01b81526004016109ed9493929190612ea7565b600060405180830381600087803b158015610a0757600080fd5b505af1158015610a1b573d6000803e3d6000fd5b5050505050505050565b610a2e8261089a565b610a3781611d44565b610a418383611d58565b50505050565b610a4f611e59565b73ffffffffffffffffffffffffffffffffffffffff168173ffffffffffffffffffffffffffffffffffffffff1614610ab3576040517f6697b23200000000000000000000000000000000000000000000000000000000815260040160405180910390fd5b610abd8282611e61565b505050565b610aca611f63565b600260003373ffffffffffffffffffffffffffffffffffffffff1673ffffffffffffffffffffffffffffffffffffffff16815260200190815260200160002060009054906101000a900460ff16610b56576040517f08c379a0000000000000000000000000000000000000000000000000000000008152600401610b4d90612f33565b60405180910390fd5b60008060009054906101000a900473ffffffffffffffffffffffffffffffffffffffff1673ffffffffffffffffffffffffffffffffffffffff16636386c1c7886040518263ffffffff1660e01b8152600401610bb29190612807565b600060405180830381865afa158015610bcf573d6000803e3d6000fd5b505050506040513d6000823e3d601f19601f82011682018060405250810190610bf8919061309e565b505090508073ffffffffffffffffffffffffffffffffffffffff1663b7c0d4ef898989898989896040518863ffffffff1660e01b8152600401610c41979695949392919061315a565b600060405180830381600087803b158015610c5b57600080fd5b505af1158015610c6f573d6000803e3d6000fd5b5050505050610c7c611fba565b50505050505050565b610c8d611f63565b600260003373ffffffffffffffffffffffffffffffffffffffff1673ffffffffffffffffffffffffffffffffffffffff16815260200190815260200160002060009054906101000a900460ff16610d19576040517f08c379a0000000000000000000000000000000000000000000000000000000008152600401610d1090612f33565b60405180910390fd5b60008060009054906101000a900473ffffffffffffffffffffffffffffffffffffffff1673ffffffffffffffffffffffffffffffffffffffff16636386c1c7856040518263ffffffff1660e01b8152600401610d759190612807565b600060405180830381865afa158015610d92573d6000803e3d6000fd5b505050506040513d6000823e3d601f19601f82011682018060405250810190610dbb919061309e565b505090508073ffffffffffffffffffffffffffffffffffffffff1663beabacc88685856040518463ffffffff1660e01b8152600401610dfc939291906131c4565b600060405180830381600087803b158015610e1657600080fd5b505af1158015610e2a573d6000803e3d6000fd5b5050505050610e37611fba565b50505050565b610e677f97667070c54ef182b0f5858b034beac1b6f3089aa2d3188bb1e8929f4fa9b929336112e1565b80610ea45750610e756112a9565b73ffffffffffffffffffffffffffffffffffffffff163373ffffffffffffffffffffffffffffffffffffffff16145b610ee3576040517f08c379a0000000000000000000000000000000000000000000000000000000008152600401610eda90612e3c565b60405180910390fd5b60008054906101000a900473ffffffffffffffffffffffffffffffffffffffff1673ffffffffffffffffffffffffffffffffffffffff16635c60f226826040518263ffffffff1660e01b8152600401610f3c9190612807565b600060405180830381600087803b158015610f5657600080fd5b505af1158015610f6a573d6000803e3d6000fd5b5050505050565b60008054906101000a900473ffffffffffffffffffffffffffffffffffffffff1681565b610f9d611c95565b610fa76000611fd3565b565b610fb1611f63565b600260003373ffffffffffffffffffffffffffffffffffffffff1673ffffffffffffffffffffffffffffffffffffffff16815260200190815260200160002060009054906101000a900460ff1661103d576040517f08c379a000000000000000000000000000000000000000000000000000000000815260040161103490612f33565b60405180910390fd5b60008060009054906101000a900473ffffffffffffffffffffffffffffffffffffffff1673ffffffffffffffffffffffffffffffffffffffff16636386c1c7876040518263ffffffff1660e01b81526004016110999190612807565b600060405180830381865afa1580156110b6573d6000803e3d6000fd5b505050506040513d6000823e3d601f19601f820116820180604052508101906110df919061309e565b505090508073ffffffffffffffffffffffffffffffffffffffff16634a280a558888888888886040518763ffffffff1660e01b8152600401611126969594939291906131fb565b600060405180830381600087803b15801561114057600080fd5b505af1158015611154573d6000803e3d6000fd5b5050505050611161611fba565b505050505050565b6111937f97667070c54ef182b0f5858b034beac1b6f3089aa2d3188bb1e8929f4fa9b929336112e1565b806111d057506111a16112a9565b73ffffffffffffffffffffffffffffffffffffffff163373ffffffffffffffffffffffffffffffffffffffff16145b61120f576040517f08c379a000000000000000000000000000000000000000000000000000000000815260040161120690612e3c565b60405180910390fd5b60008054906101000a900473ffffffffffffffffffffffffffffffffffffffff1673ffffffffffffffffffffffffffffffffffffffff166387918e1586868686866040518663ffffffff1660e01b8152600401611270959493929190613257565b600060405180830381600087803b15801561128a57600080fd5b505af115801561129e573d6000803e3d6000fd5b505050505050505050565b6000806112b46120aa565b90508060000160009054906101000a900473ffffffffffffffffffffffffffffffffffffffff1691505090565b6000806112ec611d1c565b905080600001600085815260200190815260200160002060000160008473ffffffffffffffffffffffffffffffffffffffff1673ffffffffffffffffffffffffffffffffffffffff16815260200190815260200160002060009054906101000a900460ff1691505092915050565b611362611f63565b600260003373ffffffffffffffffffffffffffffffffffffffff1673ffffffffffffffffffffffffffffffffffffffff16815260200190815260200160002060009054906101000a900460ff166113ee576040517f08c379a00000000000000000000000000000000000000000000000000000000081526004016113e590612f33565b60405180910390fd5b60008060009054906101000a900473ffffffffffffffffffffffffffffffffffffffff1673ffffffffffffffffffffffffffffffffffffffff16636386c1c7856040518263ffffffff1660e01b815260040161144a9190612807565b600060405180830381865afa158015611467573d6000803e3d6000fd5b505050506040513d6000823e3d601f19601f82011682018060405250810190611490919061309e565b505090508073ffffffffffffffffffffffffffffffffffffffff1663e1f21c678685856040518463ffffffff1660e01b81526004016114d1939291906131c4565b600060405180830381600087803b1580156114eb57600080fd5b505af11580156114ff573d6000803e3d6000fd5b505050505061150c611fba565b50505050565b6000801b81565b60608282905067ffffffffffffffff81111561153857611537612f6d565b5b60405190808252806020026020018201604052801561156b57816020015b60608152602001906001900390816115565790505b50905060005b838390508110156116a6576000803073ffffffffffffffffffffffffffffffffffffffff168686858181106115a9576115a86132a5565b5b90506020028101906115bb91906132e3565b6040516115c9929190613376565b600060405180830381855af49150503d8060008114611604576040519150601f19603f3d011682016040523d82523d6000602084013e611609565b606091505b5091509150816116785760448151101561162257600080fd5b6004810190508080602001905181019061163c919061338f565b6040517f08c379a000000000000000000000000000000000000000000000000000000000815260040161166f919061341c565b60405180910390fd5b8084848151811061168c5761168b6132a5565b5b602002602001018190525050508080600101915050611571565b5092915050565b60006116b76120d2565b905060008160000160089054906101000a900460ff1615905060008260000160009054906101000a900467ffffffffffffffff1690506000808267ffffffffffffffff161480156117055750825b9050600060018367ffffffffffffffff1614801561173a575060003073ffffffffffffffffffffffffffffffffffffffff163b145b905081158015611748575080155b1561177f576040517ff92ee8a900000000000000000000000000000000000000000000000000000000815260040160405180910390fd5b60018560000160006101000a81548167ffffffffffffffff021916908367ffffffffffffffff16021790555083156117cf5760018560000160086101000a81548160ff0219169083151502179055505b6117dc6000801b89611d58565b506118077f97667070c54ef182b0f5858b034beac1b6f3089aa2d3188bb1e8929f4fa9b92988611d58565b50856000806101000a81548173ffffffffffffffffffffffffffffffffffffffff021916908373ffffffffffffffffffffffffffffffffffffffff160217905550611851886120fa565b61185961210e565b611861612120565b83156118bd5760008560000160086101000a81548160ff0219169083151502179055507fc7f505b2f371ae2175ee4913f4499e1f2633a7b5936321eed1cdaeb6115181d260016040516118b49190613483565b60405180910390a15b5050505050505050565b6118cf611f63565b600260003373ffffffffffffffffffffffffffffffffffffffff1673ffffffffffffffffffffffffffffffffffffffff16815260200190815260200160002060009054906101000a900460ff1661195b576040517f08c379a000000000000000000000000000000000000000000000000000000000815260040161195290612f33565b60405180910390fd5b60008060009054906101000a900473ffffffffffffffffffffffffffffffffffffffff1673ffffffffffffffffffffffffffffffffffffffff16636386c1c7856040518263ffffffff1660e01b81526004016119b79190612807565b600060405180830381865afa1580156119d4573d6000803e3d6000fd5b505050506040513d6000823e3d601f19601f820116820180604052508101906119fd919061309e565b505090508073ffffffffffffffffffffffffffffffffffffffff1663f2522bcd84846040518363ffffffff1660e01b8152600401611a3c9291906134ad565b600060405180830381600087803b158015611a5657600080fd5b505af1158015611a6a573d6000803e3d6000fd5b5050505050611a77611fba565b505050565b611a858261089a565b611a8e81611d44565b611a988383611e61565b50505050565b60008060009054906101000a900473ffffffffffffffffffffffffffffffffffffffff1673ffffffffffffffffffffffffffffffffffffffff1663d986b77c836040518263ffffffff1660e01b8152600401611afa9190612807565b602060405180830381865afa158015611b17573d6000803e3d6000fd5b505050506040513d601f19601f82011682018060405250810190611b3b91906134d6565b9050919050565b60018181548110611b5257600080fd5b906000526020600020016000915054906101000a900473ffffffffffffffffffffffffffffffffffffffff1681565b611b89611c95565b600073ffffffffffffffffffffffffffffffffffffffff168173ffffffffffffffffffffffffffffffffffffffff1603611bfb5760006040517f1e4fbdf7000000000000000000000000000000000000000000000000000000008152600401611bf29190612807565b60405180910390fd5b611c0481611fd3565b50565b7f97667070c54ef182b0f5858b034beac1b6f3089aa2d3188bb1e8929f4fa9b92981565b60007f01ffc9a7000000000000000000000000000000000000000000000000000000007bffffffffffffffffffffffffffffffffffffffffffffffffffffffff1916827bffffffffffffffffffffffffffffffffffffffffffffffffffffffff1916149050919050565b611c9d611e59565b73ffffffffffffffffffffffffffffffffffffffff16611cbb6112a9565b73ffffffffffffffffffffffffffffffffffffffff1614611d1a57611cde611e59565b6040517f118cdaa7000000000000000000000000000000000000000000000000000000008152600401611d119190612807565b60405180910390fd5b565b60007f02dd7bc7dec4dceedda775e58dd541e08a116c6c53815c0bd028192f7b626800905090565b611d5581611d50611e59565b61212a565b50565b600080611d63611d1c565b9050611d6f84846112e1565b611e4d57600181600001600086815260200190815260200160002060000160008573ffffffffffffffffffffffffffffffffffffffff1673ffffffffffffffffffffffffffffffffffffffff16815260200190815260200160002060006101000a81548160ff021916908315150217905550611de9611e59565b73ffffffffffffffffffffffffffffffffffffffff168373ffffffffffffffffffffffffffffffffffffffff16857f2f8788117e7eff1d82e926ec794901d17c78024a50270940304540a733656f0d60405160405180910390a46001915050611e53565b60009150505b92915050565b600033905090565b600080611e6c611d1c565b9050611e7884846112e1565b15611f5757600081600001600086815260200190815260200160002060000160008573ffffffffffffffffffffffffffffffffffffffff1673ffffffffffffffffffffffffffffffffffffffff16815260200190815260200160002060006101000a81548160ff021916908315150217905550611ef3611e59565b73ffffffffffffffffffffffffffffffffffffffff168373ffffffffffffffffffffffffffffffffffffffff16857ff6391f5c32d9c69d2a47ea670b442974b53935d1edc7fd64eb21e047a839171b60405160405180910390a46001915050611f5d565b60009150505b92915050565b6000611f6d61217b565b90506002816000015403611fad576040517f3ee5aeb500000000000000000000000000000000000000000000000000000000815260040160405180910390fd5b6002816000018190555050565b6000611fc461217b565b90506001816000018190555050565b6000611fdd6120aa565b905060008160000160009054906101000a900473ffffffffffffffffffffffffffffffffffffffff169050828260000160006101000a81548173ffffffffffffffffffffffffffffffffffffffff021916908373ffffffffffffffffffffffffffffffffffffffff1602179055508273ffffffffffffffffffffffffffffffffffffffff168173ffffffffffffffffffffffffffffffffffffffff167f8be0079c531659141344cd1fd0a4f28419497f9722a3daafe3b4186f6b6457e060405160405180910390a3505050565b60007f9016d09d72d40fdae2fd8ceac6b6234c7706214fd39c1cd1e609a0528c199300905090565b60007ff0c57e16840df040f15088dc2f81fe391c3923bec73e23a9662efc9c229c6a00905090565b6121026121a3565b61210b816121e3565b50565b6121166121a3565b61211e612269565b565b6121286121a3565b565b61213482826112e1565b6121775780826040517fe2517d3f00000000000000000000000000000000000000000000000000000000815260040161216e929190613503565b60405180910390fd5b5050565b60007f9b779b17422d0df92223018b32b4d1fa46e071723d6817e2486d003becc55f00905090565b6121ab61228a565b6121e1576040517fd7e6bcf800000000000000000000000000000000000000000000000000000000815260040160405180910390fd5b565b6121eb6121a3565b600073ffffffffffffffffffffffffffffffffffffffff168173ffffffffffffffffffffffffffffffffffffffff160361225d5760006040517f1e4fbdf70000000000000000000000000000000000000000000000000000000081526004016122549190612807565b60405180910390fd5b61226681611fd3565b50565b6122716121a3565b600061227b61217b565b90506001816000018190555050565b60006122946120d2565b60000160089054906101000a900460ff16905090565b6000604051905090565b600080fd5b600080fd5b60007fffffffff0000000000000000000000000000000000000000000000000000000082169050919050565b6122f3816122be565b81146122fe57600080fd5b50565b600081359050612310816122ea565b92915050565b60006020828403121561232c5761232b6122b4565b5b600061233a84828501612301565b91505092915050565b60008115159050919050565b61235881612343565b82525050565b6000602082019050612373600083018461234f565b92915050565b600073ffffffffffffffffffffffffffffffffffffffff82169050919050565b60006123a482612379565b9050919050565b6123b481612399565b81146123bf57600080fd5b50565b6000813590506123d1816123ab565b92915050565b6123e081612343565b81146123eb57600080fd5b50565b6000813590506123fd816123d7565b92915050565b6000806040838503121561241a576124196122b4565b5b6000612428858286016123c2565b9250506020612439858286016123ee565b9150509250929050565b6000819050919050565b61245681612443565b811461246157600080fd5b50565b6000813590506124738161244d565b92915050565b60006020828403121561248f5761248e6122b4565b5b600061249d84828501612464565b91505092915050565b6124af81612443565b82525050565b60006020820190506124ca60008301846124a6565b92915050565b6000602082840312156124e6576124e56122b4565b5b60006124f4848285016123c2565b91505092915050565b600080fd5b600080fd5b600080fd5b60008083601f840112612522576125216124fd565b5b8235905067ffffffffffffffff81111561253f5761253e612502565b5b60208301915083600182028301111561255b5761255a612507565b5b9250929050565b600067ffffffffffffffff82169050919050565b61257f81612562565b811461258a57600080fd5b50565b60008135905061259c81612576565b92915050565b600080600080606085870312156125bc576125bb6122b4565b5b60006125ca878288016123c2565b945050602085013567ffffffffffffffff8111156125eb576125ea6122b9565b5b6125f78782880161250c565b9350935050604061260a8782880161258d565b91505092959194509250565b6000806040838503121561262d5761262c6122b4565b5b600061263b85828601612464565b925050602061264c858286016123c2565b9150509250929050565b6000819050919050565b61266981612656565b811461267457600080fd5b50565b60008135905061268681612660565b92915050565b60008083601f8401126126a2576126a16124fd565b5b8235905067ffffffffffffffff8111156126bf576126be612502565b5b6020830191508360018202830111156126db576126da612507565b5b9250929050565b600080600080600080600060c0888a031215612701576127006122b4565b5b600061270f8a828b016123c2565b97505060206127208a828b016123c2565b96505060406127318a828b016123c2565b95505060606127428a828b01612677565b94505060806127538a828b01612677565b93505060a088013567ffffffffffffffff811115612774576127736122b9565b5b6127808a828b0161268c565b925092505092959891949750929550565b600080600080608085870312156127ab576127aa6122b4565b5b60006127b9878288016123c2565b94505060206127ca878288016123c2565b93505060406127db878288016123c2565b92505060606127ec87828801612677565b91505092959194509250565b61280181612399565b82525050565b600060208201905061281c60008301846127f8565b92915050565b60008060008060008060a0878903121561283f5761283e6122b4565b5b600061284d89828a016123c2565b965050602061285e89828a016123c2565b955050604061286f89828a016123c2565b945050606061288089828a01612677565b935050608087013567ffffffffffffffff8111156128a1576128a06122b9565b5b6128ad89828a0161268c565b92509250509295509295509295565b6000806000806000608086880312156128d8576128d76122b4565b5b60006128e6888289016123c2565b95505060206128f7888289016123c2565b945050604086013567ffffffffffffffff811115612918576129176122b9565b5b6129248882890161250c565b935093505060606129378882890161258d565b9150509295509295909350565b60008083601f84011261295a576129596124fd565b5b8235905067ffffffffffffffff81111561297757612976612502565b5b60208301915083602082028301111561299357612992612507565b5b9250929050565b600080602083850312156129b1576129b06122b4565b5b600083013567ffffffffffffffff8111156129cf576129ce6122b9565b5b6129db85828601612944565b92509250509250929050565b600081519050919050565b600082825260208201905092915050565b6000819050602082019050919050565b600081519050919050565b600082825260208201905092915050565b60005b83811015612a4d578082015181840152602081019050612a32565b60008484015250505050565b6000601f19601f8301169050919050565b6000612a7582612a13565b612a7f8185612a1e565b9350612a8f818560208601612a2f565b612a9881612a59565b840191505092915050565b6000612aaf8383612a6a565b905092915050565b6000602082019050919050565b6000612acf826129e7565b612ad981856129f2565b935083602082028501612aeb85612a03565b8060005b85811015612b275784840389528151612b088582612aa3565b9450612b1383612ab7565b925060208a01995050600181019050612aef565b50829750879550505050505092915050565b60006020820190508181036000830152612b538184612ac4565b905092915050565b600080600060608486031215612b7457612b736122b4565b5b6000612b82868287016123c2565b9350506020612b93868287016123c2565b9250506040612ba4868287016123c2565b9150509250925092565b6000612bb982612379565b9050919050565b612bc981612bae565b8114612bd457600080fd5b50565b600081359050612be681612bc0565b92915050565b600080600060608486031215612c0557612c046122b4565b5b6000612c13868287016123c2565b9350506020612c2486828701612bd7565b9250506040612c3586828701612677565b9150509250925092565b600060208284031215612c5557612c546122b4565b5b6000612c6384828501612677565b91505092915050565b600082825260208201905092915050565b7f526f757465723a2067616d652072756c6520697320746865207a65726f20616460008201527f6472657373000000000000000000000000000000000000000000000000000000602082015250565b6000612cd9602583612c6c565b9150612ce482612c7d565b604082019050919050565b60006020820190508181036000830152612d0881612ccc565b9050919050565b7f526f757465723a2067616d652072756c6520697320616c726561647920636f6e60008201527f6669677572656400000000000000000000000000000000000000000000000000602082015250565b6000612d6b602783612c6c565b9150612d7682612d0f565b604082019050919050565b60006020820190508181036000830152612d9a81612d5e565b9050919050565b6000604082019050612db660008301856127f8565b612dc3602083018461234f565b9392505050565b7f526f757465723a2063616c6c6572206973206e6f7420746865206f706572617460008201527f6f72000000000000000000000000000000000000000000000000000000000000602082015250565b6000612e26602283612c6c565b9150612e3182612dca565b604082019050919050565b60006020820190508181036000830152612e5581612e19565b9050919050565b82818337600083830152505050565b6000612e778385612c6c565b9350612e84838584612e5c565b612e8d83612a59565b840190509392505050565b612ea181612562565b82525050565b6000606082019050612ebc60008301876127f8565b8181036020830152612ecf818587612e6b565b9050612ede6040830184612e98565b95945050505050565b7f526f757465723a2067616d652072756c65206e6f7420616c6c6f776564000000600082015250565b6000612f1d601d83612c6c565b9150612f2882612ee7565b602082019050919050565b60006020820190508181036000830152612f4c81612f10565b9050919050565b600081519050612f62816123ab565b92915050565b600080fd5b7f4e487b7100000000000000000000000000000000000000000000000000000000600052604160045260246000fd5b612fa582612a59565b810181811067ffffffffffffffff82111715612fc457612fc3612f6d565b5b80604052505050565b6000612fd76122aa565b9050612fe38282612f9c565b919050565b600067ffffffffffffffff82111561300357613002612f6d565b5b61300c82612a59565b9050602081019050919050565b600061302c61302784612fe8565b612fcd565b90508281526020810184848401111561304857613047612f68565b5b613053848285612a2f565b509392505050565b600082601f8301126130705761306f6124fd565b5b8151613080848260208601613019565b91505092915050565b60008151905061309881612576565b92915050565b6000806000606084860312156130b7576130b66122b4565b5b60006130c586828701612f53565b935050602084015167ffffffffffffffff8111156130e6576130e56122b9565b5b6130f28682870161305b565b925050604061310386828701613089565b9150509250925092565b61311681612656565b82525050565b600082825260208201905092915050565b6000613139838561311c565b9350613146838584612e5c565b61314f83612a59565b840190509392505050565b600060c08201905061316f600083018a6127f8565b61317c60208301896127f8565b61318960408301886127f8565b613196606083018761310d565b6131a3608083018661310d565b81810360a08301526131b681848661312d565b905098975050505050505050565b60006060820190506131d960008301866127f8565b6131e660208301856127f8565b6131f3604083018461310d565b949350505050565b600060a08201905061321060008301896127f8565b61321d60208301886127f8565b61322a60408301876127f8565b613237606083018661310d565b818103608083015261324a81848661312d565b9050979650505050505050565b600060808201905061326c60008301886127f8565b61327960208301876127f8565b818103604083015261328c818587612e6b565b905061329b6060830184612e98565b9695505050505050565b7f4e487b7100000000000000000000000000000000000000000000000000000000600052603260045260246000fd5b600080fd5b600080fd5b600080fd5b60008083356001602003843603038112613300576132ff6132d4565b5b80840192508235915067ffffffffffffffff821115613322576133216132d9565b5b60208301925060018202360383131561333e5761333d6132de565b5b509250929050565b600081905092915050565b600061335d8385613346565b935061336a838584612e5c565b82840190509392505050565b6000613383828486613351565b91508190509392505050565b6000602082840312156133a5576133a46122b4565b5b600082015167ffffffffffffffff8111156133c3576133c26122b9565b5b6133cf8482850161305b565b91505092915050565b600081519050919050565b60006133ee826133d8565b6133f88185612c6c565b9350613408818560208601612a2f565b61341181612a59565b840191505092915050565b6000602082019050818103600083015261343681846133e3565b905092915050565b6000819050919050565b6000819050919050565b600061346d6134686134638461343e565b613448565b612562565b9050919050565b61347d81613452565b82525050565b60006020820190506134986000830184613474565b92915050565b6134a781612bae565b82525050565b60006040820190506134c2600083018561349e565b6134cf602083018461310d565b9392505050565b6000602082840312156134ec576134eb6122b4565b5b60006134fa84828501612f53565b91505092915050565b600060408201905061351860008301856127f8565b61352560208301846124a6565b939250505056fea2646970667358221220b2bd2a56614e3f433e79241ca36181316c04649a97938fc07e1704c4266064e664736f6c63430008180033",
  "linkReferences": {},
  "deployedLinkReferences": {}
}